:1000000053C100007EC100007CC100007AC1000025
:1000100078C1000076C1000074C1000072C1000008
:1000200070C100000C948C0A0C94B90A0C94E60A76
:1000300068C1000066C1000064C1000062C1000028
:1000400060C100000C94F5095CC100005AC10000B9
:1000500058C1000056C1000054C100000C94D10DDD
:1000600050C100000C94C80F0C940C114AC1000040
:1000700048C1000046C1000044C1000042C1000068
:100080000C94C8093EC100003CC100003AC1000008
:100090000C9408100C944B1134C1000032C10000C4
:1000A00030C100002EC100000C949B092AC1000041
:1000B00028C1000026C1000024C100000C946E0974
:1000C00020C100001EC100001CC100000C9448109B
:1000D0000C948A1116C100000C9488100C94C9115C
:1000E00010C1000000C201000100110011000C004D
:1000F00000E100000A002500250021000096000014
:100100001900390039003600127A00001F0046003D
:10011000460044008070000022004D004D004A005F
:10012000004B00003600750075007200403800007A
:100130004A009C009C009900802500007200EC00A1
:10014000EC00E900C0120000E900DA01DA01D70191
:1001500060090000D701B603B603B303B004000082
:10016000B3036E076E076B07580200006E07DC0EC4
:10017000DC0ED80E2C010000DC0EC11DC11DBE1D01
:1001800000002100240027002A002D003000330049
:1001900001010000040107010A01000022002500FE
:1001A00028002B002E003100340002010000050160
:1001B00008010B01000020002300260029002C006C
:1001C0002F003200000100000301060109010505AE
:1001D0000505070508080808020202020A0A0808BD
:1001E00004040404010101010101010103030303EB
:1001F00003030303040707070C0C0C0C0C0C0C0C7A
:100200000202020206060606060606060B0B0B0B8A
:100210000B0B0B0B010210202008081020401020AF
:1002200040800201020108040201010204081020BA
:1002300040808040201008040201800402018040B8
:100240002010080402010804020101020408102021
:10025000408001020408102040800000090A0208C2
:100260000B0C0D0706030401000000000000000055
:10027000000000000000000000000000000000007E
:1002800000000000000011100F000000000000003E
:10029000000000000000000000000000000000005E
:1002A000820176053A13710511241FBECFEFD1E20A
:1002B000DEBFCDBF00E00CBF15E0A0E0B2E0EEE194
:1002C000FFE200E00BBF02C007900D92A039B1071A
:1002D000D9F71BBE19E0A0E9B5E001C01D92A0341A
:1002E000B107E1F712E0C6EAD2E004C02297FE01AE
:1002F0000E947F17C03AD107C9F70E9470140C946E
:1003000083177ECE80E995E0CCD384E995E0B5D51E
:1003100087E995E0B2C5AF92BF92CF92DF92EF929C
:10032000FF920F931F93CF93DF932BC388EB98E03B
:100330000E94A5165B016C0188EB98E00E94BF1239
:100340000A9741F088EB98E00E94BF128F5F9F4FA1
:1003500009F020C3ED2C1127E7FC1095F12E012F99
:1003600080E7E816F10401051105E1F5CC2DD0E098
:100370008501FE01EE0FFF1FE459FA4F0190F08155
:10038000E02DAE16BF0649F17E010894E11CF11C78
:100390005CE3C52ED12CCA0CDB1CAE16BF062CF4B8
:1003A00088EB98E060E072E004C088EB98E06BE0D6
:1003B00072E00E94E31588EB98E00E94E81280E961
:1003C00095E0B701A60126E930E0A0D4CC0FDD1FEF
:1003D000C459DA4F19830883D4C288EB98E066E1E8
:1003E00072E0DCC292E6E916F1040105110509F09C
:1003F00072C08C2D90E09C01E501892B01F5B7FCC2
:1004000052C088EB98E060E272E00E94E11588EB50
:1004100098E0B5014AE050E00E94B21588EB98E000
:100420006EE372E00E94E31588EB98E00E94E81208
:100430008CE061E00E94950F8DE060E022C02130E9
:10044000310589F5B7FC2FC088EB98E06DE472E0C8
:100450000E94E11588EB98E0B5014AE050E00E9467
:10046000B21588EB98E06EE372E00E94E31588EB2A
:1004700098E00E94E8128CE060E00E94950F8DE009
:1004800061E00E94950FBE01882777FD8095982F27
:100490000E94270E8CE060E00E94950F8DE060E0E6
:1004A0000E94950F76C188EB98E06FE672E00E949B
:1004B000E11588EB98E0BE014AE050E00E94B215D9
:1004C00088EB98E06EE372E00E94E31588EB98E019
:1004D0000E94E8125EC1A1E7EA16F10401051105C8
:1004E00009F053C08C2D90E09C01E501892BB9F4F3
:1004F0001A141B047CF5C630D10564F588EB98E02E
:1005000069E972E00E94E31588EB98E00E94E81226
:1005100085E061E00E94950F86E060E019C021301F
:100520003105C1F41A141B04ACF4C630D10594F49F
:1005300088EB98E069EA72E00E94E31588EB98E0A6
:100540000E94E81285E060E00E94950F86E061E07D
:100550000E94950F00E010E008C06CE271E080E0BE
:1005600090E00E94270E0F5F1F4F0C171D07ACF382
:1005700085E060E00E94950F86E060E00E94950FA4
:1005800068E572E080E090E008C1B2E7EB16F104A4
:100590000105110529F488EB98E06BEB72E0FEC1D0
:1005A00025E7E216F1040105110561F488EB98E0F6
:1005B0006AED72E00E94E31588EB98E00E94E81271
:1005C00084E011C087E7E816F1040105110569F41C
:1005D00088EB98E063E073E00E94E31588EB98E015
:1005E0000E94E81287E060E024C096E7E916F10473
:1005F0000105110561F488EB98E06CE273E00E945C
:10060000E31588EB98E00E94E81284E011C0A8E7A7
:10061000EA16F1040105110579F488EB98E065E527
:1006200073E00E94E31588EB98E00E94E81287E0EF
:1006300061E00E94950FA5C1B9E7EB16F104010531
:10064000110579F488EB98E06EE773E00E94E315FA
:1006500088EB98E00E94E81284E995E06CE370E092
:1006600097C02AE7E216F1040105110559F488EB59
:1006700098E066E973E00E94E31588EB98E00E9439
:10068000E81258C080E6E816F1040105110539F5B5
:1006900088EB98E060EB73E00E94E115E501AB2880
:1006A00011F4C0E9D1E088EB98E0BE014AE050E0E7
:1006B0000E94B21588EB98E06EE372E00E94E315A9
:1006C00088EB98E00E94E81284E995E06CE370E022
:1006D0002AD4BE01882777FD8095982F29C091E6FE
:1006E000E916F1040105110551F588EB98E063ED79
:1006F00073E00E94E115750188EB98E0B5014AE0CE
:1007000050E00E94B21588EB98E06EE372E00E9420
:10071000E31588EB98E00E94E81284E995E06CE329
:1007200070E001D40027F7FC0095102FC801B70135
:100730000E94270E84E995E060E570E029C0A3E7F8
:10074000EA16F1040105110579F488EB98E065EFEC
:1007500073E00E94E31588EB98E00E94E81287E9B5
:1007600095E062E570E014C0B4E7EB16F104010512
:100770001105B1F488EB98E06BE074E00E94E3159A
:1007800088EB98E00E94E81287E995E060E770E066
:10079000CAD36FE070E080E090E00E94270EF1C0C5
:1007A0002BE7E216F1040105110529F488EB98E026
:1007B00062E274E0F3C08CE7E816F104010511056C
:1007C00011F5A114B10461F488EB98E06AE54AE000
:1007D00050E00E94511588EB98E00E94A714CDC00C
:1007E00088EB98E065E374E00E94E1158FEF9FEFDE
:1007F000A0E0B0E0A822B922CA22DB2288EB98E070
:10080000B601A501B6C093E6E916F104010511058C
:1008100009F043C08501AB2859F488EB98E068E4FF
:1008200074E00E94E11588EB98E060E070E08DC014
:100830000130110529F488EB98E062E574E0AEC060
:100840000230110529F488EB98E061E774E0A6C056
:100850000330110529F488EB98E065E974E09EC047
:100860000430110529F488EB98E062EB74E096C03F
:100870000530110529F488EB98E06EEC74E08EC029
:100880000630110529F488EB98E06EEE74E086C01E
:1008900088EB98E065E374E053C0ADE7EA16F10435
:1008A0000105110511F5C50101973FEFE32E3FEF5B
:1008B000F32E012D112DEA20FB200C211D21029782
:1008C00008F048C088EB98E061E075E00E94E1150F
:1008D00088EB98E0B801A7012AE030E00E94621599
:1008E00080E995E0B50107D126C0BEE7EB16F1041B
:1008F00001051105A1F5C50101972FEFE22E2FEF9C
:10090000F22E012D112DEA20FB200C211D21029732
:1009100008F588EB98E064E275E00E94E11588EB49
:1009200098E0B801A7012AE030E00E94621580E952
:1009300095E0B50166D18C0188EB98E06EE175E039
:100940000E94E11588EB98E0B8014AE050E00E946F
:10095000C41513C088EB98E065E374E004C088EB2D
:1009600098E061E475E00E94E11588EB98E0B80139
:10097000A7012AE030E00E94A01588EB98E00E94D1
:10098000E81288EB98E00E948E12181619060CF4F3
:10099000CDCC07C088EB98E063E575E00E94E315D5
:1009A000ECCFDF91CF911F910F91FF90EF90DF90EF
:1009B000CF90BF90AF90089580E995E040E05BE470
:1009C00060E070E057D280E995E061E070E046E9D0
:1009D00050E026E930E09AD16AE070E080E090E0F3
:1009E0000E94270E80E995E062E070E046E950E061
:1009F00026E930E08BD184E995E069E070E0A9D385
:100A000084E995E060E570E08ED287E995E06AE0E0
:100A100070E09FD387E995E060E770E084D288EBCF
:100A200098E040E855E260E070E00E94081288EB30
:100A300098E00E9438138823D1F388EB98E00E9455
:100A4000E81285E061E00E94E20E86E061E00E942B
:100A5000E20E85E060E00E94950F86E060E00E9473
:100A6000950F84E061E00E94E20E87E061E00E9461
:100A7000E20E84E060E00E94950F87E060E00E9453
:100A8000950F8CE061E00E94E20E8DE061E00E9433
:100A9000E20E8CE060E00E94950F8DE060E00C9427
:100AA000950FFC0186E990E09183808380EF90E0D0
:100AB0009383828308958130910551F46F5F7F4F56
:100AC00079F48AE995E062E043E020E00C94A50D1A
:100AD000892B31F46F5F7F4F19F48AE995E0C2C624
:100AE000089580E090E06FEF7FEFE5CF81E090E048
:100AF0006FEF7FEFE0CFAF92BF92CF92DF92EF9296
:100B0000FF920F931F93DF93CF93CDB7DEB7A897D4
:100B10000FB6F894DEBF0FBECDBF162F8AE995E061
:100B20006FEFE2D68AE995E06FEFDED68AE995E0CD
:100B3000612FDAD68AE995E064E0D6D68AE995E0B5
:100B400062E0D2D68AE995E066E2CED68AE995E0FF
:100B500062E0CAD6125D10958AE995E0612FC4D68D
:100B60006AE070E080E090E00E94270E8E010F5F47
:100B70001F4F07C08AE995E07CD6F80181939193D5
:100B80008F018AE995E096D6892BA1F700D00F92C4
:100B90007D8560E02B853C85620F731F882777FD7C
:100BA0008095982F2CE231E040E050E0EDB7FEB7A1
:100BB000218332834383548320E030E040E050E0DF
:100BC000BFEFEB2EB3E0FB2E012D112DAA24BB2489
:100BD00065010E94A7160F900F900F900F90CB0108
:100BE000A8960FB6F894DEBF0FBECDBFCF91DF91B0
:100BF0001F910F91FF90EF90DF90CF90BF90AF903B
:100C00000895AF92BF92CF92DF92EF92FF920F932F
:100C10001F93DF93CF93CDB7DEB7A8970FB6F894A5
:100C2000DEBF0FBECDBF162F8AE995E06FEF5CD611
:100C30008AE995E06FEF58D68AE995E0612F54D69E
:100C40008AE995E064E050D68AE995E062E04CD606
:100C50008AE995E064E248D68AE995E062E044D604
:100C6000145D10958AE995E0612F3ED66AE070E048
:100C700080E090E0ECD78E010F5F1F4F07C08AE93C
:100C800095E0F7D5F801819391938F018AE995E07A
:100C900011D6892BA1F700D00F927D8560E02B85BE
:100CA0003C85620F731F882777FD8095982F2CE273
:100CB00031E040E050E0EDB7FEB72183328343835B
:100CC000548320E030E040E050E01FEFE12E13E0DD
:100CD000F12E012D112DAA24BB2465010E94A71617
:100CE0000F900F900F900F90CB01A8960FB6F8942D
:100CF000DEBF0FBECDBFCF91DF911F910F91FF904F
:100D0000EF90DF90CF90BF90AF9008952F923F92D9
:100D10004F925F926F927F928F929F92AF92BF920B
:100D2000CF92DF92EF92FF920F931F93DF93CF93B7
:100D300000D00F920F92CDB7DEB76B833A0100D08F
:100D40000F92442737FD4095542FFFEF2F2EF3E0ED
:100D50003F2E412C512CEDB7FEB7218232824382C7
:100D60005482CA01B90120E030E040E050E0ECE2FA
:100D7000EE2EE1E0FE2E012D112DAA24BB246501EB
:100D80000E94A7166C837D8369837A83882477FC0D
:100D90008094982CEDB7FEB7218232824382548230
:100DA000C401B30120E030E040E050E00E94A7160B
:100DB000162F072F78010F900F900F900F908AE950
:100DC00095E06FEF91D58AE995E06FEF8DD58AE9CF
:100DD00095E06B8189D58AE995E067E085D58AE958
:100DE00095E063E081D58AE995E06EE17DD58AE9F9
:100DF00095E0612F79D58AE995E0602F75D58AE96C
:100E000095E06C8171D58AE995E06D816DD5FB81A6
:100E1000F85DFF0D8981F80FFE0D9A81F90FF095AD
:100E20008AE995E06F2F60D56AE070E080E090E09D
:100E30000ED703C08AE995E01CD58AE995E03AD53A
:100E4000892BC1F70F900F900F900F900F90CF91BB
:100E5000DF911F910F91FF90EF90DF90CF90BF90A7
:100E6000AF909F908F907F906F905F904F903F904A
:100E70002F9008958AE995E0D6C3FC018091B605CC
:100E8000803390F480838F5F8093B605815090E02B
:100E9000FC01EE0FFF1FE80FF91FE954FA4F88EB32
:100EA0009BE09283818308958FEF80830895FC01F6
:100EB00020812033B8F58181992787FD909548E8F6
:100EC00050E0481B590B440F551F440F551F641722
:100ED000750784F08281992787FD909548E552E057
:100EE000481B590B440F551F440F551F64177507B6
:100EF0000CF4AB0142505040CA01AA2797FDA095BF
:100F0000BA2F880F991FAA1FBB1F4FB7F89430E064
:100F1000F901EE0FFF1FE20FF31FE954FA4F92831E
:100F200081834FBF0895AF92BF92CF92DF92EF922D
:100F3000FF920F931F93CF93DF93EC019B0182E00D
:100F4000603278070CF048C077FF03C020E030E043
:100F500005C0653B710514F024EB30E000D00F9222
:100F6000B901882777FD8095982F2981332727FDA0
:100F70003095E8E8AE2EB12CA21AB30AAA0CBB1C1D
:100F8000AA0CBB1CCC24B7FCC094DC2CEA81FF2744
:100F9000E7FDF09528E532E02E1B3F0B220F331FB3
:100FA000220F331F442737FD4095542FEDB7FEB76E
:100FB000218332834383548320E030E040E050E0DB
:100FC00004EBE02EF12C012D112D0E94A7169B01A0
:100FD0000F900F900F900F90CE01B90168DFDF9155
:100FE000CF911F910F91FF90EF90DF90CF90BF9026
:100FF000AF900895CF92DF92EF92FF921F93CF931D
:10100000DF93EC01162F7A0169018881803308F0A3
:1010100092C0862F61E0D6D6888190E0FC01EE0F69
:10102000FF1FE80FF91FE954FA4F1F738081807C7E
:10103000812B808380E292E08E199F0964E070E04A
:101040000E941917698380E699E08C199D0964E074
:1010500070E00E9419176A83A8818A2F6CE00E94B1
:101060000D17682F70E0AB01440F551F460F571F37
:10107000440F551F440F551F20E030E0C901840F75
:10108000951FFC01EE0FFF1FE80FF91FE954FA4FFF
:10109000808186FD44C02F5F3F4F2C30310571F7B2
:1010A00053C01092800082E08093810010928500EE
:1010B00010928400B19A80916F00826080936F00DB
:1010C0002EC06230710569F41092900082E0809326
:1010D0009100109295001092940088BB809371004B
:1010E0001EC06330710569F41092A00082E0809305
:1010F000A1001092A5001092A40089BB80937200F9
:101100000EC0672B61F41092200182E080932101D0
:1011100010922501109224018ABB809373008A2FBC
:1011200090E0FC01EE0FFF1FE80FF91FE954FA4FA2
:101130008081806480838881DF91CF911F91FF90AF
:10114000EF90DF90CF9008956130710509F0B9CF2D
:10115000A8CF40E252E020E639E04CCFEF92FF9278
:101160000F931F93CF93DF938B017A01EC01DC0186
:10117000A95BB94F8C9187FF04C0FB0111821082DB
:1011800036C0AE01440F551F4C0F5D1F440F551F55
:10119000440F551F2C91332727FD3095240F351F01
:1011A0008091B60590E0281739070CF58C919927A6
:1011B00087FD9095840F951FFC01EE0FFF1FE80F30
:1011C000F91FE954FA4F808186FF11C08C9199274D
:1011D00087FD9095840F951FFC01EE0FFF1FE80F10
:1011E000F91FE954FA4F80818F7360E09ED6DE01CB
:1011F000A95BB94F8C918F5F8C93AE01440F551F43
:101200004C0F5D1F440F551F440F551F2C91332762
:1012100027FD3095240F351F8091B60590E02817E3
:1012200039070CF04CC08C918C300CF048C0F801A0
:10123000208131818C91992787FD9095840F951F8E
:10124000FC01EE0FFF1FE80FF91FE954FA4F8181EF
:101250009281280F391FF701318320838C919927C0
:1012600087FD9095840F951FFC01EE0FFF1FE80F7F
:10127000F91FE954FA4F808186FF29C08C91992784
:1012800087FD9095840F951FFC01EE0FFF1FE80F5F
:10129000F91FE954FA4F80818F7361E046D617C079
:1012A00080E49CE904C0F801808191810496F701F3
:1012B00091838083C95BD94F8FEF888308C0F80181
:1012C00080819181049680549C4950F3ECCFDF914A
:1012D000CF911F910F91FF90EF9008951F920F9261
:1012E0000FB60F920BB60F9211242F933F934F938B
:1012F0005F936F937F938F939F93AF93BF93EF937E
:10130000FF9380E090E064E271E048E251E026DF84
:10131000FF91EF91BF91AF919F918F917F916F91CD
:101320005F914F913F912F910F900BBE0F900FBE89
:101330000F901F9018951F920F920FB60F920BB639
:101340000F9211242F933F934F935F936F937F934B
:101350008F939F93AF93BF93EF93FF9383E090E0BE
:1013600064EA70E048EA50E0F9DEFF91EF91BF9146
:10137000AF919F918F917F916F915F914F913F912D
:101380002F910F900BBE0F900FBE0F901F901895CE
:101390001F920F920FB60F920BB60F9211242F933C
:1013A0003F934F935F936F937F938F939F93AF93ED
:1013B000BF93EF93FF9382E090E064E970E048E927
:1013C00050E0CCDEFF91EF91BF91AF919F918F9153
:1013D0007F916F915F914F913F912F910F900BBE35
:1013E0000F900FBE0F901F9018951F920F920FB67F
:1013F0000F920BB60F9211242F933F934F935F934D
:101400006F937F938F939F93AF93BF93EF93FF93CC
:1014100081E090E064E870E048E850E09FDEFF91F2
:10142000EF91BF91AF919F918F917F916F915F915C
:101430004F913F912F910F900BBE0F900FBE0F90C9
:101440001F9018950F931F93CF93DF93FC01738D1B
:1014500076957170A685B7859585772329F08C914F
:10146000892309F454C004C08C91892309F04FC02A
:101470008389948920E001972FEF8F3F9207D9F756
:10148000C589D689A685B785158560E031E040E03D
:1014900050E000E0CE01202F01972FEF8F3F920701
:1014A000D9F78C91812311F0632B03C0832F809592
:1014B0006823330F4F5F5F4F4830510559F78789D5
:1014C000908D20E001972FEF8F3F9207D9F7711190
:1014D000609580918D0620918E0690E001968F7325
:1014E000907030E08217930779F0E0918D06F0E07C
:1014F000E35BF94F608380918D0690E001968F73D6
:10150000907080938D0603C0838D8160838FDF91FF
:10151000CF911F910F9108951F920F920FB60F92C6
:101520000BB60F9211242F933F934F935F936F93BA
:101530007F938F939F93AF93BF93EF93FF9380918C
:101540004B0690914C06009709F07CDFFF91EF91DC
:10155000BF91AF919F918F917F916F915F914F91CB
:101560003F912F910F900BBE0F900FBE0F901F90C9
:1015700018951F920F920FB60F920BB60F9211246F
:101580002F933F934F935F936F937F938F939F938B
:10159000AF93BF93EF93FF9380914B0690914C06CE
:1015A000009709F04FDFFF91EF91BF91AF919F91AD
:1015B0008F917F916F915F914F913F912F910F90FC
:1015C0000BBE0F900FBE0F901F9018951F920F9299
:1015D0000FB60F920BB60F9211242F933F934F9398
:1015E0005F936F937F938F939F93AF93BF93EF938B
:1015F000FF9380914B0690914C06009709F022DFF3
:10160000FF91EF91BF91AF919F918F917F916F91DA
:101610005F914F913F912F910F900BBE0F900FBE96
:101620000F901F901895CF92DF92EF92FF920F9339
:101630001F93CF93DF93EC017A018B011A8E198EE1
:10164000188E1F8A1E8A1D8A1C8A1B8A20E030E0A1
:101650006901CC0CDD1CC20ED31EB601660F771FCC
:10166000660F771FAB014C515F4FFA018591959141
:10167000A591B4918E159F05A007B107E9F4FB0170
:10168000E851FF4F859194919C8B8B8BFB01E65128
:10169000FF4F859194919E8B8D8BFB01E451FF4F01
:1016A00085919491988F8F8BFB01E251FF4F85912B
:1016B00094919A8F898F06C02F5F3F4F2D3031054F
:1016C00009F0C6CF8F89988D892B09F468C09C8555
:1016D000292F2A50243040F0892F8253843020F063
:1016E0008C50883008F053C030916800243048F0A6
:1016F000892F8253843028F09E53983010F484E070
:1017000001C081E0832B809368002C85922F9A5032
:10171000943090F0822F8253843070F08C50883057
:1017200008F455C0A0E0B0E0883018F0E0E0F0E048
:1017300007C0EDE6F0E004C0EBE6F0E0ABE6B0E0B9
:101740004081943020F430E02650304015C02233E0
:1017500011F488E01AC0233311F484E016C0243356
:1017600011F482E012C0253379F0822F8E53883035
:1017700058F430E02E53304081E090E002C0880FF2
:10178000991F2A95E2F701C081E0842B8C93898D03
:101790009A8D20E001972FEF8F3F9207D9F7809124
:1017A0004B0690914C068C179D07A1F08B8D8E7F78
:1017B0008B8F9FB7F89410928D0680918D06809341
:1017C0008E06D0934C06C0934B069FBF03C0ADE678
:1017D000B0E0AACFDF91CF911F910F91FF90EF90D2
:1017E000DF90CF900895FC012485922F9A50943079
:1017F00060F0822F8253843040F08C50883088F51E
:10180000EDE6F0E0ADE6B0E004C0EBE6F0E0ABE61C
:10181000B0E04081943020F430E02650304015C0D4
:10182000223311F487EF1BC0233311F48BEF17C061
:10183000243311F48DEF13C0253381F0822F8E53A2
:10184000883060F430E02E53304081E090E002C0F8
:10185000880F991F2A95E2F7809501C08EEF8423A7
:101860008C930895FC0184E795E091838083CF01F8
:10187000BACF20914B0630914C062817390731F426
:1018800090918E0680918D06981719F42FEF3FEFF7
:101890000FC0E0918E06F0E0E35BF94F208180916C
:1018A0008E0690E001968F73907080938E0630E0E4
:1018B000C901089520914B0630914C06281739072D
:1018C00019F020E030E00EC080918D0620918E0648
:1018D00090E0805C9F4F821B910960E470E00E9461
:1018E00019179C01C90108950F931F93DC015996A4
:1018F0008D919C915A97892B49F481E090E0139641
:101900009C938E93129720E030E097C00FB7F89425
:101910005B968C915B975196ED91FC915297509606
:101920002C91509781FF8DC08081822B80835996A6
:101930008D919C915A97059620E001972FEF8F3F4C
:101940009207D9F75B968C915B9781FF35C031E0A8
:1019500040E050E070E010E0832F90E08623972372
:101960005196ED91FC91529750962C915097892B5E
:1019700029F0808120952823208303C08081822B39
:10198000808359968D919C915A97212F01972FEF23
:101990008F3F9207D9F7330F4F5F5F4F48305105A4
:1019A000D9F65196ED91FC915297908150968C9179
:1019B00050978095892333C031E040E050E070E0DB
:1019C00010E0832F90E0862397235196ED91FC91B0
:1019D000529750962C915097892B21F08081822B21
:1019E000808304C0808120952823208359968D917F
:1019F0009C915A97212F01972FEF8F3F9207D9F78C
:101A0000330F4F5F5F4F48305105D9F65196ED9136
:101A1000FC915297808150969C915097892B80839E
:101A20000FBF59968D919C915A9720E001972FEF07
:101A30008F3F9207D9F721E030E0C9011F910F9144
:101A40000895808120952823208371CF20914B0613
:101A500030914C062817390749F49FB7F894109233
:101A60008D0680918D0680938E069FBF08952091EC
:101A70004B0630914C062817390731F490918E06A9
:101A800080918D06981719F42FEF3FEF0AC0E0916F
:101A90008E06F0E0E35BF94F8081282F332727FD86
:101AA0003095C90108951F93CF93DF93EC01162F52
:101AB000862F60E087D18B8D81FD03C0812F61E08F
:101AC00034D21C87212F30E0C9018C5E9D4FFC0170
:101AD00084918D8722533E4FF9016491E62FF0E007
:101AE000EE0FFF1FEC54FE4F859194919F878E87D8
:101AF000DF91CF911F910895FF920F931F938C0157
:101B0000F62E862F61E05ED18F2D61E00ED28F2DF3
:101B100090E0FC01EC5EFD4FE491D8015096EC930F
:101B2000509782539E4FFC016491E62FF0E0EE0F38
:101B3000FF1FE656FE4F8591949152969C938E938B
:101B400051971F910F91FF900895FF920F931F934C
:101B50008C01F62EFC011382128288EE93E0A0E045
:101B6000B0E084839583A683B78384E795E091836F
:101B70008083148A138A168A158A108E178A128E09
:101B8000118E838D2170220F8C7F822B838FC80151
:101B9000642FB2DFC8016F2D86DF1F910F91FF9078
:101BA00008951F920F920FB60F9211242F933F9317
:101BB0008F939F93AF93BF938091930690919406D8
:101BC000A0919506B0919606309197060196A11DB9
:101BD000B11D232F2D5F2D3720F02D570196A11D0C
:101BE000B11D209397068093930690939406A0933B
:101BF0009506B093960680918F0690919006A091DD
:101C00009106B09192060196A11DB11D80938F0699
:101C100090939006A0939106B0939206BF91AF91D6
:101C20009F918F913F912F910F900FBE0F901F901A
:101C300018958FB7F89420919306309194064091AF
:101C40009506509196068FBFB901CA0108959B0170
:101C5000AC017FB7F89480918F0690919006A09187
:101C60009106B091920666B5A89B05C06F3F19F02A
:101C70000196A11DB11D7FBFBA2FA92F982F8827CC
:101C8000860F911DA11DB11D62E0880F991FAA1F2B
:101C9000BB1F6A95D1F7BC012DC0FFB7F8948091A6
:101CA0008F0690919006A0919106B0919206E6B5AC
:101CB000A89B05C0EF3F19F00196A11DB11DFFBF04
:101CC000BA2FA92F982F88278E0F911DA11DB11D06
:101CD000E2E0880F991FAA1FBB1FEA95D1F7861B68
:101CE000970B885E9340C8F22150304040405040EE
:101CF00068517C4F211531054105510571F6089554
:101D0000789484B5826084BD84B5816084BD85B5D6
:101D1000826085BD85B5816085BDEEE6F0E080819D
:101D200081608083E1E8F0E01082808182608083BE
:101D3000808181608083E0E8F0E080818160808341
:101D4000E1EBF0E0808184608083E0EBF0E0808173
:101D500081608083E1E9F0E080818260808380811E
:101D600081608083E0E9F0E0808181608083E1EA46
:101D7000F0E0808182608083808181608083E0EAFE
:101D8000F0E0808181608083E1E2F1E08081826027
:101D90008083808181608083E0E2F1E080818160E6
:101DA0008083EAE7F0E080818460808380818260C4
:101DB00080838081816080838081806880831092AD
:101DC000C1000895CF93DF93482F50E0CA018C5E85
:101DD0009D4FFC01349142535E4FFA018491882358
:101DE00069F190E0880F991FFC01E058FE4FA59122
:101DF000B491FC01E656FE4FC591D491662351F48F
:101E00002FB7F8948C91932F909589238C93888188
:101E100089230BC0623061F42FB7F8948C91932F13
:101E2000909589238C938881832B88832FBF06C04C
:101E30009FB7F8948C91832B8C939FBFDF91CF91A8
:101E40000895893009F449C08A30A0F4843051F1F2
:101E5000853040F4823079F1833000F5813009F02B
:101E600063C026C0873079F1883098F5863009F054
:101E70005BC025C08D3009F442C08E3028F48B3011
:101E8000B1F18C30C0F52DC0803109F442C08131F0
:101E900009F445C08F3009F047C037C080918000F9
:101EA0008F7703C0809180008F7D8093800008959C
:101EB00084B58F7702C084B58F7D84BD08958091ED
:101EC000B0008F7703C08091B0008F7D8093B00009
:101ED0000895809190008F7707C0809190008F7D4A
:101EE00003C080919000877F809390000895809137
:101EF000A0008F7707C08091A0008F7D03C08091E4
:101F0000A000877F8093A0000895809120018F77A3
:101F100003C0809120018F7D8093200108958091DE
:101F20002001877F809320010895FF920F931F93D4
:101F3000F62E482F50E0CA01865A9D4FFC0124918D
:101F4000CA018C5E9D4FFC01149142535E4FFA0111
:101F500004910023C1F0222311F0822F72DFE02FC1
:101F6000F0E0EE0FFF1FE656FE4FA591B4919FB72C
:101F7000F894FF2021F48C911095812302C08C915C
:101F8000812B8C939FBF1F910F91FF90089508950F
:101F90001F920F920FB60F920BB60F9211242F9330
:101FA0003F934F938F939F93EF93FF938091C00044
:101FB00082FD1DC04091C6002091D8063091D906FF
:101FC0002F5F3F4F2F7330708091DA069091DB06C0
:101FD0002817390771F0E091D806F091D906E85634
:101FE000F94F40833093D9062093D80602C08091E0
:101FF000C600FF91EF919F918F914F913F912F914B
:102000000F900BBE0F900FBE0F901F901895089564
:102010001F920F920FB60F920BB60F9211242F93AF
:102020003F934F938F939F93EF93FF938091C800BB
:1020300082FD1DC04091CE00209160073091610764
:102040002F5F3F4F2F73307080916207909163072D
:102050002817390771F0E0916007F0916107E05EA1
:10206000F84F4083309361072093600702C080914E
:10207000CE00FF91EF919F918F914F913F912F91C2
:102080000F900BBE0F900FBE0F901F9018950895E4
:102090001F920F920FB60F920BB60F9211242F932F
:1020A0003F934F938F939F93EF93FF938091D00033
:1020B00082FD1DC04091D6002091E8073091E907CC
:1020C0002F5F3F4F2F7330708091EA079091EB079D
:1020D0002817390771F0E091E807F091E907E85512
:1020E000F84F40833093E9072093E80702C08091BE
:1020F000D600FF91EF919F918F914F913F912F913A
:102100000F900BBE0F900FBE0F901F901895089563
:102110001F920F920FB60F920BB60F9211242F93AE
:102120003F934F938F939F93EF93FF938091300151
:1021300082FD1DC0409136012091700830917108D8
:102140002F5F3F4F2F73307080917208909173080A
:102150002817390771F0E0917008F0917108E05D7F
:10216000F74F4083309371082093700802C080912C
:102170003601FF91EF919F918F914F913F912F9158
:102180000F900BBE0F900FBE0F901F901895E0910F
:10219000C408F091C508E05CFF4F819191912081C6
:1021A0003181821B930B8F739070892B09F0EFDEC6
:1021B000E091E608F091E708E05CFF4F8191919192
:1021C00020813181821B930B8F739070892B09F0D2
:1021D0001EDFE0910809F0910909E05CFF4F819151
:1021E000919120813181821B930B8F739070892B89
:1021F00009F04DDFE0912A09F0912B09E05CFF4FD7
:102200008191919120813181821B930B8F7390700A
:10221000892B09F07CCF08951F920F920FB60F9271
:102220000BB60F9211242F933F938F939F93EF93AD
:10223000FF9320911C0730911D0780911E079091FC
:102240001F072817390731F48091C1008F7D8093D3
:10225000C10014C0E0911E07F0911F07E452F94F2E
:10226000208180911E0790911F0701968F739070B7
:1022700090931F0780931E072093C600FF91EF9154
:102280009F918F913F912F910F900BBE0F900FBE9A
:102290000F901F9018951F920F920FB60F920BB6CA
:1022A0000F9211242F933F938F939F93EF93FF935C
:1022B0002091A4073091A5078091A6079091A707C8
:1022C0002817390731F48091C9008F7D8093C900A8
:1022D00014C0E091A607F091A707EC59F84F2081B0
:1022E0008091A6079091A70701968F7390709093A5
:1022F000A7078093A6072093CE00FF91EF919F91AF
:102300008F913F912F910F900BBE0F900FBE0F90AA
:102310001F9018951F920F920FB60F920BB60F9247
:1023200011242F933F938F939F93EF93FF932091CB
:102330002C0830912D0880912E0890912F08281795
:10234000390731F48091D1008F7D8093D10014C082
:10235000E0912E08F0912F08E451F84F20818091F0
:102360002E0890912F0801968F73907090932F08EC
:1023700080932E082093D600FF91EF919F918F912B
:102380003F912F910F900BBE0F900FBE0F901F909B
:1023900018951F920F920FB60F920BB60F92112441
:1023A0002F933F938F939F93EF93FF932091B408C4
:1023B0003091B5088091B6089091B7082817390771
:1023C00031F4809131018F7D8093310114C0E0910F
:1023D000B608F091B708EC58F74F20818091B60805
:1023E0009091B70801968F7390709093B70880937F
:1023F000B60820933601FF91EF919F918F913F9105
:102400002F910F900BBE0F900FBE0F901F9018953D
:10241000AF92BF92DF92EF92FF920F931F93CF93F1
:10242000DF93EC017A018B01DD24403081EE580707
:1024300080E0680780E0780711F0DD24D39491E014
:10244000A92EB12CEC89FD89DD2069F0C50108A019
:1024500002C0880F991F0A94E2F7808360E079E058
:102460008DE390E005C0108260E874E88EE190E0B2
:10247000A8019701F1D4215030404040504056957A
:1024800047953795279580E12030380720F0DD20EB
:1024900011F0DD24D7CFE889F9893083EA89FB89F7
:1024A000208319A2EE89FF89408121E030E0C90133
:1024B0000C8C02C0880F991F0A94E2F7482B4083C6
:1024C000EE89FF894081C9010D8C02C0880F991FD8
:1024D0000A94E2F7482B4083EE89FF894081C901C5
:1024E0000E8C02C0880F991F0A94E2F7482B408394
:1024F000EE89FF8980810F8C02C0220F331F0A945E
:10250000E2F7209528232083DF91CF911F910F912F
:10251000FF90EF90DF90BF90AF900895DC011C9684
:10252000ED91FC911D97E05CFF4F219131918081ED
:102530009181281B390B2F733070C9010895DC017C
:102540001C96ED91FC911D97E05CFF4F208131813D
:10255000E054F040DF01AE5BBF4F8D919C9111972D
:102560002817390719F42FEF3FEF07C08D919C9181
:10257000E80FF91F8081282F30E0C9010895DC01A0
:102580001C96ED91FC911D97E05CFF4F20813181FD
:10259000E054F040DF01AE5BBF4F8D919C911197ED
:1025A0002817390719F42FEF3FEF10C08D919C9138
:1025B0001197E80FF91F20818D919C911197019639
:1025C0008F73907011969C938E9330E0C90108959B
:1025D000DC0191968C919197882339F05496ED9176
:1025E000FC915597808186FFF9CF91961C920895B2
:1025F000CF93DF93EC01EE85FF85E05CFF4F2081F8
:102600003181E054F0402F5F3F4F2F733070DF0176
:10261000AE5BBF4F8D919C91119728173907D1F36D
:10262000E05CFF4F80819181E054F040E80FF91F9A
:102630006083EE85FF85E05CFF4F31832083EE8968
:10264000FF89208181E090E00F8C02C0880F991FE4
:102650000A94E2F7282B208381E089A3EC89FD8985
:1026600080818064808381E090E0DF91CF91089544
:1026700081E008951F931092BB081092BA0828EECB
:1026800033E040E050E02093BC083093BD08409315
:10269000BE085093BF0864E875E07093B908609372
:1026A000B80888E996E09093C5088093C4088CED3B
:1026B00096E09093C7088093C60885EC90E09093CD
:1026C000C9088093C80884EC90E09093CB0880936D
:1026D000CA0880EC90E09093CD088093CC0881EC00
:1026E00090E09093CF088093CE0882EC90E0909396
:1026F000D1088093D00886EC90E09093D308809323
:10270000D20814E01093D408B3E0B093D508A7E042
:10271000A093D608F5E0F093D708E1E0E093D8085D
:102720001092DD081092DC082093DE083093DF0859
:102730004093E0085093E1087093DB086093DA0857
:1027400080E297E09093E7088093E60884E697E0BC
:102750009093E9088093E8088DEC90E09093EB0863
:102760008093EA088CEC90E09093ED088093EC085D
:1027700088EC90E09093EF088093EE0889EC90E06D
:102780009093F1088093F0088AEC90E09093F3081E
:102790008093F2088EEC90E09093F5088093F40813
:1027A0001093F608B093F708A093F808F093F9088F
:1027B000E093FA081092FF081092FE082093000997
:1027C0003093010940930209509303097093FD0867
:1027D0006093FC0888EA97E09093090980930809C0
:1027E0008CEE97E090930B0980930A0985ED90E0B9
:1027F00090930D0980930C0984ED90E090930F095C
:1028000080930E0980ED90E0909311098093100958
:1028100081ED90E0909313098093120982ED90E08E
:10282000909315098093140986ED90E09093170911
:102830008093160910931809B0931909A0931A09E7
:10284000F0931B09E0931C091092210910922009B2
:10285000209322093093230940932409509325099A
:1028600070931F0960931E0980E398E090932B09F1
:1028700080932A0984E798E090932D0980932C098E
:1028800085E391E090932F0980932E0984E391E0F2
:10289000909331098093300980E391E0909333095C
:1028A0008093320981E391E0909335098093340954
:1028B00082E391E0909337098093360986E391E0B3
:1028C000909339098093380910933A09B0933B09E2
:1028D000A0933C09F0933D09E0933E091F910895B0
:1028E000CF93DF930DDA0E94DC04C7ECD0E10E94A5
:1028F0008B012097E1F34BDCFACFCF92DF92EF927E
:10290000FF920F931F93CF93DF937C016B018A019A
:10291000C0E0D0E00FC0D6016D916D01D701ED91FF
:10292000FC910190F081E02DC7011995C80FD91FC6
:10293000015010400115110571F7CE01DF91CF91C3
:102940001F910F91FF90EF90DF90CF900895EF923D
:10295000FF920F931F938C01DC01ED91FC9101908C
:10296000F081E02D6DE019957C01D801ED91FC918D
:102970000190F081E02DC8016AE019959C012E0DAF
:102980003F1DC9011F910F91FF90EF900895CF93C4
:10299000DF93EC016115710519F420E030E00FC000
:1029A000DB010D900020E9F71197A61BB70BE8811A
:1029B000F9810280F381E02DAD0119959C01C901D7
:1029C000DF91CF9108954F925F927F928F929F9265
:1029D000AF92BF92CF92DF92EF92FF920F931F932D
:1029E000DF93CF93CDB7DEB7A1970FB6F894DEBFD4
:1029F0000FBECDBF2C01742ECB01223008F42AE08B
:102A000019A231E2C32ED12CCC0EDD1E822E9924C8
:102A1000AA24BB24672D752FA50194011DD279012D
:102A20008A01C801B701A5019401D8D1472D461BE1
:102A30000894C108D1084A3014F4405D01C0495CD3
:102A4000F6014083E114F1040105110521F07E2C0B
:102A50005F2DC801DFCFC201B60199DFA1960FB685
:102A6000F894DEBF0FBECDBFCF91DF911F910F91C4
:102A7000FF90EF90DF90CF90BF90AF909F908F909E
:102A80007F905F904F900895DC012115310541F44E
:102A9000ED91FC910190F081E02D642F199508953E
:102AA00092CFEF92FF920F931F939A01E62EFF248D
:102AB00000E010E0B801A701E7DF1F910F91FF9040
:102AC000EF900895CF92DF92EF92FF920F931F93B2
:102AD000CF93DF93EC016A017B012115310541F4AD
:102AE000E881F9810190F081E02D642F19951DC0D6
:102AF0002A303105C9F477FF16C0E881F9810190C9
:102B0000F081E02D6DE219958C0144275527BA011B
:102B10004C195D096E097F09CE012AE054DF980146
:102B2000280F391F03C02AE04EDF9C01C901DF9145
:102B3000CF911F910F91FF90EF90DF90CF9008956C
:102B4000EF92FF920F931F937C01BCDF8C01C701B2
:102B5000FEDE9C01200F311FC9011F910F91FF90D4
:102B6000EF900895EF92FF920F931F937B019A01CC
:102B70000027F7FC0095102FB801A701A3DF1F91D4
:102B80000F91FF90EF900895CF92DF92EF92FF9216
:102B90000F931F936C017B019A010027F7FC0095AE
:102BA000102FB801A7018EDF8C01C601D0DE080FFF
:102BB000191FC8011F910F91FF90EF90DF90CF90E8
:102BC0000895E5CE0895EF92FF920F931F937C0135
:102BD000DEDE8C01C701BBDE080F191FC8011F9183
:102BE0000F91FF90EF900895CF93DF93EC0121D8E0
:102BF000688779878A879B87E881F9810084F185D6
:102C0000E02DCE0119959C0197FF14C012D828859C
:102C100039854A855B85621B730B840B950B2C8170
:102C20003D814E815F81621773078407950720F30A
:102C30002FEF3FEFC901DF91CF910895CF93DF933D
:102C4000EC01CE01D1DF9C0197FD0EC08D329105C4
:102C500059F0C0970A9740F0E881F9810680F78122
:102C6000E02DCE011995EDCFC901DF91CF910895E7
:102C70009F92AF92BF92CF92DF92EF92FF920F930B
:102C80001F93CF93DF936C01B62ED8DFEC0197FF33
:102C900004C0EE24FF2487014AC09924EE24FF24B7
:102CA0008701AB2CBB24A7FCB094CA15DB0521F12E
:102CB000CD32D10519F4992493941EC0CE01C0974A
:102CC0000A97D0F4C801B7012AE030E040E050E0B4
:102CD00085D07B018C01CE01AA2797FDA095BA2F44
:102CE000E80EF91E0A1F1B1F80ED9FEFAFEFBFEF2D
:102CF000E80EF91E0A1F1B1FD601ED91FC910680FC
:102D0000F781E02DC6011995C6016EDFEC01C09771
:102D10000A9758F2CA15DB0541F2992041F0109547
:102D20000095F094E094E11CF11C011D111DB70108
:102D3000C801DF91CF911F910F91FF90EF90DF902D
:102D4000CF90BF90AF909F90089561E091CF2F9268
:102D50003F924F925F926F927F928F929F92AF922B
:102D6000BF92CF92DF92EF92FF920F931F93DF9368
:102D7000CF93CDB7DEB73B014C0119012A016E8913
:102D80007F89888D998D6A197B098C099D09621A42
:102D9000730A840A950AA401930120D0E218F3086B
:102DA00004091509A801970179D02A0D3B1D4C1D76
:102DB0005D1DB901CA01CF91DF911F910F91FF9065
:102DC000EF90DF90CF90BF90AF909F908F907F90CB
:102DD0006F905F904F903F902F900895629FD00129
:102DE000739FF001829FE00DF11D649FE00DF11DC6
:102DF000929FF00D839FF00D749FF00D659FF00D75
:102E00009927729FB00DE11DF91F639FB00DE11D61
:102E1000F91FBD01CF0111240895991B79E004C069
:102E2000991F961708F0961B881F7A95C9F7809509
:102E3000089597FB092E07260AD077FD04D049D0C4
:102E400006D000201AF4709561957F4F0895F6F72B
:102E5000909581959F4F0895A1E21A2EAA1BBB1B46
:102E6000FD010DC0AA1FBB1FEE1FFF1FA217B30756
:102E7000E407F50720F0A21BB30BE40BF50B661F6C
:102E8000771F881F991F1A9469F760957095809530
:102E900090959B01AC01BD01CF01089597FB092ED0
:102EA00005260ED057FD04D0D7DF0AD0001C38F419
:102EB00050954095309521953F4F4F4F5F4F089566
:102EC000F6F790958095709561957F4F8F4F9F4F46
:102ED0000895AA1BBB1B51E107C0AA1FBB1FA61761
:102EE000B70710F0A61BB70B881F991F5A95A9F7B3
:102EF00080959095BC01CD010895EE0FFF1F0590C0
:102F0000F491E02D199412E0C6EAD2E003C0FE016C
:0E2F1000F6DF2296C83AD107D1F7F894FFCF2A
:102F1E0054696C74696E672031210054696C746950
:102F2E006E672032210054696C74696E6720300020
:102F3E005A206178697320636C6F636B7769736570
:102F4E0020726F7461746520666F723A2000206D76
:102F5E00696C6C697365636F6E647321005A2061CE
:102F6E0078697320616E7469636C6F636B776973D4
:102F7E006520726F7461746520666F723A20005717
:102F8E00726F6E6720706172616D65746572206F0D
:102F9E0066205A206178697320726F746174696F4C
:102FAE006E2074696D653A20004D6F766520486F0E
:102FBE006C64657220557021004D6F766520486FE8
:102FCE006C64657220446F776E2100446156696EA1
:102FDE006369204669726D77617265203C76657211
:102FEE0073696F6E20342E303E005475726E206FF2
:102FFE006666204E6F2E312052656C617920746F9B
:10300E0020706C756720696E204E6F2E31205553DF
:10301E004221005475726E206F6666204E6F2E32FE
:10302E002052656C617920746F20706C7567206911
:10303E006E204E6F2E322055534221005475726E03
:10304E00206F6E204E6F2E312052656C6179207488
:10305E006F20706C7567206F7574204E6F2E312047
:10306E0055534221005475726E206F6E204E6F2E96
:10307E00322052656C617920746F20706C756720F8
:10308E006F7574204E6F2E322055534221005072B0
:10309E006573732074686520706F77657220627532
:1030AE0074746F6E210052656C656173652074686F
:1030BE006520706F77657220627574746F6E210073
:1030CE0053686F7274207072657373207468652014
:1030DE00706F77657220627574746F6E20666F7292
:1030EE003A20004C6F6E67205072657373207468BF
:1030FE006520706F77657220627574746F6E2066CE
:10310E006F723A2000506C756720696E2074686586
:10311E002065617270686F6E652100506C75672056
:10312E006F7574207468652065617270686F6E6566
:10313E00210052656164207374617475733A207254
:10314E006561647900556E6B6E6F776E2061726784
:10315E00756D656E743A2000464652442049443AD5
:10316E002000582D5920617869732074696C746938
:10317E006E6720706C617465206578697374732155
:10318E00005A20617869732074696C74696E6720C7
:10319E00706C61746520646F65736E27742065783A
:1031AE00697374210043616D65726120686F6C6490
:1031BE006572206C696674657220657869737473C4
:1031CE002100506F77657220707573686572206488
:1031DE006F65736E2774206578697374210045617D
:1031EE007270686F6E6520706C75676765722064AB
:1031FE006F65736E2774206578697374210055535B
:10320E0042206375747465722065786973747321D6
:10321E0000546865207370656564206F6620736561
:10322E0072766F206D6F746F72204E6F2E00206954
:10323E00733A200054686520616E676C65206F6676
:10324E0020736572766F206D6F746F72204E6F2EC5
:10325E0000556E6B6E6F776E20636F6D6D616E6471
:10326E003A2000436F6D6D616E64206973206E6F3E
:10327E00742066696E697368656421005A005A008D
:10328E0000000000740C7D145A0C390C370D260DFD
:10329E0000000000F8127D148E12BF129F12E81269
:00000001FF
