:100000000C94B3000C94DB000C94DB000C94500AAD
:100010000C947A0A0C94A40A0C94DB000C94DB0078
:100020000C94DB000C94DB000C94DB000C9428098E
:100030000C94DB000C94DB000C94DB000C94DB00D4
:100040000C94670D0C94DB000C94980F0C94E60F45
:100050000C94DB000C94DB000C94DB000C94DB00B4
:100060000C94DB000C94DB0000C2010001001100C5
:1000700011000C0000E100000A002500250021000D
:10008000009600001900390039003600127A00008D
:100090001F004600460044008070000022004D0012
:1000A0004D004A00004B00003600750075007200DC
:1000B000403800004A009C009C0099008025000008
:1000C0007200EC00EC00E900C0120000E900DA0167
:1000D000DA01D70160090000D701B603B603B30304
:1000E000B0040000B3036E076E076B0758020000F0
:1000F0006E07DC0EDC0ED80E2C010000DC0EC11DDC
:10010000C11DBE1D00000000240027002A000000C1
:100110000000250028002B0000000000230026001E
:10012000290004040404040404040202020202027A
:1001300003030303030301020408102040800102AB
:10014000040810200102040810200000000700022B
:100150000100000304060000000000000000DD00B4
:10016000C6055411BF0511241FBECFEFD8E0DEBF76
:10017000CDBF14E0A0E0B1E0ECECF9E202C00590E4
:100180000D92A63BB107D9F715E0A6EBB4E001C08C
:100190001D92AB3FB107E1F711E0C4E6D1E004C026
:1001A0002297FE010E94D514CE35D107C9F70E94CF
:1001B000AA110C94D9140C94000086EB94E00E94D0
:1001C0009D058AEB94E00E94B4078DEB94E00E94B9
:1001D000B40708958F929F92AF92BF92CF92DF9211
:1001E000EF92FF920F931F93CF93DF93C0C389EDDC
:1001F00095E00E94F7135B016C0189ED95E00E9488
:10020000D9100A9741F089ED95E00E94D9108F5FCF
:100210009F4F09F0B5C3ED2C1127E7FC1095F12E87
:10022000012F80E7E816F1040105110509F0BFC0B0
:100230008AEB94E00E94CE078DEB94E00E94CE07FB
:100240008C2C99247501E401CC0FDD1FCF56DB4FB8
:1002500088819981A816B90609F49EC0A816B90626
:100260000CF042C089ED95E060E071E00E942D1332
:1002700089ED95E00E940211288139812A193B09F4
:100280002D3331053CF084010F5F1F4FA5014F5BFB
:100290005F4F42C0C9014F974E97A0F484010F5F92
:1002A0001F4FA5014F5B5F4F86EB94E0B80124EB35
:1002B00030E00E94ED06A701445C5F4F86EB94E0BE
:1002C000B8015CC02B50304084010F5F1F4FE50127
:1002D000EC962431310520F4A5014F5B5F4F3AC005
:1002E000A501425C5F4F3FC089ED95E06AE171E096
:1002F0000E942D1389ED95E00E9402118881998159
:100300009501281B390B2D33310564F084010F5FF3
:100310001F4FA501495C5F4F86EB94E0B80128ECC4
:1003200030E0C7CFC9014F974E9738F484010F5F73
:100330001F4FA501495C5F4FB7CF2B503040840160
:100340000F5F1F4FE501EC962431310548F4A501FC
:10035000495C5F4F86EB94E0B80120EA30E008C0CA
:10036000A501465C5F4F86EB94E0B80126E930E0DA
:100370000E94ED0686EB94E0B801AE0122E330E086
:100380000E94ED06880C991CA1E9B4E08A0E9B1E20
:10039000F401F182E08295C089ED95E065E371E0BA
:1003A0000E942D1389ED95E00E9402118AC0F2E6A9
:1003B000EF16F1040105110509F090C08AEB94E0F5
:1003C0000E94CE078DEB94E00E94CE078C2D90E02A
:1003D0009C01E501892B19F5B7FC56C089ED95E024
:1003E0006CE471E00E942A1389ED95E0B5014AE0C2
:1003F00050E00E94F81289ED95E06AE671E00E94F3
:100400002D1389ED95E00E94021185E066E970E008
:100410000E94510E86E060E00E94F00E25C021305F
:10042000310591F5B7FC30C089ED95E069E771E0E1
:100430000E942A1389ED95E0B5014AE050E00E9440
:10044000F81289ED95E06AE671E00E942D1389EDBE
:1004500095E00E94021185E060E00E94F00E86E0C7
:1004600066E970E00E94510EBE01882777FD8095F5
:10047000982F0E94BD0D85E060E00E94F00E86E09E
:1004800060E00E94F00E17C089ED95E06BE971E025
:100490000E942A1389ED95E0BE014AE050E00E94D7
:1004A000F81289ED95E06AE671E00E942D1389ED5E
:1004B00095E00E9402116FE070E080E090E00E9401
:1004C000BD0D8AEB94E069E070E00E9421098DEB9C
:1004D00094E06AE070E00E94210949C221E7E21637
:1004E000F1040105110509F053C08C2D90E09C0129
:1004F000E501892BB9F41A141B047CF5C630D1052B
:1005000064F589ED95E065EC71E00E942D1389EDAD
:1005100095E00E94021185E061E00E94F00E86E005
:1005200060E019C021303105C1F41A141B04ACF489
:10053000C630D10594F489ED95E065ED71E00E9437
:100540002D1389ED95E00E94021185E060E00E9484
:10055000F00E86E061E00E94F00E00E010E008C0BE
:100560006CE271E080E090E00E94BD0D0F5F1F4FD4
:100570000C171D07ACF385E060E00E94F00E86E0EA
:1005800060E00E94F00E68E572E080E090E0F9C063
:1005900082E7E816F1040105110529F489ED95E0DB
:1005A00067EE71E0F1C195E7E916F1040105110567
:1005B00061F489ED95E066E072E00E942D1389ED0B
:1005C00095E00E94021184E011C0A7E7EA16F10449
:1005D0000105110569F489ED95E06FE272E00E9472
:1005E0002D1389ED95E00E94021187E060E024C0A0
:1005F000B6E7EB16F1040105110561F489ED95E00C
:1006000068E572E00E942D1389ED95E00E940211C9
:1006100084E011C0E8E7EE16F1040105110579F454
:1006200089ED95E061E872E00E942D1389ED95E077
:100630000E94021187E061E00E94F00E98C1F9E784
:10064000EF16F1040105110579F489ED95E06AEAE8
:1006500072E00E942D1389ED95E00E9402118AEB51
:1006600094E06CE370E087C02AE7E216F10401052C
:10067000110559F489ED95E062EC72E00E942D13AA
:1006800089ED95E00E94021148C080E6E816F10469
:100690000105110599F489ED95E06CED72E00E9479
:1006A0002A13E501AB2811F4C0E9D1E089ED95E00A
:1006B000BE014AE050E00E94F81218C091E6E91627
:1006C000F1040105110571F589ED95E06FEF72E018
:1006D0000E942A13E50189ED95E0B5014AE050E05A
:1006E0000E94F812AB2811F4C8E5DBE189ED95E032
:1006F0006AE671E00E942D1389ED95E00E940211D7
:100700008AEB94E06CE370E00E943A08BE0188270F
:1007100077FD8095982F0E94BD0D8AEB94E060E5EF
:1007200070E029C0A3E7EA16F1040105110579F488
:1007300089ED95E061E273E00E942D1389ED95E06B
:100740000E9402118DEB94E062E570E014C0B4E702
:10075000EB16F10401051105B9F489ED95E067E3A5
:1007600073E00E942D1389ED95E00E9402118DEB3C
:1007700094E060E770E00E943A086FE070E080E08B
:1007800090E00E94BD0DF3C0EBE7EE16F104010509
:10079000110529F489ED95E06EE473E0F5C0FCE7FE
:1007A000EF16F1040105110511F5A114B10461F46E
:1007B00089ED95E06AE54AE050E00E94921289EDE9
:1007C00095E00E94E311CFC089ED95E061E673E00A
:1007D0000E942A138FEF9FEFA0E0B0E0A822B92279
:1007E000CA22DB2289ED95E0B601A501B8C093E6E7
:1007F000E916F1040105110509F043C08501AB2894
:1008000059F489ED95E064E773E00E942A1389EDBD
:1008100095E060E070E08FC00130110529F489EDAA
:1008200095E06EE773E0B0C00230110529F489ED60
:1008300095E06DE973E0A8C00330110529F489ED56
:1008400095E06AEB73E0A0C00430110529F489ED4E
:1008500095E067ED73E098C00530110529F489ED46
:1008600095E063EF73E090C00630110529F489ED3F
:1008700095E063E174E088C089ED95E061E673E09E
:1008800055C0ADE7EA16F1040105110519F5C501DA
:1008900001973FEFE32E3FEFF32E012D112DEA20BC
:1008A000FB200C211D21029708F04AC089ED95E03C
:1008B00066E274E00E942A1389ED95E0B801A70171
:1008C0002AE030E00E94A41286EB94E0B5010E9479
:1008D000CD0527C0BEE7EB16F10401051105A9F50A
:1008E000C50101972FEFE22E2FEFF22E012D112DD2
:1008F000EA20FB200C211D21029710F589ED95E0DF
:1009000069E474E00E942A1389ED95E0B801A7011B
:100910002AE030E00E94A41286EB94E0B5010E9428
:100920005D068C0189ED95E063E474E00E942A1372
:1009300089ED95E0B8014AE050E00E940B1313C026
:1009400089ED95E061E673E004C089ED95E066E627
:1009500074E00E942A1389ED95E0B801A7012AE00E
:1009600030E00E94E41289ED95E00E94021189EDC9
:1009700095E00E94A810181619060CF438CC07C090
:1009800089ED95E068E774E00E942D13ECCFDF91CC
:10099000CF911F910F91FF90EF90DF90CF90BF907C
:1009A000AF909F908F90089586EB94E040E05BE4D9
:1009B00060E070E00E94AF0786EB94E061E070E0D9
:1009C00046E950E026E930E00E94ED066AE070E07A
:1009D00080E090E00E94BD0D86EB94E062E070E064
:1009E00046E950E026E930E00E94ED068AEB94E00B
:1009F00069E070E00E9421098AEB94E060E570E014
:100A00000E943A088DEB94E06AE070E00E942109B0
:100A10008DEB94E060E770E00E943A0889ED95E084
:100A200040E855E260E070E00E94211089ED95E019
:100A30000E9452118823D1F389ED95E00E940211A2
:100A400085E061E00E94B10E86E061E00E94B10E97
:100A500085E060E00E94F00E86E060E00E94F00E0B
:100A600084E061E00E94B10E87E061E00E94B10E77
:100A700084E060E00E94F00E87E060E00E94F00EEB
:100A800085E061E00E94B10E86E061E00E94B10E57
:100A900085E060E00E94F00E86E060E00E94F00ECB
:100AA00088E060E00E94B10E1DC085E060E00E9419
:100AB000F00E86E066E970E00E94510E6AE070E098
:100AC00080E090E00E94BD0D85E060E00E94F00EA5
:100AD00086E060E00E94F00E6AE070E080E090E066
:100AE0000E94BD0D88E00E94440F9093C104809342
:100AF000C0048091C0049091C1040197B1F285E0D7
:100B000066E970E00E94510E86E060E00E94F00EFF
:100B100060E971E080E090E00E94BD0D85E060E05A
:100B20000E94F00E86E060E00E94F00E6FE070E040
:100B300080E090E00E94BD0D0895FC0186E990E000
:100B40009183808380EF90E0938382830895813046
:100B5000910559F46F5F7F4F89F482EC94E06BE06C
:100B60004CE020E00E94390D0895892B39F46F5F25
:100B70007F4F21F482EC94E00E94C00B089580E046
:100B800090E06FEF7FEF0E94A705089581E090E06D
:100B90006FEF7FEF0E94A7050895AF92BF92CF92AB
:100BA000DF92EF92FF920F931F93DF93CF93CDB716
:100BB000DEB7A8970FB6F894DEBF0FBECDBF162FD5
:100BC00082EC94E06FEF0E94040C82EC94E06FEFF3
:100BD0000E94040C82EC94E0612F0E94040C82ECD1
:100BE00094E064E00E94040C82EC94E062E00E94D5
:100BF000040C82EC94E066E20E94040C82EC94E027
:100C000062E00E94040C125D109582EC94E0612F6A
:100C10000E94040C6AE070E080E090E00E94BD0D4C
:100C20008E010F5F1F4F08C082EC94E00E94C90B39
:100C3000F801819391938F0182EC94E00E94EA0B7A
:100C4000892B91F700D000D07D8560E02B853C8515
:100C5000620F731F882777FD8095982F2CE231E073
:100C600040E050E0EDB7FEB72183328343835483E5
:100C700020E030E040E050E0BFEFEB2EB3E0FB2E91
:100C8000012D112DAA24BB2465010E94FB130F9096
:100C90000F900F900F90CB01A8960FB6F894DEBF7F
:100CA0000FBECDBFCF91DF911F910F91FF90EF90BD
:100CB000DF90CF90BF90AF900895AF92BF92CF9248
:100CC000DF92EF92FF920F931F93DF93CF93CDB7F5
:100CD000DEB7A8970FB6F894DEBF0FBECDBF162FB4
:100CE00082EC94E06FEF0E94040C82EC94E06FEFD2
:100CF0000E94040C82EC94E0612F0E94040C82ECB0
:100D000094E064E00E94040C82EC94E062E00E94B3
:100D1000040C82EC94E064E20E94040C82EC94E007
:100D200062E00E94040C145D109582EC94E0612F47
:100D30000E94040C6AE070E080E090E00E94BD0D2B
:100D40008E010F5F1F4F08C082EC94E00E94C90B18
:100D5000F801819391938F0182EC94E00E94EA0B59
:100D6000892B91F700D000D07D8560E02B853C85F4
:100D7000620F731F882777FD8095982F2CE231E052
:100D800040E050E0EDB7FEB72183328343835483C4
:100D900020E030E040E050E01FEFE12E13E0F12EC4
:100DA000012D112DAA24BB2465010E94FB130F9075
:100DB0000F900F900F90CB01A8960FB6F894DEBF5E
:100DC0000FBECDBFCF91DF911F910F91FF90EF909C
:100DD000DF90CF90BF90AF9008952F923F924F92A7
:100DE0005F926F927F928F929F92AF92BF92CF92BB
:100DF000DF92EF92FF920F931F93DF93CF9300D078
:100E000000D00F92CDB7DEB76B833A0100D000D08F
:100E1000442737FD4095542FFFEF2F2EF3E03F2E50
:100E2000412C512CEDB7FEB721823282438254828D
:100E3000CA01B90120E030E040E050E0ECE2EE2EE3
:100E4000E1E0FE2E012D112DAA24BB2465010E9494
:100E5000FB136C837D8369837A83882477FC809479
:100E6000982CEDB7FEB72182328243825482C401AE
:100E7000B30120E030E040E050E00E94FB13162F69
:100E8000072F78010F900F900F900F9082EC94E055
:100E90006FEF0E94040C82EC94E06FEF0E94040C50
:100EA00082EC94E06B810E94040C82EC94E067E099
:100EB0000E94040C82EC94E063E00E94040C82EC3B
:100EC00094E06EE10E94040C82EC94E0612F0E9499
:100ED000040C82EC94E0602F0E94040C82EC94E0FD
:100EE0006C810E94040C82EC94E06D810E94040CE1
:100EF000FB81F85DFF0D8981F80FFE0D9A81F90FD6
:100F0000F09582EC94E06F2F0E94040C6AE070E090
:100F100080E090E00E94BD0D04C082EC94E00E944D
:100F2000C90B82EC94E00E94EA0B892BB1F70F9079
:100F30000F900F900F900F90CF91DF911F910F9115
:100F4000FF90EF90DF90CF90BF90AF909F908F90E9
:100F50007F906F905F904F903F902F90089582EC1C
:100F600094E00E94CE0A0895FC018091DE048C304A
:100F700090F480838F5F8093DE04815090E0FC01C9
:100F8000EE0FFF1FE80FF91FE152FB4F88EB9BE0CC
:100F90009283818308958FEF80830895DC018C9183
:100FA00090E0FC01EE0FFF1FE80FF91FE152FB4F2D
:100FB00080818F7B80838C916CE00E94631490E031
:100FC000AC01440F551F480F591F440F551F440FC4
:100FD000551F20E030E0C901840F951FFC01EE0F82
:100FE000FF1FE80FF91FE152FB4F808186FD05C00E
:100FF0002F5F3F4F2C30310571F70895FC012081A0
:101000002C30B8F58181992787FD909548E850E00C
:10101000481B590B440F551F440F551F6417750784
:1010200084F08281992787FD909548E552E0481B1E
:10103000590B440F551F440F551F641775070CF4C7
:10104000AB0142505040CA01AA2797FDA095BA2F84
:10105000880F991FAA1FBB1F4FB7F89430E0F90102
:10106000EE0FFF1FE20FF31FE152FB4F92838183CC
:101070004FBF0895AF92BF92CF92DF92EF92FF924F
:101080000F931F93CF93DF93EC019B0182E06032BB
:1010900078070CF048C077FF03C020E030E005C0BF
:1010A000653B710514F024EB30E000D000D0B901AD
:1010B000882777FD8095982F2981332727FD309544
:1010C000E8E8AE2EB12CA21AB30AAA0CBB1CAA0CDB
:1010D000BB1CCC24B7FCC094DC2CEA81FF27E7FDC5
:1010E000F09528E532E02E1B3F0B220F331F220F15
:1010F000331F442737FD4095542FEDB7FEB72183AA
:1011000032834383548320E030E040E050E004EB3E
:10111000E02EF12C012D112D0E94FB139B010F904D
:101120000F900F900F90CE01B9010E94FE07DF9142
:10113000CF911F910F91FF90EF90DF90CF90BF90D4
:10114000AF900895CF92DF92EF92FF921F93CF93CB
:10115000DF93EC01162F7A01690188818C3008F049
:1011600064C0862F61E00E94B10E888190E0FC018E
:10117000EE0FFF1FE80FF91FE152FB4F1F73808135
:10118000807C812B808380E292E08E199F0964E04D
:1011900070E00E946F14698380E699E08C199D09C4
:1011A00064E070E00E946F146A83A8818A2F6CE06B
:1011B0000E946314682F70E0AB01440F551F460F67
:1011C000571F440F551F440F551F20E030E0C90141
:1011D000840F951FFC01EE0FFF1FE80FF91FE1526E
:1011E000FB4F808186FD15C02F5F3F4F2C303105AE
:1011F00071F724C01092800082E0809381001092E9
:10120000850010928400B19A80916F008260809373
:101210006F008A2F90E0FC01EE0FFF1FE80FF91F0F
:10122000E152FB4F8081806480838881DF91CF9180
:101230001F91FF90EF90DF90CF900895672BD1F230
:10124000E8CF40E252E020E639E00E94A20808958B
:101250001F920F920FB60F9211242F933F934F932B
:101260005F936F937F938F939F93AF93BF93EF930E
:10127000FF938091030587FF05C0109285001092AF
:1012800084002BC020910305332727FD30958091E2
:10129000DE0490E02817390704F5809103059927AB
:1012A00087FD9095FC01EE0FFF1FE80FF91FE1523B
:1012B000FB4F808186FF11C080910305992787FD30
:1012C0009095FC01EE0FFF1FE80FF91FE152FB4F55
:1012D00080818F7360E00E94F00E809103058F5F24
:1012E0008093030520910305332727FD30958091D6
:1012F000DE0490E0281739070CF04EC080910305FA
:101300008C300CF049C02091840030918500809190
:101310000305992787FD9095FC01EE0FFF1FE80F4D
:10132000F91FE152FB4F81819281280F391F3093C1
:1013300089002093880080910305992787FD909567
:10134000FC01EE0FFF1FE80FF91FE152FB4F8081F8
:1013500086FF2BC080910305992787FD9095FC019E
:10136000EE0FFF1FE80FF91FE152FB4F80818F73D3
:1013700061E00E94F00E19C080E49CE905C08091F4
:101380008400909185000496909389008093880052
:101390008FEF8093030509C08091840090918500B0
:1013A000049680549C4940F3EACFFF91EF91BF919E
:1013B000AF919F918F917F916F915F914F913F91ED
:1013C0002F910F900FBE0F901F9018950F931F93A2
:1013D000CF93DF93FC01738D76957170A685B785E9
:1013E0009585772329F08C91892309F454C004C092
:1013F0008C91892309F04FC08389948920E001975B
:101400002FEF8F3F9207D9F7C589D689A685B78573
:10141000158560E031E040E050E000E0CE01202F93
:1014200001972FEF8F3F9207D9F78C91812311F00D
:10143000632B03C0832F80956823330F4F5F5F4F6B
:101440004830510559F78789908D20E001972FEF9B
:101450008F3F9207D9F771116095809146052091D1
:10146000470590E001968F73907030E082179307E4
:1014700079F0E0914605F0E0EA5FFA4F60838091F1
:10148000460590E001968F7390708093460503C0E7
:10149000838D8160838FDF91CF911F910F9108958C
:1014A0001F920F920FB60F9211242F933F934F93D9
:1014B0005F936F937F938F939F93AF93BF93EF93BC
:1014C000FF938091040590910505009711F00E940B
:1014D000E609FF91EF91BF91AF919F918F917F911D
:1014E0006F915F914F913F912F910F900FBE0F9091
:1014F0001F9018951F920F920FB60F9211242F93E1
:101500003F934F935F936F937F938F939F93AF938B
:10151000BF93EF93FF938091040590910505009789
:1015200011F00E94E609FF91EF91BF91AF919F9159
:101530008F917F916F915F914F913F912F910F907C
:101540000FBE0F901F9018951F920F920FB60F921B
:1015500011242F933F934F935F936F937F938F93B8
:101560009F93AF93BF93EF93FF9380910405909166
:101570000505009711F00E94E609FF91EF91BF91D8
:10158000AF919F918F917F916F915F914F913F911B
:101590002F910F900FBE0F901F901895CF92DF9252
:1015A000EF92FF920F931F93CF93DF93EC017A0199
:1015B0008B011A8E198E188E1F8A1E8A1D8A1C8A0C
:1015C0001B8A20E030E06901CC0CDD1CC20ED31E6A
:1015D000B601660F771F660F771FAB0148595F4F43
:1015E000FA0185919591A591B4918E159F05A0075B
:1015F000B107E9F4FB01E459FF4F859194919C8B6D
:101600008B8BFB01E259FF4F859194919E8B8D8BC3
:10161000FB01E059FF4F85919491988F8F8BFB01CF
:10162000EE58FF4F859194919A8F898F06C02F5F56
:101630003F4F2D30310509F0C6CF8F89988D892B0A
:1016400009F449C04C85463108F03DC090916800CE
:10165000483010F484E005C04E3010F082E001C044
:1016600081E0892B80936800483028F4EDE6F0E0B3
:10167000ADE6B0E00BC04E3028F0ECE6F0E0ACE6B2
:10168000B0E004C0EBE6F0E0ABE6B0E050814830FB
:1016900040F481E090E002C0880F991F4A95E2F77C
:1016A00010C0242F30E04E3018F42850304002C0D3
:1016B0002E50304081E090E002C0880F991F2A959B
:1016C000E2F7852B8C93898D9A8D20E001972FEF7F
:1016D0008F3F9207D9F780910405909105058C17EB
:1016E0009D0781F08B8D8E7F8B8F9FB7F894109222
:1016F00046058091460580934705D0930505C09324
:1017000004059FBFDF91CF911F910F91FF90EF9044
:10171000DF90CF900895FC014485463180F5483034
:1017200028F4EDE6F0E0ADE6B0E00BC04E3028F472
:10173000EBE6F0E0ABE6B0E004C0ECE6F0E0ACE6EF
:10174000B0E05081483040F481E090E002C0880F62
:10175000991F4A95E2F710C0242F30E04E3018F45C
:101760002850304002C02E50304081E090E002C04E
:10177000880F991F2A95E2F7809585238C93089509
:10178000FC0189E994E091838083CF010E948B0B57
:10179000089520910405309105052817390731F483
:1017A0009091470580914605981719F42FEF3FEF68
:1017B0000FC0E0914705F0E0EA5FFA4F2081809189
:1017C000470590E001968F7390708093470530E055
:1017D000C90108952091040530910505281739079E
:1017E00019F020E030E00EC08091460520914705B9
:1017F00090E0805C9F4F821B910960E470E00E9442
:101800006F149C01C90108950F931F93DC01599631
:101810008D919C915A97892B49F481E090E0139621
:101820009C938E93129720E030E097C00FB7F89406
:101830005B968C915B975196ED91FC9152975096E7
:101840002C91509781FF8DC08081822B8083599687
:101850008D919C915A97059620E001972FEF8F3F2D
:101860009207D9F75B968C915B9781FF35C031E089
:1018700040E050E070E010E0832F90E08623972353
:101880005196ED91FC91529750962C915097892B3F
:1018900029F0808120952823208303C08081822B1A
:1018A000808359968D919C915A97212F01972FEF04
:1018B0008F3F9207D9F7330F4F5F5F4F4830510585
:1018C000D9F65196ED91FC915297908150968C915A
:1018D00050978095892333C031E040E050E070E0BC
:1018E00010E0832F90E0862397235196ED91FC9191
:1018F000529750962C915097892B21F08081822B02
:10190000808304C0808120952823208359968D915F
:101910009C915A97212F01972FEF8F3F9207D9F76C
:10192000330F4F5F5F4F48305105D9F65196ED9117
:10193000FC915297808150969C915097892B80837F
:101940000FBF59968D919C915A9720E001972FEFE8
:101950008F3F9207D9F721E030E0C9011F910F9125
:101960000895808120952823208371CF209104053C
:10197000309105052817390749F49FB7F89410925C
:10198000460580914605809347059FBF08952091A5
:101990000405309105052817390731F49091470562
:1019A00080914605981719F42FEF3FEF0AC0E09198
:1019B0004705F0E0EA5FFA4F8081282F332727FDA3
:1019C0003095C90108951F93CF93DF93EC01162F33
:1019D000862F60E00E94B10E8B8D81FD04C0812FA7
:1019E00061E00E94F00E1C87212F30E0C9018A5C63
:1019F0009E4FFC0184918D872E5D3E4FF9016491CD
:101A0000E62FF0E0EE0FFF1FE85EFE4F8591949108
:101A10009F878E87DF91CF911F910895FF920F933B
:101A20001F938C01F62E862F61E00E94B10E8F2D40
:101A300061E00E94F00E8F2D90E0FC01EA5CFE4F09
:101A4000E491D8015096EC9350978E5D9E4FFC0127
:101A50006491E62FF0E0EE0FFF1FE25FFE4F8591ED
:101A6000949152969C938E9351971F910F91FF9052
:101A70000895FF920F931F938C01F62EFC011382A1
:101A8000128288EE93E0A0E0B0E084839583A68381
:101A9000B78389E994E091838083148A138A168A34
:101AA000158A108E178A128E118E838D2170220F47
:101AB0008C7F822B838FC801642F0E940E0DC8017A
:101AC0006F2D0E94E30C1F910F91FF9008951F92BC
:101AD0000F920FB60F9211242F933F938F939F93E2
:101AE000AF93BF9380914C0590914D05A0914E0509
:101AF000B0914F05309150050196A11DB11D232FC6
:101B00002D5F2D3720F02D570196A11DB11D20937B
:101B1000500580934C0590934D05A0934E05B093CE
:101B20004F058091480590914905A0914A05B091D3
:101B30004B050196A11DB11D809348059093490561
:101B4000A0934A05B0934B05BF91AF919F918F91A0
:101B50003F912F910F900FBE0F901F9018958FB748
:101B6000F89420914C0530914D0540914E055091CF
:101B70004F058FBFB901CA0108959B01AC017FB722
:101B8000F8948091480590914905A0914A05B0913B
:101B90004B0566B5A89B05C06F3F19F00196A11DC6
:101BA000B11D7FBFBA2FA92F982F8827860F911DAF
:101BB000A11DB11D62E0880F991FAA1FBB1F6A9566
:101BC000D1F7BC012DC0FFB7F894809148059091E2
:101BD0004905A0914A05B0914B05E6B5A89B05C003
:101BE000EF3F19F00196A11DB11DFFBFBA2FA92F1C
:101BF000982F88278E0F911DA11DB11DE2E0880F3F
:101C0000991FAA1FBB1FEA95D1F7861B970B885E09
:101C10009340C8F2215030404040504068517C4FC2
:101C2000211531054105510571F60895789484B563
:101C3000826084BD84B5816084BD85B5826085BDC8
:101C400085B5816085BDEEE6F0E0808181608083AE
:101C5000E1E8F0E010828081826080838081816091
:101C60008083E0E8F0E0808181608083E1EBF0E058
:101C7000808184608083E0EBF0E0808181608083FC
:101C8000EAE7F0E0808184608083808182608083E5
:101C90008081816080838081806880831092C10010
:101CA00008951F93CF93DF93182FEB0161E00E94FB
:101CB000B10E209709F44AC0CF3FD10509F449C0BD
:101CC000E12FF0E0E65BFE4F84918330C1F0843079
:101CD00028F4813051F08230B1F50CC0863019F112
:101CE000873049F1843079F514C084B5806884BDAB
:101CF000C7BD33C084B5806284BDC8BD2EC080918D
:101D00008000806880938000D0938900C093880011
:101D100024C080918000806280938000D0938B00EB
:101D2000C0938A001AC08091B00080688093B00090
:101D3000C093B30012C08091B00080628093B00065
:101D4000C093B4000AC0C038D1051CF4812F60E0F4
:101D500002C0812F61E00E94F00EDF91CF911F91B0
:101D60000895CF93DF93482F50E0CA018A5C9E4FBD
:101D7000FC0134914E5D5E4FFA018491882369F134
:101D800090E0880F991FFC01EC5FFE4FA591B49184
:101D9000FC01E25FFE4FC591D491662351F42FB749
:101DA000F8948C91932F909589238C938881892323
:101DB0000BC0623061F42FB7F8948C91932F9095FB
:101DC00089238C938881832B88832FBF06C09FB77C
:101DD000F8948C91832B8C939FBFDF91CF910895C2
:101DE000482F50E0CA01865B9E4FFC012491CA0136
:101DF0008A5C9E4FFC0194914E5D5E4FFA013491D6
:101E0000332309F440C0222351F1233071F02430F0
:101E100028F42130A1F0223011F514C02630B1F0A1
:101E20002730C1F02430D9F404C0809180008F772E
:101E300003C0809180008F7D8093800010C084B5A6
:101E40008F7702C084B58F7D84BD09C08091B000BA
:101E50008F7703C08091B0008F7D8093B000E32F17
:101E6000F0E0EE0FFF1FE25FFE4FA591B4912FB798
:101E7000F894662321F48C919095892302C08C916B
:101E8000892B8C932FBF0895682F70E0CB01865B60
:101E90009E4FFC012491CB018A5C9E4FFC01449132
:101EA0006E5D7E4FFB019491992319F420E030E0A0
:101EB0003CC0222351F1233071F0243028F421302A
:101EC000A1F0223011F514C02630B1F02730C1F056
:101ED0002430D9F404C0809180008F7703C08091B2
:101EE00080008F7D8093800010C084B58F7702C002
:101EF00084B58F7D84BD09C08091B0008F7703C009
:101F00008091B0008F7D8093B000892F90E0880F82
:101F1000991F885E9E4FFC01A591B4918C9120E0A1
:101F200030E0842311F021E030E0C90108950895E4
:101F30001F920F920FB60F9211242F933F934F933E
:101F40008F939F93EF93FF938091C00082FD1DC0FC
:101F50004091C60020919105309192052F5F3F4F2F
:101F60002F7330708091930590919405281739074D
:101F700071F0E0919105F0919205EF5AFA4F40838C
:101F8000309392052093910502C08091C600FF9185
:101F9000EF919F918F914F913F912F910F900FBE95
:101FA0000F901F901895E091E505F091E605E05C33
:101FB000FF4F8191919120813181821B930B8F730F
:101FC0009070892B11F00E94970F08951F920F9225
:101FD0000FB60F9211242F933F938F939F93EF93FC
:101FE000FF932091D5053091D6058091D70590912A
:101FF000D8052817390731F48091C1008F7D80936F
:10200000C10014C0E091D705F091D805EB56FA4F06
:1020100020818091D7059091D80501968F7390709B
:102020009093D8058093D7052093C600FF91EF9138
:102030009F918F913F912F910F900FBE0F901F9006
:102040001895AF92BF92DF92EF92FF920F931F937A
:10205000CF93DF93EC017A018B01DD24403081EED8
:10206000580780E0680780E0780711F0DD24D394FA
:1020700091E0A92EB12CEC89FD89DD2069F0C50124
:1020800008A002C0880F991F0A94E2F7808360E0DD
:1020900079E08DE390E005C0108260E874E88EE19D
:1020A00090E0A80197010E948214215030404040E6
:1020B0005040569547953795279580E12030380751
:1020C00020F0DD2011F0DD24D6CFE889F9893083B6
:1020D000EA89FB89208319A2EE89FF89408121E0EA
:1020E00030E0C9010C8C02C0880F991F0A94E2F7F6
:1020F000482B4083EE89FF894081C9010D8C02C0C5
:10210000880F991F0A94E2F7482B4083EE89FF89D4
:102110004081C9010E8C02C0880F991F0A94E2F712
:10212000482B4083EE89FF8980810F8C02C0220FEB
:10213000331F0A94E2F7209528232083DF91CF9163
:102140001F910F91FF90EF90DF90BF90AF90089597
:10215000DC011C96ED91FC911D97E05CFF4F2191F5
:10216000319180819181281B390B2F733070C90107
:102170000895DC011C96ED91FC911D97E05CFF4FEA
:1021800020813181E054F040DF01AE5BBF4F8D9183
:102190009C9111972817390719F42FEF3FEF07C0CB
:1021A0008D919C91E80FF91F8081282F30E0C901A3
:1021B0000895DC011C96ED91FC911D97E05CFF4FAA
:1021C00020813181E054F040DF01AE5BBF4F8D9143
:1021D0009C9111972817390719F42FEF3FEF10C082
:1021E0008D919C911197E80FF91F20818D919C9101
:1021F000119701968F73907011969C938E9330E097
:10220000C9010895DC0191968C919197882339F04A
:102210005496ED91FC915597808186FFF9CF919668
:102220001C920895CF93DF93EC01EE85FF85E05C6F
:10223000FF4F20813181E054F0402F5F3F4F2F73DB
:102240003070DF01AE5BBF4F8D919C9111972817C5
:102250003907D1F3E05CFF4F80819181E054F04079
:10226000E80FF91F6083EE85FF85E05CFF4F318347
:102270002083EE89FF89208181E090E00F8C02C0ED
:10228000880F991F0A94E2F7282B208381E089A305
:10229000EC89FD8980818064808381E090E0DF911A
:1022A000CF91089581E008951092DC051092DB052E
:1022B00088EE93E0A0E0B0E08093DD059093DE052A
:1022C000A093DF05B093E00589EA94E09093DA05E6
:1022D0008093D90581E595E09093E6058093E50527
:1022E00085E995E09093E8058093E70585EC90E01B
:1022F0009093EA058093E90584EC90E09093EC05D7
:102300008093EB0580EC90E09093EE058093ED05D3
:1023100081EC90E09093F0058093EF0582EC90E0E3
:102320009093F2058093F10586EC90E09093F4058C
:102330008093F30584E08093F50583E08093F605B0
:1023400087E08093F70585E08093F80581E080932E
:10235000F9050895CF93DF930E94160E0E94D404CE
:10236000C3EDDFE00E94EA002097E1F30E94D30F63
:10237000F9CFCF92DF92EF92FF920F931F93CF93FB
:10238000DF937C016B018A01C0E0D0E00FC0D60171
:102390006D916D01D701ED91FC910190F081E02DDF
:1023A000C7010995C80FD91F01501040011511052B
:1023B00071F7CE01DF91CF911F910F91FF90EF90B8
:1023C000DF90CF900895EF92FF920F931F938C01AF
:1023D000DC01ED91FC910190F081E02D6DE009951B
:1023E0007C01D801ED91FC910190F081E02DC801B4
:1023F0006AE009959C012E0D3F1DC9011F910F91A7
:10240000FF90EF900895CF93DF93EC016115710574
:1024100019F420E030E00FC0DB010D900020E9F757
:102420001197A61BB70BE881F9810280F381E02D9B
:10243000AD0109959C01C901DF91CF9108954F929B
:102440005F927F928F929F92AF92BF92CF92DF92D4
:10245000EF92FF920F931F93DF93CF93CDB7DEB729
:10246000A1970FB6F894DEBF0FBECDBF2C01742E1E
:10247000CB01223008F42AE019A231E2C32ED12C7C
:10248000CC0EDD1E822E9924AA24BB24672D752F25
:10249000A50194010E94821479018A01C801B70143
:1024A000A50194010E944414472D461B0894C108BD
:1024B000D1084A3014F4405D01C0495CF601408304
:1024C000E114F1040105110521F07E2C5F2DC801F6
:1024D000DDCFC201B6010E940312A1960FB6F89497
:1024E000DEBF0FBECDBFCF91DF911F910F91FF9047
:1024F000EF90DF90CF90BF90AF909F908F907F90A4
:102500005F904F900895DC012115310541F4ED9164
:10251000FC910190F081E02D642F099508950E94AF
:102520001F120895EF92FF920F931F939A01E62EC8
:10253000FF2400E010E0B801A7010E9483121F9160
:102540000F91FF90EF900895CF92DF92EF92FF925C
:102550000F931F93CF93DF93EC016A017B01211549
:10256000310541F4E881F9810190F081E02D642F7B
:1025700009951FC02A303105D1F477FF17C0E881D3
:10258000F9810190F081E02D6DE209958C014427DD
:102590005527BA014C195D096E097F09CE012AE061
:1025A0000E941F129801280F391F04C02AE00E94C0
:1025B0001F129C01C901DF91CF911F910F91FF90D4
:1025C000EF90DF90CF900895EF92FF920F931F93BB
:1025D0007C010E94A4128C01C7010E94E3119C019E
:1025E000200F311FC9011F910F91FF90EF900895A7
:1025F000EF92FF920F931F937B019A010027F7FC44
:102600000095102FB801A7010E94A4121F910F91ED
:10261000FF90EF900895CF92DF92EF92FF920F9389
:102620001F936C017B019A010027F7FC0095102F86
:10263000B801A7010E94A4128C01C6010E94E311F7
:10264000080F191FC8011F910F91FF90EF90DF90A5
:10265000CF9008950E9403120895EF92FF920F9376
:102660001F937C010E9403128C01C7010E94E31199
:10267000080F191FC8011F910F91FF90EF90089547
:10268000CF93DF93EC010E94AF0D688779878A872B
:102690009B87E881F9810084F185E02DCE010995C1
:1026A0009C0197FF15C00E94AF0D288539854A858A
:1026B0005B85621B730B840B950B2C813D814E81D6
:1026C0005F81621773078407950718F32FEF3FEFB9
:1026D000C901DF91CF910895CF93DF93EC01CE0133
:1026E0000E9440139C0197FD0EC08D32910559F058
:1026F000C0970A9740F0E881F9810680F781E02DC4
:10270000CE010995ECCFC901DF91CF9108959F9239
:10271000AF92BF92CF92DF92EF92FF920F931F93EF
:10272000CF93DF936C01B62E0E946C13EC0197FFE0
:1027300004C0EE24FF2487014CC09924EE24FF241A
:102740008701AB2CBB24A7FCB094CA15DB0529F18B
:10275000CD32D10519F4992493941FC0CE01C097AE
:102760000A97D8F4C801B7012AE030E040E050E011
:102770000E9444147B018C01CE01AA2797FDA095ED
:10278000BA2FE80EF91E0A1F1B1F80ED9FEFAFEF57
:10279000BFEFE80EF91E0A1F1B1FD601ED91FC9139
:1027A0000680F781E02DC6010995C6010E944013FD
:1027B000EC01C0970A9748F2CA15DB0531F299205F
:1027C00041F010950095F094E094E11CF11C011D7E
:1027D000111DB701C801DF91CF911F910F91FF909B
:1027E000EF90DF90CF90BF90AF909F90089561E001
:1027F0000E94871308952F923F924F925F926F929B
:102800007F928F929F92AF92BF92CF92DF92EF9280
:10281000FF920F931F93DF93CF93CDB7DEB73B01AA
:102820004C0119012A016D897E898F89988D6A1959
:102830007B098C099D09621A730A840A950AA4010E
:1028400093010E944414E218F30804091509A80131
:1028500097010E94A4142A0D3B1D4C1D5D1DB9015A
:10286000CA01CF91DF911F910F91FF90EF90DF9000
:10287000CF90BF90AF909F908F907F906F905F9020
:102880004F903F902F900895629FD001739FF00169
:10289000829FE00DF11D649FE00DF11D929FF00DF0
:1028A000839FF00D749FF00D659FF00D9927729F27
:1028B000B00DE11DF91F639FB00DE11DF91FBD01B2
:1028C000CF0111240895991B79E004C0991F961730
:1028D00008F0961B881F7A95C9F78095089597FB95
:1028E000092E07260AD077FD04D049D006D0002053
:1028F0001AF4709561957F4F0895F6F7909581953C
:102900009F4F0895A1E21A2EAA1BBB1BFD010DC00B
:10291000AA1FBB1FEE1FFF1FA217B307E407F5078F
:1029200020F0A21BB30BE40BF50B661F771F881F6B
:10293000991F1A9469F760957095809590959B0101
:10294000AC01BD01CF01089597FB092E05260ED0DD
:1029500057FD04D0D7DF0AD0001C38F450954095BD
:10296000309521953F4F4F4F5F4F0895F6F7909563
:102970008095709561957F4F8F4F9F4F0895AA1B4B
:10298000BB1B51E107C0AA1FBB1FA617B70710F05A
:10299000A61BB70B881F991F5A95A9F7809590958C
:1029A000BC01CD010895EE0FFF1F0590F491E02DBD
:1029B000099411E0C4E6D1E004C0FE010E94D514E0
:0C29C0002296C636D107C9F7F894FFCF65
:1029CC0054696C74696E6720746F206C61726765F2
:1029DC007220646567726565210054696C74696E58
:1029EC006720746F20736D616C6C65722064656711
:1029FC00726565210054696C74696E6720746F2070
:102A0C0073616D6520646567726565005A20617835
:102A1C00697320636C6F636B7769736520726F7475
:102A2C0061746520666F723A2000206D696C6C6968
:102A3C007365636F6E647321005A2061786973202B
:102A4C00616E7469636C6F636B7769736520726F09
:102A5C007461746520666F723A200057726F6E67EE
:102A6C0020706172616D65746572206F66205A20EA
:102A7C006178697320726F746174696F6E20746908
:102A8C006D653A20004D6F766520486F6C646572F9
:102A9C0020557021004D6F766520486F6C6465720F
:102AAC0020446F776E2100446156696E636920463D
:102ABC0069726D77617265203C76657273696F6EB1
:102ACC0020332E353E005475726E206F6666204E94
:102ADC006F2E312052656C617920746F20706C758B
:102AEC006720696E204E6F2E3120555342210054C1
:102AFC0075726E206F6666204E6F2E322052656C9A
:102B0C00617920746F20706C756720696E204E6F30
:102B1C002E322055534221005475726E206F6E2058
:102B2C004E6F2E312052656C617920746F20706C61
:102B3C007567206F7574204E6F2E312055534221CE
:102B4C00005475726E206F6E204E6F2E32205265BF
:102B5C006C617920746F20706C7567206F757420B0
:102B6C004E6F2E32205553422100507265737320E4
:102B7C0074686520706F77657220627574746F6EFF
:102B8C00210052656C656173652074686520706FF7
:102B9C0077657220627574746F6E210053686F7262
:102BAC00742070726573732074686520706F77651C
:102BBC007220627574746F6E20666F723A20004CCE
:102BCC006F6E672050726573732074686520706F28
:102BDC0077657220627574746F6E20666F723A201E
:102BEC0000506C756720696E207468652065617291
:102BFC0070686F6E652100506C7567206F7574205E
:102C0C007468652065617270686F6E65210052652D
:102C1C006164207374617475733A207265616479B0
:102C2C0000556E6B6E6F776E20617267756D656E99
:102C3C00743A2000464652442049443A2000582D0C
:102C4C005920617869732074696C74696E6720709F
:102C5C006C6174652065786973747321005A206106
:102C6C007869732074696C74696E6720706C617418
:102C7C006520657869737473210043616D657261B9
:102C8C0020686F6C646572206C696674657220656F
:102C9C0078697374732100506F7765722070757347
:102CAC0068657220646F65736E277420657869732C
:102CBC0074210045617270686F6E6520706C756769
:102CCC0067657220646F65736E277420657869730D
:102CDC0074210055534220637574746572206578B5
:102CEC006973747321005468652073706565642082
:102CFC006F6620736572766F206D6F746F72204EE5
:102D0C006F2E002069733A200054686520616E674D
:102D1C006C65206F6620736572766F206D6F746FB3
:102D2C0072204E6F2E00556E6B6E6F776E20636F38
:102D3C006D6D616E643A2000436F6D6D616E642041
:102D4C006973206E6F742066696E6973686564219F
:102D5C00005A005A0000000000040CB911EA0BC91B
:102D6C000BC70CB60C000000001211B911A810D939
:062D7C0010B91002110065
:00000001FF
