:100000000C94B3000C94DB000C94DB000C94E3081C
:100010000C940D090C9437090C94DB000C94DB0054
:100020000C94DB000C94DB000C94DB000C94B40704
:100030000C94DB000C94DB000C94DB000C94DB00D4
:100040000C94FA0B0C94DB000C94780D0C94C60DF8
:100050000C94DB000C94DB000C94DB000C94DB00B4
:100060000C94DB000C94DB0000C2010001001100C5
:1000700011000C0000E100000A002500250021000D
:10008000009600001900390039003600127A00008D
:100090001F004600460044008070000022004D0012
:1000A0004D004A00004B00003600750075007200DC
:1000B000403800004A009C009C0099008025000008
:1000C0007200EC00EC00E900C0120000E900DA0167
:1000D000DA01D70160090000D701B603B603B30304
:1000E000B0040000B3036E076E076B0758020000F0
:1000F0006E07DC0EDC0ED80E2C010000DC0EC11DDC
:10010000C11DBE1D00000000240027002A000000C1
:100110000000250028002B0000000000230026001E
:10012000290004040404040404040202020202027A
:1001300003030303030301020408102040800102AB
:10014000040810200102040810200000000700022B
:100150000100000304060000000000000000DD00B4
:100160008204340F7B0411241FBECFEFD8E0DEBF22
:10017000CDBF13E0A0E0B1E0ECE8F5E202C00590ED
:100180000D92AA3BB107D9F714E0AAEBB3E001C086
:100190001D92AE3FB107E1F711E0C4E6D1E004C023
:1001A0002297FE010E94B512CE35D107C9F70E94F1
:1001B0008A0F0C94B9120C9400008AEB93E00E9411
:1001C00059048EEB93E00E94700681EC93E00E944C
:1001D00070060895AF92BF92CF92DF92EF92FF9296
:1001E0000F931F93CF93DF93BCC28CED94E00E94DA
:1001F000D7115B016C018CED94E00E94B90E0A9757
:1002000041F08CED94E00E94B90E8F5F9F4F09F092
:10021000B1C2ED2C1127E7FC1095F12E012F80E7DC
:10022000E816F10401051105E9F5CC2DD0E08501B2
:10023000FE01EE0FFF1FEB56FC4F0190F081E02D09
:10024000AE16BF0651F17E010894E11CF11C5CE37F
:10025000C52ED12CCA0CDB1CAE16BF062CF48CEDBF
:1002600094E060E071E004C08CED94E06BE071E03C
:100270000E940D118CED94E00E94E20E8AEB93E057
:10028000B701A60126E930E00E94A905CC0FDD1FC9
:10029000CB56DC4F1983088364C28CED94E066E191
:1002A00071E06CC291E7E916F1040105110509F04E
:1002B00053C08C2D90E09C01E501892BB9F41A14F0
:1002C0001B047CF5C630D10564F58CED94E060E24A
:1002D00071E00E940D118CED94E00E94E20E85E029
:1002E00061E00E94230D86E060E019C021303105F5
:1002F000C1F41A141B04ACF4C630D10594F48CED8F
:1003000094E060E371E00E940D118CED94E00E9496
:10031000E20E85E060E00E94230D86E061E00E942D
:10032000230D00E010E008C06CE271E080E090E096
:100330000E94500C0F5F1F4F0C171D07ACF385E098
:1003400060E00E94230D86E060E00E94230D68E5D6
:1003500072E080E090E053C1A2E7EA16F1040105E3
:10036000110529F48CED94E062E471E007C2B5E771
:10037000EB16F1040105110561F48CED94E061E6E2
:1003800071E00E940D118CED94E00E94E20E84E079
:1003900059C027E7E216F1040105110561F48CED5F
:1003A00094E06AE871E00E940D118CED94E00E94E7
:1003B000E20E87E047C086E7E816F1040105110563
:1003C00061F48CED94E063EB71E00E940D118CED13
:1003D00094E00E94E20E84E05AC098E7E916F10426
:1003E0000105110561F48CED94E06CED71E00E9463
:1003F0000D118CED94E00E94E20E87E048C0A2E669
:10040000EA16F10401051105F9F48CED94E065E0BC
:1004100072E00E940D118CED94E00E94E20E80E0EB
:1004200060E00E94230D83E060E00E94230D64EFF2
:1004300071E080E090E00E94500C81E060E00E945A
:10044000230D82E060E024C0B3E6EB16F104010561
:10045000110509F58CED94E06BE272E00E940D113C
:100460008CED94E00E94E20E81E061E00E94230D99
:1004700082E061E00E94230D64EF71E080E090E093
:100480000E94500C80E061E00E94230D83E061E057
:100490000E94230D66C129E7E216F104010511054A
:1004A00079F48CED94E061E572E00E940D118CED21
:1004B00094E00E94E20E8EEB93E06CE370E099C052
:1004C0008AE7E816F1040105110559F48CED94E072
:1004D00069E672E00E940D118CED94E00E94E20E3C
:1004E0005AC090E6E916F1040105110541F58CEDBD
:1004F00094E063E872E00E940A11E501AB2811F470
:10050000C0E9D1E08CED94E0BE014AE050E00E94E9
:10051000D8108CED94E066EA72E00E940D118CED2B
:1005200094E00E94E20E8EEB93E06CE370E00E9498
:10053000C606BE01882777FD8095982F2AC0A1E6C0
:10054000EA16F1040105110559F58CED94E065EB0F
:1005500072E00E940A1175018CED94E0B5014AE049
:1005600050E00E94D8108CED94E066EA72E00E94A0
:100570000D118CED94E00E94E20E8EEB93E06CE3A3
:1005800070E00E94C6060027F7FC0095102FC801F6
:10059000B7010E94500C8EEB93E060E570E029C03B
:1005A000B3E7EB16F1040105110579F48CED94E045
:1005B00067ED72E00E940D118CED94E00E94E20E56
:1005C00081EC93E062E570E014C024E7E216F104E8
:1005D00001051105B9F48CED94E06DEE72E00E9416
:1005E0000D118CED94E00E94E20E81EC93E060E747
:1005F00070E00E94C6066FE070E080E090E00E942C
:10060000500CAFC08BE7E816F1040105110529F481
:100610008CED94E064E073E0B1C09CE7E916F1046E
:100620000105110541F5A114B10491F486E094E0AF
:1006300068E070E00E947208682F8CED94E04AE058
:1006400050E00E9472108CED94E00E94C30F85C0B0
:100650008CED94E067E173E00E940A118FEF9FEF49
:10066000A0E0B0E0A822B922CA22DB228CED94E0FF
:10067000B601A5016EC09DE7E916F104010511055B
:1006800019F5C50101973FEFE32E3FEFF32E012D42
:10069000112DEA20FB200C211D21029708F04AC0F1
:1006A0008CED94E06AE273E00E940A118CED94E014
:1006B000B801A7012AE030E00E9484108AEB93E0A1
:1006C000B5010E94890427C0AEE7EA16F1040105CE
:1006D0001105A9F5C50101972FEFE22E2FEFF22E9C
:1006E000012D112DEA20FB200C211D21029710F570
:1006F0008CED94E06DE473E00E940A118CED94E0BF
:10070000B801A7012AE030E00E9484108AEB93E050
:10071000B5010E9419058C018CED94E067E473E04B
:100720000E940A118CED94E0B8014AE050E00E946A
:10073000EB1013C08CED94E067E173E004C08CED26
:1007400094E06AE673E00E940A118CED94E0B8012F
:10075000A7012AE030E00E94C4108CED94E00E94D2
:10076000E20E8CED94E00E94880E181619060CF427
:100770003CCD07C08CED94E06CE773E00E940D1156
:10078000ECCFDF91CF911F910F91FF90EF90DF9011
:10079000CF90BF90AF9008958AEB93E040E05BE488
:1007A00060E070E00E946B068AEB93E061E070E02D
:1007B00046E950E026E930E00E94A9056AE070E0D1
:1007C00080E090E00E94500C8AEB93E062E070E0E1
:1007D00046E950E026E930E00E94A9058EEB93E05F
:1007E00069E070E00E94AD078EEB93E060E570E099
:1007F0000E94C60681EC93E06AE070E00E94AD07BB
:1008000081EC93E060E770E00E94C6068CED94E016
:1008100040E855E260E070E00E94010E8CED94E04B
:100820000E94320F8823D1F38CED94E00E94E20EF7
:1008300085E061E00E94E40C86E061E00E94E40C47
:1008400085E060E00E94230D86E060E00E94230DB9
:1008500084E061E00E94E40C87E061E00E94E40C27
:1008600084E060E00E94230D87E060E00E94230D99
:1008700080E061E00E94E40C81E061E00E94E40C11
:1008800082E061E00E94E40C83E061E00E94E40CFD
:1008900080E060E00E94230D81E060E00E94230D73
:1008A00082E060E00E94230D83E060E00E94230D5F
:1008B0000895FC0186E990E09183808380EF90E0C9
:1008C0009383828308958130910559F46F5F7F4F40
:1008D00089F484EC93E06BE04CE020E00E94CC0BC8
:1008E0000895892B39F46F5F7F4F21F484EC93E0F6
:1008F0000E94530A089580E090E06FEF7FEF0E941E
:100900006304089581E090E06FEF7FEF0E9463043D
:100910000895AF92BF92CF92DF92EF92FF920F9322
:100920001F93DF93CF93CDB7DEB7A8970FB6F89498
:10093000DEBF0FBECDBF162F84EC93E06FEF0E9499
:10094000970A84EC93E06FEF0E94970A84EC93E09F
:10095000612F0E94970A84EC93E064E00E94970A5A
:1009600084EC93E062E00E94970A84EC93E066E2F4
:100970000E94970A84EC93E062E00E94970A125D5D
:10098000109584EC93E0612F0E94970A6AE070E072
:1009900080E090E00E94500C8E010F5F1F4F08C056
:1009A00084EC93E00E945C0AF801819391938F019B
:1009B00084EC93E00E947D0A892B91F700D000D04F
:1009C0007D8560E02B853C85620F731F882777FD4E
:1009D0008095982F2CE231E040E050E0EDB7FEB773
:1009E000218332834383548320E030E040E050E0B1
:1009F000BFEFEB2EB3E0FB2E012D112DAA24BB245B
:100A000065010E94DB110F900F900F900F90CB01AA
:100A1000A8960FB6F894DEBF0FBECDBFCF91DF9181
:100A20001F910F91FF90EF90DF90CF90BF90AF900C
:100A30000895AF92BF92CF92DF92EF92FF920F9301
:100A40001F93DF93CF93CDB7DEB7A8970FB6F89477
:100A5000DEBF0FBECDBF162F84EC93E06FEF0E9478
:100A6000970A84EC93E06FEF0E94970A84EC93E07E
:100A7000612F0E94970A84EC93E064E00E94970A39
:100A800084EC93E062E00E94970A84EC93E064E2D5
:100A90000E94970A84EC93E062E00E94970A145D3A
:100AA000109584EC93E0612F0E94970A6AE070E051
:100AB00080E090E00E94500C8E010F5F1F4F08C035
:100AC00084EC93E00E945C0AF801819391938F017A
:100AD00084EC93E00E947D0A892B91F700D000D02E
:100AE0007D8560E02B853C85620F731F882777FD2D
:100AF0008095982F2CE231E040E050E0EDB7FEB752
:100B0000218332834383548320E030E040E050E08F
:100B10001FEFE12E13E0F12E012D112DAA24BB248D
:100B200065010E94DB110F900F900F900F90CB0189
:100B3000A8960FB6F894DEBF0FBECDBFCF91DF9160
:100B40001F910F91FF90EF90DF90CF90BF90AF90EB
:100B500008952F923F924F925F926F927F928F9261
:100B60009F92AF92BF92CF92DF92EF92FF920F933C
:100B70001F93DF93CF9300D000D00F92CDB7DEB795
:100B80006B833A0100D000D0442737FD4095542FA5
:100B9000FFEF2F2EF3E03F2E412C512CEDB7FEB787
:100BA0002182328243825482CA01B90120E030E0BE
:100BB00040E050E0ECE2EE2EE1E0FE2E012D112DA2
:100BC000AA24BB2465010E94DB116C837D836983A9
:100BD0007A83882477FC8094982CEDB7FEB7218225
:100BE000328243825482C401B30120E030E040E00D
:100BF00050E00E94DB11162F072F78010F900F9005
:100C00000F900F9084EC93E06FEF0E94970A84ECB2
:100C100093E06FEF0E94970A84EC93E06B810E944F
:100C2000970A84EC93E067E00E94970A84EC93E0D3
:100C300063E00E94970A84EC93E06EE10E94970AB9
:100C400084EC93E0612F0E94970A84EC93E0602F7C
:100C50000E94970A84EC93E06C810E94970A84ECCE
:100C600093E06D810E94970AFB81F85DFF0D8981F9
:100C7000F80FFE0D9A81F90FF09584EC93E06F2F39
:100C80000E94970A6AE070E080E090E00E94500CB9
:100C900004C084EC93E00E945C0A84EC93E00E9420
:100CA0007D0A892BB1F70F900F900F900F900F9046
:100CB000CF91DF911F910F91FF90EF90DF90CF9038
:100CC000BF90AF909F908F907F906F905F904F906C
:100CD0003F902F90089584EC93E00E94610908955D
:100CE000FC018091E0038C3090F480838F5F8093CF
:100CF000E003815090E0FC01EE0FFF1FE80FF91FA9
:100D0000EF51FC4F88EB9BE09283818308958FEF36
:100D100080830895FC0120812C30B8F581819927CA
:100D200087FD909548E850E0481B590B440F551F2C
:100D3000440F551F6417750784F08281992787FD3A
:100D4000909548E552E0481B590B440F551F440F3E
:100D5000551F641775070CF4AB0142505040CA018F
:100D6000AA2797FDA095BA2F880F991FAA1FBB1F0E
:100D70004FB7F89430E0F901EE0FFF1FE20FF31FB9
:100D8000EF51FC4F928381834FBF0895AF92BF9282
:100D9000CF92DF92EF92FF920F931F93CF93DF9347
:100DA000EC019B0182E0603278070CF048C077FFCD
:100DB00003C020E030E005C0653B710514F024EB72
:100DC00030E000D000D0B901882777FD8095982FBA
:100DD0002981332727FD3095E8E8AE2EB12CA21AE1
:100DE000B30AAA0CBB1CAA0CBB1CCC24B7FCC09435
:100DF000DC2CEA81FF27E7FDF09528E532E02E1B89
:100E00003F0B220F331F220F331F442737FD40951E
:100E1000542FEDB7FEB7218332834383548320E000
:100E200030E040E050E004EBE02EF12C012D112DDC
:100E30000E94DB119B010F900F900F900F90CE013D
:100E4000B9010E948A06DF91CF911F910F91FF9007
:100E5000EF90DF90CF90BF90AF900895CF92DF9248
:100E6000EF92FF921F93CF93DF93EC01162F7A013D
:100E7000690188818C3008F064C0862F61E00E948F
:100E8000E40C888190E0FC01EE0FFF1FE80FF91FD2
:100E9000EF51FC4F1F738081807C812B808380E227
:100EA00092E08E199F0964E070E00E944F126983FE
:100EB00080E699E08C199D0964E070E00E944F1271
:100EC0006A83A8818A2F6CE00E944312682F70E029
:100ED000AB01440F551F460F571F440F551F440FBA
:100EE000551F20E030E0C901840F951FFC01EE0F73
:100EF000FF1FE80FF91FEF51FC4F808186FD15C0E1
:100F00002F5F3F4F2C30310571F724C010928000C5
:100F100082E0809381001092850010928400B19A43
:100F200080916F00826080936F008A2F90E0FC01B7
:100F3000EE0FFF1FE80FF91FEF51FC4F8081806417
:100F400080838881DF91CF911F91FF90EF90DF9098
:100F5000CF900895672BD1F2E8CF40E252E020E62F
:100F600039E00E942E0708951F920F920FB60F923C
:100F700011242F933F934F935F936F937F938F939E
:100F80009F93AF93BF93EF93FF938091050487FFE7
:100F900005C010928500109284002BC0209105049A
:100FA000332727FD30958091E00390E0281739071B
:100FB00004F580910504992787FD9095FC01EE0FBB
:100FC000FF1FE80FF91FEF51FC4F808186FF11C012
:100FD00080910504992787FD9095FC01EE0FFF1F76
:100FE000E80FF91FEF51FC4F80818F7360E00E9482
:100FF000230D809105048F5F8093050420910504E3
:10100000332727FD30958091E00390E028173907BA
:101010000CF04EC0809105048C300CF049C020913A
:1010200084003091850080910504992787FD909573
:10103000FC01EE0FFF1FE80FF91FEF51FC4F8181FC
:101040009281280F391F3093890020938800809166
:101050000504992787FD9095FC01EE0FFF1FE80F0F
:10106000F91FEF51FC4F808186FF2BC08091050452
:10107000992787FD9095FC01EE0FFF1FE80FF91FE0
:10108000EF51FC4F80818F7361E00E94230D19C0E6
:1010900080E49CE905C080918400909185000496CD
:1010A00090938900809388008FEF8093050409C096
:1010B0008091840090918500049680549C4940F36F
:1010C000EACFFF91EF91BF91AF919F918F917F9167
:1010D0006F915F914F913F912F910F900FBE0F90A5
:1010E0001F901895F999FECF72BD61BDF89A80B531
:1010F00008950F931F93CF93DF93FC01738D769523
:101100007170A685B7859585772329F08C91892301
:1011100009F454C004C08C91892309F04FC083891D
:10112000948920E001972FEF8F3F9207D9F7C58967
:10113000D689A685B785158560E031E040E050E0AE
:1011400000E0CE01202F01972FEF8F3F9207D9F7B4
:101150008C91812311F0632B03C0832F809568232A
:10116000330F4F5F5F4F4830510559F78789908D96
:1011700020E001972FEF8F3F9207D9F7711160950B
:101180008091490420914A0490E001968F739070F9
:1011900030E08217930779F0E0914904F0E0E75FCF
:1011A000FB4F60838091490490E001968F739070AB
:1011B0008093490403C0838D8160838FDF91CF9139
:1011C0001F910F9108951F920F920FB60F92112445
:1011D0002F933F934F935F936F937F938F939F933F
:1011E000AF93BF93EF93FF9380910704909108040E
:1011F000009711F00E947908FF91EF91BF91AF9194
:101200009F918F917F916F915F914F913F912F911E
:101210000F900FBE0F901F9018951F920F920FB650
:101220000F9211242F933F934F935F936F937F936C
:101230008F939F93AF93BF93EF93FF938091070496
:1012400090910804009711F00E947908FF91EF91A6
:10125000BF91AF919F918F917F916F915F914F91CE
:101260003F912F910F900FBE0F901F9018951F92D6
:101270000F920FB60F9211242F933F934F935F93CA
:101280006F937F938F939F93AF93BF93EF93FF934E
:101290008091070490910804009711F00E9479084A
:1012A000FF91EF91BF91AF919F918F917F916F913E
:1012B0005F914F913F912F910F900FBE0F901F9014
:1012C0001895CF92DF92EF92FF920F931F93CF93D7
:1012D000DF93EC017A018B011A8E198E188E1F8A0A
:1012E0001E8A1D8A1C8A1B8A20E030E06901CC0C12
:1012F000DD1CC20ED31EB601660F771F660F771F67
:10130000AB0148595F4FFA0185919591A591B49130
:101310008E159F05A007B107E9F4FB01E459FF4FC3
:10132000859194919C8B8B8BFB01E259FF4F8591AA
:1013300094919E8B8D8BFB01E059FF4F8591949189
:10134000988F8F8BFB01EE58FF4F859194919A8F68
:10135000898F06C02F5F3F4F2D30310509F0C6CF72
:101360008F89988D892B09F449C04C85463108F046
:101370003DC090916800483010F484E005C04E30C4
:1013800010F082E001C081E0892B80936800483032
:1013900028F4EDE6F0E0ADE6B0E00BC04E3028F00A
:1013A000ECE6F0E0ACE6B0E004C0EBE6F0E0ABE683
:1013B000B0E05081483040F481E090E002C0880FF6
:1013C000991F4A95E2F710C0242F30E04E3018F4F0
:1013D0002850304002C02E50304081E090E002C0E2
:1013E000880F991F2A95E2F7852B8C93898D9A8D0A
:1013F00020E001972FEF8F3F9207D9F780910704E4
:10140000909108048C179D0781F08B8D8E7F8B8FB8
:101410009FB7F894109249048091490480934A043C
:10142000D0930804C09307049FBFDF91CF911F9111
:101430000F91FF90EF90DF90CF900895FC014485CD
:10144000463180F5483028F4EDE6F0E0ADE6B0E056
:101450000BC04E3028F4EBE6F0E0ABE6B0E004C0A1
:10146000ECE6F0E0ACE6B0E05081483040F481E0DA
:1014700090E002C0880F991F4A95E2F710C0242F10
:1014800030E04E3018F42850304002C02E5030402A
:1014900081E090E002C0880F991F2A95E2F78095BD
:1014A00085238C930895FC018DE993E091838083DB
:1014B000CF010E941E0A089520910704309108046C
:1014C0002817390731F490914A04809149049817FC
:1014D00019F42FEF3FEF0FC0E0914A04F0E0E75F0F
:1014E000FB4F208180914A0490E001968F739070A9
:1014F00080934A0430E0C901089520910704309197
:1015000008042817390719F020E030E00EC0809158
:10151000490420914A0490E0805C9F4F821B91090E
:1015200060E470E00E944F129C01C90108950F937E
:101530001F93DC0159968D919C915A97892B49F400
:1015400081E090E013969C938E93129720E030E018
:1015500097C00FB7F8945B968C915B975196ED917D
:10156000FC91529750962C91509781FF8DC08081AD
:10157000822B808359968D919C915A97059620E0F5
:1015800001972FEF8F3F9207D9F75B968C915B976E
:1015900081FF35C031E040E050E070E010E0832F83
:1015A00090E0862397235196ED91FC9152975096A7
:1015B0002C915097892B29F0808120952823208316
:1015C00003C08081822B808359968D919C915A977C
:1015D000212F01972FEF8F3F9207D9F7330F4F5FDE
:1015E0005F4F48305105D9F65196ED91FC915297D5
:1015F000908150968C9150978095892333C031E02B
:1016000040E050E070E010E0832F90E086239723C5
:101610005196ED91FC91529750962C915097892BB1
:1016200021F08081822B808304C080812095282333
:10163000208359968D919C915A97212F01972FEFD6
:101640008F3F9207D9F7330F4F5F5F4F48305105F7
:10165000D9F65196ED91FC915297808150969C91CC
:101660005097892B80830FBF59968D919C915A97E3
:1016700020E001972FEF8F3F9207D9F721E030E06C
:10168000C9011F910F9108958081209528232083FF
:1016900071CF20910704309108042817390749F4C5
:1016A0009FB7F894109249048091490480934A04AA
:1016B0009FBF089520910704309108042817390727
:1016C00031F490914A0480914904981719F42FEF4E
:1016D0003FEF0AC0E0914A04F0E0E75FFB4F8081F2
:1016E000282F332727FD3095C90108951F93CF93E5
:1016F000DF93EC01162F862F60E00E94E40C8B8DA7
:1017000081FD04C0812F61E00E94230D1C87212FE1
:1017100030E0C9018A5C9E4FFC0184918D872E5D6B
:101720003E4FF9016491E62FF0E0EE0FFF1FE85EF7
:10173000FE4F859194919F878E87DF91CF911F9166
:101740000895FF920F931F938C01F62E862F61E070
:101750000E94E40C8F2D61E00E94230D8F2D90E0FC
:10176000FC01EA5CFE4FE491D8015096EC9350974F
:101770008E5D9E4FFC016491E62FF0E0EE0FFF1F9F
:10178000E25FFE4F8591949152969C938E93519770
:101790001F910F91FF900895FF920F931F938C015B
:1017A000F62EFC011382128288EE93E0A0E0B0E0F6
:1017B00084839583A683B7838DE993E091838083A7
:1017C000148A138A168A158A108E178A128E118E21
:1017D000838D2170220F8C7F822B838FC801642F11
:1017E0000E94A10BC8016F2D0E94760B1F910F91D3
:1017F000FF9008951F920F920FB60F9211242F930E
:101800003F938F939F93AF93BF9380914F04909199
:101810005004A0915104B0915204309153040196A8
:10182000A11DB11D232F2D5F2D3720F02D570196BF
:10183000A11DB11D2093530480934F049093500435
:10184000A0935104B093520480914B0490914C04A6
:10185000A0914D04B0914E040196A11DB11D80933D
:101860004B0490934C04A0934D04B0934E04BF914D
:10187000AF919F918F913F912F910F900FBE0F903D
:101880001F9018958FB7F89420914F043091500411
:1018900040915104509152048FBFB901CA0108957B
:1018A0009B01AC017FB7F89480914B0490914C045C
:1018B000A0914D04B0914E0466B5A89B05C06F3F42
:1018C00019F00196A11DB11D7FBFBA2FA92F982F26
:1018D0008827860F911DA11DB11D62E0880F991FF9
:1018E000AA1FBB1F6A95D1F7BC012DC0FFB7F894A2
:1018F00080914B0490914C04A0914D04B0914E0402
:10190000E6B5A89B05C0EF3F19F00196A11DB11DDA
:10191000FFBFBA2FA92F982F88278E0F911DA11DC9
:10192000B11DE2E0880F991FAA1FBB1FEA95D1F7EE
:10193000861B970B885E9340C8F221503040404090
:10194000504068517C4F211531054105510571F614
:101950000895789484B5826084BD84B5816084BD27
:1019600085B5826085BD85B5816085BDEEE6F0E018
:10197000808181608083E1E8F0E010828081826074
:101980008083808181608083E0E8F0E080818160F5
:101990008083E1EBF0E0808184608083E0EBF0E025
:1019A000808181608083EAE7F0E0808184608083C9
:1019B0008081826080838081816080838081806873
:1019C00080831092C1000895CF93DF93482F50E099
:1019D000CA018A5C9E4FFC0134914E5D5E4FFA0154
:1019E0008491882369F190E0880F991FFC01EC5FD6
:1019F000FE4FA591B491FC01E25FFE4FC591D491D9
:101A0000662351F42FB7F8948C91932F90958923E6
:101A10008C93888189230BC0623061F42FB7F894CE
:101A20008C91932F909589238C938881832B888325
:101A30002FBF06C09FB7F8948C91832B8C939FBFC8
:101A4000DF91CF910895482F50E0CA01865B9E4FE9
:101A5000FC012491CA018A5C9E4FFC0194914E5D69
:101A60005E4FFA013491332309F440C0222351F12F
:101A7000233071F0243028F42130A1F0223011F508
:101A800014C02630B1F02730C1F02430D9F404C09E
:101A9000809180008F7703C0809180008F7D80933C
:101AA000800010C084B58F7702C084B58F7D84BD5F
:101AB00009C08091B0008F7703C08091B0008F7D06
:101AC0008093B000E32FF0E0EE0FFF1FE25FFE4FC8
:101AD000A591B4912FB7F894662321F48C91909539
:101AE000892302C08C91892B8C932FBF0895089570
:101AF0001F920F920FB60F9211242F933F934F9383
:101B00008F939F93EF93FF938091C00082FD1DC040
:101B10004091C60020919404309195042F5F3F4F6F
:101B20002F7330708091960490919704281739078D
:101B300071F0E0919404F0919504EC5AFB4F4083CE
:101B4000309395042093940402C08091C600FF91C5
:101B5000EF919F918F914F913F912F910F900FBED9
:101B60000F901F901895E091E804F091E904E05C73
:101B7000FF4F8191919120813181821B930B8F7353
:101B80009070892B11F00E94770D08951F920F928B
:101B90000FB60F9211242F933F938F939F93EF9340
:101BA000FF932091D8043091D9048091DA04909168
:101BB000DB042817390731F48091C1008F7D8093B1
:101BC000C10014C0E091DA04F091DB04E856FB4F49
:101BD00020818091DA049091DB0401968F739070DC
:101BE0009093DB048093DA042093C600FF91EF9179
:101BF0009F918F913F912F910F900FBE0F901F904B
:101C00001895AF92BF92DF92EF92FF920F931F93BE
:101C1000CF93DF93EC017A018B01DD24403081EE1C
:101C2000580780E0680780E0780711F0DD24D3943E
:101C300091E0A92EB12CEC89FD89DD2069F0C50168
:101C400008A002C0880F991F0A94E2F7808360E021
:101C500079E08DE390E005C0108260E874E88EE1E1
:101C600090E0A80197010E9462122150304040404C
:101C70005040569547953795279580E12030380795
:101C800020F0DD2011F0DD24D6CFE889F9893083FA
:101C9000EA89FB89208319A2EE89FF89408121E02E
:101CA00030E0C9010C8C02C0880F991F0A94E2F73A
:101CB000482B4083EE89FF894081C9010D8C02C009
:101CC000880F991F0A94E2F7482B4083EE89FF8919
:101CD0004081C9010E8C02C0880F991F0A94E2F757
:101CE000482B4083EE89FF8980810F8C02C0220F30
:101CF000331F0A94E2F7209528232083DF91CF91A8
:101D00001F910F91FF90EF90DF90BF90AF900895DB
:101D1000DC011C96ED91FC911D97E05CFF4F219139
:101D2000319180819181281B390B2F733070C9014B
:101D30000895DC011C96ED91FC911D97E05CFF4F2E
:101D400020813181E054F040DF01AE5BBF4F8D91C7
:101D50009C9111972817390719F42FEF3FEF07C00F
:101D60008D919C91E80FF91F8081282F30E0C901E7
:101D70000895DC011C96ED91FC911D97E05CFF4FEE
:101D800020813181E054F040DF01AE5BBF4F8D9187
:101D90009C9111972817390719F42FEF3FEF10C0C6
:101DA0008D919C911197E80FF91F20818D919C9145
:101DB000119701968F73907011969C938E9330E0DB
:101DC000C9010895DC0191968C919197882339F08F
:101DD0005496ED91FC915597808186FFF9CF9196AD
:101DE0001C920895CF93DF93EC01EE85FF85E05CB4
:101DF000FF4F20813181E054F0402F5F3F4F2F7320
:101E00003070DF01AE5BBF4F8D919C911197281709
:101E10003907D1F3E05CFF4F80819181E054F040BD
:101E2000E80FF91F6083EE85FF85E05CFF4F31838B
:101E30002083EE89FF89208181E090E00F8C02C031
:101E4000880F991F0A94E2F7282B208381E089A349
:101E5000EC89FD8980818064808381E090E0DF915E
:101E6000CF91089581E008951092DF041092DE046E
:101E700088EE93E0A0E0B0E08093E0049093E1046A
:101E8000A093E204B093E3048DEA93E09093DD0421
:101E90008093DC0484E594E09093E9048093E80463
:101EA00088E994E09093EB048093EA0485EC90E059
:101EB0009093ED048093EC0484EC90E09093EF0415
:101EC0008093EE0480EC90E09093F1048093F00412
:101ED00081EC90E09093F3048093F20482EC90E024
:101EE0009093F5048093F40486EC90E09093F704CB
:101EF0008093F60484E08093F80483E08093F904EF
:101F000087E08093FA0485E08093FB0481E080936E
:101F1000FC040895CF93DF930E94A90C0E94CC0388
:101F2000C3EBDDE00E94EA002097E1F30E94B30DCD
:101F3000F9CFCF92DF92EF92FF920F931F93CF933F
:101F4000DF937C016B018A01C0E0D0E00FC0D601B5
:101F50006D916D01D701ED91FC910190F081E02D23
:101F6000C7010995C80FD91F01501040011511056F
:101F700071F7CE01DF91CF911F910F91FF90EF90FC
:101F8000DF90CF900895EF92FF920F931F938C01F3
:101F9000DC01ED91FC910190F081E02D6DE009955F
:101FA0007C01D801ED91FC910190F081E02DC801F8
:101FB0006AE009959C012E0D3F1DC9011F910F91EB
:101FC000FF90EF900895CF93DF93EC0161157105B9
:101FD00019F420E030E00FC0DB010D900020E9F79C
:101FE0001197A61BB70BE881F9810280F381E02DE0
:101FF000AD0109959C01C901DF91CF9108954F92E0
:102000005F927F928F929F92AF92BF92CF92DF9218
:10201000EF92FF920F931F93DF93CF93CDB7DEB76D
:10202000A1970FB6F894DEBF0FBECDBF2C01742E62
:10203000CB01223008F42AE019A231E2C32ED12CC0
:10204000CC0EDD1E822E9924AA24BB24672D752F69
:10205000A50194010E94621279018A01C801B701A9
:10206000A50194010E942412472D461B0894C10823
:10207000D1084A3014F4405D01C0495CF601408348
:10208000E114F1040105110521F07E2C5F2DC8013A
:10209000DDCFC201B6010E94E30FA1960FB6F894FE
:1020A000DEBF0FBECDBFCF91DF911F910F91FF908B
:1020B000EF90DF90CF90BF90AF909F908F907F90E8
:1020C0005F904F900895DC012115310541F4ED91A9
:1020D000FC910190F081E02D642F099508950E94F4
:1020E000FF0F0895EF92FF920F931F939A01E62E30
:1020F000FF2400E010E0B801A7010E9463101F91C7
:102100000F91FF90EF900895CF92DF92EF92FF92A0
:102110000F931F93CF93DF93EC016A017B0121158D
:10212000310541F4E881F9810190F081E02D642FBF
:1021300009951FC02A303105D1F477FF17C0E88117
:10214000F9810190F081E02D6DE209958C01442721
:102150005527BA014C195D096E097F09CE012AE0A5
:102160000E94FF0F9801280F391F04C02AE00E9427
:10217000FF0F9C01C901DF91CF911F910F91FF903B
:10218000EF90DF90CF900895EF92FF920F931F93FF
:102190007C010E9484108C01C7010E94C30F9C0126
:1021A000200F311FC9011F910F91FF90EF900895EB
:1021B000EF92FF920F931F937B019A010027F7FC88
:1021C0000095102FB801A7010E9484101F910F9154
:1021D000FF90EF900895CF92DF92EF92FF920F93CE
:1021E0001F936C017B019A010027F7FC0095102FCB
:1021F000B801A7010E9484108C01C6010E94C30F80
:10220000080F191FC8011F910F91FF90EF90DF90E9
:10221000CF9008950E94E30F0895EF92FF920F93DD
:102220001F937C010E94E30F8C01C7010E94C30F22
:10223000080F191FC8011F910F91FF90EF9008958B
:10224000CF93DF93EC010E94420C688779878A87DD
:102250009B87E881F9810084F185E02DCE01099505
:102260009C0197FF15C00E94420C288539854A853C
:102270005B85621B730B840B950B2C813D814E811A
:102280005F81621773078407950718F32FEF3FEFFD
:10229000C901DF91CF910895CF93DF93EC01CE0177
:1022A0000E9420119C0197FD0EC08D32910559F0BE
:1022B000C0970A9740F0E881F9810680F781E02D08
:1022C000CE010995ECCFC901DF91CF9108959F927E
:1022D000AF92BF92CF92DF92EF92FF920F931F9334
:1022E000CF93DF936C01B62E0E944C11EC0197FF47
:1022F00004C0EE24FF2487014CC09924EE24FF245F
:102300008701AB2CBB24A7FCB094CA15DB0529F1CF
:10231000CD32D10519F4992493941FC0CE01C097F2
:102320000A97D8F4C801B7012AE030E040E050E055
:102330000E9424127B018C01CE01AA2797FDA09553
:10234000BA2FE80EF91E0A1F1B1F80ED9FEFAFEF9B
:10235000BFEFE80EF91E0A1F1B1FD601ED91FC917D
:102360000680F781E02DC6010995C6010E94201163
:10237000EC01C0970A9748F2CA15DB0531F29920A3
:1023800041F010950095F094E094E11CF11C011DC2
:10239000111DB701C801DF91CF911F910F91FF90DF
:1023A000EF90DF90CF90BF90AF909F90089561E045
:1023B0000E94671108952F923F924F925F926F9201
:1023C0007F928F929F92AF92BF92CF92DF92EF92C5
:1023D000FF920F931F93DF93CF93CDB7DEB73B01EF
:1023E0004C0119012A016D897E898F89988D6A199E
:1023F0007B098C099D09621A730A840A950AA40153
:1024000093010E942412E218F30804091509A80197
:1024100097010E9484122A0D3B1D4C1D5D1DB901C0
:10242000CA01CF91DF911F910F91FF90EF90DF9044
:10243000CF90BF90AF909F908F907F906F905F9064
:102440004F903F902F900895629FD001739FF001AD
:10245000829FE00DF11D649FE00DF11D929FF00D34
:10246000839FF00D749FF00D659FF00D9927729F6B
:10247000B00DE11DF91F639FB00DE11DF91FBD01F6
:10248000CF0111240895991B79E004C0991F961774
:1024900008F0961B881F7A95C9F78095089597FBD9
:1024A000092E07260AD077FD04D049D006D0002097
:1024B0001AF4709561957F4F0895F6F79095819580
:1024C0009F4F0895A1E21A2EAA1BBB1BFD010DC050
:1024D000AA1FBB1FEE1FFF1FA217B307E407F507D4
:1024E00020F0A21BB30BE40BF50B661F771F881FB0
:1024F000991F1A9469F760957095809590959B0146
:10250000AC01BD01CF01089597FB092E05260ED021
:1025100057FD04D0D7DF0AD0001C38F45095409501
:10252000309521953F4F4F4F5F4F0895F6F79095A7
:102530008095709561957F4F8F4F9F4F0895AA1B8F
:10254000BB1B51E107C0AA1FBB1FA617B70710F09E
:10255000A61BB70B881F991F5A95A9F780959095D0
:10256000BC01CD010895EE0FFF1F0590F491E02D01
:10257000099411E0C4E6D1E004C0FE010E94B51246
:0C2580002296C636D107C9F7F894FFCFA9
:10258C0054696C74696E672031210054696C7469EC
:10259C006E672032210054696C74696E67203000BC
:1025AC004D6F766520486F6C646572205570210004
:1025BC004D6F766520486F6C64657220446F776E42
:1025CC002100446156696E6369204669726D7761BA
:1025DC007265203C76657273696F6E20332E313EC6
:1025EC00005475726E206F6666204E6F2E3120522D
:1025FC00656C617920746F20706C756720696E2032
:10260C004E6F2E312055534221005475726E206F3F
:10261C006666204E6F2E322052656C617920746F85
:10262C0020706C756720696E204E6F2E32205553CA
:10263C004221005475726E206F6E204E6F2E312029
:10264C0052656C617920746F20706C7567206F75A2
:10265C0074204E6F2E312055534221005475726EEA
:10266C00206F6E204E6F2E322052656C6179207473
:10267C006F20706C7567206F7574204E6F2E322032
:10268C0055534221005475726E206F666620526558
:10269C006C617920746F20706C756720696E2055A1
:1026AC0053422064657669636521005475726E200F
:1026BC006F6E2052656C617920746F20706C756739
:1026CC00206F7574205553422064657669636521CB
:1026DC000050726573732074686520706F77657233
:1026EC0020627574746F6E210052656C6561736540
:1026FC002074686520706F77657220627574746FD2
:10270C006E210053686F727420707265737320743D
:10271C00686520706F77657220627574746F6E20B7
:10272C00666F723A2000206D696C6C697365636F1B
:10273C006E647321004C6F6E67205072657373204A
:10274C0074686520706F77657220627574746F6E33
:10275C0020666F723A2000506C756720696E207489
:10276C0068652065617270686F6E652100506C75CC
:10277C0067206F7574207468652065617270686F6E
:10278C006E65210052656164207374617475733ACF
:10279C0020726561647900556E6B6E6F776E206187
:1027AC007267756D656E743A20005468652073709D
:1027BC00656564206F6620736572766F206D6F742B
:1027CC006F72204E6F2E002069733A20005468659A
:1027DC0020616E676C65206F6620736572766F2062
:1027EC006D6F746F72204E6F2E00556E6B6E6F771F
:1027FC006E20636F6D6D616E643A2000436F6D6D7A
:10280C00616E64206973206E6F742066696E6973E3
:10281C0068656421005A005A0000000000970A996C
:10282C000F7D0A5C0A5A0B490B00000000F20E994E
:0A283C000F880EB90E990EE20E008F
:00000001FF
