:1000000053C100007EC100007CC100007AC1000025
:1000100078C1000076C1000074C1000072C1000008
:1000200070C100000C943E0F0C946B0F0C94980F51
:1000300068C1000066C1000064C1000062C1000028
:1000400060C100000C94A70E5CC100005AC1000002
:1000500058C1000056C1000054C100000C94831226
:1000600050C100000C9487150C94CB164AC10000B7
:1000700048C1000046C1000044C1000042C1000068
:100080000C947A0E3EC100003CC100003AC1000051
:100090000C94C7150C940A1734C1000032C100003B
:1000A00030C100002EC100000C944D0E2AC100008A
:1000B00028C1000026C1000024C100000C94200EBD
:1000C00020C100001EC100001CC100000C940716D6
:1000D0000C94491716C100000C9447160C9488170D
:1000E00010C1000000C201000100110011000C004D
:1000F00000E100000A002500250021000096000014
:100100001900390039003600127A00001F0046003D
:10011000460044008070000022004D004D004A005F
:10012000004B00003600750075007200403800007A
:100130004A009C009C009900802500007200EC00A1
:10014000EC00E900C0120000E900DA01DA01D70191
:1001500060090000D701B603B603B303B004000082
:10016000B3036E076E076B07580200006E07DC0EC4
:10017000DC0ED80E2C010000DC0EC11DC11DBE1D01
:1001800000002100240027002A002D003000330049
:1001900001010000040107010A01000022002500FE
:1001A00028002B002E003100340002010000050160
:1001B00008010B01000020002300260029002C006C
:1001C0002F003200000100000301060109010505AE
:1001D0000505070508080808020202020A0A0808BD
:1001E00004040404010101010101010103030303EB
:1001F00003030303040707070C0C0C0C0C0C0C0C7A
:100200000202020206060606060606060B0B0B0B8A
:100210000B0B0B0B010210202008081020401020AF
:1002200040800201020108040201010204081020BA
:1002300040808040201008040201800402018040B8
:100240002010080402010804020101020408102021
:10025000408001020408102040800000090A0208C2
:100260000B0C0D0706030401000000000000000055
:10027000000000000000000000000000000000007E
:1002800000000000000011100F000000000000003E
:10029000000000000000000000000000000000005E
:1002A0008201F007F918EB0711241FBECFEFD1E24E
:1002B000DEBFCDBF00E00CBF16E0A0E0B2E0E6EB91
:1002C000FAE300E00BBF02C007900D92A837B10718
:1002D000D9F71BBE1AE0A8E7B6E001C01D92AC3208
:1002E000B107E1F712E0C6EAD2E004C02297FE01AE
:1002F0000E944B1DC03AD107C9F70E942F1A0C94D7
:100300004F1D7ECE88E796E045D68CE796E00E94AA
:10031000BF0B8FE796E00C94BF0B4F925F926F92EA
:100320007F928F929F92AF92BF92CF92DF92EF9285
:10033000FF920F931F93CF93DF9338C584EA99E020
:100340000E94711C4B015C0184EA99E00E947E18B6
:100350000A9741F084EA99E00E947E188F5F9F4FD0
:1003600009F02DC5EB2C1127E7FC1095F12E012F7C
:1003700030E7E316F1040105110509F07BC08CE7B5
:1003800096E00E94D90B8FE796E00E94D90BEA2CE9
:10039000FF248401E701CC0FDD1FCD5AD94F88819E
:1003A00099818816990609F45EC0881699067CF42E
:1003B00084EA99E060E072E00E94AD1B84EA99E073
:1003C0000E94A71828813981281939090FC084EAA9
:1003D00099E06BE172E00E94AD1B84EA99E00E9413
:1003E000A718888199819401281B390B2D33310579
:1003F0005CF0B7016F5F7F4FA801445C5F4F88E7F7
:1004000096E026E930E023C0C9014F974E9758F493
:10041000B7016F5F7F4FA801445C5F4F88E796E0AC
:1004200028EC30E014C02B503040B7016F5F7F4F95
:10043000A801445C5F4F2431310528F488E796E039
:100440002AEF30E004C088E796E02CE231E00E9419
:10045000080BEE0CFF1C83E596E0E80EF91ED701B1
:100460000D931C9386C484EA99E065E372E00E94D0
:10047000AD1B65C3B2E6EB16F1040105110509F0E9
:1004800084C08CE796E00E94D90B8FE796E00E942B
:10049000D90B8A2D90E09C01E401892B19F597FC7A
:1004A00056C084EA99E06CE472E00E94AB1B84EAD7
:1004B00099E0B4014AE050E00E947C1B84EA99E094
:1004C0006AE672E00E94AD1B84EA99E00E94A718D8
:1004D00085E066E970E00E94941386E060E00E9487
:1004E000251525C02130310591F597FC30C084EAEF
:1004F00099E069E772E00E94AB1B84EA99E0B401DD
:100500004AE050E00E947C1B84EA99E06AE672E0CF
:100510000E94AD1B84EA99E00E94A71885E060E084
:100520000E94251586E066E970E00E949413BE01E2
:10053000882777FD8095982F0E94D91285E060E08A
:100540000E94251586E060E00E94251517C084EA08
:1005500099E06BE972E00E94AB1B84EA99E0BE016E
:100560004AE050E00E947C1B84EA99E06AE672E06F
:100570000E94AD1B84EA99E00E94A7186FE070E02A
:1005800080E090E00E94D912F4C3E1E7EE16F10496
:100590000105110509F053C08A2D90E09C01E4018A
:1005A000892BB9F4181419047CF5C630D10564F50B
:1005B00084EA99E065EC72E00E94AD1B84EA99E060
:1005C0000E94A71885E061E00E94251586E060E0A2
:1005D00019C021303105C1F418141904ACF4C63027
:1005E000D10594F484EA99E065ED72E00E94AD1BB8
:1005F00084EA99E00E94A71885E060E00E94251532
:1006000086E061E00E94251500E010E008C06CE281
:1006100071E080E090E00E94D9120F5F1F4F0C172D
:100620001D07ACF385E060E00E94251586E060E0E0
:100630000E94251568E572E080E090E0F9C0F2E7DD
:10064000EF16F1040105110529F484EA99E067EE3B
:1006500072E0B9C325E7E216F1040105110561F462
:1006600084EA99E066E073E00E94AD1B84EA99E0B9
:100670000E94A71884E011C037E7E316F1040105D2
:10068000110569F484EA99E06FE273E00E94AD1B02
:1006900084EA99E00E94A71887E060E024C086E71A
:1006A000E816F1040105110561F484EA99E068E5B2
:1006B00073E00E94AD1B84EA99E00E94A71884E0D1
:1006C00011C098E7E916F1040105110579F484EAEF
:1006D00099E061E873E00E94AD1B84EA99E00E9412
:1006E000A71887E061E00E94251560C3A9E7EA1614
:1006F000F1040105110579F484EA99E06AEA73E0EE
:100700000E94AD1B84EA99E00E94A7188CE796E04E
:100710006CE370E087C0BAE7EB16F1040105110540
:1007200059F484EA99E062EC73E00E94AD1B84EA1C
:1007300099E00E94A71848C0E0E6EE16F104010512
:10074000110599F484EA99E06CED73E00E94AB1B0B
:10075000E401892811F4C0E9D1E084EA99E0BE01FE
:100760004AE050E00E947C1B18C0F1E6EF16F1044D
:100770000105110571F584EA99E06FEF73E00E94BD
:10078000AB1BE40184EA99E0B4014AE050E00E9426
:100790007C1B892811F4C8E5DBE184EA99E06AE66C
:1007A00072E00E94AD1B84EA99E00E94A7188CE7D2
:1007B00096E06CE370E00E94450CBE01882777FD4F
:1007C0008095982F0E94D9128CE796E060E570E042
:1007D00029C023E7E216F1040105110579F484EA42
:1007E00099E061E274E00E94AD1B84EA99E00E9406
:1007F000A7188FE796E062E570E014C034E7E316CF
:10080000F10401051105B9F484EA99E067E374E0A5
:100810000E94AD1B84EA99E00E94A7188FE796E03A
:1008200060E770E00E94450C6FE070E080E090E0CF
:100830000E94D912BBC28BE7E816F104010511052D
:1008400029F484EA99E06EE474E0BDC29CE7E916FD
:10085000F10401051105F1F48114910441F484EAD5
:1008600099E06AE54AE050E00E94101B9BC284EACE
:1008700099E061E674E00E94AB1B8FEF9FEFA0E070
:10088000B0E088229922AA22BB2284EA99E0B5012D
:10089000A40184C293E6E916F1040105110509F0EB
:1008A0004BC08401892859F484EA99E064E774E034
:1008B0000E94AB1B84EA99E060E070E095C00130D3
:1008C000110529F484EA99E06EE774E07CC20230F5
:1008D000110529F484EA99E06DE974E074C20330EB
:1008E000110529F484EA99E061EC74E06CC20430EB
:1008F000110529F484EA99E06EED74E064C20530D4
:10090000110529F484EA99E06AEF74E05CC20630CC
:10091000110529F484EA99E06AE175E054C20730D0
:10092000110529F484EA99E06DE275E04CC284EA8D
:1009300099E061E674E053C0ADE7EA16F104010501
:10094000110511F5C4010197FFEFEF2EFFEFFF2E08
:10095000012D112DE820F9200A211B21029708F012
:1009600048C084EA99E06DE475E00E94AB1B84EA1C
:1009700099E0B801A7012AE030E00E942C1B88E72B
:1009800096E0B401F5D326C0BEE7EB16F1040105ED
:100990001105A1F5C4010197EFEFEE2EEFEFFE2E4A
:1009A000012D112DE820F9200A211B21029708F5BD
:1009B00084EA99E060E775E00E94AB1B84EA99E065
:1009C000B801A7012AE030E00E942C1B88E796E0DE
:1009D000B4015DD48C0184EA99E06AE675E00E9476
:1009E000AB1B84EA99E0B8014AE050E00E948E1BFC
:1009F000D9C184EA99E061E674E0CAC1EFE7EE1676
:100A0000F1040105110509F09FC08CE796E0D1D6ED
:100A10008FE796E0CED6E12CF12C70EC072F112D4C
:100A2000E820F9200A211B2166E115950795F79426
:100A3000E7946A95D1F76701412C50EF552E5FE39B
:100A4000652E712C482059206A207B204CE075943B
:100A50006794579447944A95D1F7E2012FEF3FE00E
:100A6000822293225701AA0CBB1C83E596E0A80EB4
:100A7000B91ED5018D919C9148165906C9F184EA99
:100A800099E06DE875E00E94AB1B84EA99E0B7013C
:100A90004AE050E00E947C1B84EA99E062E975E03C
:100AA0000E94AB1B84EA99E0B2014AE050E00E9448
:100AB0007C1B84EA99E067EA75E00E94AB1B84EA3C
:100AC00099E0B4014AE050E00E948E1B84EA99E06C
:100AD0000E94A7180894C11CD11CEC9688E796E0E8
:100AE000B601AE01940194D5F5015182408241C115
:100AF00084EA99E06DE875E00E94AB1B84EA99E016
:100B0000B7014AE050E00E947C1B84EA99E062E968
:100B100075E00E94AB1B84EA99E0B2014AE050E024
:100B20000E947C1B84EA99E067EA75E00E94AB1B97
:100B300084EA99E0B4014AE050E00E948E1B84EA06
:100B400099E00E94A71815C1F0E5EF16F104010520
:100B5000110509F075C08CE796E02BD68FE796E07B
:100B600028D6E12C20EFF22E2FE3022F112DE820C2
:100B7000F9200A211B219CE015950795F794E7942D
:100B80009A95D1F767018FEFA82E8FE0B82EA82095
:100B9000B92084EA99E061EB75E00E94AB1B84EA1E
:100BA00099E0B7014AE050E00E947C1B84EA99E09A
:100BB00067EA75E00E94AB1B84EA99E0B5014AE060
:100BC00050E00E947C1B84EA99E00E94A71884EA06
:100BD00099E063EC75E00E94AB1B84EA99E0B701F1
:100BE0004AE050E00E947C1B84EA99E067EA75E0E5
:100BF0000E94AB1B84EA99E0B5014AE050E00E94F4
:100C00008E1B84EA99E00E94A7182CE330E0C20E04
:100C1000D31E88E796E061E070E0A6019501F8D464
:100C200088E796E062E070E0A6019501F1D4F092C9
:100C30005406E0925306F0925606E092550699C08B
:100C400031E5E316F1040105110509F03FC08CE719
:100C500096E0AFD58FE796E0ACD5EA2CFF2467018C
:100C600084EA99E06DE875E00E94AB1B84EA99E0A4
:100C7000B7014AE050E00E947C1B84EA99E068EDED
:100C800075E00E94AB1B84EA99E0B4014AE050E0B1
:100C90000E948E1B84EA99E00E94A7180894C11C48
:100CA000D11C88E796E0B601A4019BD484E398E0C8
:100CB000B4010E94E51C86E990E0DB01A89FB00129
:100CC000A99F700DB89F700D112445C0B2E5EB16B9
:100CD000F1040105110509F057C08CE796E069D5CC
:100CE0008FE796E066D5EA2CFF24670184EA99E055
:100CF0006DE875E00E94AB1B84EA99E0B7014AE019
:100D000050E00E947C1B84EA99E06EEF75E00E943F
:100D1000AB1B84EA99E0B4014AE050E00E948E1BCC
:100D200084EA99E00E94A7180894C11CD11C88E7A6
:100D300096E0B601A4013ED484E398E0B4010E9499
:100D4000E51C86E990E0FB01E89FB001E99F700D8A
:100D5000F89F700D1124882777FD8095982F0E94A9
:100D6000D91288E796E0B60140E050E02CE231E08D
:100D700006D48CE796E069E070E09DD68FE796E0B8
:100D80006AE070E098D612C084EA99E068E276E002
:100D90000E94AB1B84EA99E0B801A7012AE030E089
:100DA0000E946A1B84EA99E00E94A71884EA99E0ED
:100DB0000E944D18181619060CF4C0CA07C084EA20
:100DC00099E06AE376E00E94AD1BECCFDF91CF9112
:100DD0001F910F91FF90EF90DF90CF90BF90AF9059
:100DE0009F908F907F906F905F904F90089588E7CD
:100DF00096E040E05BE460E070E0BED488E796E017
:100E000061E070E040E050E02CE231E0B8D388E7E8
:100E100096E062E070E040E050E02CE231E0AFD3D9
:100E200088E796E061E070E046E950E026E930E0CE
:100E3000EFD36AE070E080E090E00E94D91288E78A
:100E400096E062E070E046E950E026E930E0E0D369
:100E50008CE796E069E070E02ED68CE796E060E5DE
:100E600070E013D58FE796E06AE070E024D68FE754
:100E700096E060E770E009D584EA99E040E855E241
:100E800060E070E00E94C71784EA99E00E94F718BA
:100E90008823D1F384EA99E00E94A71885E061E0F5
:100EA0000E94721486E061E00E94721485E060E0A6
:100EB0000E94251586E060E00E94251584E061E02F
:100EC0000E94721487E061E00E94721484E060E086
:100ED0000E94251587E060E00E94251585E061E00D
:100EE0000E94721486E061E00E94721485E060E066
:100EF0000E94251586E060E00E94251588E060E0EC
:100F00000E9472141DC085E060E00E94251586E0F5
:100F100066E970E00E9494136AE070E080E090E07F
:100F20000E94D91285E060E00E94251586E060E00D
:100F30000E9425156AE070E080E090E00E94D912DE
:100F400088E00E94571590938306809382068091D3
:100F50008206909183060197B1F285E066E970E020
:100F60000E94941386E060E00E94251560E971E01C
:100F700080E090E00E94D91285E060E00E94251593
:100F800086E060E00E9425156FE070E080E090E070
:100F90000C94D912FC0186E990E09183808380EF64
:100FA00090E09383828308958130910551F46F5FBF
:100FB0007F4F81F484E896E06BE04CE020E00C94F5
:100FC0005712892B39F46F5F7F4F21F484E896E044
:100FD0000C94E410089580E090E06FEF7FEFE4CF91
:100FE00081E090E06FEF7FEFDFCF9F92AF92BF92F3
:100FF000CF92DF92EF92FF920F931F93CF93DF93E5
:10100000962EEA014230510510F0C0E0D0E000D049
:101010000F92B901882777FD8095982F2FEF33E045
:1010200040E050E0EDB7FEB7218332834383548321
:1010300020E030E040E050E0FCE2EF2EF1E0FF2E57
:10104000012D112DAA24BB2465010E94731C162FAB
:10105000062FCE01880F880FF82EF70E0F900F90F5
:101060000F900F9084E896E06FEF0E94261184E8BD
:1010700096E06FEF0E94261184E896E0692D0E94A9
:10108000261184E896E064E00E94261184E896E048
:1010900063E00E94261184E896E060E20E94261137
:1010A00084E896E0612F0E942611192D1C5F692D9E
:1010B000695D600F609584E896E00E9426116AE001
:1010C00070E080E090E00E94D91204C084E896E0CD
:1010D0000E94EB1084E896E00E940C11892BB1F776
:1010E00084E896E06FEF0E94261184E896E06FEFA7
:1010F0000E94261184E896E0692D0E94261184E85A
:1011000096E064E00E94261184E896E063E00E9485
:10111000261184E896E061E20E94261184E896E0B8
:101120006F2D0E9426111C5D1F0D109584E896E01E
:10113000612F0E9426116AE070E080E090E00E943A
:10114000D91204C084E896E00E94EB1084E896E08F
:101150000E940C11892BB1F7DF91CF911F910F9154
:10116000FF90EF90DF90CF90BF90AF909F90089549
:10117000AF92BF92CF92DF92EF92FF920F931F93A5
:10118000DF93CF93CDB7DEB7A8970FB6F894DEBF45
:101190000FBECDBF162F84E896E06FEF0E94261198
:1011A00084E896E06FEF0E94261184E896E0612FB4
:1011B0000E94261184E896E064E00E94261184E8EB
:1011C00096E062E00E94261184E896E066E20E94C2
:1011D000261184E896E062E00E942611125D1095C7
:1011E00084E896E0612F0E9426116AE070E080E0BA
:1011F00090E00E94D9128E010F5F1F4F07C084E854
:1012000096E0E9D7F801819391938F0184E896E005
:101210000E940C11892B99F700D00F927D8560E018
:101220002B853C85620F731F882777FD8095982F4B
:101230002CE231E040E050E0EDB7FEB7218332838D
:101240004383548320E030E040E050E00FEFE02E95
:1012500003E0F02E012D112DAA24BB2465010E946C
:10126000731C0F900F900F900F90CB01A8960FB6A4
:10127000F894DEBF0FBECDBFCF91DF911F910F91CC
:10128000FF90EF90DF90CF90BF90AF900895AF9216
:10129000BF92CF92DF92EF92FF920F931F93DF9353
:1012A000CF93CDB7DEB7A8970FB6F894DEBF0FBEC9
:1012B000CDBF162F84E896E06FEFC8D784E896E09C
:1012C0006FEFC4D784E896E0612FC0D784E896E03A
:1012D00064E0BCD784E896E062E0B8D784E896E0A2
:1012E00064E2B4D784E896E062E0B0D7145D10956C
:1012F00084E896E0612FAAD76AE070E080E090E091
:101300000E94D9128E010F5F1F4F07C084E896E03C
:1013100062D7F801819391938F0184E896E07CD79E
:10132000892BA1F700D00F927D8560E02B853C854D
:10133000620F731F882777FD8095982F2CE231E08C
:1013400040E050E0EDB7FEB72183328343835483FE
:1013500020E030E040E050E0EFEFEE2EE3E0FE2E44
:10136000012D112DAA24BB2465010E94731C0F902E
:101370000F900F900F90CB01A8960FB6F894DEBF98
:101380000FBECDBFCF91DF911F910F91FF90EF90D6
:10139000DF90CF90BF90AF9008956F927F929F9211
:1013A000AF92BF92CF92DF92EF92FF920F931F9373
:1013B000962E3A0100D00F92BA01882777FD8095CA
:1013C000982F2FEF33E040E050E0EDB7FEB72183D8
:1013D00032834383548320E030E040E050E0FCE27D
:1013E000EF2EF1E0FF2E012D112DAA24BB24650163
:1013F0000E94731C7093A1066093A0060F900F903B
:101400000F900F9084E896E06FEF20D784E896E085
:101410006FEF1CD784E896E0692D18D784E896E032
:1014200065E014D784E896E063E010D784E896E09E
:1014300066E00CD784E896E0672D08D784E896E04C
:10144000662D04D7FEE09F0E960C970C909484E8CE
:1014500096E0692DFBD66AE070E080E090E00E94A3
:10146000D91203C084E896E0B6D684E896E0D4D6D4
:10147000892BC1F71F910F91FF90EF90DF90CF90D4
:10148000BF90AF909F907F906F9008956F927F92E2
:101490009F92AF92BF92CF92DF92EF92FF920F9303
:1014A0001F93962E3A0100D00F92BA01882777FD3C
:1014B0008095982F2FEF33E040E050E0EDB7FEB776
:1014C000218332834383548320E030E040E050E0C6
:1014D000ACE2EA2EA1E0FA2E012D112DAA24BB24A4
:1014E00065010E94731C7093A1066093A0060F9083
:1014F0000F900F900F9084E896E06FEFA7D684E8E6
:1015000096E06FEFA3D684E896E0692D9FD684E835
:1015100096E065E09BD684E896E063E097D684E8A1
:1015200096E068E093D684E896E0672D8FD684E84D
:1015300096E0662D8BD6F0E19F0E960C970C90945A
:1015400084E896E0692D82D66AE070E080E090E061
:101550000E94D91203C084E896E03DD684E896E064
:101560005BD6892BC1F71F910F91FF90EF90DF9011
:10157000CF90BF90AF909F907F906F900895CF9243
:10158000DF92EF92FF920F931F938C017B016A0110
:10159000A9017CDFC801B701A601FFDE1F910F91F1
:1015A000FF90EF90DF90CF90089540E050E020E072
:1015B00030E0E5CFCF92DF92EF92FF920F931F932F
:1015C0008C017B016A01F1DFC801B70140E050E006
:1015D00096010BDD1F910F91FF90EF90DF90CF9060
:1015E0000895CF92DF92EF92FF920F931F938C0199
:1015F0007B016A01DADFC801B70141E050E09601E2
:10160000F4DC1F910F91FF90EF90DF90CF90089541
:101610002F923F924F925F926F927F928F929F9202
:10162000AF92BF92CF92DF92EF92FF920F931F93F0
:10163000DF93CF9300D00F920F92CDB7DEB76B83BD
:101640003A0100D00F92442737FD4095542F1FEFE9
:10165000212E13E0312E412C512CEDB7FEB7218203
:10166000328243825482CA01B90120E030E040E076
:1016700050E0BCE2EB2EB1E0FB2E012D112DAA248F
:10168000BB2465010E94731C6C837D8369837A830C
:10169000882477FC8094982CEDB7FEB721823282A3
:1016A00043825482C401B30120E030E040E050E0C6
:1016B0000E94731C162F072F78010F900F900F9028
:1016C0000F9084E896E06FEFC1D584E896E06FEF65
:1016D000BDD584E896E06B81B9D584E896E067E0F3
:1016E000B5D584E896E063E0B1D584E896E06EE194
:1016F000ADD584E896E0612FA9D584E896E0602F07
:10170000A5D584E896E06C81A1D584E896E06D814A
:101710009DD5FB81F85DFF0D8981F80FFE0D9A8143
:10172000F90FF09584E896E06F2F90D56AE070E0AD
:1017300080E090E03ED703C084E896E04CD584E892
:1017400096E06AD5892BC1F70F900F900F900F90FC
:101750000F90CF91DF911F910F91FF90EF90DF904D
:10176000CF90BF90AF909F908F907F906F905F9041
:101770004F903F902F90089584E896E006C4FC01B6
:101780008091A206803390F480838F5F8093A206BD
:10179000815090E0FC01EE0FFF1FE80FF91FED559F
:1017A000F94F88EB9BE09283818308958FEF8083CC
:1017B0000895DC018C9190E0FC01EE0FFF1FE80F13
:1017C000F91FED55F94F80818F7B80838C916CE000
:1017D0000E94D91C90E0AC01440F551F480F591FBF
:1017E000440F551F440F551F20E030E0C901840FFE
:1017F000951FFC01EE0FFF1FE80FF91FED55F94F84
:10180000808186FD05C02F5F3F4F2C30310571F779
:101810000895FC0120812033B8F58181992787FD47
:10182000909548E850E0481B590B440F551F440F52
:10183000551F6417750784F08281992787FD90955D
:1018400048E552E0481B590B440F551F440F551FE4
:10185000641775070CF4AB0142505040CA01AA2727
:1018600097FDA095BA2F880F991FAA1FBB1F4FB7CE
:10187000F89430E0F901EE0FFF1FE20FF31FED5572
:10188000F94F928381834FBF0895AF92BF92CF9259
:10189000DF92EF92FF920F931F93CF93DF93EC01B0
:1018A0009B0182E0603278070CF048C077FF03C0EC
:1018B00020E030E005C0653B710514F024EB30E01A
:1018C00000D00F92B901882777FD8095982F298144
:1018D000332727FD3095E8E8AE2EB12CA21AB30AC3
:1018E000AA0CBB1CAA0CBB1CCC24B7FCC094DC2CDF
:1018F000EA81FF27E7FDF09528E532E02E1B3F0B3C
:10190000220F331F220F331F442737FD4095542FDA
:10191000EDB7FEB7218332834383548320E030E068
:1019200040E050E004EBE02EF12C012D112D0E943F
:10193000731C9B010F900F900F900F90CE01B90177
:1019400068DFDF91CF911F910F91FF90EF90DF90B3
:10195000CF90BF90AF900895CF92DF92EF92FF9219
:101960001F93CF93DF93EC01162F7A0169018881D1
:10197000803308F092C0862F61E0B4D7888190E070
:10198000FC01EE0FFF1FE80FF91FED55F94F1F7314
:101990008081807C812B808380E292E08E199F0978
:1019A00064E070E00E94E51C698380E699E08C1990
:1019B0009D0964E070E00E94E51C6A83A8818A2F7B
:1019C0006CE00E94D91C682F70E0AB01440F551FDA
:1019D000460F571F440F551F440F551F20E030E09E
:1019E000C901840F951FFC01EE0FFF1FE80FF91FBF
:1019F000ED55F94F808186FD44C02F5F3F4F2C305D
:101A0000310571F753C01092800082E0809381000D
:101A10001092850010928400B19A80916F008260CC
:101A200080936F002EC06230710569F410929000AF
:101A300082E080939100109295001092940088BBF0
:101A4000809371001EC06330710569F41092A0008C
:101A500082E08093A1001092A5001092A40089BB9F
:101A6000809372000EC0672B61F41092200182E017
:101A70008093210110922501109224018ABB80934A
:101A800073008A2F90E0FC01EE0FFF1FE80FF91F93
:101A9000ED55F94F8081806480838881DF91CF91FB
:101AA0001F91FF90EF90DF90CF9008956130710506
:101AB00009F0B9CFA8CF40E252E020E639E04CCFA0
:101AC000EF92FF920F931F93CF93DF938B017A01D5
:101AD000EC01DC01AD5CB84F8C9187FF04C0FB01C9
:101AE0001182108236C0AE01440F551F4C0F5D1F8E
:101AF000440F551F440F551F2C91332727FD309558
:101B0000240F351F8091A20690E0281739070CF5A5
:101B10008C91992787FD9095840F951FFC01EE0FFE
:101B2000FF1FE80FF91FED55F94F808186FF11C0A7
:101B30008C91992787FD9095840F951FFC01EE0FDE
:101B4000FF1FE80FF91FED55F94F80818F7360E09B
:101B50007CD7DE01AD5CB84F8C918F5F8C93AE016A
:101B6000440F551F4C0F5D1F440F551F440F551F49
:101B70002C91332727FD3095240F351F8091A20625
:101B800090E0281739070CF04CC08C918C300CF089
:101B900048C0F801208131818C91992787FD90956B
:101BA000840F951FFC01EE0FFF1FE80FF91FED5585
:101BB000F94F81819281280F391FF70131832083EA
:101BC0008C91992787FD9095840F951FFC01EE0F4E
:101BD000FF1FE80FF91FED55F94F808186FF29C0DF
:101BE0008C91992787FD9095840F951FFC01EE0F2E
:101BF000FF1FE80FF91FED55F94F80818F7361E0EA
:101C000024D717C080E49CE904C0F8018081918149
:101C10000496F70191838083CD5CD84F8FEF888342
:101C200008C0F80180819181049680549C4950F34A
:101C3000ECCFDF91CF911F910F91FF90EF9008951E
:101C40001F920F920FB60F920BB60F9211242F9383
:101C50003F934F935F936F937F938F939F93AF9334
:101C6000BF93EF93FF9380E090E064E271E048E27D
:101C700051E026DFFF91EF91BF91AF919F918F913E
:101C80007F916F915F914F913F912F910F900BBE7C
:101C90000F900FBE0F901F9018951F920F920FB6C6
:101CA0000F920BB60F9211242F933F934F935F9394
:101CB0006F937F938F939F93AF93BF93EF93FF9314
:101CC00083E090E064EA70E048EA50E0F9DEFF91DA
:101CD000EF91BF91AF919F918F917F916F915F91A4
:101CE0004F913F912F910F900BBE0F900FBE0F9011
:101CF0001F9018951F920F920FB60F920BB60F926E
:101D000011242F933F934F935F936F937F938F9300
:101D10009F93AF93BF93EF93FF9382E090E064E9CA
:101D200070E048E950E0CCDEFF91EF91BF91AF91B8
:101D30009F918F917F916F915F914F913F912F91E3
:101D40000F900BBE0F900FBE0F901F9018951F9213
:101D50000F920FB60F920BB60F9211242F933F9351
:101D60004F935F936F937F938F939F93AF93BF93A3
:101D7000EF93FF9381E090E064E870E048E850E082
:101D80009FDEFF91EF91BF91AF919F918F917F91D6
:101D90006F915F914F913F912F910F900BBE0F90DC
:101DA0000FBE0F901F9018950F931F93CF93DF9343
:101DB000FC01738D76957170A685B785958577231F
:101DC00029F08C91892309F454C004C08C91892393
:101DD00009F04FC08389948920E001972FEF8F3F4E
:101DE0009207D9F7C589D689A685B785158560E09C
:101DF00031E040E050E000E0CE01202F01972FEFCE
:101E00008F3F9207D9F78C91812311F0632B03C088
:101E1000832F80956823330F4F5F5F4F4830510504
:101E200059F78789908D20E001972FEF8F3F920718
:101E3000D9F7711160958091790720917A0790E028
:101E400001968F73907030E08217930779F0E091DC
:101E50007907F0E0E75CF84F60838091790790E0C4
:101E600001968F7390708093790703C0838D816092
:101E7000838FDF91CF911F910F9108951F920F9241
:101E80000FB60F920BB60F9211242F933F934F93DF
:101E90005F936F937F938F939F93AF93BF93EF93D2
:101EA000FF938091370790913807009709F07CDF06
:101EB000FF91EF91BF91AF919F918F917F916F9122
:101EC0005F914F913F912F910F900BBE0F900FBEDE
:101ED0000F901F9018951F920F920FB60F920BB68E
:101EE0000F9211242F933F934F935F936F937F93A0
:101EF0008F939F93AF93BF93EF93FF938091370797
:101F000090913807009709F04FDFFF91EF91BF9153
:101F1000AF919F918F917F916F915F914F913F9181
:101F20002F910F900BBE0F900FBE0F901F90189522
:101F30001F920F920FB60F920BB60F9211242F9390
:101F40003F934F935F936F937F938F939F93AF9341
:101F5000BF93EF93FF9380913707909138070097D5
:101F600009F022DFFF91EF91BF91AF919F918F9187
:101F70007F916F915F914F913F912F910F900BBE89
:101F80000F900FBE0F901F901895CF92DF92EF9297
:101F9000FF920F931F93CF93DF93EC017A018B0194
:101FA0001A8E198E188E1F8A1E8A1D8A1C8A1B8AF9
:101FB00020E030E06901CC0CDD1CC20ED31EB6015E
:101FC000660F771F660F771FAB014C515F4FFA0109
:101FD00085919591A591B4918E159F05A007B107A4
:101FE000E9F4FB01E851FF4F859194919C8B8B8B19
:101FF000FB01E651FF4F859194919E8B8D8BFB01E8
:10200000E451FF4F85919491988F8F8BFB01E251A2
:10201000FF4F859194919A8F898F06C02F5F3F4F14
:102020002D30310509F0C6CF8F89988D892B09F4A1
:1020300068C09C85292F2A50243040F0892F825374
:10204000843020F08C50883008F053C03091680004
:10205000243048F0892F8253843028F09E539830E2
:1020600010F484E001C081E0832B809368002C850C
:10207000922F9A50943090F0822F8253843070F0D7
:102080008C50883008F455C0A0E0B0E0883018F0DB
:10209000E0E0F0E007C0EDE6F0E004C0EBE6F0E0E1
:1020A000ABE6B0E04081943020F430E02650304080
:1020B00015C0223311F488E01AC0233311F484E0F0
:1020C00016C0243311F482E012C0253379F0822F38
:1020D0008E53883058F430E02E53304081E090E049
:1020E00002C0880F991F2A95E2F701C081E0842B76
:1020F0008C93898D9A8D20E001972FEF8F3F920767
:10210000D9F780913707909138078C179D07A1F078
:102110008B8D8E7F8B8F9FB7F8941092790780916B
:10212000790780937A07D0933807C09337079FBF0A
:1021300003C0ADE6B0E0AACFDF91CF911F910F9120
:10214000FF90EF90DF90CF900895FC012485922FAF
:102150009A50943060F0822F8253843040F08C503B
:10216000883088F5EDE6F0E0ADE6B0E004C0EBE6DF
:10217000F0E0ABE6B0E04081943020F430E026504F
:10218000304015C0223311F487EF1BC0233311F404
:102190008BEF17C0243311F48DEF13C0253381F07A
:1021A000822F8E53883060F430E02E53304081E02F
:1021B00090E002C0880F991F2A95E2F7809501C030
:1021C0008EEF84238C930895FC018BE596E0918338
:1021D0008083CF01BACF2091370730913807281775
:1021E000390731F490917A0780917907981719F49B
:1021F0002FEF3FEF0FC0E0917A07F0E0E75CF84F78
:10220000208180917A0790E001968F73907080937F
:102210007A0730E0C90108952091370730913807D7
:102220002817390719F020E030E00EC080917907B7
:1022300020917A0790E0805C9F4F821B910960E4B7
:1022400070E00E94E51C9C01C90108950F931F9343
:10225000DC0159968D919C915A97892B49F481E024
:1022600090E013969C938E93129720E030E097C0F5
:102270000FB7F8945B968C915B975196ED91FC911A
:10228000529750962C91509781FF8DC08081822B60
:10229000808359968D919C915A97059620E00197DD
:1022A0002FEF8F3F9207D9F75B968C915B9781FF59
:1022B00035C031E040E050E070E010E0832F90E066
:1022C000862397235196ED91FC91529750962C912D
:1022D0005097892B29F0808120952823208303C0E3
:1022E0008081822B808359968D919C915A97212FC2
:1022F00001972FEF8F3F9207D9F7330F4F5F5F4F53
:1023000048305105D9F65196ED91FC915297908144
:1023100050968C9150978095892333C031E040E0EE
:1023200050E070E010E0832F90E0862397235196D1
:10233000ED91FC91529750962C915097892B21F05A
:102340008081822B808304C0808120952823208374
:1023500059968D919C915A97212F01972FEF8F3F7E
:102360009207D9F7330F4F5F5F4F48305105D9F6C9
:102370005196ED91FC915297808150969C91509787
:10238000892B80830FBF59968D919C915A9720E09D
:1023900001972FEF8F3F9207D9F721E030E0C90175
:1023A0001F910F910895808120952823208371CF5C
:1023B00020913707309138072817390749F49FB71C
:1023C000F894109279078091790780937A079FBFDC
:1023D000089520913707309138072817390731F4CD
:1023E00090917A0780917907981719F42FEF3FEFB2
:1023F0000AC0E0917A07F0E0E75CF84F8081282F6F
:10240000332727FD3095C90108951F93CF93DF939C
:10241000EC01162F862F60E065D28B8D81FD03C005
:10242000812F61E012D31C87212F30E0C9018C5E1F
:102430009D4FFC0184918D8722533E4FF901649199
:10244000E62FF0E0EE0FFF1FEC54FE4F85919491C4
:102450009F878E87DF91CF911F910895FF920F93F1
:102460001F938C01F62E862F61E03CD28F2D61E008
:10247000ECD28F2D90E0FC01EC5EFD4FE491D80191
:102480005096EC93509782539E4FFC016491E62F37
:10249000F0E0EE0FFF1FE656FE4F859194915296A5
:1024A0009C938E9351971F910F91FF900895FF92E7
:1024B0000F931F938C01F62EFC011382128288EE7B
:1024C00093E0A0E0B0E084839583A683B7838BE597
:1024D00096E091838083148A138A168A158A108E57
:1024E000178A128E118E838D2170220F8C7F822B82
:1024F000838FC801642FB2DFC8016F2D86DF1F9163
:102500000F91FF9008951F920F920FB60F92112412
:102510002F933F938F939F93AF93BF9380917F07A8
:1025200090918007A0918107B09182073091830735
:102530000196A11DB11D232F2D5F2D3720F02D57A2
:102540000196A11DB11D2093830780937F0790936F
:102550008007A0938107B093820780917B079091B9
:102560007C07A0917D07B0917E070196A11DB11D4A
:1025700080937B0790937C07A0937D07B0937E07A1
:10258000BF91AF919F918F913F912F910F900FBE6F
:102590000F901F9018958FB7F89420917F07309176
:1025A000800740918107509182078FBFB901CA010E
:1025B00008959B01AC017FB7F89480917B079091BF
:1025C0007C07A0917D07B0917E0766B5A89B05C0EA
:1025D0006F3F19F00196A11DB11D7FBFBA2FA92F22
:1025E000982F8827860F911DA11DB11D62E0880FCD
:1025F000991FAA1FBB1F6A95D1F7BC012DC0FFB759
:10260000F89480917B0790917C07A0917D07B09111
:102610007E07E6B5A89B05C0EF3F19F00196A11D06
:10262000B11DFFBFBA2FA92F982F88278E0F911D9C
:10263000A11DB11DE2E0880F991FAA1FBB1FEA95DB
:10264000D1F7861B970B885E9340C8F2215030402B
:102650004040504068517C4F2115310541055105DE
:1026600071F60895789484B5826084BD84B58160E4
:1026700084BD85B5826085BD85B5816085BDEEE68A
:10268000F0E0808181608083E1E8F0E01082808169
:1026900082608083808181608083E0E8F0E08081D7
:1026A00081608083E1EBF0E0808184608083E0EBF7
:1026B000F0E0808181608083E1E9F0E080818260E8
:1026C0008083808181608083E0E9F0E080818160A7
:1026D0008083E1EAF0E08081826080838081816094
:1026E0008083E0EAF0E0808181608083E1E2F1E0D4
:1026F000808182608083808181608083E0E2F1E07C
:10270000808181608083EAE7F0E08081846080835B
:102710008081826080838081816080838081806805
:1027200080831092C10008951F93CF93DF93182FD9
:10273000EB0161E0D7D0209709F4CAC0CF3FD105A3
:1027400009F4C9C0E12FF0E0E65AFD4F84918930C9
:1027500009F466C08A30B0F48430F1F1853040F479
:10276000823059F1833070F5813009F0AEC020C05D
:10277000873009F443C0883008F048C0863009F03B
:10278000A4C034C08D3009F478C08E3038F48B305A
:1027900009F45AC08C3008F066C04CC0803109F48E
:1027A00080C0813109F487C08F3009F08EC06FC0BE
:1027B00084B5806884BDC7BD91C084B5806284BD86
:1027C000C8BD8CC080918000806880938000D093C9
:1027D0008900C093880082C08091800080628093CD
:1027E0008000D0938B00C0938A0078C08091B000A5
:1027F00080688093B000C093B30070C08091B00037
:1028000080628093B000C093B40068C08091900053
:10281000806880939000D0939900C09398005EC028
:1028200080919000806280939000D0939B00C09331
:102830009A0054C080919000886080939000D0935B
:102840009D00C0939C004AC08091A0008068809346
:10285000A0008091A0008F7B8093A000D093A9005E
:10286000C093A8003BC08091A00080628093A0002C
:10287000D093AB00C093AA0031C08091A0008860C3
:102880008093A000D093AD00C093AC0027C080918E
:102890002001806880932001D0932901C0932801F2
:1028A0001DC080912001806280932001D0932B0174
:1028B000C0932A0113C08091200188608093200179
:1028C000D0932D01C0932C0109C0C038D1051CF450
:1028D000812F60E002C0812F61E0B7D0DF91CF91FE
:1028E0001F910895CF93DF93482F50E0CA018C5E6B
:1028F0009D4FFC01349142535E4FFA01849188232D
:1029000069F190E0880F991FFC01E058FE4FA591F6
:10291000B491FC01E656FE4FC591D491662351F463
:102920002FB7F8948C91932F909589238C9388815D
:1029300089230BC0623061F42FB7F8948C91932FE8
:10294000909589238C938881832B88832FBF06C021
:102950009FB7F8948C91832B8C939FBFDF91CF917D
:102960000895893009F449C08A30A0F4843051F1C7
:10297000853040F4823079F1833000F5813009F000
:1029800063C026C0873079F1883098F5863009F029
:102990005BC025C08D3009F442C08E3028F48B30E6
:1029A000B1F18C30C0F52DC0803109F442C08131C5
:1029B00009F445C08F3009F047C037C080918000CE
:1029C0008F7703C0809180008F7D80938000089571
:1029D00084B58F7702C084B58F7D84BD08958091C2
:1029E000B0008F7703C08091B0008F7D8093B000DE
:1029F0000895809190008F7707C0809190008F7D1F
:102A000003C080919000877F80939000089580910B
:102A1000A0008F7707C08091A0008F7D03C08091B8
:102A2000A000877F8093A0000895809120018F7778
:102A300003C0809120018F7D8093200108958091B3
:102A40002001877F809320010895FF920F931F93A9
:102A5000F62E482F50E0CA01865A9D4FFC01249162
:102A6000CA018C5E9D4FFC01149142535E4FFA01E6
:102A700004910023C1F0222311F0822F72DFE02F96
:102A8000F0E0EE0FFF1FE656FE4FA591B4919FB701
:102A9000F894FF2021F48C911095812302C08C9131
:102AA000812B8C939FBF1F910F91FF9008950F93DF
:102AB0001F93482F50E0CA01865A9D4FFC01249174
:102AC000CA018C5E9D4FFC01049142535E4FFA0196
:102AD0001491112319F420E030E014C0222311F0E6
:102AE000822F3FDF812F90E0880F991F8C549E4FDB
:102AF000FC01A591B4918C9120E030E0802311F08D
:102B000021E030E0C9011F910F91089508951F92AF
:102B10000F920FB60F920BB60F9211242F933F9383
:102B20004F938F939F93EF93FF938091C00082FD0B
:102B30001DC04091C6002091C4073091C5072F5F8A
:102B40003F4F2F7330708091C6079091C7072817A9
:102B5000390771F0E091C407F091C507EC57F84FC1
:102B600040833093C5072093C40702C08091C600FC
:102B7000FF91EF919F918F914F913F912F910F90E6
:102B80000BBE0F900FBE0F901F90189508951F92C7
:102B90000F920FB60F920BB60F9211242F933F9303
:102BA0004F938F939F93EF93FF938091C80082FD83
:102BB0001DC04091CE0020914C0830914D082F5FF0
:102BC0003F4F2F73307080914E0890914F08281717
:102BD000390771F0E0914C08F0914D08E45FF74F30
:102BE000408330934D0820934C0802C08091CE0062
:102BF000FF91EF919F918F914F913F912F910F9066
:102C00000BBE0F900FBE0F901F90189508951F9246
:102C10000F920FB60F920BB60F9211242F933F9382
:102C20004F938F939F93EF93FF938091D00082FDFA
:102C30001DC04091D6002091D4083091D5082F5F57
:102C40003F4F2F7330708091D6089091D708281786
:102C5000390771F0E091D408F091D508EC56F74FA0
:102C600040833093D5082093D40802C08091D600C9
:102C7000FF91EF919F918F914F913F912F910F90E5
:102C80000BBE0F900FBE0F901F90189508951F92C6
:102C90000F920FB60F920BB60F9211242F933F9302
:102CA0004F938F939F93EF93FF938091300182FD19
:102CB0001DC04091360120915C0930915D092F5F64
:102CC0003F4F2F73307080915E0990915F092817F4
:102CD000390771F0E0915C09F0915D09E45EF64F0F
:102CE000408330935D0920935C0902C080913601D6
:102CF000FF91EF919F918F914F913F912F910F9065
:102D00000BBE0F900FBE0F901F901895E091B00969
:102D1000F091B109E05CFF4F819191912081318167
:102D2000821B930B8F739070892B09F0EFDEE0917B
:102D3000D209F091D309E05CFF4F819191912081FC
:102D40003181821B930B8F739070892B09F01EDFEA
:102D5000E091F409F091F509E05CFF4F81919191C8
:102D600020813181821B930B8F739070892B09F026
:102D70004DDFE091160AF091170AE05CFF4F819158
:102D8000919120813181821B930B8F739070892BDD
:102D900009F07CCF08951F920F920FB60F920BB6D9
:102DA0000F9211242F933F938F939F93EF93FF9351
:102DB000209108083091090880910A0890910B0829
:102DC0002817390731F48091C1008F7D8093C100AD
:102DD00014C0E0910A08F0910B08E853F84F2081E5
:102DE00080910A0890910B0801968F7390709093D0
:102DF0000B0880930A082093C600FF91EF919F91E2
:102E00008F913F912F910F900BBE0F900FBE0F909F
:102E10001F9018951F920F920FB60F920BB60F923C
:102E200011242F933F938F939F93EF93FF932091C0
:102E300090083091910880919208909193082817FA
:102E4000390731F48091C9008F7D8093C90014C087
:102E5000E0919208F0919308E05BF74F2081809118
:102E600092089091930801968F73907090939308B5
:102E7000809392082093CE00FF91EF919F918F91C4
:102E80003F912F910F900BBE0F900FBE0F901F9090
:102E900018951F920F920FB60F920BB60F92112436
:102EA0002F933F938F939F93EF93FF932091180954
:102EB0003091190980911A0990911B092817390737
:102EC00031F48091D1008F7D8093D10014C0E091C6
:102ED0001A09F0911B09E852F74F208180911A09D5
:102EE00090911B0901968F73907090931B098093AA
:102EF0001A092093D600FF91EF919F918F913F91F6
:102F00002F910F900BBE0F900FBE0F901F90189532
:102F10001F920F920FB60F920BB60F9211242F93A0
:102F20003F938F939F93EF93FF932091A00930914C
:102F3000A1098091A2099091A3092817390731F4BA
:102F4000809131018F7D8093310114C0E091A209FD
:102F5000F091A309E05AF64F20818091A209909147
:102F6000A30901968F7390709093A3098093A2098F
:102F700020933601FF91EF919F918F913F912F9177
:102F80000F900BBE0F900FBE0F901F901895AF9231
:102F9000BF92DF92EF92FF920F931F93CF93DF9335
:102FA000EC017A018B01DD24403081EE580780E08E
:102FB000680780E0780711F0DD24D39491E0A92E12
:102FC000B12CEC89FD89DD2069F0C50108A002C0A3
:102FD000880F991F0A94E2F7808360E079E08DE31F
:102FE00090E005C0108260E874E88EE190E0A801EE
:102FF0009701FED4215030404040504056954795AF
:103000003795279580E12030380720F0DD2011F03A
:10301000DD24D7CFE889F9893083EA89FB892083C9
:1030200019A2EE89FF89408121E030E0C9010C8CB2
:1030300002C0880F991F0A94E2F7482B4083EE895B
:10304000FF894081C9010D8C02C0880F991F0A9425
:10305000E2F7482B4083EE89FF894081C9010E8C3D
:1030600002C0880F991F0A94E2F7482B4083EE892B
:10307000FF8980810F8C02C0220F331F0A94E2F770
:10308000209528232083DF91CF911F910F91FF90EE
:10309000EF90DF90BF90AF900895DC011C96ED910A
:1030A000FC911D97E05CFF4F2191319180819181CE
:1030B000281B390B2F733070C9010895DC011C9651
:1030C000ED91FC911D97E05CFF4F20813181E05430
:1030D000F040DF01AE5BBF4F8D919C911197281797
:1030E000390719F42FEF3FEF07C08D919C91E80F3E
:1030F000F91F8081282F30E0C9010895DC011C965A
:10310000ED91FC911D97E05CFF4F20813181E054EF
:10311000F040DF01AE5BBF4F8D919C911197281756
:10312000390719F42FEF3FEF10C08D919C91119743
:10313000E80FF91F20818D919C91119701968F7353
:10314000907011969C938E9330E0C9010895DC0134
:1031500091968C919197882339F05496ED91FC913A
:103160005597808186FFF9CF91961C920895CF9351
:10317000DF93EC01EE85FF85E05CFF4F208131811C
:10318000E054F0402F5F3F4F2F733070DF01AE5B94
:10319000BF4F8D919C91119728173907D1F3E05CAF
:1031A000FF4F80819181E054F040E80FF91F608368
:1031B000EE85FF85E05CFF4F31832083EE89FF8938
:1031C000208181E090E00F8C02C0880F991F0A9443
:1031D000E2F7282B208381E089A3EC89FD89808197
:1031E0008064808381E090E0DF91CF91089581E059
:1031F00008951F931092A7091092A60928EE33E0B4
:1032000040E050E02093A8093093A9094093AA090F
:103210005093AB096BE676E07093A5096093A4091F
:1032200084E897E09093B1098093B00988EC97E027
:103230009093B3098093B20985EC90E09093B5091F
:103240008093B40984EC90E09093B7098093B60919
:1032500080EC90E09093B9098093B80981EC90E0FC
:103260009093BB098093BA0982EC90E09093BD09DA
:103270008093BC0986EC90E09093BF098093BE09CF
:1032800014E01093C009B3E0B093C109A7E0A09384
:10329000C209F5E0F093C309E1E0E093C40910929C
:1032A000C9091092C8092093CA093093CB094093E9
:1032B000CC095093CD097093C7096093C6098CE07F
:1032C00098E09093D3098093D20980E598E0909399
:1032D000D5098093D4098DEC90E09093D709809321
:1032E000D6098CEC90E09093D9098093D80988ECAA
:1032F00090E09093DB098093DA0989EC90E0909359
:10330000DD098093DC098AEC90E09093DF098093DB
:10331000DE098EEC90E09093E1098093E009109330
:10332000E209B093E309A093E409F093E509E0937F
:10333000E6091092EB091092EA092093EC09309308
:10334000ED094093EE095093EF097093E9096093FA
:10335000E80984E998E09093F5098093F40988EDF1
:1033600098E09093F7098093F60985ED90E09093AB
:10337000F9098093F80984ED90E09093FB0980931C
:10338000FA0980ED90E09093FD098093FC0981EDAE
:1033900090E09093FF098093FE0982ED90E0909376
:1033A000010A8093000A86ED90E09093030A8093CF
:1033B000020A1093040AB093050AA093060AF09338
:1033C000070AE093080A10920D0A10920C0A209343
:1033D0000E0A30930F0A4093100A5093110A70930B
:1033E0000B0A60930A0A8CE199E09093170A809384
:1033F000160A80E699E09093190A8093180A85E3EB
:1034000091E090931B0A80931A0A84E391E09093D1
:103410001D0A80931C0A80E391E090931F0A809319
:103420001E0A81E391E09093210A8093200A82E3AF
:1034300091E09093230A8093220A86E391E090938F
:10344000250A8093240A1093260AB093270AA09392
:10345000280AF093290AE0932A0A1F910895CF932E
:10346000DF9300D90E94F706C6E8D6E10E948D01DD
:103470002097E1F34BDCFACFCF92DF92EF92FF92ED
:103480000F931F93CF93DF937C016B018A01C0E000
:10349000D0E00FC0D6016D916D01D701ED91FC9187
:1034A0000190F081E02DC7011995C80FD91F015077
:1034B00010400115110571F7CE01DF91CF911F91D9
:1034C0000F91FF90EF90DF90CF900895EF92FF92D1
:1034D0000F931F938C01DC01ED91FC910190F08121
:1034E000E02D6DE019957C01D801ED91FC910190E2
:1034F000F081E02DC8016AE019959C012E0D3F1D59
:10350000C9011F910F91FF90EF900895CF93DF9322
:10351000EC016115710519F420E030E00FC0DB010A
:103520000D900020E9F71197A61BB70BE881F981F0
:103530000280F381E02DAD0119959C01C901DF9155
:10354000CF9108954F925F927F928F929F92AF9208
:10355000BF92CF92DF92EF92FF920F931F93DF9370
:10356000CF93CDB7DEB7A1970FB6F894DEBF0FBEED
:10357000CDBF2C01742ECB01223008F42AE019A211
:1035800031E2C32ED12CCC0EDD1E822E9924AA242A
:10359000BB24672D752FA50194012AD279018A01D8
:1035A000C801B701A5019401E5D1472D461B089438
:1035B000C108D1084A3014F4405D01C0495CF601ED
:1035C0004083E114F1040105110521F07E2C5F2DEB
:1035D000C801DFCFC201B60199DFA1960FB6F894FA
:1035E000DEBF0FBECDBFCF91DF911F910F91FF9036
:1035F000EF90DF90CF90BF90AF909F908F907F9093
:103600005F904F900895DC012115310541F4ED9153
:10361000FC910190F081E02D642F1995089592CFCF
:10362000CF92DF92EF92FF920F931F936C01E62EE1
:103630009A01FF2400E010E0B801A701E4DF8C014B
:10364000C60144DF080F191FC8011F910F91FF9099
:10365000EF90DF90CF900895CF92DF92EF92FF929C
:103660000F931F93CF93DF93EC016A017B01211528
:10367000310541F4E881F9810190F081E02D642F5A
:1036800019951DC02A303105C9F477FF16C0E881AD
:10369000F9810190F081E02D6DE219958C014427AC
:1036A0005527BA014C195D096E097F09CE012AE040
:1036B00049DF9801280F391F03C02AE043DF9C012E
:1036C000C901DF91CF911F910F91FF90EF90DF9093
:1036D000CF900895EF92FF920F931F937C01BCDF70
:1036E0008C01C701F3DE9C01200F311FC9011F911E
:1036F0000F91FF90EF900895EF92FF920F931F9319
:103700007B019A010027F7FC0095102FB801A70153
:10371000A3DF1F910F91FF90EF900895CF92DF925A
:10372000EF92FF920F931F936C017B019A01002788
:10373000F7FC0095102FB801A7018EDF8C01C601A0
:10374000C5DE080F191FC8011F910F91FF90EF9060
:10375000DF90CF900895DACE0895EF92FF920F9305
:103760001F937C01D3DE8C01C701B0DE080F191F47
:10377000C8011F910F91FF90EF900895CF93DF93B1
:10378000EC010E94CB12688779878A879B87E88142
:10379000F9810084F185E02DCE0119959C0197FFF8
:1037A00015C00E94CB12288539854A855B85621B2E
:1037B000730B840B950B2C813D814E815F816217C9
:1037C00073078407950718F32FEF3FEFC901DF91C7
:1037D000CF910895CF93DF93EC01CE01CFDF9C0111
:1037E00097FD0EC08D32910559F0C0970A9740F0B1
:1037F000E881F9810680F781E02DCE011995EDCFA2
:10380000C901DF91CF9108959F92AF92BF92CF925D
:10381000DF92EF92FF920F931F93CF93DF936C0190
:10382000B62ED8DFEC0197FF04C0EE24FF248701F9
:103830004AC09924EE24FF248701AB2CBB24A7FCAB
:10384000B094CA15DB0521F1CD32D10519F49924C4
:1038500093941EC0CE01C0970A97D0F4C801B70157
:103860002AE030E040E050E085D07B018C01CE01C1
:10387000AA2797FDA095BA2FE80EF91E0A1F1B1F55
:1038800080ED9FEFAFEFBFEFE80EF91E0A1F1B1F81
:10389000D601ED91FC910680F781E02DC6011995C6
:1038A000C6016CDFEC01C0970A9758F2CA15DB0518
:1038B00041F2992041F010950095F094E094E11CBC
:1038C000F11C011D111DB701C801DF91CF911F919E
:1038D0000F91FF90EF90DF90CF90BF90AF909F90AF
:1038E000089561E091CF2F923F924F925F926F9235
:1038F0007F928F929F92AF92BF92CF92DF92EF9280
:10390000FF920F931F93DF93CF93CDB7DEB73B01A9
:103910004C0119012A016E897F89888D998D6A1958
:103920007B098C099D09621A730A840A950AA4010D
:10393000930120D0E218F30804091509A8019701A2
:1039400079D02A0D3B1D4C1D5D1DB901CA01CF91D7
:10395000DF911F910F91FF90EF90DF90CF90BF907C
:10396000AF909F908F907F906F905F904F903F901F
:103970002F900895629FD001739FF001829FE00D08
:10398000F11D649FE00DF11D929FF00D839FF00DDE
:10399000749FF00D659FF00D9927729FB00DE11D8A
:1039A000F91F639FB00DE11DF91FBD01CF01112467
:1039B0000895991B79E004C0991F961708F0961B8B
:1039C000881F7A95C9F78095089597FB092E0726D9
:1039D0000AD077FD04D049D006D000201AF47095A3
:1039E00061957F4F0895F6F7909581959F4F0895C3
:1039F000A1E21A2EAA1BBB1BFD010DC0AA1FBB1FF3
:103A0000EE1FFF1FA217B307E407F50720F0A21B64
:103A1000B30BE40BF50B661F771F881F991F1A94D1
:103A200069F760957095809590959B01AC01BD01FB
:103A3000CF01089597FB092E05260ED057FD04D01F
:103A4000D7DF0AD0001C38F4509540953095219569
:103A50003F4F4F4F5F4F0895F6F7909580957095C3
:103A600061957F4F8F4F9F4F0895AA1BBB1B51E15C
:103A700007C0AA1FBB1FA617B70710F0A61BB70BDE
:103A8000881F991F5A95A9F780959095BC01CD0183
:103A90000895EE0FFF1F0590F491E02D199412E0A8
:103AA000C6EAD2E003C0FE01F6DF2296C83AD1078B
:063AB000D1F7F894FFCFEE
:103AB60054696C74696E6720746F20736D616C6CE9
:103AC600657220646567726565210054696C746966
:103AD6006E6720746F206C6172676572206465671B
:103AE600726565210054696C74696E6720746F2075
:103AF60073616D6520646567726565005A2061783B
:103B0600697320636C6F636B7769736520726F747A
:103B160061746520666F723A2000206D696C6C696D
:103B26007365636F6E647321005A20617869732030
:103B3600616E7469636C6F636B7769736520726F0E
:103B46007461746520666F723A200057726F6E67F3
:103B560020706172616D65746572206F66205A20EF
:103B66006178697320726F746174696F6E2074690D
:103B76006D653A20004D6F766520486F6C646572FE
:103B860020557021004D6F766520486F6C64657214
:103B960020446F776E2100446156696E6369204642
:103BA60069726D77617265203C76657273696F6EB6
:103BB60020332E373E005475726E206F6666204E97
:103BC6006F2E312052656C617920746F20706C7590
:103BD6006720696E204E6F2E3120555342210054C6
:103BE60075726E206F6666204E6F2E322052656C9F
:103BF600617920746F20706C756720696E204E6F36
:103C06002E322055534221005475726E206F6E205D
:103C16004E6F2E312052656C617920746F20706C66
:103C26007567206F7574204E6F2E312055534221D3
:103C3600005475726E206F6E204E6F2E32205265C4
:103C46006C617920746F20706C7567206F757420B5
:103C56004E6F2E32205553422100507265737320E9
:103C660074686520706F77657220627574746F6E04
:103C7600210052656C656173652074686520706FFC
:103C860077657220627574746F6E210053686F7267
:103C9600742070726573732074686520706F776521
:103CA6007220627574746F6E20666F723A20004CD3
:103CB6006F6E672050726573732074686520706F2D
:103CC60077657220627574746F6E20666F723A2023
:103CD60000506C756720696E207468652065617296
:103CE60070686F6E652100506C7567206F75742063
:103CF6007468652065617270686F6E652100526533
:103D06006164207374617475733A207265616479B5
:103D160000556E6B6E6F776E20617267756D656E9E
:103D2600743A2000464652442049443A2000582D11
:103D36005920617869732074696C74696E672070A4
:103D46006C6174652065786973747321005A20610B
:103D56007869732074696C74696E6720706C61741D
:103D66006520646F65736E277420657869737421A6
:103D76000043616D65726120686F6C646572206CCA
:103D86006966746572206578697374732100506F73
:103D96007765722070757368657220646F65736EDF
:103DA6002774206578697374210045617270686FA5
:103DB6006E6520706C756767657220646F65736EDB
:103DC6002774206578697374210055534220637502
:103DD6007474657220657869737473210052656C1A
:103DE600617920636F6E74726F6C6C657220646F9C
:103DF60065736E277420657869737421005468654D
:103E0600207370656564206F6620736572766F2017
:103E16006D6F746F72204E6F2E002069733A20000A
:103E260054686520616E676C65206F6620736572E5
:103E3600766F206D6F746F72204E6F2E0041726D1B
:103E460020002074696C74696E6720746F20646545
:103E5600677265653A20002C2073706565643A20A8
:103E66000041726D203020746F206465677265654D
:103E76003A200020232041726D203120746F206487
:103E860065677265653A200020636C6F636B7769BE
:103E9600736520636F6E74696E6F75732D74696CCC
:103EA60074696E672C2073706565643A2000206122
:103EB6006E7469636C6F636B7769736520636F6E8D
:103EC60074696E6F75732D74696C74696E672C20D6
:103ED60073706565643A2000556E6B6E6F776E2061
:103EE600636F6D6D616E643A2000436F6D6D616E38
:103EF60064206973206E6F742066696E69736865E5
:103F06006421005A005A000000000026113C1A0CD9
:103F160011EB10E911D81100000000B7183C1A4D3A
:083F2600187E185E18A71800B0
:00000001FF
