:1000000095C10000C0C10000BEC10000BCC100001D
:10001000BAC10000B8C10000B6C10000B4C1000000
:10002000B2C100000C94851B0C94B21B0C94DF1B16
:10003000AAC10000A8C10000A6C10000A4C1000020
:10004000A2C100000C94EE1A9EC100009CC10000E9
:100050009AC1000098C1000096C100000C941B22B8
:1000600092C100000C9467240C94AB258CC1000055
:100070008AC1000088C1000086C1000084C1000060
:100080000C94C11A80C100007EC100007CC1000038
:100090000C94A7240C94EA2576C100000C946A20E5
:1000A00072C1000070C100000C94941A6CC1000071
:1000B0006AC1000068C1000066C100000C94671AA4
:1000C00062C1000060C100005EC100000C94E72422
:1000D0000C94292658C100000C9427250C946826FE
:1000E00052C1000007634236B79BD8A71A39685639
:1000F00018AEBAAB558C1D3CB7CC5763BD6DEDFD4A
:10010000753EF6177231BF000000803F0800000006
:10011000BE922449123EABAAAA2ABECDCCCC4C3EFC
:1001200000000080BEABAAAAAA3E00000000BF00EB
:100130000000803F0000000000084178D3BB4387E7
:10014000D1133D190E3CC3BD4282AD2B3E68EC82FB
:1001500076BED98FE1A93E4C80EFFFBE01C4FF7F80
:100160003F000000000000C201000100110011006A
:100170000C0000E100000A00250025002100009687
:1001800000001900390039003600127A00001F0003
:100190004600460044008070000022004D004D00E3
:1001A0004A00004B000036007500750072004038B0
:1001B00000004A009C009C0099008025000072000D
:1001C000EC00EC00E900C0120000E900DA01DA01FD
:1001D000D70160090000D701B603B603B303B0042A
:1001E0000000B3036E076E076B07580200006E072E
:1001F000DC0EDC0ED80E2C010000DC0EC11DC11D72
:10020000BE1D00002100240027002A002D00300020
:10021000330001010000040107010A01000022006F
:10022000250028002B002E003100340002010000C0
:10023000050108010B010000200023002600290011
:100240002C002F003200000100000301060109010B
:1002500005050505070508080808020202020A0A42
:100260000808040404040101010101010101030360
:10027000030303030303040707070C0C0C0C0C0C0B
:100280000C0C0202020206060606060606060B0B08
:100290000B0B0B0B0B0B0102102020080810204049
:1002A000102040800201020108040201010204083A
:1002B00010204080804020100804020180040201C8
:1002C0008040201008040201080402010102040811
:1002D0001020408001020408102040800000090A1C
:1002E00002080B0C0D0706030401000000000000CB
:1002F00000000000000000000000000000000000FE
:10030000000000000000000011100F0000000000BD
:1003100000000000000000000000000000000000DD
:100320000000B30433140E1FDA272E1411241FBE4D
:10033000CFEFD1E2DEBFCDBF00E00CBF19E0A0E0FF
:10034000B2E0E8EBF1E600E00BBF02C007900D92CF
:10035000AC30B107D9F71BBE1EE0ACE0B9E001C07C
:100360001D92AC30B107E1F713E0CAE2D3E004C05C
:100370002297FE010E94CC30C232D107C9F70E94F9
:1003800010290C94D0303CCECF92DF92EF92FF92A6
:100390000F931F936C0180E090E0F601268537856E
:1003A00040E050E0621B730B840B950B2485358570
:1003B00040E050E00E943B307B018C013FE015950E
:1003C0000795F794E7943A95D1F7F601668977890E
:1003D000882777FD8095982F2BE0660F771F881F61
:1003E000991F2A95D1F7208D318D442737FD4095EF
:1003F000542F2E0D3F1D401F511F0E949B302E0D6C
:100400003F1D401F511FF6012083318342835383D8
:10041000285F3F4F4F4F5F4F84E055954795379585
:1004200027958A95D1F7CA01B9010E94892D20E04C
:1004300030E040E251E40E94EE2C1F910F91FF90BA
:10044000EF90DF90CF9008954F925F926F927F92DE
:100450008F929F92AF92BF92CF92DF92EF92FF92D4
:100460000F931F93DF93CF93CDB7DEB728970FB6C7
:10047000F894DEBF0FBECDBF4C012A013B01DC0169
:10048000AD90BD90CD90DC9080E690EFAFEFBFEFE8
:10049000A80EB91ECA1EDB1EC601B501A601950134
:1004A0000E943B306D837E838F839887D40118969A
:1004B0006D917C911997882777FD8095982F0E94E0
:1004C0003B307B018C01ADE015950795F794E794DF
:1004D000AA95D1F782E090E0A0E0B0E0E80EF91E26
:1004E0000A1F1B1F6D817E818F819885FCE0959589
:1004F000879577956795FA95D1F7D40150962D9108
:100500003C915197442737FD4095542F0E943B3032
:10051000BC01992777FD9095892FE60EF71E081FDD
:10052000191F62E015950795F794E7946A95D1F73E
:1005300080E090E8A0E0B0E0E80EF91E0A1F1B1F63
:10054000D4011A962D913C911B9740E050E0C801D0
:10055000B7010E943B30DC01CB015FE0B695A79567
:10056000979587955A95D1F789839A83AB83BC83F6
:10057000D4011496ED90FC9015970027F7FC009598
:10058000102F42E0EE0CFF1C001F111F4A95D1F7FF
:1005900082E090E0A0E0B0E0E80EF91E0A1F1B1F09
:1005A000D40116966D917C911797882777FD8095D9
:1005B000982FA60195010E943B303BE095958795C9
:1005C000779567953A95D1F7E60EF71E081F191F24
:1005D000F40122893389442737FD4095542F6D81DA
:1005E0007E818F8198850E943B3027E19595879584
:1005F000779567952A95D1F7E60EF71E081F191F04
:1006000082E015950795F794E7948A95D1F74E18EF
:100610005F08600A710AC301B20120E533EC40E0D3
:1006200050E00E943B3097FD0FC0660F771F881F78
:10063000991F29813A814B815C810E947930C901DF
:10064000DA015C016D010CC029813A814B815C812A
:100650000E94793059016A01AA0CBB1CCC1CDD1C1C
:100660005527D7FC5A954D2D3C2D2B2DCA01B9018C
:100670000E943B302EED3BE040E050E00E943B30DA
:100680007B018C01C601B50123E433EE4FEF5FEF30
:100690000E943B309C01552737FD5095452F215333
:1006A000314F4F4F5F4F78011127F7FC1095012F05
:1006B0002E0D3F1D401F511F64E0559547953795FE
:1006C00027956A95D1F72A0D3B1D4C1D5D1DB9017B
:1006D000CA0128960FB6F894DEBF0FBECDBFCF91EA
:1006E000DF911F910F91FF90EF90DF90CF90BF901F
:1006F000AF909F908F907F906F905F904F900895F4
:10070000CB01BA0120E836EE45EC57E40E94EE2C0E
:1007100025E534ED42E45EE30E94D02E9B01AC015E
:1007200060E070E080E89FE30E94852C2BE43AE3D0
:100730004DEB57E30C94EE2C1F93162F81EE9AE0AD
:1007400067E770E00E94D41E81EE9AE0612F0E945C
:10075000551F81EE9AE00E94961F81EE9AE067E7AE
:1007600070E042E050E00E94A41F81EE9AE00E94F7
:10077000DE1E0297D4F381EE9AE00E94E71E182F46
:1007800081EE9AE00E94E71E512F40E0282F30E0D2
:10079000242B352BC9011F9108951F93162F81EE2D
:1007A0009AE067E770E00E94D41E81EE9AE0612F24
:1007B0000E94551F81EE9AE00E94961F81EE9AE0FA
:1007C00067E770E041E050E00E94A41F81EE9AE0EC
:1007D0000E94DE1E892BD1F381EE9AE00E94E71E73
:1007E0001F9108958F929F92AF92BF92CF92DF9206
:1007F000EF92FF920F931F934C0101EE1AE0C80194
:1008000067E770E00E94D41EC80164EF0E94551F84
:10081000C80164E30E94551FC8010E94961F65E04D
:1008200070E080E090E00E949722C40166EFB5DF9F
:10083000E82EC40167EFB1DFA82EC40168EFADDF79
:10084000FF2400E010E08701FF24EE24BB24CC2429
:10085000DD24DC2CCB2CBA2CAA24EA28FB280C297A
:100860001D29EF2CF02E012F1127B701C8011F9170
:100870000F91FF90EF90DF90CF90BF90AF909F903F
:100880008F900895EF92FF920F931F937C0101EEDA
:100890001AE0C80167E770E00E94D41EC80164EF47
:1008A0000E94551FC8016EE20E94551FC8010E9498
:1008B000961F65E070E080E090E00E949722C701FB
:1008C00066EF3ADF1F910F91FF90EF9008950F931D
:1008D0001F938C0181EE9AE00E94A81FC8016AEA6A
:1008E0002BDFF80195838483C8016CEA25DFF801CA
:1008F00097838683C8016EEA1FDFF801918780879E
:10090000C80160EB19DFF80193878287C80162EBA9
:1009100013DFF80195878487C80164EB0DDFF801C8
:1009200097878687C80166EB07DFF801918B808B7C
:10093000C80168EB01DFF801938B828BC8016AEB79
:10094000FBDEF801958B848BC8016CEBF5DEF801BA
:10095000978B868BC8016EEBEFDEF801918F808F4D
:100960001F910F9108958CE099E00E940D1480E191
:1009700099E00E94031883E199E00E94031888E13E
:1009800099E060E273E045E350E024E330E00E9448
:10099000E8138EE299E00E94A5118DE399E00C9492
:1009A000E10FAF92BF92CF92DF92EF92FF920F933F
:1009B0001F938CE06AE041E00E9415106AE070E04D
:1009C00080E090E00E9497220091DA081091DB0805
:1009D0008CE063E046E02EE339E00E942410309181
:1009E0003F0920E060913E0970E0622B732B709309
:1009F0005109609350093091410920E0E09040098D
:100A0000FF24E22AF32AF0925309E092520930912E
:100A1000430920E0A0904209BB24A22AB32AB09245
:100A20005509A0925409882777FD8095982F0E9438
:100A3000892D20E030E046E954E40E946D2E20E04C
:100A400030E040E859E30E946D2E60936E09709388
:100A50006F0980937009909371090027F7FC009546
:100A6000102FC801B7010E94892D20E030E046E92F
:100A700054E40E946D2E20E030E040E859E30E94EB
:100A80006D2E60937209709373098093740990932B
:100A90007509CC24B7FCC094DC2CC601B5010E94BA
:100AA000892D20E030E046E954E40E946D2E20E0DC
:100AB00030E040E859E30E946D2E60937609709310
:100AC000770980937809909379091F910F91FF908E
:100AD000EF90DF90CF90BF90AF9008958F929F924C
:100AE000AF92BF92CF92DF92EF92FF920F931F933C
:100AF0000F920F9284E599E0EDB7FEB79283818360
:100B00008EE299E064E479E046E459E028E439E0D3
:100B10000AE419E0BCE4EB2EB9E0FB2EAEE4CA2EE9
:100B2000A9E0DA2EF0E5AF2EF9E0BF2EE2E58E2E39
:100B3000E9E09E2E0E94701260914A0970914B0963
:100B4000882777FD8095982F0E94892D20E030E03E
:100B50004AE753E40E946D2E20E030E040E058E385
:100B60000E946D2E609362097093630980936409FB
:100B70009093650960914C0970914D09882777FD24
:100B80008095982F0E94892D20E030E04AE753E4B9
:100B90000E946D2E20E030E040E058E30E946D2E70
:100BA0006093660970936709809368099093690957
:100BB00060914E0970914F09882777FD8095982F95
:100BC0000E94892D20E030E04AE753E40E946D2E18
:100BD00020E030E040E058E30E946D2E60936A0907
:100BE00070936B0980936C0990936D090F900F902F
:100BF0001F910F91FF90EF90DF90CF90BF90AF903B
:100C00009F908F9008958F929F92AF92BF92CF92B4
:100C1000DF92EF92FF920F931F930F920F9284E552
:100C200099E0EDB7FEB7928381838EE299E064E4A8
:100C300079E046E459E028E439E00AE419E0BCE44C
:100C4000EB2EB9E0FB2EAEE4CA2EA9E0DA2EF0E5D9
:100C5000AF2EF9E0BF2EE2E58E2EE9E09E2E0E9437
:100C600070126091440970914509882777FD80953D
:100C7000982F0E94892D20E030E040E858E30E9440
:100C80006D2E60935609709357098093580990937D
:100C900059096091460970914709882777FD809529
:100CA000982F0E94892D20E030E040E858E30E9410
:100CB0006D2E60935A0970935B0980935C09909341
:100CC0005D096091480970914909882777FD8095F1
:100CD000982F0E94892D20E030E040E858E30E94E0
:100CE0006D2E60935E0970935F0980936009909305
:100CF00061090F900F901F910F91FF90EF90DF907F
:100D0000CF90BF90AF909F908F9008958F929F92B9
:100D1000AF92BF92CF92DF92EF92FF920F931F9309
:100D2000CF93DF930C94100F84E89DE00E943C2C3D
:100D30004B015C0184E89DE00E945F270A9749F01F
:100D400084E89DE00E945F278F5F9F4F11F00C9415
:100D50001A0FEB2C1127E7FC1095F12E012F30E72D
:100D6000E316F1040105110509F079C080E199E06D
:100D70000E941D1883E199E00E941D18EA2CFF24AF
:100D80008401E701CC0FDD1FCA52D74F88819981BA
:100D90008816990609F45EC0881699067CF484E8E2
:100DA0009DE060E072E00E94722B84E89DE00E946A
:100DB000882728813981281939090FC084E89DE0E6
:100DC0006BE172E00E94722B84E89DE00E9488270C
:100DD000888199819401281B390B2D3331055CF0F2
:100DE000B7016F5F7F4FA801445C5F4F8CE099E0D3
:100DF00026E930E023C0C9014F974E9758F4B70158
:100E00006F5F7F4FA801445C5F4F8CE099E028EC56
:100E100030E014C02B503040B7016F5F7F4FA80106
:100E2000445C5F4F2431310528F48CE099E02AEFCF
:100E300030E004C08CE099E02CE231E00E944B17D6
:100E4000EE0CFF1C86ED98E0E80EF91ED7010D931D
:100E50001C9370C184E89DE065E372E0C6C0B2E611
:100E6000EB16F1040105110509F0C6C080E199E017
:100E70000E941D1883E199E00E941D18D501C4014C
:100E800080709070A07CB07006E1B595A79597959D
:100E900087950A95D1F76C01D501C4018070907FC8
:100EA000AF73B0701CE0B595A795979587951A9587
:100EB000D1F77C0184011F700530110514F004E0A6
:100EC00010E0B701882777FD8095982F0E94892D23
:100ED0002AEF3EE74AE150E40E946D2E0E943D2E2B
:100EE000B62EA72EB801882777FD8095982F0E94EF
:100EF000892D2AEF3EE74AE150E40E946D2E0E94C0
:100F00003D2EEB01C114D104A1F584E89DE06CE411
:100F100072E00E948C2A84E89DE0B7014AE050E02C
:100F20000E945D2A84E89DE064E672E00E948C2ABB
:100F300084E89DE0B8014AE050E00E945D2A84E820
:100F40009DE06EE672E00E94722B84E89DE00E94B4
:100F50008827AE01662757FD6095762F88E199E0D6
:100F60000E94CF1288E199E06B2D7A2D0E948313A5
:100F7000E1C0E1E0CE16D104A1F584E89DE064E78C
:100F800072E00E948C2A84E89DE0B7014AE050E0BC
:100F90000E945D2A84E89DE064E672E00E948C2A4B
:100FA00084E89DE0B8014AE050E00E945D2A84E8B0
:100FB0009DE06EE672E00E94722B84E89DE00E9444
:100FC0008827AE01662757FD6095762F88E199E066
:100FD0000E94CF1288E199E06B2D7A2D0E94B71301
:100FE000A9C084E89DE060E972E00E94722B84E869
:100FF0009DE00E9488279EC0FCE6EF16F1040105E3
:10100000110509F0A4C080E199E00E941D1883E158
:1010100099E00E941D1884E89DE060EB72E00E9458
:101020008C2A84E89DE060E273E04AE050E00E9490
:101030006F2A88E199E042E050E060E070E00E94B1
:10104000CF1283E30E9437249093170980931609E7
:10105000C0E0D0E014C088E199E061E070E00E9457
:101060008313219665E070E080E090E00E94972273
:1010700083E30E9437249093170980931609809187
:10108000160990911709019731F384E89DE06EEC01
:1010900072E00E948C2A84E89DE0BE014AE050E0A4
:1010A0000E945D2A84E89DE067ED72E00E94722B49
:1010B000CC0FDD1FC152D34034F088E199E065E0E8
:1010C00070E00E94B71383E30E94372490931709BE
:1010D00080931609C0E0D0E014C088E199E061E097
:1010E00070E00E94B713219665E070E080E090E028
:1010F0000E94972283E30E943724909317098093DC
:1011000016098091160990911709019731F384E827
:101110009DE06EEC72E00E948C2A84E89DE0BE01A6
:101120004AE050E00E945D2A84E89DE066EF72E0AC
:101130000E94722B80E199E069E070E00E94A019A2
:1011400083E199E06AE070E00E94A01969C631E786
:10115000E316F1040105110509F053C08A2D90E052
:101160009C01E401892BB9F4181419047CF5C630EC
:10117000D10564F584E89DE069E173E00E94722B7B
:1011800084E89DE00E94882786E161E00E940524B2
:1011900087E160E019C021303105C1F41814190449
:1011A000ACF4C630D10594F484E89DE069E273E0C4
:1011B0000E94722B84E89DE00E94882786E160E00F
:1011C0000E94052487E161E00E94052400E010E010
:1011D00008C06CE271E080E090E00E9497220F5F0F
:1011E0001F4F0C171D07ACF386E160E00E94052439
:1011F00087E160E00E94052468E572E080E090E00D
:101200006DC082E7E816F1040105110529F484E8B0
:101210009DE06BE373E012C695E7E916F104010562
:10122000110561F484E89DE06AE573E00E94722B89
:1012300084E89DE00E94882788E158C2A7E7EA1663
:10124000F1040105110561F484E89DE063E873E0B1
:101250000E94722B84E89DE00E94882789E146C2A3
:10126000B6E7EB16F1040105110561F484E89DE091
:101270006CEA73E00E94722B84E89DE00E9488274C
:1012800088E121C2E8E7EE16F1040105110561F4D9
:1012900084E89DE065ED73E00E94722B84E89DE098
:1012A0000E94882789E10FC2F9E7EF16F1040105D2
:1012B0001105B9F484E89DE06EEF73E00E94722B93
:1012C00084E89DE00E94882780E199E06CE370E06B
:1012D0000E9489186FE070E080E090E00E94972201
:1012E0009FC52AE7E216F1040105110559F484E8C7
:1012F0009DE066E174E00E94722B84E89DE00E940C
:1013000088272FC030E6E316F1040105110571F5B9
:1013100084E89DE060E374E00E948C2AE40189285F
:1013200011F4C0E9D1E084E89DE0BE014AE050E05C
:101330000E945D2A84E89DE063E574E00E94722BC0
:1013400084E89DE00E94882780E199E06CE370E0EA
:101350000E948918BE01882777FD8095982F0E94EA
:10136000972280E199E060E570E0B2CF81E6E8166F
:10137000F1040105110599F484E89DE062E674E04A
:101380000E948C2AE40184E89DE0B4014AE050E028
:101390000E945D2A892871F6C8E5DBE1CBCF93E78F
:1013A000E916F1040105110579F484E89DE064E88B
:1013B00074E00E94722B84E89DE00E94882783E1FC
:1013C00099E062E570E084CFA4E7EA16F104010534
:1013D000110579F484E89DE06AE974E00E94722BBB
:1013E00084E89DE00E94882783E199E060E770E04F
:1013F0006FCFBBE7EB16F1040105110529F484E872
:101400009DE061EB74E01AC5ECE7EE16F10401050E
:101410001105F1F48114910441F484E89DE06AE53A
:101420004AE050E00E94F129F7C484E89DE064ECB2
:1014300074E00E948C2A8FEF9FEFA0E0B0E088223A
:101440009922AA22BB2284E89DE0B501A401E0C450
:1014500093E6E916F1040105110509F053C0840172
:10146000892859F484E89DE067ED74E00E948C2A95
:1014700084E89DE060E070E09FC00130110529F430
:1014800084E89DE061EE74E0D9C40230110529F4CE
:1014900084E89DE060E075E0D1C40330110529F4D3
:1014A00084E89DE06DE175E0C9C40430110529F4BC
:1014B00084E89DE06AE375E0C1C40530110529F4B4
:1014C00084E89DE066E575E0B9C40630110529F4AD
:1014D00084E89DE066E775E0B1C40730110529F4A2
:1014E00084E89DE069E875E0A9C40830110529F495
:1014F00084E89DE062EA75E0A1C484E89DE064ECC4
:1015000074E055C0ADE7EA16F1040105110519F5BF
:10151000C4010197EFEFEE2EEFEFFE2E012D112DFE
:10152000E820F9200A211B21029708F04AC084E82C
:101530009DE067EC75E00E948C2A84E89DE0B8018C
:10154000A7012AE030E00E940D2A8CE099E0B40166
:101550000E94FB1427C0BEE7EB16F104010511053C
:10156000A9F5C40101977FEFE72E7FEFF72E012D3C
:10157000112DE820F9200A211B21029710F584E89B
:101580009DE06AEE75E00E948C2A84E89DE0B80137
:10159000A7012AE030E00E940D2A8CE099E0B40116
:1015A0000E948A158C0184E89DE064EE75E00E943B
:1015B0008C2A84E89DE0B8014AE050E00E946F2A3E
:1015C0002BC484E89DE064EC74E01CC4E4E6EE16F1
:1015D000F1040105110561F484E89DE067E076E01F
:1015E0000E94722B84E89DE00E9488278AE16BC0EC
:1015F000F5E6EF16F1040105110561F484E89DE0BC
:1016000060E276E00E94722B84E89DE00E948827C9
:101610008AE16CC026E6E216F1040105110561F4C9
:1016200084E89DE06CE376E00E94722B84E89DE004
:101630000E9488278BE147C037E6E316F1040105D5
:10164000110561F484E89DE065E576E00E94722B67
:1016500084E89DE00E9488278BE148C088E6E81670
:10166000F1040105110561F484E89DE061E776E08D
:101670000E94722B84E89DE00E9488278CE123C0A1
:1016800099E6E916F1040105110561F484E89DE08D
:101690006AE876E00E94722B84E89DE00E94882729
:1016A0008CE124C0AAE6EA16F1040105110569F4EB
:1016B00084E89DE066EA76E00E94722B84E89DE073
:1016C0000E9488278DE161E012C0BBE6EB16F104B1
:1016D0000105110579F484E89DE06FEB76E00E9446
:1016E000722B84E89DE00E9488278DE160E00E94D3
:1016F000052496C3EFE7EE16F1040105110509F084
:1017000099C080E199E00E941D1883E199E00E9450
:101710001D18D501C40180709070A07CB07066E186
:10172000B595A795979587956A95D1F7EC01D50161
:10173000C4018070907FAF73B0705CE0B595A795E1
:10174000979587955A95D1F78C014FEFE42E4FE08E
:10175000F42EE820F920FE01EE0FFF1FEA52F74FAA
:101760008081918108171907E9F184E89DE06BED0C
:1017700076E00E948C2A84E89DE0BE014AE050E0B9
:101780000E945D2A84E89DE060EE76E00E948C2A4B
:1017900084E89DE0B8014AE050E00E945D2A84E8B8
:1017A0009DE064E672E00E948C2A84E89DE0B70127
:1017B0004AE050E00E946F2A84E89DE00E9488275A
:1017C000BE016F5F7F4FA801445C5F4F8CE099E0E2
:1017D00097010E944B17CC0FDD1FCA52D74F1983B8
:1017E0000883A8CC84E89DE06BED76E00E948C2A0B
:1017F00084E89DE0BE014AE050E00E945D2A84E852
:101800009DE060EE76E00E948C2A84E89DE0B801BD
:101810004AE050E00E945D2A84E89DE064E672E0C0
:101820000E948C2A84E89DE0B7014AE050E00E94C3
:101830006F2ADDCBF0E5EF16F1040105110509F083
:1018400079C080E199E00E941D1883E199E00E942F
:101850001D18E12C90EFF92E9FE3092F112DE820A0
:10186000F9200A211B218CE015950795F794E79440
:101870008A95D1F767011FEFA12E1FE0B12EA82096
:10188000B92084E89DE065EF76E00E948C2A84E828
:101890009DE0B7014AE050E00E945D2A84E89DE0A7
:1018A00064E672E00E948C2A84E89DE0B5014AE07B
:1018B00050E00E945D2A84E89DE00E94882784E829
:1018C0009DE067E077E00E948C2A84E89DE0B70104
:1018D0004AE050E00E945D2A84E89DE064E672E000
:1018E0000E948C2A84E89DE0B5014AE050E00E9405
:1018F0006F2A84E89DE00E9488272CE330E0C20E26
:10190000D31E8CE099E061E070E0A60195010E9491
:101910004B178CE099E062E070E0A60195010E940F
:101920004B17F092D708E092D608F092D908E092CF
:10193000D80800CC31E5E316F1040105110509F0E2
:1019400042C080E199E00E941D1883E199E00E9465
:101950001D18EA2CFF24670184E89DE06BED76E01A
:101960000E948C2A84E89DE0B7014AE050E00E9482
:101970005D2A84E89DE06CE177E00E948C2A84E88F
:101980009DE0B4014AE050E00E946F2A84E89DE0A7
:101990000E9488270894C11CD11C8CE099E0B601F4
:1019A000A4010E94341784E398E0B4010E946630D9
:1019B00086E990E0DB01A89FB001A99F700DB89F58
:1019C000700D112448C0B2E5EB16F10401051105B4
:1019D00009F051C080E199E00E941D1883E199E06F
:1019E0000E941D18EA2CFF24670184E89DE06BED3E
:1019F00076E00E948C2A84E89DE0B7014AE050E03E
:101A00000E945D2A84E89DE062E477E00E948C2ACF
:101A100084E89DE0B4014AE050E00E946F2A84E827
:101A20009DE00E9488270894C11CD11C8CE099E09D
:101A3000B601A4010E941D1784E398E0B4010E943E
:101A4000663086E990E0FB01E89FB001E99F700DE8
:101A5000F89F700D1124882777FD8095982F0E949C
:101A600097228CE099E0B60140E050E02CE231E0B2
:101A70000E9402175FCBF0E4EF16F1040105110597
:101A800091F484E89DE06CE677E00E94722B84E894
:101A90009DE00E9488278EE299E0EDD48AE899E0E3
:101AA0000E946704BDC121E4E216F104010511059D
:101AB00079F48EE299E00DD5882329F084E89DE041
:101AC00065E977E0BBC184E89DE06EEC77E0B6C1E4
:101AD00032E4E316F10401051105C1F594D884E858
:101AE0009DE063E078E00E948C2A40915609509175
:101AF0005709609158097091590984E89DE022E0E6
:101B000030E00E945F2B84E89DE06FE178E00E9466
:101B10008C2A40915A0950915B0960915C0970913F
:101B20005D0984E89DE022E030E00E945F2B84E8BC
:101B30009DE06FE178E00E948C2A40915E0950910F
:101B40005F0960916009709161097EC083E4E816C5
:101B5000F10401051105C9F50E946E0584E89DE0B8
:101B600061E278E00E948C2A4091620950916309F9
:101B7000609164097091650984E89DE022E030E09D
:101B80000E945F2B84E89DE06FE178E00E948C2A40
:101B900040916609509167096091680970916909DF
:101BA00084E89DE022E030E00E945F2B84E89DE025
:101BB0006FE178E00E948C2A40916A0950916B098C
:101BC00060916C0970916D093FC094E4E916F104CD
:101BD0000105110509F03FC00E94D10484E89DE091
:101BE0006DE378E00E948C2A40916E0950916F0954
:101BF000609170097091710984E89DE022E030E005
:101C00000E945F2B84E89DE06FE178E00E948C2ABF
:101C1000409172095091730960917409709175092E
:101C200084E89DE022E030E00E945F2B84E89DE0A4
:101C30006FE178E00E948C2A4091760950917709F3
:101C4000609178097091790984E89DE022E030E0A4
:101C50000E94612BE5C0A5E4EA16F1040105110517
:101C600051F58AE899E00E944204BC018AE899E0B3
:101C70000E94C40160937A0970937B0980937C0968
:101C800090937D0984E89DE066E578E00E948C2AC7
:101C900040917A0950917B0960917C0970917D098E
:101CA00084E89DE022E030E00E945F2B84E89DE024
:101CB00064E678E0C3C0B6E4EB16F1040105110553
:101CC00069F58AE899E00E94F203AB01BC018AE859
:101CD00099E00E9424020E94892D60937E097093EE
:101CE0007F09809380099093810984E89DE06BE6E9
:101CF00078E00E948C2A40917E0950917F09609182
:101D000080097091810984E89DE022E030E00E9422
:101D10005F2B84E89DE066E778E090C0E7E4EE168C
:101D2000F10401051105B9F58AE899E00E94F20372
:101D3000AB01BC018AE899E00E9424020E94892D2F
:101D400060937E0970937F09809380099093810945
:101D500020E836EE45EC57E40E94EE2C60938209B1
:101D600070938309809384099093850984E89DE0AA
:101D70006AE778E00E948C2A409182095091830999
:101D8000609184097091850984E89DE024E030E049
:101D90000E94612B41C0F8E4EF16F1040105110522
:101DA00069F540917E0950917F0960918009709199
:101DB00081098AE899E00E94800360938609709304
:101DC0008709809388099093890984E89DE06FE8EA
:101DD00078E00E948C2A4091860950918709609191
:101DE00088097091890984E89DE022E030E00E9432
:101DF0005F2B84E89DE06AE978E020C084E89DE0FC
:101E00006DE978E00E948C2A84E89DE0B801A70182
:101E10002AE030E00E944B2A84E89DE00E94882757
:101E200084E89DE00E942E271816190614F40C94DD
:101E3000940607C084E89DE06FEA78E00E94722B68
:101E4000EBCFDF91CF911F910F91FF90EF90DF903B
:101E5000CF90BF90AF909F908F9008958CE099E0C5
:101E600040E05BE460E070E00E9400188CE099E0E4
:101E700061E070E040E050E02CE231E0C3D78CE05C
:101E800099E062E070E040E050E02CE231E0BAD747
:101E90008CE099E061E070E046E950E026E930E04E
:101EA000FAD76AE070E080E090E00E9497228CE030
:101EB00099E062E070E046E950E026E930E0EBD7D7
:101EC00080E199E069E070E00E94A01980E199E06A
:101ED00060E570E00E94891883E199E06AE070E0B3
:101EE0000E94A01983E199E060E770E00E948918E0
:101EF00088E199E041E050E060E070E050D381EE8D
:101F00009AE00E94A81F84E89DE040E052EC61E066
:101F100070E00E94A72684E89DE00E94D8278823CD
:101F2000D1F384E89DE044E050E060E070E00E947E
:101F3000832B84E89DE00E94882786E161E00E946F
:101F4000522387E161E00E94522386E160E00E9413
:101F5000052487E160E00E94052488E161E00E9499
:101F6000522389E161E00E94522388E160E00E94EF
:101F7000052489E160E00E9405248AE161E00E9475
:101F800052238BE161E00E9452238CE161E00E94C8
:101F900052238DE161E00E9452238AE160E00E94B9
:101FA00005248BE160E00E9405248CE160E00E9442
:101FB00005248DE160E00E94052483E360E00C9439
:101FC00052230895EF92FF920F931F93CF93DF93C5
:101FD000582F162FE42E022FF32E81EE9AE0652F54
:101FE0000E94CA1E81EE9AE0612F0E94551F202F89
:101FF0003F2DC901EC0110E006C081EE9AE0699125
:102000000E94551F1F5F1E15C0F381EE9AE00E94CB
:10201000961F90E0882309F491E0892FDF91CF91FA
:102020001F910F91FF90EF900895DF93CF930F9240
:10203000CDB7DEB7498341E09E012F5F3F4FC2DF3E
:102040000F90CF91DF9108952F923F924F925F9220
:102050006F927F928F929F92AF92BF92CF92DF92B8
:10206000EF92FF920F931F93DF93CF9300D00F92C5
:102070000F92CDB7DEB7882E6983942E3B832A83D7
:102080000E9463225B016C01FF24EE24292C33247F
:102090002801662477244BC081EE9AE0682D0E94C7
:1020A000CA1E81EE9AE069810E94551F81EE9AE076
:1020B0000E94961F81EE9AE0682D0E94CA1EA1011F
:1020C0004E1951094132510514F040E250E081EEC1
:1020D0009AE0682D0E94A61F2F2D332727FD3095EB
:1020E0008A819B81280F391F3D832C8381EE9AE0E2
:1020F0000E94DE1E892B09F452C00115110561F002
:102100000E9463226A197B098C099D096415750573
:102110008605970508F043C081EE9AE00E94E71E0D
:10212000EC81FD818193FD83EC83F394DFCFE9148F
:1021300008F4B2CF01151105C9F00E9463226A1993
:102140007B098C099D09980140E050E062177307F4
:102150008407950758F02F2D332727FD3095892DBB
:1021600090E02817390714F4FF24FA948F2D0F906C
:102170000F900F900F900F90CF91DF911F910F91C3
:10218000FF90EF90DF90CF90BF90AF909F908F9097
:102190007F906F905F904F903F902F90089581EEC9
:1021A0009AE00E94961F892DF0E2F91508F480E26A
:1021B000E80EBDCF0F931F93FA01890141E09F0103
:1021C00043DF1F910F910895DF92EF92FF920F93DB
:1021D0001F93DF93CF930F92CDB7DEB7E82ED62EA5
:1021E000F42E122F2091DA083091DB08AE014F5FF8
:1021F0005F4FE0DF882339F1212F30E04F2D50E091
:102200004F5F5F4F421B530B81E090E002C0880F8D
:10221000991F1A95E2F70197042E02C0880F991FA3
:102220000A94E2F7202F30E002C0220F331F4A95B4
:10223000E2F7482F4095598145238223482B498353
:102240008E2D6D2DF2DE0F90CF91DF911F910F91AA
:10225000FF90EF90DF900895EF92FF920F931F93FE
:10226000DF93CF930F92CDB7DEB7F82EE62E042F73
:10227000122F2091DA083091DB08AE014F5F5F4FDB
:1022800099DF2981112351F081E090E002C0880F8D
:10229000991F0A95E2F7422F482B0AC081E090E08F
:1022A00002C0880F991F0A95E2F7482F40954223F4
:1022B00049838F2D6E2DB9DE0F90CF91DF911F9145
:1022C0000F91FF90EF900895CF92DF92EF92FF92DF
:1022D0000F931F93DF93CF930F92CDB7DEB7C42E2A
:1022E000D22E9701AE014F5F5F4F64DF682F8823C6
:1022F00009F18D2D90E04C2D50E04F5F5F4F481B52
:10230000590B21E030E002C0220F331FDA94E2F7CC
:1023100021503040042E02C0220F331F0A94E2F7EE
:102320008981822390E002C0959587954A95E2F7CE
:10233000F8018083862F0F90CF91DF911F910F912D
:10234000FF90EF90DF90CF900895FC0188E68083A6
:1023500008952F923F924F925F926F927F928F9249
:102360009F92AF92BF92CF92DF92EF92FF920F9324
:102370001F935C014B013A01290118019C012F5F59
:102380003F4F0091DA081091DB08FC0180816BE37C
:102390004EE05ADEF501918180E0228130E0822B0F
:1023A000932BF40191838083F501938180E0248154
:1023B00030E0822B932BF30191838083F50195818B
:1023C00080E0268130E0822B932BF2019183808381
:1023D000F501918580E0228530E0822B932BF1017D
:1023E00091838083F501938580E0248530E0822B02
:1023F000932BF70191838083F501958580E02685F5
:1024000030E0822B932BF601918380831F910F91F3
:10241000FF90EF90DF90CF90BF90AF909F908F9004
:102420007F906F905F904F903F902F900895FC01A8
:10243000262F80816BE646E00FCF0F93FC01062F1D
:1024400080816BE642E023E0BFDE0F9108950F9399
:10245000FC01062F80816CE144E022E0B5DE0F91A3
:1024600008950F93FC01062F80816BE144E022E088
:10247000ABDE0F9108950F931F938C0161E0DDDFB8
:10248000C80160E0EEDFC80160E0E1DFC80160E0A4
:10249000CEDF1F910F910895CF92DF92EF92FF92BE
:1024A0000F931F936C018C010F5F1F4FE090DA08B0
:1024B000F090DB08FC01808165E746E028E004DF5E
:1024C000F60181811F910F91FF90EF90DF90CF90E7
:1024D0000895E2DF90E0813709F491E0892F0895B3
:1024E0006F927F928F929F92AF92BF92CF92DF9224
:1024F000EF92FF920F931F93DF93CF93CDB7DEB789
:102500003C0127DFF30181917F0167E342E08DDD2C
:102510006AE070E080E090E00E9497228CE06AE040
:1025200041E083DD6AE070E080E090E00E94972265
:102530000091DA081091DB088CE063E046E0970137
:1025400083DDF301928180E0218130E0822B932BA7
:10255000F50191838083F301948180E0238130E051
:10256000822B932BF40191838083F301368120E049
:10257000858190E0282B392BEA89FB8931832083E0
:10258000CF91DF911F910F91FF90EF90DF90CF904F
:10259000BF90AF909F908F907F906F900895CF9253
:1025A000DF92EF92FF920F931F936C017A018B01E0
:1025B000FC0120853185442737FD4095542F60E08C
:1025C00077E883E993E00E949B30CA01B901A80132
:1025D00097010E949B30F6012483358346835783FD
:1025E0001F910F91FF90EF90DF90CF900895FC0125
:1025F00082859385019779F46115710521F0613029
:10260000710549F404C0868560E00C940524868534
:1026100061E00C9405240895CF92DF92EF92FF922F
:102620000F931F93CF93DF93EC018B0116161706C0
:1026300044F481E090E099838883888960E00E9477
:10264000052417FF06C019821882888961E00E945C
:102650000524680117FF4AC0D094C194D108D394CF
:1026600045C00E9471227B018C018A899B89AC89BB
:10267000BD89A8019701281B390B4A0B5B0B8C8184
:102680009D81AE81BF81281739074A075B0748F350
:10269000EA8AFB8A0C8B1D8B888199812C853D856C
:1026A000019761F42F5F3F4F3D872C87888599857F
:1026B0002817390771F41D861C860BC0232B21F4C3
:1026C000888599859D878C878C859D8501979D87B9
:1026D0008C872C853D85C90162E070E00E946630E0
:1026E000BC01CE0184DF0894C108D108C114D10413
:1026F00009F0B7CFDF91CF911F910F91FF90EF902D
:10270000DF90CF900895CF92DF92EF92FF920F93D8
:102710001F936C01882777FD8095982F0E94892D43
:102720007B018C01F60160857185882777FD809596
:10273000982F0E94892D9B01AC01C801B7010E940E
:102740006D2E20E030E044EB53E40E94EE2C0E941A
:102750003D2E9B01309521953F4FC601B9015CDFAD
:102760001F910F91FF90EF90DF90CF900895CF923F
:10277000DF92EF92FF920F931F936C01882777FDF2
:102780008095982F0E94892D7B018C01F601608530
:102790007185882777FD8095982F0E94892D9B0150
:1027A000AC01C801B7010E946D2E20E030E044EB7F
:1027B00053E40E94EE2C0E943D2E9B01C601B901FC
:1027C0002BDF1F910F91FF90EF90DF90CF90089536
:1027D0000F931F938C01842FF801158614861382A2
:1027E000128211821082128A138A148A158A7187C2
:1027F000608746875787318B208B61E00E94522388
:10280000F801808961E00E94522381E090E0F801A4
:10281000938782871F910F910895FC0186E990E0CC
:102820009183808380EF90E0938382830895813049
:10283000910551F46F5F7F4F81F484EA99E06BE07A
:102840004CE020E00C949E1E892B39F46F5F7F4F83
:1028500021F484EA99E00C942B1D089580E090E027
:102860006FEF7FEFE4CF81E090E06FEF7FEFDFCF9E
:102870009F92AF92BF92CF92DF92EF92FF920F930F
:102880001F93CF93DF93962EEA014230510510F04B
:10289000C0E0D0E000D00F92B901882777FD809585
:1028A000982F2FEF33E040E050E0EDB7FEB72183E3
:1028B00032834383548320E030E040E050E0FCE288
:1028C000EF2EF1E0FF2E012D112DAA24BB2465016E
:1028D0000E943E2C162F062FCE01880F880FF82E4F
:1028E000F70E0F900F900F900F9084EA99E06FEF22
:1028F0000E946D1D84EA99E06FEF0E946D1D84EACD
:1029000099E0692D0E946D1D84EA99E064E00E94BF
:102910006D1D84EA99E063E00E946D1D84EA99E0F0
:1029200060E20E946D1D84EA99E0612F0E946D1D96
:10293000192D1C5F692D695D600F609584EA99E02F
:102940000E946D1D6AE070E080E090E00E94972296
:1029500004C084EA99E00E94321D84EA99E00E9452
:10296000531D892BB1F784EA99E06FEF0E946D1D2A
:1029700084EA99E06FEF0E946D1D84EA99E0692D69
:102980000E946D1D84EA99E064E00E946D1D84EA56
:1029900099E063E00E946D1D84EA99E061E20E9483
:1029A0006D1D84EA99E06F2D0E946D1D1C5D1F0D49
:1029B000109584EA99E0612F0E946D1D6AE070E035
:1029C00080E090E00E94972204C084EA99E00E948F
:1029D000321D84EA99E00E94531D892BB1F7DF91E3
:1029E000CF911F910F91FF90EF90DF90CF90BF900C
:1029F000AF909F900895AF92BF92CF92DF92EF92E7
:102A0000FF920F931F93DF93CF93CDB7DEB7A897B5
:102A10000FB6F894DEBF0FBECDBF162F84EA99E043
:102A20006FEF0E946D1D84EA99E06FEF0E946D1DAB
:102A300084EA99E0612F0E946D1D84EA99E064E0C8
:102A40000E946D1D84EA99E062E00E946D1D84EA97
:102A500099E066E20E946D1D84EA99E062E00E94BE
:102A60006D1D125D109584EA99E0612F0E946D1D25
:102A70006AE070E080E090E00E9497228E010F5F94
:102A80001F4F07C084EA99E0EDD7F8018193919335
:102A90008F0184EA99E00E94531D892B99F700D099
:102AA0000F927D8560E02B853C85620F731F882720
:102AB00077FD8095982F2CE231E040E050E0EDB7B3
:102AC000FEB7218332834383548320E030E040E02B
:102AD00050E00FEFE02E03E0F02E012D112DAA247F
:102AE000BB2465010E943E2C0F900F900F900F9019
:102AF000CB01A8960FB6F894DEBF0FBECDBFCF9125
:102B0000DF911F910F91FF90EF90DF90CF90BF90DA
:102B1000AF900895AF92BF92CF92DF92EF92FF9263
:102B20000F931F93DF93CF93CDB7DEB7A8970FB660
:102B3000F894DEBF0FBECDBF162F84EA99E06FEF89
:102B4000CCD784EA99E06FEFC8D784EA99E0612F87
:102B5000C4D784EA99E064E0C0D784EA99E062E0EF
:102B6000BCD784EA99E064E2B8D784EA99E062E0ED
:102B7000B4D7145D109584EA99E0612FAED76AE06E
:102B800070E080E090E00E9497228E010F5F1F4F5F
:102B900007C084EA99E066D7F801819391938F0189
:102BA00084EA99E080D7892BA1F700D00F927D8528
:102BB00060E02B853C85620F731F882777FD809529
:102BC000982F2CE231E040E050E0EDB7FEB72183D2
:102BD00032834383548320E030E040E050E0EFEF65
:102BE000EE2EE3E0FE2E012D112DAA24BB2465015B
:102BF0000E943E2C0F900F900F900F90CB01A89643
:102C00000FB6F894DEBF0FBECDBFCF91DF911F91FD
:102C10000F91FF90EF90DF90CF90BF90AF9008950D
:102C20006F927F929F92AF92BF92CF92DF92EF927C
:102C3000FF920F931F93962E3A0100D00F92BA0184
:102C4000882777FD8095982F2FEF33E040E050E004
:102C5000EDB7FEB7218332834383548320E030E015
:102C600040E050E0FCE2EF2EF1E0FF2E012D112DAF
:102C7000AA24BB2465010E943E2C7093C109609375
:102C8000C0090F900F900F900F9084EA99E06FEFBA
:102C900024D784EA99E06FEF20D784EA99E0692D80
:102CA0001CD784EA99E065E018D784EA99E063E0EC
:102CB00014D784EA99E066E010D784EA99E0672D9A
:102CC0000CD784EA99E0662D08D7FEE09F0E960C9B
:102CD000970C909484EA99E0692DFFD66AE070E041
:102CE00080E090E00E94972203C084EA99E0BAD67F
:102CF00084EA99E0D8D6892BC1F71F910F91FF90F4
:102D0000EF90DF90CF90BF90AF909F907F906F90AB
:102D100008956F927F929F92AF92BF92CF92DF926F
:102D2000EF92FF920F931F93962E3A0100D00F92CD
:102D3000BA01882777FD8095982F2FEF33E040E088
:102D400050E0EDB7FEB7218332834383548320E004
:102D500030E040E050E0ACE2EA2EA1E0FA2E012D96
:102D6000112DAA24BB2465010E943E2C7093C10939
:102D70006093C0090F900F900F900F9084EA99E034
:102D80006FEFABD684EA99E06FEFA7D684EA99E0BB
:102D9000692DA3D684EA99E065E09FD684EA99E09C
:102DA00063E09BD684EA99E068E097D684EA99E0EC
:102DB000672D93D684EA99E0662D8FD6F0E19F0EB9
:102DC000960C970C909484EA99E0692D86D66AE077
:102DD00070E080E090E00E94972203C084EA99E0CE
:102DE00041D684EA99E05FD6892BC1F71F910F91F4
:102DF000FF90EF90DF90CF90BF90AF909F907F902B
:102E00006F900895CF92DF92EF92FF920F931F93EE
:102E10008C017B016A01A9017CDFC801B701A60111
:102E2000FFDE1F910F91FF90EF90DF90CF900895FC
:102E300040E050E020E030E0E5CFCF92DF92EF922B
:102E4000FF920F931F938C017B016A01F1DFC80190
:102E5000B70140E050E096010BDD1F910F91FF900C
:102E6000EF90DF90CF900895CF92DF92EF92FF9294
:102E70000F931F938C017B016A01DADFC801B70150
:102E800041E050E09601F4DC1F910F91FF90EF902C
:102E9000DF90CF9008952F923F924F925F926F9262
:102EA0007F928F929F92AF92BF92CF92DF92EF92DA
:102EB000FF920F931F93DF93CF9300D00F920F9247
:102EC000CDB7DEB76B833A0100D00F92442737FDB0
:102ED0004095542F1FEF212E13E0312E412C512C01
:102EE000EDB7FEB72182328243825482CA01B90112
:102EF00020E030E040E050E0BCE2EB2EB1E0FB2E01
:102F0000012D112DAA24BB2465010E943E2C6C8347
:102F10007D8369837A83882477FC8094982CEDB72D
:102F2000FEB72182328243825482C401B30120E081
:102F300030E040E050E00E943E2C162F072F780131
:102F40000F900F900F900F9084EA99E06FEFC5D526
:102F500084EA99E06FEFC1D584EA99E06B81BDD531
:102F600084EA99E067E0B9D584EA99E063E0B5D5F1
:102F700084EA99E06EE1B1D584EA99E0612FADD59C
:102F800084EA99E0602FA9D584EA99E06C81A5D5FF
:102F900084EA99E06D81A1D5FB81F85DFF0D8981FF
:102FA000F80FFE0D9A81F90FF09584EA99E06F2FE2
:102FB00094D56AE070E080E090E00E94972203C020
:102FC00084EA99E04FD584EA99E06DD5892BC1F761
:102FD0000F900F900F900F900F90CF91DF911F9156
:102FE0000F91FF90EF90DF90CF90BF90AF909F90A8
:102FF0008F907F906F905F904F903F902F900895AB
:1030000084EA99E009C4FC018091C209803390F4FC
:1030100080838F5F8093C209815090E0FC01EE0FA6
:10302000FF1FE80FF91FED53F64F88EB9BE09283EB
:10303000818308958FEF80830895DC018C9190E067
:10304000FC01EE0FFF1FE80FF91FED53F64F8081D3
:103050008F7B80838C916CE00E945A3090E0AC01B1
:10306000440F551F480F591F440F551F440F551F3C
:1030700020E030E0C901840F951FFC01EE0FFF1F17
:10308000E80FF91FED53F64F808186FD05C02F5FD5
:103090003F4F2C30310571F70895FC01208120331A
:1030A000B8F58181992787FD909548E850E0481B45
:1030B000590B440F551F440F551F6417750784F0B3
:1030C0008281992787FD909548E552E0481B590B6E
:1030D000440F551F440F551F641775070CF4AB01BF
:1030E00042505040CA01AA2797FDA095BA2F880FD9
:1030F000991FAA1FBB1F4FB7F89430E0F901EE0FDC
:10310000FF1FE20FF31FED53F64F928381834FBFF2
:103110000895AF92BF92CF92DF92EF92FF920F93FA
:103120001F93CF93DF93EC019B0182E0603278071D
:103130000CF048C077FF03C020E030E005C0653BDD
:10314000710514F024EB30E000D00F92B90188270C
:1031500077FD8095982F2981332727FD3095E8E862
:10316000AE2EB12CA21AB30AAA0CBB1CAA0CBB1C13
:10317000CC24B7FCC094DC2CEA81FF27E7FDF09556
:1031800028E532E02E1B3F0B220F331F220F331F87
:10319000442737FD4095542FEDB7FEB72183328386
:1031A0004383548320E030E040E050E004EBE02E25
:1031B000F12C012D112D0E943E2C9B010F900F90A0
:1031C0000F900F90CE01B90168DFDF91CF911F9171
:1031D0000F91FF90EF90DF90CF90BF90AF90089548
:1031E000CF92DF92EF92FF921F93CF93DF93EC0188
:1031F000162F7A0169018881803308F093C0862FE9
:1032000061E00E945223888190E0FC01EE0FFF1FD5
:10321000E80FF91FED53F64F1F738081807C812BDF
:10322000808380E292E08E199F0964E070E00E9442
:103230006630698380E699E08C199D0964E070E04E
:103240000E9466306A83A8818A2F6CE00E945A30FF
:10325000682F70E0AB01440F551F460F571F440FF6
:10326000551F440F551F20E030E0C901840F951F02
:10327000FC01EE0FFF1FE80FF91FED53F64F8081A1
:1032800086FD44C02F5F3F4F2C30310571F753C08E
:103290001092800082E0809381001092850010924D
:1032A0008400B19A80916F00826080936F002EC07D
:1032B0006230710569F41092900082E08093910071
:1032C000109295001092940088BB809371001EC0EC
:1032D0006330710569F41092A00082E08093A10030
:1032E0001092A5001092A40089BB809372000EC0BA
:1032F000672B61F41092200182E0809321011092EB
:103300002501109224018ABB809373008A2F90E0DC
:10331000FC01EE0FFF1FE80FF91FED53F64F808100
:10332000806480838881DF91CF911F91FF90EF901F
:10333000DF90CF9008956130710509F0B9CFA8CF23
:1033400040E252E020E639E04BCFEF92FF920F933C
:103350001F93CF93DF938B017A01EC01DC01AD5A0F
:10336000B54F8C9187FF04C0FB011182108237C0DA
:10337000AE01440F551F4C0F5D1F440F551F440FE6
:10338000551F2C91332727FD3095240F351F809131
:10339000C20990E02817390714F58C91992787FD09
:1033A0009095840F951FFC01EE0FFF1FE80FF91F8A
:1033B000ED53F64F808186FF12C08C91992787FDCF
:1033C0009095840F951FFC01EE0FFF1FE80FF91F6A
:1033D000ED53F64F80818F7360E00E940524DE017B
:1033E000AD5AB54F8C918F5F8C93AE01440F551F32
:1033F0004C0F5D1F440F551F440F551F2C91332751
:1034000027FD3095240F351F8091C20990E02817C1
:1034100039070CF04DC08C918C300CF049C0F8018C
:10342000208131818C91992787FD9095840F951F7C
:10343000FC01EE0FFF1FE80FF91FED53F64F8181DE
:103440009281280F391FF701318320838C919927AE
:1034500087FD9095840F951FFC01EE0FFF1FE80F6D
:10346000F91FED53F64F808186FF2AC08C91992772
:1034700087FD9095840F951FFC01EE0FFF1FE80F4D
:10348000F91FED53F64F80818F7361E00E94052490
:1034900017C080E49CE904C0F80180819181049602
:1034A000F70191838083CD5AD54F8FEF888308C071
:1034B000F80180819181049680549C4950F3ECCFAF
:1034C000DF91CF911F910F91FF90EF9008951F9280
:1034D0000F920FB60F920BB60F9211242F933F93BA
:1034E0004F935F936F937F938F939F93AF93BF930C
:1034F000EF93FF9380E090E064E271E048E251E0F6
:1035000024DFFF91EF91BF91AF919F918F917F91B8
:103510006F915F914F913F912F910F900BBE0F9044
:103520000FBE0F901F9018951F920F920FB60F921B
:103530000BB60F9211242F933F934F935F936F938A
:103540007F938F939F93AF93BF93EF93FF9383E00A
:1035500090E064EA70E048EA50E0F7DEFF91EF9116
:10356000BF91AF919F918F917F916F915F914F919B
:103570003F912F910F900BBE0F900FBE0F901F9099
:1035800018951F920F920FB60F920BB60F9211243F
:103590002F933F934F935F936F937F938F939F935B
:1035A000AF93BF93EF93FF9382E090E064E970E004
:1035B00048E950E0CADEFF91EF91BF91AF919F9132
:1035C0008F917F916F915F914F913F912F910F90CC
:1035D0000BBE0F900FBE0F901F9018951F920F9269
:1035E0000FB60F920BB60F9211242F933F934F9368
:1035F0005F936F937F938F939F93AF93BF93EF935B
:10360000FF9381E090E064E870E048E850E09DDEE0
:10361000FF91EF91BF91AF919F918F917F916F91AA
:103620005F914F913F912F910F900BBE0F900FBE66
:103630000F901F9018950F931F93CF93DF93FC016A
:10364000738D76957170A685B7859585772329F05A
:103650008C91892309F454C004C08C91892309F00A
:103660004FC08389948920E001972FEF8F3F920705
:10367000D9F7C589D689A685B785158560E031E07B
:1036800040E050E000E0CE01202F01972FEF8F3F68
:103690009207D9F78C91812311F0632B03C0832FFC
:1036A00080956823330F4F5F5F4F4830510559F7BE
:1036B0008789908D20E001972FEF8F3F9207D9F7F0
:1036C000711160958091990A20919A0A90E0019673
:1036D0008F73907030E08217930779F0E091990A28
:1036E000F0E0E75AF54F60838091990A90E00196E7
:1036F0008F7390708093990A03C0838D8160838F4C
:10370000DF91CF911F910F9108951F920F920FB6E5
:103710000F920BB60F9211242F933F934F935F9309
:103720006F937F938F939F93AF93BF93EF93FF9389
:103730008091570A9091580A009709F07CDFFF9119
:10374000EF91BF91AF919F918F917F916F915F9119
:103750004F913F912F910F900BBE0F900FBE0F9086
:103760001F9018951F920F920FB60F920BB60F92E3
:1037700011242F933F934F935F936F937F938F9376
:103780009F93AF93BF93EF93FF938091570A9091CC
:10379000580A009709F04FDFFF91EF91BF91AF9169
:1037A0009F918F917F916F915F914F913F912F9159
:1037B0000F900BBE0F900FBE0F901F9018951F9289
:1037C0000F920FB60F920BB60F9211242F933F93C7
:1037D0004F935F936F937F938F939F93AF93BF9319
:1037E000EF93FF938091570A9091580A009709F040
:1037F00022DFFF91EF91BF91AF919F918F917F91C8
:103800006F915F914F913F912F910F900BBE0F9051
:103810000FBE0F901F901895CF92DF92EF92FF92FC
:103820000F931F93CF93DF93EC017A018B011A8ED4
:10383000198E188E1F8A1E8A1D8A1C8A1B8A20E0F8
:1038400030E06901CC0CDD1CC20ED31EB601660F40
:10385000771F660F771FAB014A595E4FFA018591BA
:103860009591A591B4918E159F05A007B107E9F434
:10387000FB01E659FE4F859194919C8B8B8BFB014C
:10388000E459FE4F859194919E8B8D8BFB01E259FB
:10389000FE4F85919491988F8F8BFB01E059FE4FDD
:1038A000859194919A8F898F06C02F5F3F4F2D305D
:1038B000310509F0C6CF8F89988D892B09F468C02E
:1038C0009C85292F2A50243040F0892F8253843040
:1038D00020F08C50883008F053C0309168002430BC
:1038E00048F0892F8253843028F09E53983010F48A
:1038F00084E001C081E0832B809368002C85922FA7
:103900009A50943090F0822F8253843070F08C5013
:10391000883008F455C0A0E0B0E0883018F0E0E04E
:10392000F0E007C0EDE6F0E004C0EBE6F0E0ABE667
:10393000B0E04081943020F430E02650304015C093
:10394000223311F488E01AC0233311F484E016C046
:10395000243311F482E012C0253379F0822F8E5384
:10396000883058F430E02E53304081E090E002C0BF
:10397000880F991F2A95E2F701C081E0842B8C9370
:10398000898D9A8D20E001972FEF8F3F9207D9F70D
:103990008091570A9091580A8C179D07A1F08B8D42
:1039A0008E7F8B8F9FB7F8941092990A8091990A15
:1039B00080939A0AD093580AC093570A9FBF03C0B6
:1039C000ADE6B0E0AACFDF91CF911F910F91FF90AC
:1039D000EF90DF90CF900895FC012485922F9A50AC
:1039E000943060F0822F8253843040F08C508830C5
:1039F00088F5EDE6F0E0ADE6B0E004C0EBE6F0E01F
:103A0000ABE6B0E04081943020F430E02650304006
:103A100015C0223311F487EF1BC0233311F48BEF51
:103A200017C0243311F48DEF13C0253381F0822F9A
:103A30008E53883060F430E02E53304081E090E0C7
:103A400002C0880F991F2A95E2F7809501C08EEF7A
:103A500084238C930895FC0180EE98E09183808309
:103A6000CF01BACF2091570A3091580A2817390749
:103A700031F490919A0A8091990A981719F42FEFCE
:103A80003FEF0FC0E0919A0AF0E0E75AF54F20812E
:103A900080919A0A90E001968F73907080939A0AB1
:103AA00030E0C90108952091570A3091580A28172B
:103AB000390719F020E030E00EC08091990A20917A
:103AC0009A0A90E0805C9F4F821B910960E470E04D
:103AD0000E9466309C01C90108950F931F93DC0179
:103AE00059968D919C915A97892B49F481E090E0E9
:103AF00013969C938E93129720E030E097C00FB7F7
:103B0000F8945B968C915B975196ED91FC9152974E
:103B100050962C91509781FF8DC08081822B80839D
:103B200059968D919C915A97059620E001972FEF19
:103B30008F3F9207D9F75B968C915B9781FF35C0D9
:103B400031E040E050E070E010E0832F90E0862309
:103B500097235196ED91FC91529750962C91509746
:103B6000892B29F0808120952823208303C0808120
:103B7000822B808359968D919C915A97212F019782
:103B80002FEF8F3F9207D9F7330F4F5F5F4F4830CA
:103B90005105D9F65196ED91FC915297908150962E
:103BA0008C9150978095892333C031E040E050E0FC
:103BB00070E010E0832F90E0862397235196ED91DB
:103BC000FC91529750962C915097892B21F080812F
:103BD000822B808304C080812095282320835996DE
:103BE0008D919C915A97212F01972FEF8F3F92072C
:103BF000D9F7330F4F5F5F4F48305105D9F65196D3
:103C0000ED91FC915297808150969C915097892B11
:103C100080830FBF59968D919C915A9720E0019710
:103C20002FEF8F3F9207D9F721E030E0C9011F91B4
:103C30000F910895808120952823208371CF2091B2
:103C4000570A3091580A2817390749F49FB7F89452
:103C50001092990A8091990A80939A0A9FBF0895B9
:103C60002091570A3091580A2817390731F490915A
:103C70009A0A8091990A981719F42FEF3FEF0AC01A
:103C8000E0919A0AF0E0E75AF54F8081282F332718
:103C900027FD3095C90108951F93CF93DF93EC0161
:103CA000162F862F60E0FED48B8D81FD03C0812FFF
:103CB00061E0ABD51C87212F30E0C9018A569D4FAA
:103CC000FC0184918D87205B3D4FF9016491E62FC3
:103CD000F0E0EE0FFF1FEA5CFD4F859194919F8706
:103CE0008E87DF91CF911F910895FF920F931F93BD
:103CF0008C01F62E862F61E0D5D48F2D61E085D51D
:103D00008F2D90E0FC01EA56FD4FE491D8015096CA
:103D1000EC935097805B9D4FFC016491E62FF0E09F
:103D2000EE0FFF1FE45EFD4F8591949152969C9398
:103D30008E9351971F910F91FF900895FF920F93CB
:103D40001F938C01F62EFC011382128288EE93E001
:103D5000A0E0B0E084839583A683B78380EE98E0EB
:103D600091838083148A138A168A158A108E178A83
:103D7000128E118E838D2170220F8C7F822B838F68
:103D8000C801642FB2DFC8016F2D86DF1F910F912C
:103D9000FF90089581E08093E00A6093BD0A10923D
:103DA000DE0A1092DF0A089581E08093E00A6093B2
:103DB000BD0A1092DE0A1092DF0A08952091BC0A13
:103DC00030E08091BB0A281B3109C9010895409158
:103DD000BB0A8091BC0A481718F02FEF3FEF0AC0CA
:103DE000E42FF0E0E556F54F8081282F30E04F5F5B
:103DF0004093BB0AC9010895E091BB0A8091BC0AB7
:103E0000E81718F0EFEFFFEF06C0F0E0E556F54FCA
:103E10008081E82FF0E0CF01089508951092E40A20
:103E20001092E30A88EE93E0A0E0B0E08093E50A08
:103E30009093E60AA093E70AB093E80A80EF98E02F
:103E40009093E20A8093E10A0895CF92DF92EF9275
:103E5000FF920F931F93CF93DF937C016B018A0135
:103E60008091E00A8823A1F0C0E0D0E00DC0D70126
:103E7000ED91FC91D601AC0FBD1F0190F081E02DBA
:103E8000C7016C9119952196C017D10780F303C023
:103E9000CB01642F04D1C801DF91CF911F910F9105
:103EA000FF90EF90DF90CF900895DF93CF930F9224
:103EB000CDB7DEB7FC0169838091E00A8823C9F0A1
:103EC0008091DF0A803238F081E090E09383828332
:103ED00020E030E014C08091DE0AE82FF0E0E254E8
:103EE000F54F998190838F5F8093DE0A8093DF0A7C
:103EF00004C0CE01019661E0D2D021E030E0C901DA
:103F00000F90CF91DF9108950F93062F8091BD0AF6
:103F10006EEB7AE04091DF0A21E06CD01092DE0A6D
:103F20001092DF0A1092E00A0F91089561E0ECCF41
:103F3000413208F040E2862F6BE97AE012D010920D
:103F4000BB0A8093BC0A089521E0F2CF21E0F0CFB4
:103F50001092BB0A1092BC0A1092DE0A1092DF0A7D
:103F60004EC2382F413210F040E042C08091ED0A3D
:103F70008823E1F791E09093ED0A2093EF0A8FEF09
:103F800080935A0B1092150B41504093160B4F5FC4
:103F90009093EE0A8091EE0A330F832B8093EE0A02
:103FA0008091F00A813041F41092F00A8091EE0A7B
:103FB0008093BB0085EC01C085EE8093BC008091AE
:103FC000ED0A8130E1F38091150B841710F44091D4
:103FD000150B20E030E00AC0FB01E20FF31FD9010E
:103FE000AB50B54F8C9180832F5F3F4F2417A0F3C8
:103FF000842F08950F931F93582F122F413210F0E2
:1040000081E04AC08091ED0A8823E1F782E0809345
:10401000ED0A0093EF0A8FEF80935A0B1092150B65
:104020004093160BA5EFBAE0FB0102C081918D937E
:104030008E2F861B8417D0F31092EE0A8091EE0A21
:10404000550F852B8093EE0A8091F00A813041F460
:104050001092F00A8091EE0A8093BB0085EC01C0BB
:1040600085EE8093BC00112321F08091ED0A82300F
:10407000E1F380915A0B8F3F11F480E00DC08091E5
:104080005A0B803211F482E007C080915A0B8033C2
:1040900011F084E001C083E01F910F910895482F33
:1040A000613210F081E008958091ED0A843011F0C2
:1040B00082E008956093380BA7E1BBE0842F9C0158
:1040C000F90102C081918D938E2F841B8617D0F346
:1040D00080E008951F920F920FB60F920BB60F92C9
:1040E00011242F933F934F935F936F937F938F93FD
:1040F0009F93AF93BF93EF93FF938091B90090E0AC
:10410000887F90708036910509F4F2C08136910560
:10411000CCF58832910509F47BC089329105B4F45D
:104120008031910509F46FC0813191053CF400970D
:1041300009F447C1089709F04FC165C0883191055E
:1041400009F466C0809709F047C182C080349105A8
:1041500009F4A4C08134910544F48033910509F435
:1041600082C0C89709F038C189C08035910509F42B
:1041700089C08835910509F496C08834910509F005
:104180002BC1AEC08839910509F413C18939910555
:10419000ECF48837910509F4ABC0893791054CF4EC
:1041A0008836910509F4A4C08037910509F014C13F
:1041B0009FC08838910509F4FCC08039910509F445
:1041C0009DC08038910509F007C198C0803B9105DA
:1041D00009F4C6C0813B91054CF4803A910509F47D
:1041E0009FC0883A910509F0F7C0BAC0803C91059C
:1041F00009F4E3C0883C910509F4DFC0883B9105D0
:1042000009F0EAC0C2C08091EE0A8093BB00CFC023
:104210009091150B8091160B981768F49091150BDF
:10422000E92FF0E0EB50F54F80818093BB009F5F5A
:104230009093150BBCC08091EF0A882309F44BC002
:1042400085ED8093BC008091BC0084FDFCCFC2C092
:1042500080E280935A0B85ED8093BC008091BC0076
:1042600084FDFCCFB7C080E380935A0B85ED80932B
:10427000BC008091BC0084FDFCCFACC088E380937F
:104280005A0B9BC08091150B9091BB00E82FF0E07A
:10429000EB50F54F90838F5F8093150B9091150B2A
:1042A0008091160B82C08091150B9091BB00E82F76
:1042B000F0E0EB50F54F90838F5F8093150B80916A
:1042C000EF0A882341F085ED8093BC008091BC000B
:1042D00084FDFCCF7FC081E08093F00A84EA6EC049
:1042E00085ED8093BC008091BC0084FDFCCF72C042
:1042F00083E08093ED0A1092590B59C08091590BBD
:10430000803208F056C08091590B9091BB00E82F85
:10431000F0E0E75CF44F90838F5F8093590B47C0C8
:104320008091590B803230F4E091590BF0E0E75C5A
:10433000F44F108285ED8093BC008091BC0084FD19
:10434000FCCF1092ED0A6091590BE091F30AF091C5
:10435000F40A89E39BE070E019951092590B2DC087
:1043600084E08093ED0A1092370B1092380BE091A5
:10437000F10AF091F20A19958091380B882329F4FB
:1043800081E08093380B1092170B9091370BE92F37
:10439000F0E0E95EF44F80818093BB009F5F9093D3
:1043A000370B9091370B8091380B981710F485ECF0
:1043B00001C085E88093BC000FC085EC8093BC00F1
:1043C00009C010925A0B85ED8093BC008091BC000F
:1043D00084FDFCCF1092ED0AFF91EF91BF91AF9158
:1043E0009F918F917F916F915F914F913F912F910D
:1043F0000F900BBE0F900FBE0F901F90189510924C
:10440000ED0A81E08093EF0A1092F00A84E161E006
:10441000FCD185E161E0F9D1E9EBF0E080818E7FAC
:10442000808380818D7F808388E48093B80085E4D9
:104430008093BC0008951F920F920FB60F92112423
:104440002F933F938F939F93AF93BF9380915F0B75
:104450009091600BA091610BB091620B3091630B56
:104460000196A11DB11D232F2D5F2D3720F02D5753
:104470000196A11DB11D2093630B80935F0B909358
:10448000600BA093610BB093620B80915B0B9091DA
:104490005C0BA0915D0BB0915E0B0196A11DB11D4F
:1044A00080935B0B90935C0BA0935D0BB0935E0BC2
:1044B000BF91AF919F918F913F912F910F900FBE20
:1044C0000F901F9018958FB7F89420915F0B309143
:1044D000600B4091610B5091620B8FBFB901CA0113
:1044E00008959FB7F89420915B0B30915C0B40913D
:1044F0005D0B50915E0B86B5A89B06C08F3F21F0E7
:104500002F5F3F4F4F4F5F4F9FBF542F432F322F8F
:104510002227280F311D411D511D82E0220F331F1C
:10452000441F551F8A95D1F7B901CA0108959B010F
:10453000AC017FB7F89480915B0B90915C0BA091DC
:104540005D0BB0915E0B66B5A89B05C06F3F19F07F
:104550000196A11DB11D7FBFBA2FA92F982F8827C3
:10456000860F911DA11DB11D62E0880F991FAA1F22
:10457000BB1F6A95D1F7BC012DC0FFB7F89480919D
:104580005B0B90915C0BA0915D0BB0915E0BE6B55F
:10459000A89B05C0EF3F19F00196A11DB11DFFBFFB
:1045A000BA2FA92F982F88278E0F911DA11DB11DFD
:1045B000E2E0880F991FAA1FBB1FEA95D1F7861B5F
:1045C000970B885E9340C8F22150304040405040E5
:1045D00068517C4F211531054105510571F608954B
:1045E000789484B5826084BD84B5816084BD85B5CE
:1045F000826085BD85B5816085BDEEE6F0E0808195
:1046000081608083E1E8F0E01082808182608083B5
:10461000808181608083E0E8F0E080818160808338
:10462000E1EBF0E0808184608083E0EBF0E080816A
:1046300081608083E1E9F0E0808182608083808115
:1046400081608083E0E9F0E0808181608083E1EA3D
:10465000F0E0808182608083808181608083E0EAF5
:10466000F0E0808181608083E1E2F1E0808182601E
:104670008083808181608083E0E2F1E080818160DD
:104680008083EAE7F0E080818460808380818260BB
:1046900080838081816080838081806880831092A4
:1046A000C1000895CF93DF93482F50E0CA018A5686
:1046B0009D4FFC013491405B5D4FFA01849188234A
:1046C00069F190E0880F991FFC01EE5FFD4FA59105
:1046D000B491FC01E45EFD4FC591D491662351F481
:1046E0002FB7F8948C91932F909589238C93888180
:1046F00089230BC0623061F42FB7F8948C91932F0B
:10470000909589238C938881832B88832FBF06C043
:104710009FB7F8948C91832B8C939FBFDF91CF919F
:104720000895893009F449C08A30A0F4843051F1E9
:10473000853040F4823079F1833000F5813009F022
:1047400063C026C0873079F1883098F5863009F04B
:104750005BC025C08D3009F442C08E3028F48B3008
:10476000B1F18C30C0F52DC0803109F442C08131E7
:1047700009F445C08F3009F047C037C080918000F0
:104780008F7703C0809180008F7D80938000089593
:1047900084B58F7702C084B58F7D84BD08958091E4
:1047A000B0008F7703C08091B0008F7D8093B00000
:1047B0000895809190008F7707C0809190008F7D41
:1047C00003C080919000877F80939000089580912E
:1047D000A0008F7707C08091A0008F7D03C08091DB
:1047E000A000877F8093A0000895809120018F779B
:1047F00003C0809120018F7D8093200108958091D6
:104800002001877F809320010895FF920F931F93CB
:10481000F62E482F50E0CA0184529D4FFC0124918E
:10482000CA018A569D4FFC011491405B5D4FFA010D
:1048300004910023C1F0222311F0822F72DFE02FB8
:10484000F0E0EE0FFF1FE45EFD4FA591B4919FB71E
:10485000F894FF2021F48C911095812302C08C9153
:10486000812B8C939FBF1F910F91FF9008950F9301
:104870001F93482F50E0CA0184529D4FFC012491A0
:10488000CA018A569D4FFC010491405B5D4FFA01BD
:104890001491112319F420E030E014C0222311F008
:1048A000822F3FDF812F90E0880F991F8A5C9D4FF8
:1048B000FC01A591B4918C9120E030E0802311F0AF
:1048C00021E030E0C9011F910F91089508951F92D2
:1048D0000F920FB60F920BB60F9211242F933F93A6
:1048E0004F938F939F93EF93FF938091C00082FD2E
:1048F0001DC04091C6002091A40B3091A50B2F5FE5
:104900003F4F2F7330708091A60B9091A70B281703
:10491000390771F0E091A40BF091A50BEC59F44F1D
:1049200040833093A50B2093A40B02C08091C60056
:10493000FF91EF919F918F914F913F912F910F9008
:104940000BBE0F900FBE0F901F90189508951F92E9
:104950000F920FB60F920BB60F9211242F933F9325
:104960004F938F939F93EF93FF938091C80082FDA5
:104970001DC04091CE0020912C0C30912D0C2F5F4A
:104980003F4F2F73307080912E0C90912F0C281771
:10499000390771F0E0912C0CF0912D0CE451F44F9B
:1049A000408330932D0C20932C0C02C08091CE00BC
:1049B000FF91EF919F918F914F913F912F910F9088
:1049C0000BBE0F900FBE0F901F90189508951F9269
:1049D0000F920FB60F920BB60F9211242F933F93A5
:1049E0004F938F939F93EF93FF938091D00082FD1D
:1049F0001DC04091D6002091B40C3091B50C2F5FB2
:104A00003F4F2F7330708091B60C9091B70C2817E0
:104A1000390771F0E091B40CF091B50CEC58F34FFC
:104A200040833093B50C2093B40C02C08091D60023
:104A3000FF91EF919F918F914F913F912F910F9007
:104A40000BBE0F900FBE0F901F90189508951F92E8
:104A50000F920FB60F920BB60F9211242F933F9324
:104A60004F938F939F93EF93FF938091300182FD3B
:104A70001DC04091360120913C0D30913D0D2F5FBE
:104A80003F4F2F73307080913E0D90913F0D28174E
:104A9000390771F0E0913C0DF0913D0DE450F34F7A
:104AA000408330933D0D20933C0D02C08091360130
:104AB000FF91EF919F918F914F913F912F910F9087
:104AC0000BBE0F900FBE0F901F901895E091900DA8
:104AD000F091910DE05CFF4F8191919120813181A6
:104AE000821B930B8F739070892B09F0EFDEE0919E
:104AF000B20DF091B30DE05CFF4F81919191208157
:104B00003181821B930B8F739070892B09F01EDF0C
:104B1000E091D40DF091D50DE05CFF4F8191919122
:104B200020813181821B930B8F739070892B09F048
:104B30004DDFE091F60DF091F70DE05CFF4F8191B4
:104B4000919120813181821B930B8F739070892BFF
:104B500009F07CCF08951F920F920FB60F920BB6FB
:104B60000F9211242F933F938F939F93EF93FF9373
:104B70002091E80B3091E90B8091EA0B9091EB0BBF
:104B80002817390731F48091C1008F7D8093C100CF
:104B900014C0E091EA0BF091EB0BE855F44F208143
:104BA0008091EA0B9091EB0B01968F73907090932C
:104BB000EB0B8093EA0B2093C600FF91EF919F913E
:104BC0008F913F912F910F900BBE0F900FBE0F90C2
:104BD0001F9018951F920F920FB60F920BB60F925F
:104BE00011242F933F938F939F93EF93FF932091E3
:104BF000700C3091710C8091720C9091730C28178D
:104C0000390731F48091C9008F7D8093C90014C0A9
:104C1000E091720CF091730CE05DF34F2081809174
:104C2000720C9091730C01968F7390709093730C2B
:104C30008093720C2093CE00FF91EF919F918F9102
:104C40003F912F910F900BBE0F900FBE0F901F90B2
:104C500018951F920F920FB60F920BB60F92112458
:104C60002F933F938F939F93EF93FF932091F80C93
:104C70003091F90C8091FA0C9091FB0C28173907B0
:104C800031F48091D1008F7D8093D10014C0E091E8
:104C9000FA0CF091FB0CE854F34F20818091FA0C50
:104CA0009091FB0C01968F7390709093FB0C809306
:104CB000FA0C2093D600FF91EF919F918F913F9135
:104CC0002F910F900BBE0F900FBE0F901F90189555
:104CD0001F920F920FB60F920BB60F9211242F93C3
:104CE0003F938F939F93EF93FF932091800D30918B
:104CF000810D8091820D9091830D2817390731F431
:104D0000809131018F7D8093310114C0E091820D3B
:104D1000F091830DE05CF24F20818091820D9091A3
:104D2000830D01968F7390709093830D8093820D05
:104D300020933601FF91EF919F918F913F912F9199
:104D40000F900BBE0F900FBE0F901F901895AF9253
:104D5000BF92DF92EF92FF920F931F93CF93DF9357
:104D6000EC017A018B01DD24403081EE580780E0B0
:104D7000680780E0780711F0DD24D39491E0A92E34
:104D8000B12CEC89FD89DD2069F0C50108A002C0C5
:104D9000880F991F0A94E2F7808360E079E08DE341
:104DA00090E005C0108260E874E88EE190E0A80110
:104DB00097010E9479302150304040405040569534
:104DC00047953795279580E12030380720F0DD2082
:104DD00011F0DD24D6CFE889F9893083EA89FB898F
:104DE000208319A2EE89FF89408121E030E0C901CA
:104DF0000C8C02C0880F991F0A94E2F7482B40835D
:104E0000EE89FF894081C9010D8C02C0880F991F6E
:104E10000A94E2F7482B4083EE89FF894081C9015B
:104E20000E8C02C0880F991F0A94E2F7482B40832A
:104E3000EE89FF8980810F8C02C0220F331F0A94F4
:104E4000E2F7209528232083DF91CF911F910F91C6
:104E5000FF90EF90DF90BF90AF900895DC011C961B
:104E6000ED91FC911D97E05CFF4F21913191808184
:104E70009181281B390B2F733070C9010895DC0113
:104E80001C96ED91FC911D97E05CFF4F20813181D4
:104E9000E054F040DF01AE5BBF4F8D919C911197C4
:104EA0002817390719F42FEF3FEF07C08D919C9118
:104EB000E80FF91F8081282F30E0C9010895DC0137
:104EC0001C96ED91FC911D97E05CFF4F2081318194
:104ED000E054F040DF01AE5BBF4F8D919C91119784
:104EE0002817390719F42FEF3FEF10C08D919C91CF
:104EF0001197E80FF91F20818D919C9111970196D0
:104F00008F73907011969C938E9330E0C901089531
:104F1000DC0191968C919197882339F05496ED910C
:104F2000FC915597808186FFF9CF91961C92089548
:104F3000CF93DF93EC01EE85FF85E05CFF4F20818E
:104F40003181E054F0402F5F3F4F2F733070DF010D
:104F5000AE5BBF4F8D919C91119728173907D1F304
:104F6000E05CFF4F80819181E054F040E80FF91F31
:104F70006083EE85FF85E05CFF4F31832083EE89FF
:104F8000FF89208181E090E00F8C02C0880F991F7B
:104F90000A94E2F7282B208381E089A3EC89FD891C
:104FA00080818064808381E090E0DF91CF910895DB
:104FB00081E008951F931092870D1092860D28EEC0
:104FC00033E040E050E02093880D3093890D40930A
:104FD0008A0D50938B0D60E079E07093850D60939E
:104FE000840D84E69BE09093910D8093900D88EA68
:104FF0009BE09093930D8093920D85EC90E09093BD
:10500000950D8093940D84EC90E09093970D809390
:10501000960D80EC90E09093990D8093980D81EC23
:1050200090E090939B0D80939A0D82EC90E090938A
:105030009D0D80939C0D86EC90E090939F0D809346
:105040009E0D14E01093A00DB3E0B093A10DA7E066
:10505000A093A20DF5E0F093A30DE1E0E093A40D81
:105060001092A90D1092A80D2093AA0D3093AB0DAC
:105070004093AC0D5093AD0D7093A70D6093A60DAA
:105080008CEE9BE09093B30D8093B20D80E39CE097
:105090009093B50D8093B40D8DEC90E09093B70D87
:1050A0008093B60D8CEC90E09093B90D8093B80D81
:1050B00088EC90E09093BB0D8093BA0D89EC90E062
:1050C0009093BD0D8093BC0D8AEC90E09093BF0D42
:1050D0008093BE0D8EEC90E09093C10D8093C00D37
:1050E0001093C20DB093C30DA093C40DF093C50DE2
:1050F000E093C60D1092CB0D1092CA0D2093CC0DEB
:105100003093CD0D4093CE0D5093CF0D7093C90DBC
:105110006093C80D84E79CE09093D50D8093D40DE7
:1051200088EB9CE09093D70D8093D60D85ED90E0B1
:105130009093D90D8093D80D84ED90E09093DB0D82
:105140008093DA0D80ED90E09093DD0D8093DC0D7F
:1051500081ED90E09093DF0D8093DE0D82ED90E085
:105160009093E10D8093E00D86ED90E09093E30D38
:105170008093E20D1093E40DB093E50DA093E60D3E
:10518000F093E70DE093E80D1092ED0D1092EC0D09
:105190002093EE0D3093EF0D4093F00D5093F10DF1
:1051A0007093EB0D6093EA0D8CEF9CE09093F70DFC
:1051B0008093F60D80E49DE09093F90D8093F80DB7
:1051C00085E391E09093FB0D8093FA0D84E391E0E9
:1051D0009093FD0D8093FC0D80E391E09093FF0D83
:1051E0008093FE0D81E391E09093010E8093000E79
:1051F00082E391E09093030E8093020E86E391E0A8
:105200009093050E8093040E1093060EB093070E34
:10521000A093080EF093090EE0930A0E1F910895D3
:10522000CF93DF93DDD90E942E0FC6E6D5E20E9410
:1052300086062097E1F34ADCFACFCF92DF92EF9215
:10524000FF920F931F93CF93DF937C016B018A0131
:10525000C0E0D0E00FC0D6016D916D01D701ED9196
:10526000FC910190F081E02DC7011995C80FD91F5D
:10527000015010400115110571F7CE01DF91CF915A
:105280001F910F91FF90EF90DF90CF900895EF92D4
:10529000FF920F931F938C01DC01ED91FC91019023
:1052A000F081E02D6DE019957C01D801ED91FC9124
:1052B0000190F081E02DC8016AE019959C012E0D46
:1052C0003F1DC9011F910F91FF90EF900895CF935B
:1052D000DF93EC016115710519F420E030E00FC097
:1052E000DB010D900020E9F71197A61BB70BE881B1
:1052F000F9810280F381E02DAD0119959C01C9016E
:10530000DF91CF9108954F925F927F928F929F92FB
:10531000AF92BF92CF92DF92EF92FF920F931F93C3
:10532000DF93CF93CDB7DEB7A1970FB6F894DEBF6A
:105330000FBECDBF2C01742ECB01223008F42AE021
:1053400019A231E2C32ED12CCC0EDD1E822E99245F
:10535000AA24BB24672D752FA5019401CAD6790113
:105360008A01C801B701A501940185D6472D461BC6
:105370000894C108D1084A3014F4405D01C0495C6A
:10538000F6014083E114F1040105110521F07E2CA2
:105390005F2DC801DFCFC201B60199DFA1960FB61C
:1053A000F894DEBF0FBECDBFCF91DF911F910F915B
:1053B000FF90EF90DF90CF90BF90AF909F908F9035
:1053C0007F905F904F900895DC012115310541F4E5
:1053D000ED91FC910190F081E02D642F19950895D5
:1053E00092CFCF92DF92EF92FF920F931F936C01B7
:1053F000E62E9A01FF2400E010E0B801A701E4DFE7
:105400008C01C60144DF080F191FC8011F910F91BD
:10541000FF90EF90DF90CF900895CF92DF92EF92C0
:10542000FF920F931F93CF93DF93EC016A017B01EF
:105430002115310541F4E881F9810190F081E02DD9
:10544000642F19951DC02A303105C9F477FF16C0A5
:10545000E881F9810190F081E02D6DE219958C01D0
:1054600044275527BA014C195D096E097F09CE0101
:105470002AE049DF9801280F391F03C02AE043DFE3
:105480009C01C901DF91CF911F910F91FF90EF9087
:10549000DF90CF900895EF92FF920F931F937C01BE
:1054A000BCDF8C01C701F3DE9C01200F311FC90155
:1054B0001F910F91FF90EF900895EF92FF920F933D
:1054C0001F937B019A010027F7FC0095102FB8016C
:1054D000A701A3DF1F910F91FF90EF900895CF9246
:1054E000DF92EF92FF920F931F936C017B019A0161
:1054F0000027F7FC0095102FB801A7018EDF8C0163
:10550000C601C5DE080F191FC8011F910F91FF903A
:10551000EF90DF90CF900895DACE08957F928F922A
:105520009F92AF92BF92CF92DF92EF92FF920F9332
:105530001F93CF93DF934C017A018B01722ECB0125
:10554000BA01A801970178D4882321F0C40168EC3E
:1055500078E01FC0C0E0D0E057016801E894D7F8B8
:10556000C601B5012FEF3FEF4FE75FE765D4882312
:1055700049F4C601B5012FEF3FEF4FE75FE72AD2AD
:10558000181614F0C1E0D0E0219731F0C4016CECA2
:1055900078E09DDEEC0184C0C801B7012FEF3FEF3A
:1055A0004FE75FE466D318164CF0C801B7012FEF40
:1055B0003FEF4FE75FEC0ED2882324F4C40160ED87
:1055C00078E0E7CFC801B70120E030E040E050E0EC
:1055D00001D287FD03C0C0E0D0E00EC0D401ED9140
:1055E000FC910190F081E02DC4016DE21995EC0170
:1055F00017FB109517F9109520E030E040E05FE3CD
:10560000DD240AC0CA01B90120E030E040E251E4E3
:10561000E5D19B01AC01D394D714A0F3C801B70125
:1056200075D15B016C0147D27B018C01C401B801CB
:10563000A7012AE030E0C8DEC80FD91F772031F07B
:10564000C40164ED78E043DEC80FD91FC801B7017B
:105650005ED29B01AC01C601B50157D11FC020E04D
:1056600030E040E251E439D37B018C011FD25B0171
:105670006C01CC24B7FCC094DC2CC401B601A5019C
:105680002AE030E0CADEC80FD91FC601B50141D2F9
:105690009B01AC01C801B70138D17A947720F9F6A3
:1056A000CE01DF91CF911F910F91FF90EF90DF908E
:1056B000CF90BF90AF909F908F907F9008952ECF06
:1056C0000895EF92FF920F931F937C0127DF8C01C7
:1056D000C701DDDD080F191FC8011F910F91FF9051
:1056E000EF900895EF92FF920F931F937C01EFDDEF
:1056F0008C01C701CCDD080F191FC8011F910F9144
:10570000FF90EF900895FC0144835583668377836F
:105710000895CF93DF93EC010E9463226887798715
:105720008A879B87E881F9810084F185E02DCE018D
:1057300019959C0197FF15C00E9463222885398521
:105740004A855B85621B730B840B950B2C813D8115
:105750004E815F81621773078407950718F32FEF57
:105760003FEFC901DF91CF910895CF93DF93EC0113
:10577000CE01CFDF9C0197FD0EC08D32910559F00F
:10578000C0970A9740F0E881F9810680F781E02D03
:10579000CE011995EDCFC901DF91CF9108959F9268
:1057A000AF92BF92CF92DF92EF92FF920F931F932F
:1057B000CF93DF936C01B62ED8DFEC0197FF04C0C6
:1057C000EE24FF2487014AC09924EE24FF24870198
:1057D000AB2CBB24A7FCB094CA15DB0521F1CD325C
:1057E000D10519F4992493941EC0CE01C0970A974D
:1057F000D0F4C801B7012AE030E040E050E03BD4EB
:105800007B018C01CE01AA2797FDA095BA2FE80E47
:10581000F91E0A1F1B1F80ED9FEFAFEFBFEFE80ED1
:10582000F91E0A1F1B1FD601ED91FC910680F7811E
:10583000E02DC6011995C6016CDFEC01C0970A97EF
:1058400058F2CA15DB0541F2992041F010950095F8
:10585000F094E094E11CF11C011D111DB701C80179
:10586000DF91CF911F910F91FF90EF90DF90CF903C
:10587000BF90AF909F90089561E091CF2F923F929B
:105880004F925F926F927F928F929F92AF92BF9250
:10589000CF92DF92EF92FF920F931F93DF93CF93FC
:1058A000CDB7DEB73B014C0119012A016E897F8912
:1058B000888D998D6A197B098C099D09621A730A72
:1058C000840A950AA4019301D6D3E218F3080409C7
:1058D0001509A80197012FD42A0D3B1D4C1D5D1DF4
:1058E000B901CA01CF91DF911F910F91FF90EF9005
:1058F000DF90CF90BF90AF909F908F907F906F90F0
:105900005F904F903F902F9008955058BB27AA2743
:105910000ED075C166D130F06BD120F031F49F3FCD
:1059200011F41EF45BC10EF4E095E7FB51C1E92FC1
:1059300077D180F3BA17620773078407950718F0C9
:1059400071F49EF58FC10EF4E0950B2EBA2FA02DA9
:105950000B01B90190010C01CA01A0011124FF271C
:10596000591B99F0593F50F4503E68F11A16F04017
:10597000A22F232F342F4427585FF3CF4695379516
:105980002795A795F0405395C9F77EF41F16BA0BDB
:10599000620B730B840BBAF09150A1F0FF0FBB1F89
:1059A000661F771F881FC2F70EC0BA0F621F731FD2
:1059B000841F48F4879577956795B795F7959E3F2F
:1059C00008F0B3CF9395880F08F09927EE0F9795BD
:1059D00087950895D9D008F481E008950CD00FC1BF
:1059E00007D140F0FED030F021F45F3F19F0F0C055
:1059F000511139C1F3C014D198F39923C9F3552338
:105A0000B1F3951B550BBB27AA27621773078407B1
:105A100038F09F5F5F4F220F331F441FAA1FA9F367
:105A200033D00E2E3AF0E0E830D091505040E69559
:105A3000001CCAF729D0FE2F27D0660F771F881FBA
:105A4000BB1F261737074807AB07B0E809F0BB0BA9
:105A5000802DBF01FF2793585F4F2AF09E3F5105CD
:105A600068F0B6C000C15F3FECF3983EDCF386956A
:105A700077956795B795F7959F5FC9F7880F911D43
:105A80009695879597F90895E1E0660F771F881F2F
:105A9000BB1F621773078407BA0720F0621B730BE2
:105AA000840BBA0BEE1F88F7E095089504D0689434
:105AB000B111D9C00895BCD088F09F5790F0B92F8C
:105AC0009927B751A0F0D1F0660F771F881F991F53
:105AD0001AF0BA95C9F712C0B13081F0C3D0B1E065
