:1000000095C10000C0C10000BEC10000BCC100001D
:10001000BAC10000B8C10000B6C10000B4C1000000
:10002000B2C100000C94911B0C94BE1B0C94EB1BF2
:10003000AAC10000A8C10000A6C10000A4C1000020
:10004000A2C100000C94FA1A9EC100009CC10000DD
:100050009AC1000098C1000096C100000C942722AC
:1000600092C100000C9473240C94B7258CC100003D
:100070008AC1000088C1000086C1000084C1000060
:100080000C94CD1A80C100007EC100007CC100002C
:100090000C94B3240C94F62576C100000C947620C1
:1000A00072C1000070C100000C94A01A6CC1000065
:1000B0006AC1000068C1000066C100000C94731A98
:1000C00062C1000060C100005EC100000C94F32416
:1000D0000C94352658C100000C9433250C947426DA
:1000E00052C1000007634236B79BD8A71A39685639
:1000F00018AEBAAB558C1D3CB7CC5763BD6DEDFD4A
:10010000753EF6177231BF000000803F0800000006
:10011000BE922449123EABAAAA2ABECDCCCC4C3EFC
:1001200000000080BEABAAAAAA3E00000000BF00EB
:100130000000803F0000000000084178D3BB4387E7
:10014000D1133D190E3CC3BD4282AD2B3E68EC82FB
:1001500076BED98FE1A93E4C80EFFFBE01C4FF7F80
:100160003F000000000000C201000100110011006A
:100170000C0000E100000A00250025002100009687
:1001800000001900390039003600127A00001F0003
:100190004600460044008070000022004D004D00E3
:1001A0004A00004B000036007500750072004038B0
:1001B00000004A009C009C0099008025000072000D
:1001C000EC00EC00E900C0120000E900DA01DA01FD
:1001D000D70160090000D701B603B603B303B0042A
:1001E0000000B3036E076E076B07580200006E072E
:1001F000DC0EDC0ED80E2C010000DC0EC11DC11D72
:10020000BE1D00002100240027002A002D00300020
:10021000330001010000040107010A01000022006F
:10022000250028002B002E003100340002010000C0
:10023000050108010B010000200023002600290011
:100240002C002F003200000100000301060109010B
:1002500005050505070508080808020202020A0A42
:100260000808040404040101010101010101030360
:10027000030303030303040707070C0C0C0C0C0C0B
:100280000C0C0202020206060606060606060B0B08
:100290000B0B0B0B0B0B0102102020080810204049
:1002A000102040800201020108040201010204083A
:1002B00010204080804020100804020180040201C8
:1002C0008040201008040201080402010102040811
:1002D0001020408001020408102040800000090A1C
:1002E00002080B0C0D0706030401000000000000CB
:1002F00000000000000000000000000000000000FE
:10030000000000000000000011100F0000000000BD
:1003100000000000000000000000000000000000DD
:100320000000B3043F141A1FE6273A1411241FBE1D
:10033000CFEFD1E2DEBFCDBF00E00CBF19E0A0E0FF
:10034000B2E0E0EDF1E600E00BBF02C007900D92D5
:10035000AE31B107D9F71BBE1EE0AEE1B9E001C076
:100360001D92AE31B107E1F713E0CAE2D3E004C059
:100370002297FE010E94D830C232D107C9F70E94ED
:100380001C290C94DC303CCECF92DF92EF92FF928E
:100390000F931F936C0180E090E0F601268537856E
:1003A00040E050E0621B730B840B950B2485358570
:1003B00040E050E00E9447307B018C013FE0159502
:1003C0000795F794E7943A95D1F7F601668977890E
:1003D000882777FD8095982F2BE0660F771F881F61
:1003E000991F2A95D1F7208D318D442737FD4095EF
:1003F000542F2E0D3F1D401F511F0E94A7302E0D60
:100400003F1D401F511FF6012083318342835383D8
:10041000285F3F4F4F4F5F4F84E055954795379585
:1004200027958A95D1F7CA01B9010E94952D20E040
:1004300030E040E251E40E94FA2C1F910F91FF90AE
:10044000EF90DF90CF9008954F925F926F927F92DE
:100450008F929F92AF92BF92CF92DF92EF92FF92D4
:100460000F931F93DF93CF93CDB7DEB728970FB6C7
:10047000F894DEBF0FBECDBF4C012A013B01DC0169
:10048000AD90BD90CD90DC9080E690EFAFEFBFEFE8
:10049000A80EB91ECA1EDB1EC601B501A601950134
:1004A0000E9447306D837E838F839887D40118968E
:1004B0006D917C911997882777FD8095982F0E94E0
:1004C00047307B018C01ADE015950795F794E794D3
:1004D000AA95D1F782E090E0A0E0B0E0E80EF91E26
:1004E0000A1F1B1F6D817E818F819885FCE0959589
:1004F000879577956795FA95D1F7D40150962D9108
:100500003C915197442737FD4095542F0E94473026
:10051000BC01992777FD9095892FE60EF71E081FDD
:10052000191F62E015950795F794E7946A95D1F73E
:1005300080E090E8A0E0B0E0E80EF91E0A1F1B1F63
:10054000D4011A962D913C911B9740E050E0C801D0
:10055000B7010E944730DC01CB015FE0B695A7955B
:10056000979587955A95D1F789839A83AB83BC83F6
:10057000D4011496ED90FC9015970027F7FC009598
:10058000102F42E0EE0CFF1C001F111F4A95D1F7FF
:1005900082E090E0A0E0B0E0E80EF91E0A1F1B1F09
:1005A000D40116966D917C911797882777FD8095D9
:1005B000982FA60195010E9447303BE095958795BD
:1005C000779567953A95D1F7E60EF71E081F191F24
:1005D000F40122893389442737FD4095542F6D81DA
:1005E0007E818F8198850E94473027E19595879578
:1005F000779567952A95D1F7E60EF71E081F191F04
:1006000082E015950795F794E7948A95D1F74E18EF
:100610005F08600A710AC301B20120E533EC40E0D3
:1006200050E00E94473097FD0FC0660F771F881F6C
:10063000991F29813A814B815C810E948530C901D3
:10064000DA015C016D010CC029813A814B815C812A
:100650000E94853059016A01AA0CBB1CCC1CDD1C10
:100660005527D7FC5A954D2D3C2D2B2DCA01B9018C
:100670000E9447302EED3BE040E050E00E944730C2
:100680007B018C01C601B50123E433EE4FEF5FEF30
:100690000E9447309C01552737FD5095452F215327
:1006A000314F4F4F5F4F78011127F7FC1095012F05
:1006B0002E0D3F1D401F511F64E0559547953795FE
:1006C00027956A95D1F72A0D3B1D4C1D5D1DB9017B
:1006D000CA0128960FB6F894DEBF0FBECDBFCF91EA
:1006E000DF911F910F91FF90EF90DF90CF90BF901F
:1006F000AF909F908F907F906F905F904F900895F4
:10070000CB01BA0120E836EE45EC57E40E94FA2C02
:1007100025E534ED42E45EE30E94DC2E9B01AC0152
:1007200060E070E080E89FE30E94912C2BE43AE3C4
:100730004DEB57E30C94FA2C1F93162F83EF9AE09E
:1007400067E770E00E94E01E83EF9AE0612F0E944D
:10075000611F83EF9AE00E94A21F83EF9AE067E790
:1007600070E042E050E00E94B01F83EF9AE00E94E8
:10077000EA1E0297D4F383EF9AE00E94F31E182F2B
:1007800083EF9AE00E94F31E512F40E0282F30E0C3
:10079000242B352BC9011F9108951F93162F83EF2A
:1007A0009AE067E770E00E94E01E83EF9AE0612F15
:1007B0000E94611F83EF9AE00E94A21F83EF9AE0DC
:1007C00067E770E041E050E00E94B01F83EF9AE0DD
:1007D0000E94EA1E892BD1F383EF9AE00E94F31E58
:1007E0001F9108958F929F92AF92BF92CF92DF9206
:1007F000EF92FF920F931F934C0103EF1AE0C80191
:1008000067E770E00E94E01EC80164EF0E94611F6C
:10081000C80164E30E94611FC8010E94A21F65E035
:1008200070E080E090E00E94A322C40166EFB5DF93
:10083000E82EC40167EFB1DFA82EC40168EFADDF79
:10084000FF2400E010E08701FF24EE24BB24CC2429
:10085000DD24DC2CCB2CBA2CAA24EA28FB280C297A
:100860001D29EF2CF02E012F1127B701C8011F9170
:100870000F91FF90EF90DF90CF90BF90AF909F903F
:100880008F900895EF92FF920F931F937C0103EFD7
:100890001AE0C80167E770E00E94E01EC80164EF3B
:1008A0000E94611FC8016EE20E94611FC8010E9480
:1008B000A21F65E070E080E090E00E94A322C701E3
:1008C00066EF3ADF1F910F91FF90EF9008950F931D
:1008D0001F938C0183EF9AE00E94B41FC8016AEA5B
:1008E0002BDFF80195838483C8016CEA25DFF801CA
:1008F00097838683C8016EEA1FDFF801918780879E
:10090000C80160EB19DFF80193878287C80162EBA9
:1009100013DFF80195878487C80164EB0DDFF801C8
:1009200097878687C80166EB07DFF801918B808B7C
:10093000C80168EB01DFF801938B828BC8016AEB79
:10094000FBDEF801958B848BC8016CEBF5DEF801BA
:10095000978B868BC8016EEBEFDEF801918F808F4D
:100960001F910F9108958EE199E00E94191482E27F
:1009700099E00E940F1885E299E00E940F188AE220
:1009800099E060E273E045E350E024E330E00E9448
:10099000F41380E499E00E94B1118FE499E00C9483
:1009A000ED0FAF92BF92CF92DF92EF92FF920F9333
:1009B0001F938CE06AE041E00E9421106AE070E041
:1009C00080E090E00E94A3220091EC081091ED08D5
:1009D0008CE063E046E020E539E00E943010309181
:1009E000510920E06091500970E0622B732B7093E5
:1009F0006309609362093091530920E0E090520945
:100A0000FF24E22AF32AF0926509E092640930910A
:100A1000550920E0A0905409BB24A22AB32AB09221
:100A20006709A0926609882777FD8095982F0E9414
:100A3000952D20E030E046E954E40E94792E20E034
:100A400030E040E859E30E94792E6093800970936A
:100A5000810980938209909383090027F7FC009510
:100A6000102FC801B7010E94952D20E030E046E923
:100A700054E40E94792E20E030E040E859E30E94DF
:100A8000792E6093840970938509809386099093E9
:100A90008709CC24B7FCC094DC2CC601B5010E94A8
:100AA000952D20E030E046E954E40E94792E20E0C4
:100AB00030E040E859E30E94792E609388097093F2
:100AC000890980938A0990938B091F910F91FF9058
:100AD000EF90DF90CF90BF90AF9008958F929F924C
:100AE000AF92BF92CF92DF92EF92FF920F931F933C
:100AF0000F920F9286E699E0EDB7FEB7928381835D
:100B000080E499E066E579E048E559E02AE539E0D6
:100B10000CE519E0BEE5EB2EB9E0FB2EA0E6CA2EEF
:100B2000A9E0DA2EF2E6AF2EF9E0BF2EE4E68E2E33
:100B3000E9E09E2E0E947C1260915C0970915D0933
:100B4000882777FD8095982F0E94952D20E030E032
:100B50004AE753E40E94792E20E030E040E058E379
:100B60000E94792E609374097093750980937609B9
:100B70009093770960915E0970915F09882777FDEE
:100B80008095982F0E94952D20E030E04AE753E4AD
:100B90000E94792E20E030E040E058E30E94792E58
:100BA000609378097093790980937A0990937B090F
:100BB0006091600970916109882777FD8095982F71
:100BC0000E94952D20E030E04AE753E40E94792E00
:100BD00020E030E040E058E30E94792E60937C09E9
:100BE00070937D0980937E0990937F090F900F90F9
:100BF0001F910F91FF90EF90DF90CF90BF90AF903B
:100C00009F908F9008958F929F92AF92BF92CF92B4
:100C1000DF92EF92FF920F931F930F920F9286E64F
:100C200099E0EDB7FEB79283818380E499E066E5B1
:100C300079E048E559E02AE539E00CE519E0BEE540
:100C4000EB2EB9E0FB2EA0E6CA2EA9E0DA2EF2E6E2
:100C5000AF2EF9E0BF2EE4E68E2EE9E09E2E0E9434
:100C60007C126091560970915709882777FD80950D
:100C7000982F0E94952D20E030E040E858E30E9434
:100C8000792E609368097093690980936A0990933B
:100C90006B096091580970915909882777FD8095F3
:100CA000982F0E94952D20E030E040E858E30E9404
:100CB000792E60936C0970936D0980936E099093FF
:100CC0006F0960915A0970915B09882777FD8095BB
:100CD000982F0E94952D20E030E040E858E30E94D4
:100CE000792E6093700970937109809372099093C3
:100CF00073090F900F901F910F91FF90EF90DF906D
:100D0000CF90BF90AF909F908F9008958F929F92B9
:100D1000AF92BF92CF92DF92EF92FF920F931F9309
:100D2000CF93DF930C941C0F86E99DE00E94482C22
:100D30004B015C0186E99DE00E946B270A9749F010
:100D400086E99DE00E946B278F5F9F4F11F00C9406
:100D5000260FEB2C1127E7FC1095F12E012F30E721
:100D6000E316F1040105110509F079C082E299E06A
:100D70000E94291885E299E00E942918EA2CFF2494
:100D80008401E701CC0FDD1FC851D74F88819981BD
:100D90008816990609F45EC0881699067CF486E9DF
:100DA0009DE060E072E00E947E2B86E99DE00E945B
:100DB000942728813981281939090FC086E99DE0D7
:100DC0006BE172E00E947E2B86E99DE00E949427F1
:100DD000888199819401281B390B2D3331055CF0F2
:100DE000B7016F5F7F4FA801445C5F4F8EE199E0D0
:100DF00026E930E023C0C9014F974E9758F4B70158
:100E00006F5F7F4FA801445C5F4F8EE199E028EC53
:100E100030E014C02B503040B7016F5F7F4FA80106
:100E2000445C5F4F2431310528F48EE199E02AEFCC
:100E300030E004C08EE199E02CE231E00E945717C7
:100E4000EE0CFF1C88EE98E0E80EF91ED7010D931A
:100E50001C937CC186E99DE065E372E0D2C0B2E6F6
:100E6000EB16F1040105110509F0D2C082E299E008
:100E70000E94291885E299E00E942918D501C40131
:100E800080709070A07FB07004E1B595A79597959C
:100E900087950A95D1F76C01D501C4018070907FC8
:100EA000AF70B0701CE0B595A795979587951A958A
:100EB000D1F77C0184011F700530110514F004E0A6
:100EC00010E0B701882777FD8095982F0E94952D17
:100ED0002AEF3EE74AE150E40E94792E20E030E01C
:100EE00040EC5FE30E94792E0E94492EB62EA72E79
:100EF000B801882777FD8095982F0E94952D2AEFBD
:100F00003EE74AE150E40E94792E20E030E040ECD8
:100F10005FE30E94792E0E94492EEB01C114D10497
:100F2000A1F586E99DE06CE472E00E94982A86E9CA
:100F30009DE0B7014AE050E00E94692A86E99DE001
:100F400064E672E00E94982A86E99DE0B8014AE0D2
:100F500050E00E94692A86E99DE06EE672E00E94F8
:100F60007E2B86E99DE00E949427AE01662757FDFF
:100F70006095762F8AE299E00E94DB128AE299E07E
:100F80006B2D7A2D0E948F13E1C0E1E0CE16D104C3
:100F9000A1F586E99DE064E772E00E94982A86E95F
:100FA0009DE0B7014AE050E00E94692A86E99DE091
:100FB00064E672E00E94982A86E99DE0B8014AE062
:100FC00050E00E94692A86E99DE06EE672E00E9488
:100FD0007E2B86E99DE00E949427AE01662757FD8F
:100FE0006095762F8AE299E00E94DB128AE299E00E
:100FF0006B2D7A2D0E94C313A9C086E99DE060E99C
:1010000072E00E947E2B86E99DE00E9494279EC09C
:10101000FCE6EF16F1040105110509F0A4C082E217
:1010200099E00E94291885E299E00E94291886E932
:101030009DE060EB72E00E94982A86E99DE060E204
:1010400073E04AE050E00E947B2A8AE299E042E0A5
:1010500050E060E070E00E94DB1283E30E944324D2
:101060009093290980932809C0E0D0E014C08AE257
:1010700099E061E070E00E948F13219665E070E0D6
:1010800080E090E00E94A32283E30E944324909397
:1010900029098093280980912809909129090197AD
:1010A00031F386E99DE06EEC72E00E94982A86E9B1
:1010B0009DE0BE014AE050E00E94692A86E99DE079
:1010C00067ED72E00E947E2BCC0FDD1FC152D34032
:1010D00034F08AE299E065E070E00E94C31383E394
:1010E0000E9443249093290980932809C0E0D0E00E
:1010F00014C08AE299E061E070E00E94C313219677
:1011000065E070E080E090E00E94A32283E30E940B
:10111000432490932909809328098091280990916C
:101120002909019731F386E99DE06EEC72E00E9497
:10113000982A86E99DE0BE014AE050E00E94692AB3
:1011400086E99DE066EF72E00E947E2B82E299E0E4
:1011500069E070E00E94AC1985E299E06AE070E015
:101160000E94AC1969C631E7E316F10401051105C7
:1011700009F053C08A2D90E09C01E401892BB9F459
:10118000181419047CF5C630D10564F586E99DE094
:1011900069E173E00E947E2B86E99DE00E9494271E
:1011A00086E161E00E94112487E160E019C02130EE
:1011B0003105C1F418141904ACF4C630D10594F407
:1011C00086E99DE069E273E00E947E2B86E99DE05E
:1011D0000E94942786E160E00E94112487E161E08B
:1011E0000E94112400E010E008C06CE271E080E091
:1011F00090E00E94A3220F5F1F4F0C171D07ACF356
:1012000086E160E00E94112487E160E00E941124E1
:1012100068E572E080E090E06DC082E7E816F104D6
:101220000105110529F486E99DE06BE373E012C620
:1012300095E7E916F1040105110561F486E99DE0E1
:101240006AE573E00E947E2B86E99DE00E94942768
:1012500088E158C2A7E7EA16F1040105110561F417
:1012600086E99DE063E873E00E947E2B86E99DE0BD
:101270000E94942789E146C2B6E7EB16F104010506
:10128000110561F486E99DE06CEA73E00E947E2B13
:1012900086E99DE00E94942788E121C2E8E7EE16E6
:1012A000F1040105110561F486E99DE065ED73E047
:1012B0000E947E2B86E99DE00E94942789E10FC25F
:1012C000F9E7EF16F10401051105B9F486E99DE08F
:1012D0006EEF73E00E947E2B86E99DE00E949427CA
:1012E00082E299E060E570E00E9495186FE070E09E
:1012F00080E090E00E94A3229FC52AE7E216F10455
:101300000105110559F486E99DE066E174E00E944B
:101310007E2B86E99DE00E9494272FC030E6E316DD
:10132000F1040105110571F586E99DE060E374E0C3
:101330000E94982AE401892811F4C0E9D1E086E9E5
:101340009DE0BE014AE050E00E94692A86E99DE0E6
:1013500063E574E00E947E2B86E99DE00E9494275D
:1013600082E299E060E570E00E949518BE0188274E
:1013700077FD8095982F0E94A32282E299E064E68F
:1013800070E0B2CF81E6E816F1040105110599F489
:1013900086E99DE062E674E00E94982AE40186E90D
:1013A0009DE0B4014AE050E00E94692A892871F664
:1013B000C8E5DBE1CBCF93E7E916F10401051105A0
:1013C00079F486E99DE064E874E00E947E2B86E96A
:1013D0009DE00E94942785E299E062E570E084CF69
:1013E000A4E7EA16F1040105110579F486E99DE008
:1013F0006AE974E00E947E2B86E99DE00E949427B2
:1014000085E299E060E770E06FCFBBE7EB16F1048F
:101410000105110529F486E99DE061EB74E01AC528
:10142000ECE7EE16F10401051105F1F481149104C5
:1014300041F486E99DE06AE54AE050E00E94FD291A
:10144000F7C486E99DE064EC74E00E94982A8FEF6F
:101450009FEFA0E0B0E088229922AA22BB2286E971
:101460009DE0B501A401E0C493E6E916F10401058D
:10147000110509F053C08401892859F486E99DE0DB
:1014800067ED74E00E94982A86E99DE060E070E0D4
:101490009FC00130110529F486E99DE061EE74E0FA
:1014A000D9C40230110529F486E99DE060E075E0B9
:1014B000D1C40330110529F486E99DE06DE175E0A2
:1014C000C9C40430110529F486E99DE061E475E0A2
:1014D000C1C40530110529F486E99DE06DE575E08C
:1014E000B9C40630110529F486E99DE06DE775E081
:1014F000B1C40730110529F486E99DE067E975E07C
:10150000A9C40830110529F486E99DE067EB75E070
:10151000A1C486E99DE064EC74E055C0ADE7EA162D
:10152000F1040105110519F5C4010197EFEFEE2E45
:10153000EFEFFE2E012D112DE820F9200A211B21AD
:10154000029708F04AC086E99DE06CED75E00E94C4
:10155000982A86E99DE0B801A7012AE030E00E94C0
:10156000192A8EE199E0B4010E94071527C0BEE751
:10157000EB16F10401051105A9F5C40101977FEFF0
:10158000E72E7FEFF72E012D112DE820F9200A21FB
:101590001B21029710F586E99DE06FEF75E00E9430
:1015A000982A86E99DE0B801A7012AE030E00E9470
:1015B000192A8EE199E0B4010E9496158C0186E902
:1015C0009DE069EF75E00E94982A86E99DE0B801E8
:1015D0004AE050E00E947B2A2BC486E99DE064EC3F
:1015E00074E01CC4E4E6EE16F1040105110561F493
:1015F00086E99DE06CE176E00E947E2B86E99DE025
:101600000E9494278AE16BC0F5E6EF16F10401050C
:10161000110561F486E99DE065E376E00E947E2B8A
:1016200086E99DE00E9494278AE16CC026E6E216D6
:10163000F1040105110561F486E99DE061E576E0BC
:101640000E947E2B86E99DE00E9494278BE147C093
:1016500037E6E316F1040105110561F486E99DE022
:101660006AE676E00E947E2B86E99DE00E94942740
:101670008BE148C088E6E816F1040105110561F424
:1016800086E99DE066E876E00E947E2B86E99DE093
:101690000E9494278CE123C099E6E916F104010524
:1016A000110561F486E99DE06FE976E00E947E2BEA
:1016B00086E99DE00E9494278CE124C0AAE6EA1600
:1016C000F1040105110569F486E99DE06BEB76E014
:1016D0000E947E2B86E99DE00E9494278DE161E0C7
:1016E00012C0BBE6EB16F1040105110579F486E999
:1016F0009DE064ED76E00E947E2B86E99DE00E94ED
:1017000094278DE160E00E94112496C3EFE7EE1666
:10171000F1040105110509F099C082E299E00E94E7
:10172000291885E299E00E942918D501C40180702A
:101730009070A07FB07064E1B595A7959795879557
:101740006A95D1F7EC01D501C4018070907FAF702C
:10175000B0705CE0B595A795979587955A95D1F7A8
:101760008C014FEFE42E4FE0F42EE820F920FE012B
:10177000EE0FFF1FE851F74F80819181081719077D
:10178000E9F186E99DE060EF76E00E94982A86E91B
:101790009DE0BE014AE050E00E94692A86E99DE092
:1017A00065EF76E00E94982A86E99DE0B8014AE05C
:1017B00050E00E94692A86E99DE064E672E00E949A
:1017C000982A86E99DE0B7014AE050E00E947B2A12
:1017D00086E99DE00E949427BE016F5F7F4FA801BC
:1017E000445C5F4F8EE199E097010E945717CC0F40
:1017F000DD1FC851D74F19830883A8CC86E99DE027
:1018000060EF76E00E94982A86E99DE0BE014AE0FA
:1018100050E00E94692A86E99DE065EF76E00E942B
:10182000982A86E99DE0B8014AE050E00E94692AC2
:1018300086E99DE064E672E00E94982A86E99DE0D0
:10184000B7014AE050E00E947B2ADDCBF0E5EF16BD
:10185000F1040105110509F079C082E299E00E94C6
:10186000291885E299E00E942918E12C90EFF92EC1
:101870009FE0092F112DE820F9200A211B218CE07F
:1018800015950795F794E7948A95D1F767011FEFAF
:10189000A12E1FE0B12EA820B92086E99DE06AE0C4
:1018A00077E00E94982A86E99DE0B7014AE050E07F
:1018B0000E94692A86E99DE064E672E00E94982A07
:1018C00086E99DE0B5014AE050E00E947B2A86E966
:1018D0009DE00E94942786E99DE06CE177E00E94FC
:1018E000982A86E99DE0B7014AE050E00E94692A03
:1018F00086E99DE064E672E00E94982A86E99DE010
:10190000B5014AE050E00E947B2A86E99DE00E94F2
:1019100094272CE330E0C20ED31E8EE199E061E003
:1019200070E0A60195010E9457178EE199E062E0F0
:1019300070E0A60195010E945717F092E908E09225
:10194000E808F092EB08E092EA0800CC31E5E316F3
:10195000F1040105110509F042C082E299E00E94FC
:10196000291885E299E00E942918EA2CFF246701D2
:1019700086E99DE060EF76E00E94982A86E99DE086
:10198000B7014AE050E00E94692A86E99DE06EE2D4
:1019900077E00E94982A86E99DE0B4014AE050E091
:1019A0000E947B2A86E99DE00E9494270894C11C2E
:1019B000D11C8EE199E0B601A4010E94401784E396
:1019C00098E0B4010E94723086E990E0DB01A89FA4
:1019D000B001A99F700DB89F700D112448C0B2E5E9
:1019E000EB16F1040105110509F051C082E299E0FE
:1019F0000E94291885E299E00E942918EA2CFF2408
:101A0000670186E99DE060EF76E00E94982A86E90A
:101A10009DE0B7014AE050E00E94692A86E99DE016
:101A200064E577E00E94982A86E99DE0B4014AE0E7
:101A300050E00E947B2A86E99DE00E94942708944A
:101A4000C11CD11C8EE199E0B601A4010E942917A6
:101A500084E398E0B4010E94723086E990E0FB01D3
:101A6000E89FB001E99F700DF89F700D1124882741
:101A700077FD8095982F0E94A3228EE199E0B60110
:101A800040E050E02CE231E00E940E175FCBF0E422
:101A9000EF16F1040105110591F486E99DE06EE76A
:101AA00077E00E947E2B86E99DE00E94942780E4E7
:101AB00099E0EDD48CE999E00E946704BDC121E46E
:101AC000E216F1040105110579F480E499E00DD5E1
:101AD000882329F086E99DE067EA77E0BBC186E9C3
:101AE0009DE060EE77E0B6C132E4E316F104010553
:101AF0001105C1F588D886E99DE065E178E00E948E
:101B0000982A409168095091690960916A09709119
:101B10006B0986E99DE022E030E00E946B2B86E9AC
:101B20009DE061E378E00E94982A40916C09509111
:101B30006D0960916E0970916F0986E99DE022E060
:101B400030E00E946B2B86E99DE061E378E00E9423
:101B5000982A4091700950917109609172097091B1
:101B600073097EC083E4E816F10401051105C9F587
:101B70000E946E0586E99DE063E378E00E94982A62
:101B800040917409509175096091760970917709B7
:101B900086E99DE022E030E00E946B2B86E99DE023
:101BA00061E378E00E94982A409178095091790980
:101BB00060917A0970917B0986E99DE022E030E02E
:101BC0000E946B2B86E99DE061E378E00E94982AF1
:101BD00040917C0950917D0960917E0970917F0947
:101BE0003FC094E4E916F1040105110509F03FC076
:101BF0000E94D10486E99DE06FE478E00E94982A73
:101C00004091800950918109609182097091830906
:101C100086E99DE022E030E00E946B2B86E99DE0A2
:101C200061E378E00E94982A4091840950918509E7
:101C3000609186097091870986E99DE022E030E095
:101C40000E946B2B86E99DE061E378E00E94982A70
:101C5000409188095091890960918A0970918B0996
:101C600086E99DE022E030E00E946D2BE5C0A5E40E
:101C7000EA16F1040105110551F58CE999E00E947D
:101C80004204BC018CE999E00E94C40160938C0974
:101C900070938D0980938E0990938F0986E99DE05A
:101CA00068E678E00E94982A40918C0950918D094D
:101CB00060918E0970918F0986E99DE022E030E005
:101CC0000E946B2B86E99DE066E778E0C3C0B6E42E
:101CD000EB16F1040105110569F58CE999E00E9404
:101CE000F203AB01BC018CE999E00E9424020E943E
:101CF000952D609390097093910980939209909328
:101D0000930986E99DE06DE778E00E94982A40916A
:101D1000900950919109609192097091930986E917
:101D20009DE022E030E00E946B2B86E99DE068E8B0
:101D300078E090C0E7E4EE16F10401051105B9F56D
:101D40008CE999E00E94F203AB01BC018CE999E0B7
:101D50000E9424020E94952D60939009709391092E
:101D6000809392099093930920E836EE45EC57E46E
:101D70000E94FA2C609394097093950980939609B8
:101D80009093970986E99DE06CE878E00E94982A94
:101D90004091940950919509609196097091970925
:101DA00086E99DE024E030E00E946D2B41C0F8E41C
:101DB000EF16F1040105110569F540919009509164
:101DC000910960919209709193098CE999E00E94C0
:101DD0008003609398097093990980939A0990936E
:101DE0009B0986E99DE061EA78E00E94982A40918B
:101DF00098095091990960919A0970919B0986E917
:101E00009DE022E030E00E946B2B86E99DE06CEAC9
:101E100078E020C086E99DE06FEA78E00E94982A89
:101E200086E99DE0B801A7012AE030E00E94572A28
:101E300086E99DE00E94942786E99DE00E943A276A
:101E40001816190614F40C94940607C086E99DE050
:101E500061EC78E00E947E2BEBCFDF91CF911F9158
:101E60000F91FF90EF90DF90CF90BF90AF909F9039
:101E70008F9008958EE199E040E05BE460E070E0CF
:101E80000E940C188EE199E061E070E040E050E0C3
:101E90002CE231E0C3D78EE199E062E070E040E0EF
:101EA00050E02CE231E0BAD78EE199E061E070E0D9
:101EB00046E950E026E930E0FAD76AE070E080E0D9
:101EC00090E00E94A3228EE199E062E070E046E992
:101ED00050E026E930E0EBD782E299E069E070E07B
:101EE0000E94AC1982E299E064E670E00E949518C5
:101EF00085E299E06AE070E00E94AC1985E299E021
:101F000060E770E00E9495188AE299E041E050E0B5
:101F100060E070E050D383EF9AE00E94B41F86E93E
:101F20009DE040E052EC61E070E00E94B32686E95B
:101F30009DE00E94E4278823D1F386E99DE044E0F8
:101F400050E060E070E00E948F2B86E99DE00E94E7
:101F5000942786E161E00E945E2387E161E00E94B0
:101F60005E2386E160E00E94112487E160E00E9428
:101F7000112488E161E00E945E2389E161E00E9412
:101F80005E2388E160E00E94112489E160E00E9404
:101F900011248AE161E00E945E238BE161E00E94EE
:101FA0005E238CE161E00E945E238DE161E00E948E
:101FB0005E238AE160E00E9411248BE160E00E94D0
:101FC00011248CE160E00E9411248DE160E00E9408
:101FD000112483E360E00C945E230895EF92FF9256
:101FE0000F931F93CF93DF93582F162FE42E022FBA
:101FF000F32E83EF9AE0652F0E94D61E83EF9AE0BE
:10200000612F0E94611F202F3F2DC901EC0110E0BC
:1020100006C083EF9AE069910E94611F1F5F1E1541
:10202000C0F383EF9AE00E94A21F90E0882309F496
:1020300091E0892FDF91CF911F910F91FF90EF9049
:102040000895DF93CF930F92CDB7DEB7498341E078
:102050009E012F5F3F4FC2DF0F90CF91DF91089518
:102060002F923F924F925F926F927F928F929F92A8
:10207000AF92BF92CF92DF92EF92FF920F931F9396
:10208000DF93CF9300D00F920F92CDB7DEB7882E9B
:102090006983942E3B832A830E946F225B016C012B
:1020A000FF24EE24292C33242801662477244BC0F6
:1020B00083EF9AE0682D0E94D61E83EF9AE0698133
:1020C0000E94611F83EF9AE00E94A21F83EF9AE0B3
:1020D000682D0E94D61EA1014E19510941325105A9
:1020E00014F040E250E083EF9AE0682D0E94B21FA6
:1020F0002F2D332727FD30958A819B81280F391F8B
:102100003D832C8383EF9AE00E94EA1E892B09F419
:1021100052C00115110561F00E946F226A197B09F6
:102120008C099D09641575058605970508F043C05F
:1021300083EF9AE00E94F31EEC81FD818193FD8381
:10214000EC83F394DFCFE91408F4B2CF0115110545
:10215000C9F00E946F226A197B098C099D099801B8
:1021600040E050E0621773078407950758F02F2D61
:10217000332727FD3095892D90E02817390714F46F
:10218000FF24FA948F2D0F900F900F900F900F90C7
:10219000CF91DF911F910F91FF90EF90DF90CF9043
:1021A000BF90AF909F908F907F906F905F904F9077
:1021B0003F902F90089583EF9AE00E94A21F892DEF
:1021C000F0E2F91508F480E2E80EBDCF0F931F93FB
:1021D000FA01890141E09F0143DF1F910F910895AA
:1021E000DF92EF92FF920F931F93DF93CF930F92A3
:1021F000CDB7DEB7E82ED62EF42E122F2091EC08A4
:102200003091ED08AE014F5F5F4FE0DF882339F179
:10221000212F30E04F2D50E04F5F5F4F421B530B9B
:1022200081E090E002C0880F991F1A95E2F70197AC
:10223000042E02C0880F991F0A94E2F7202F30E085
:1022400002C0220F331F4A95E2F7482F409559816B
:1022500045238223482B49838E2D6D2DF2DE0F906E
:10226000CF91DF911F910F91FF90EF90DF90089534
:10227000EF92FF920F931F93DF93CF930F92CDB7FF
:10228000DEB7F82EE62E042F122F2091EC083091A5
:10229000ED08AE014F5F5F4F99DF2981112351F0A7
:1022A00081E090E002C0880F991F0A95E2F7422F63
:1022B000482B0AC081E090E002C0880F991F0A9560
:1022C000E2F7482F4095422349838F2D6E2DB9DECA
:1022D0000F90CF91DF911F910F91FF90EF90089594
:1022E000CF92DF92EF92FF920F931F93DF93CF93E2
:1022F0000F92CDB7DEB7C42ED22E9701AE014F5F3D
:102300005F4F64DF682F882309F18D2D90E04C2DFD
:1023100050E04F5F5F4F481B590B21E030E002C097
:10232000220F331FDA94E2F721503040042E02C00E
:10233000220F331F0A94E2F78981822390E002C0C2
:10234000959587954A95E2F7F8018083862F0F903F
:10235000CF91DF911F910F91FF90EF90DF90CF9081
:102360000895FC0188E6808308952F923F924F9252
:102370005F926F927F928F929F92AF92BF92CF9215
:10238000DF92EF92FF920F931F935C014B013A0192
:10239000290118019C012F5F3F4F0091EC0810911B
:1023A000ED08FC0180816BE34EE05ADEF50191817E
:1023B00080E0228130E0822B932BF4019183808393
:1023C000F501938180E0248130E0822B932BF3018F
:1023D00091838083F501958180E0268130E0822B16
:1023E000932BF20191838083F501918580E0228512
:1023F00030E0822B932BF10191838083F50193854B
:1024000080E0248530E0822B932BF7019183808339
:10241000F501958580E0268530E0822B932BF6012F
:10242000918380831F910F91FF90EF90DF90CF9069
:10243000BF90AF909F908F907F906F905F904F90E4
:102440003F902F900895FC01262F80816BE646E097
:102450000FCF0F93FC01062F80816BE642E023E053
:10246000BFDE0F9108950F93FC01062F80816CE170
:1024700044E022E0B5DE0F9108950F93FC01062F92
:1024800080816BE144E022E0ABDE0F9108950F9371
:102490001F938C0161E0DDDFC80160E0EEDFC80161
:1024A00060E0E1DFC80160E0CEDF1F910F91089589
:1024B000CF92DF92EF92FF920F931F936C018C01EA
:1024C0000F5F1F4FE090EC08F090ED08FC01808159
:1024D00065E746E028E004DFF60181811F910F9156
:1024E000FF90EF90DF90CF900895E2DF90E081378A
:1024F00009F491E0892F08956F927F928F929F92B5
:10250000AF92BF92CF92DF92EF92FF920F931F9301
:10251000DF93CF93CDB7DEB73C0127DFF301819185
:102520007F0167E342E08DDD6AE070E080E090E0EB
:102530000E94A3228CE06AE041E083DD6AE070E063
:1025400080E090E00E94A3220091EC081091ED0839
:102550008CE063E046E0970183DDF301928180E047
:10256000218130E0822B932BF50191838083F3014D
:10257000948180E0238130E0822B932BF4019183BE
:102580008083F301368120E0858190E0282B392B70
:10259000EA89FB8931832083CF91DF911F910F91CD
:1025A000FF90EF90DF90CF90BF90AF909F908F9073
:1025B0007F906F900895CF92DF92EF92FF920F93EA
:1025C0001F936C017A018B01FC0120853185442722
:1025D00037FD4095542F60E077E883E993E00E944F
:1025E000A730CA01B901A80197010E94A730F601DE
:1025F00024833583468357831F910F91FF90EF907B
:10260000DF90CF900895FC0182859385019779F43E
:102610006115710521F06130710549F404C08685AA
:1026200060E00C941124868561E00C9411240895D7
:10263000CF92DF92EF92FF920F931F93CF93DF938E
:10264000EC018B011616170644F481E090E09983A3
:102650008883888960E00E94112417FF06C01982D0
:102660001882888961E00E941124680117FF4AC01E
:10267000D094C194D108D39445C00E947D227B019F
:102680008C018A899B89AC89BD89A8019701281B87
:10269000390B4A0B5B0B8C819D81AE81BF81281762
:1026A00039074A075B0748F3EA8AFB8A0C8B1D8BC4
:1026B000888199812C853D85019761F42F5F3F4F7B
:1026C0003D872C87888599852817390771F41D86E1
:1026D0001C860BC0232B21F4888599859D878C87C8
:1026E0008C859D8501979D878C872C853D85C901AB
:1026F00062E070E00E947230BC01CE0184DF089479
:10270000C108D108C114D10409F0B7CFDF91CF912E
:102710001F910F91FF90EF90DF90CF900895CF928F
:10272000DF92EF92FF920F931F936C01882777FD42
:102730008095982F0E94952D7B018C01F601608574
:102740007185882777FD8095982F0E94952D9B0194
:10275000AC01C801B7010E94792E20E030E044EBC3
:1027600053E40E94FA2C0E94492E9B01309521953A
:102770003F4FC601B9015CDF1F910F91FF90EF90B1
:10278000DF90CF900895CF92DF92EF92FF920F9358
:102790001F936C01882777FD8095982F0E94952DB7
:1027A0007B018C01F60160857185882777FD809516
:1027B000982F0E94952D9B01AC01C801B7010E9482
:1027C000792E20E030E044EB53E40E94FA2C0E9482
:1027D000492E9B01C601B9012BDF1F910F91FF907C
:1027E000EF90DF90CF9008950F931F938C01842F6B
:1027F000F801158614861382128211821082128AC1
:10280000138A148A158A7187608746875787318BA8
:10281000208B61E00E945E23F801808961E00E94C4
:102820005E2381E090E0F801938782871F910F91EA
:102830000895FC0186E990E09183808380EF90E029
:102840009383828308958130910551F46F5F7F4FA8
:1028500081F486EB99E06BE04CE020E00C94AA1E3A
:10286000892B39F46F5F7F4F21F486EB99E00C944C
:10287000371D089580E090E06FEF7FEFE4CF81E0B7
:1028800090E06FEF7FEFDFCF9F92AF92BF92CF923A
:10289000DF92EF92FF920F931F93CF93DF93962EC9
:1028A000EA014230510510F0C0E0D0E000D00F92B4
:1028B000B901882777FD8095982F2FEF33E040E00E
:1028C00050E0EDB7FEB7218332834383548320E089
:1028D00030E040E050E0FCE2EF2EF1E0FF2E012D71
:1028E000112DAA24BB2465010E944A2C162F062F05
:1028F000CE01880F880FF82EF70E0F900F900F90D3
:102900000F9086EB99E06FEF0E94791D86EB99E0BE
:102910006FEF0E94791D86EB99E0692D0E94791D69
:1029200086EB99E064E00E94791D86EB99E063E014
:102930000E94791D86EB99E060E20E94791D86EB8A
:1029400099E0612F0E94791D192D1C5F692D695D29
:10295000600F609586EB99E00E94791D6AE070E057
:1029600080E090E00E94A32204C086EB99E00E94E0
:102970003E1D86EB99E00E945F1D892BB1F786EB27
:1029800099E06FEF0E94791D86EB99E06FEF0E944E
:10299000791D86EB99E0692D0E94791D86EB99E0FF
:1029A00064E00E94791D86EB99E063E00E94791D46
:1029B00086EB99E061E20E94791D86EB99E06F2D2C
:1029C0000E94791D1C5D1F0D109586EB99E0612F0B
:1029D0000E94791D6AE070E080E090E00E94A322EE
:1029E00004C086EB99E00E943E1D86EB99E00E94B0
:1029F0005F1D892BB1F7DF91CF911F910F91FF9050
:102A0000EF90DF90CF90BF90AF909F900895AF92DE
:102A1000BF92CF92DF92EF92FF920F931F93DF93BB
:102A2000CF93CDB7DEB7A8970FB6F894DEBF0FBE31
:102A3000CDBF162F86EB99E06FEF0E94791D86EBD4
:102A400099E06FEF0E94791D86EB99E0612F0E945B
:102A5000791D86EB99E064E00E94791D86EB99E090
:102A600062E00E94791D86EB99E066E20E94791D82
:102A700086EB99E062E00E94791D125D109586EB6D
:102A800099E0612F0E94791D6AE070E080E090E09B
:102A90000E94A3228E010F5F1F4F07C086EB99E0B3
:102AA000EDD7F801819391938F0186EB99E00E9415
:102AB0005F1D892B99F700D00F927D8560E02B85F3
:102AC0003C85620F731F882777FD8095982F2CE235
:102AD00031E040E050E0EDB7FEB72183328343831D
:102AE000548320E030E040E050E00FEFE02E03E0C0
:102AF000F02E012D112DAA24BB2465010E944A2C21
:102B00000F900F900F900F90CB01A8960FB6F894EE
:102B1000DEBF0FBECDBFCF91DF911F910F91FF9010
:102B2000EF90DF90CF90BF90AF900895AF92BF929B
:102B3000CF92DF92EF92FF920F931F93DF93CF9389
:102B4000CDB7DEB7A8970FB6F894DEBF0FBECDBFE6
:102B5000162F86EB99E06FEFCCD786EB99E06FEFFD
:102B6000C8D786EB99E0612FC4D786EB99E064E083
:102B7000C0D786EB99E062E0BCD786EB99E064E2CF
:102B8000B8D786EB99E062E0B4D7145D109586EB78
:102B900099E0612FAED76AE070E080E090E00E949B
:102BA000A3228E010F5F1F4F07C086EB99E066D707
:102BB000F801819391938F0186EB99E080D7892B5F
:102BC000A1F700D00F927D8560E02B853C85620FD8
:102BD000731F882777FD8095982F2CE231E040E025
:102BE00050E0EDB7FEB7218332834383548320E066
:102BF00030E040E050E0EFEFEE2EE3E0FE2E012D5E
:102C0000112DAA24BB2465010E944A2C0F900F901D
:102C10000F900F90CB01A8960FB6F894DEBF0FBEB1
:102C2000CDBFCF91DF911F910F91FF90EF90DF907B
:102C3000CF90BF90AF9008956F927F929F92AF9286
:102C4000BF92CF92DF92EF92FF920F931F93962E37
:102C50003A0100D00F92BA01882777FD8095982F0E
:102C60002FEF33E040E050E0EDB7FEB72183328331
:102C70004383548320E030E040E050E0FCE2EF2E5C
:102C8000F1E0FF2E012D112DAA24BB2465010E9425
:102C90004A2C7093D3096093D2090F900F900F9034
:102CA0000F9086EB99E06FEF24D786EB99E06FEFFA
:102CB00020D786EB99E0692D1CD786EB99E065E07B
:102CC00018D786EB99E063E014D786EB99E066E0CD
:102CD00010D786EB99E0672D0CD786EB99E0662D2F
:102CE00008D7FEE09F0E960C970C909486EB99E027
:102CF000692DFFD66AE070E080E090E00E94A32298
:102D000003C086EB99E0BAD686EB99E0D8D6892B3A
:102D1000C1F71F910F91FF90EF90DF90CF90BF9080
:102D2000AF909F907F906F9008956F927F929F9247
:102D3000AF92BF92CF92DF92EF92FF920F931F93C9
:102D4000962E3A0100D00F92BA01882777FD809520
:102D5000982F2FEF33E040E050E0EDB7FEB721832E
:102D600032834383548320E030E040E050E0ACE223
:102D7000EA2EA1E0FA2E012D112DAA24BB24650113
:102D80000E944A2C7093D3096093D2090F900F9040
:102D90000F900F9086EB99E06FEFABD686EB99E042
:102DA0006FEFA7D686EB99E0692DA3D686EB99E065
:102DB00065E09FD686EB99E063E09BD686EB99E0D1
:102DC00068E097D686EB99E0672D93D686EB99E07D
:102DD000662D8FD6F0E19F0E960C970C909486EBA3
:102DE00099E0692D86D66AE070E080E090E00E946C
:102DF000A32203C086EB99E041D686EB99E05FD62B
:102E0000892BC1F71F910F91FF90EF90DF90CF902A
:102E1000BF90AF909F907F906F900895CF92DF9278
:102E2000EF92FF920F931F938C017B016A01A9011E
:102E30007CDFC801B701A601FFDE1F910F91FF9053
:102E4000EF90DF90CF90089540E050E020E030E038
:102E5000E5CFCF92DF92EF92FF920F931F938C01F9
:102E60007B016A01F1DFC801B70140E050E0960143
:102E70000BDD1F910F91FF90EF90DF90CF900895A1
:102E8000CF92DF92EF92FF920F931F938C017B0101
:102E90006A01DADFC801B70141E050E09601F4DCD5
:102EA0001F910F91FF90EF90DF90CF9008952F9298
:102EB0003F924F925F926F927F928F929F92AF92CA
:102EC000BF92CF92DF92EF92FF920F931F93DF9307
:102ED000CF9300D00F920F92CDB7DEB76B833A013C
:102EE00000D00F92442737FD4095542F1FEF212E1D
:102EF00013E0312E412C512CEDB7FEB721823282E6
:102F000043825482CA01B90120E030E040E050E041
:102F1000BCE2EB2EB1E0FB2E012D112DAA24BB2427
:102F200065010E944A2C6C837D8369837A8388249F
:102F300077FC8094982CEDB7FEB7218232824382D1
:102F40005482C401B30120E030E040E050E00E9430
:102F50004A2C162F072F78010F900F900F900F908B
:102F600086EB99E06FEFC5D586EB99E06FEFC1D5A1
:102F700086EB99E06B81BDD586EB99E067E0B9D52A
:102F800086EB99E063E0B5D586EB99E06EE1B1D5CB
:102F900086EB99E0612FADD586EB99E0602FA9D53E
:102FA00086EB99E06C81A5D586EB99E06D81A1D582
:102FB000FB81F85DFF0D8981F80FFE0D9A81F90FF5
:102FC000F09586EB99E06F2F94D56AE070E080E091
:102FD00090E00E94A32203C086EB99E04FD586EBD8
:102FE00099E06DD5892BC1F70F900F900F900F903E
:102FF0000F90CF91DF911F910F91FF90EF90DF9095
:10300000CF90BF90AF909F908F907F906F905F9088
:103010004F903F902F90089586EB99E009C4FC01F2
:103020008091D409803390F480838F5F8093D4099A
:10303000815090E0FC01EE0FFF1FE80FF91FEB52EB
:10304000F64F88EB9BE09283818308958FEF808316
:103050000895DC018C9190E0FC01EE0FFF1FE80F5A
:10306000F91FEB52F64F80818F7B80838C916CE04F
:103070000E94663090E0AC01440F551F480F591F65
:10308000440F551F440F551F20E030E0C901840F45
:10309000951FFC01EE0FFF1FE80FF91FEB52F64FD3
:1030A000808186FD05C02F5F3F4F2C30310571F7C1
:1030B0000895FC0120812033B8F58181992787FD8F
:1030C000909548E850E0481B590B440F551F440F9A
:1030D000551F6417750784F08281992787FD9095A5
:1030E00048E552E0481B590B440F551F440F551F2C
:1030F000641775070CF4AB0142505040CA01AA276F
:1031000097FDA095BA2F880F991FAA1FBB1F4FB715
:10311000F89430E0F901EE0FFF1FE20FF31FEB52BE
:10312000F64F928381834FBF0895AF92BF92CF92A3
:10313000DF92EF92FF920F931F93CF93DF93EC01F7
:103140009B0182E0603278070CF048C077FF03C033
:1031500020E030E005C0653B710514F024EB30E061
:1031600000D00F92B901882777FD8095982F29818B
:10317000332727FD3095E8E8AE2EB12CA21AB30A0A
:10318000AA0CBB1CAA0CBB1CCC24B7FCC094DC2C26
:10319000EA81FF27E7FDF09528E532E02E1B3F0B83
:1031A000220F331F220F331F442737FD4095542F22
:1031B000EDB7FEB7218332834383548320E030E0B0
:1031C00040E050E004EBE02EF12C012D112D0E9487
:1031D0004A2C9B010F900F900F900F90CE01B901D8
:1031E00068DFDF91CF911F910F91FF90EF90DF90FB
:1031F000CF90BF90AF900895CF92DF92EF92FF9261
:103200001F93CF93DF93EC01162F7A016901888118
:10321000803308F093C0862F61E00E945E2388818E
:1032200090E0FC01EE0FFF1FE80FF91FEB52F64F85
:103230001F738081807C812B808380E292E08E19D5
:103240009F0964E070E00E947230698380E699E033
:103250008C199D0964E070E00E9472306A83A88135
:103260008A2F6CE00E946630682F70E0AB01440F3B
:10327000551F460F571F440F551F440F551F20E081
:1032800030E0C901840F951FFC01EE0FFF1FE80F0E
:10329000F91FEB52F64F808186FD44C02F5F3F4FF0
:1032A0002C30310571F753C01092800082E080937A
:1032B00081001092850010928400B19A80916F0075
:1032C000826080936F002EC06230710569F41092A5
:1032D000900082E0809391001092950010929400EB
:1032E00088BB809371001EC06330710569F4109231
:1032F000A00082E08093A1001092A5001092A4008B
:1033000089BB809372000EC0672B61F4109220017C
:1033100082E08093210110922501109224018ABB42
:10332000809373008A2F90E0FC01EE0FFF1FE80FDF
:10333000F91FEB52F64F8081806480838881DF9192
:10334000CF911F91FF90EF90DF90CF900895613063
:10335000710509F0B9CFA8CF40E252E020E639E08C
:103360004BCFEF92FF920F931F93CF93DF938B017D
:103370007A01EC01DC01AB59B54F8C9187FF04C099
:10338000FB011182108237C0AE01440F551F4C0F54
:103390005D1F440F551F440F551F2C91332727FDE8
:1033A0003095240F351F8091D40990E028173907F4
:1033B00014F58C91992787FD9095840F951FFC013A
:1033C000EE0FFF1FE80FF91FEB52F64F808186FFCB
:1033D00012C08C91992787FD9095840F951FFC0151
:1033E000EE0FFF1FE80FF91FEB52F64F80818F732E
:1033F00060E00E941124DE01AB59B54F8C918F5FC4
:103400008C93AE01440F551F4C0F5D1F440F551F89
:10341000440F551F2C91332727FD3095240F351F5E
:103420008091D40990E0281739070CF04DC08C9199
:103430008C300CF049C0F801208131818C919927A2
:1034400087FD9095840F951FFC01EE0FFF1FE80F7D
:10345000F91FEB52F64F81819281280F391FF70136
:10346000318320838C91992787FD9095840F951F38
:10347000FC01EE0FFF1FE80FF91FEB52F64F8081A2
:1034800086FF2AC08C91992787FD9095840F951F00
:10349000FC01EE0FFF1FE80FF91FEB52F64F808182
:1034A0008F7361E00E94112417C080E49CE904C07E
:1034B000F801808191810496F70191838083CB5933
:1034C000D54F8FEF888308C0F801808191810496E1
:1034D00080549C4950F3ECCFDF91CF911F910F9115
:1034E000FF90EF9008951F920F920FB60F920BB6B8
:1034F0000F9211242F933F934F935F936F937F937A
:103500008F939F93AF93BF93EF93FF9380E090E0EF
:1035100064E271E048E251E024DFFF91EF91BF9156
:10352000AF919F918F917F916F915F914F913F915B
:103530002F910F900BBE0F900FBE0F901F901895FC
:103540001F920F920FB60F920BB60F9211242F936A
:103550003F934F935F936F937F938F939F93AF931B
:10356000BF93EF93FF9383E090E064EA70E048EA52
:1035700050E0F7DEFF91EF91BF91AF919F918F9156
:103580007F916F915F914F913F912F910F900BBE63
:103590000F900FBE0F901F9018951F920F920FB6AD
:1035A0000F920BB60F9211242F933F934F935F937B
:1035B0006F937F938F939F93AF93BF93EF93FF93FB
:1035C00082E090E064E970E048E950E0CADEFF91F3
:1035D000EF91BF91AF919F918F917F916F915F918B
:1035E0004F913F912F910F900BBE0F900FBE0F90F8
:1035F0001F9018951F920F920FB60F920BB60F9255
:1036000011242F933F934F935F936F937F938F93E7
:103610009F93AF93BF93EF93FF9381E090E064E8B3
:1036200070E048E850E09DDEFF91EF91BF91AF91CF
:103630009F918F917F916F915F914F913F912F91CA
:103640000F900BBE0F900FBE0F901F9018950F9309
:103650001F93CF93DF93FC01738D76957170A685D0
:10366000B7859585772329F08C91892309F454C077
:1036700004C08C91892309F04FC08389948920E08C
:1036800001972FEF8F3F9207D9F7C589D689A68575
:10369000B785158560E031E040E050E000E0CE0104
:1036A000202F01972FEF8F3F9207D9F78C9181231D
:1036B00011F0632B03C0832F80956823330F4F5F76
:1036C0005F4F4830510559F78789908D20E0019769
:1036D0002FEF8F3F9207D9F7711160958091AB0A58
:1036E0002091AC0A90E001968F73907030E08217C1
:1036F000930779F0E091AB0AF0E0E559F54F60836C
:103700008091AB0A90E001968F7390708093AB0A22
:1037100003C0838D8160838FDF91CF911F910F91C3
:1037200008951F920F920FB60F920BB60F921124AD
:103730002F933F934F935F936F937F938F939F93B9
:10374000AF93BF93EF93FF938091690A90916A0AB8
:10375000009709F07CDFFF91EF91BF91AF919F91AE
:103760008F917F916F915F914F913F912F910F902A
:103770000BBE0F900FBE0F901F9018951F920F92C7
:103780000FB60F920BB60F9211242F933F934F93C6
:103790005F936F937F938F939F93AF93BF93EF93B9
:1037A000FF938091690A90916A0A009709F04FDFB0
:1037B000FF91EF91BF91AF919F918F917F916F9109
:1037C0005F914F913F912F910F900BBE0F900FBEC5
:1037D0000F901F9018951F920F920FB60F920BB675
:1037E0000F9211242F933F934F935F936F937F9387
:1037F0008F939F93AF93BF93EF93FF938091690A49
:1038000090916A0A009709F022DFFF91EF91BF9132
:10381000AF919F918F917F916F915F914F913F9168
:103820002F910F900BBE0F900FBE0F901F90189509
:10383000CF92DF92EF92FF920F931F93CF93DF937C
:10384000EC017A018B011A8E198E188E1F8A1E8A3E
:103850001D8A1C8A1B8A20E030E06901CC0CDD1C2B
:10386000C20ED31EB601660F771F660F771FAB011E
:103870004A595E4FFA0185919591A591B4918E15A3
:103880009F05A007B107E9F4FB01E659FE4F8591BA
:1038900094919C8B8B8BFB01E459FE4F8591949105
:1038A0009E8B8D8BFB01E259FE4F85919491988FF1
:1038B0008F8BFB01E059FE4F859194919A8F898FF0
:1038C00006C02F5F3F4F2D30310509F0C6CF8F89DD
:1038D000988D892B09F468C09C85292F2A502430A3
:1038E00040F0892F8253843020F08C50883008F0CB
:1038F00053C030916800243048F0892F82538430BF
:1039000028F09E53983010F484E001C081E0832BAE
:10391000809368002C85922F9A50943090F0822FDB
:103920008253843070F08C50883008F455C0A0E089
:10393000B0E0883018F0E0E0F0E007C0EDE6F0E03D
:1039400004C0EBE6F0E0ABE6B0E04081943020F458
:1039500030E02650304015C0223311F488E01AC000
:10396000233311F484E016C0243311F482E012C032
:10397000253379F0822F8E53883058F430E02E535F
:10398000304081E090E002C0880F991F2A95E2F74D
:1039900001C081E0842B8C93898D9A8D20E0019762
:1039A0002FEF8F3F9207D9F78091690A90916A0AA9
:1039B0008C179D07A1F08B8D8E7F8B8F9FB7F8940E
:1039C0001092AB0A8091AB0A8093AC0AD0936A0A3A
:1039D000C093690A9FBF03C0ADE6B0E0AACFDF91F4
:1039E000CF911F910F91FF90EF90DF90CF900895AE
:1039F000FC012485922F9A50943060F0822F8253DC
:103A0000843040F08C50883088F5EDE6F0E0ADE68B
:103A1000B0E004C0EBE6F0E0ABE6B0E0408194300B
:103A200020F430E02650304015C0223311F487EFE7
:103A30001BC0233311F48BEF17C0243311F48DEF27
:103A400013C0253381F0822F8E53883060F430E02C
:103A50002E53304081E090E002C0880F991F2A95D4
:103A6000E2F7809501C08EEF84238C930895FC01CA
:103A700082EF98E091838083CF01BACF2091690AC9
:103A800030916A0A2817390731F49091AC0A809175
:103A9000AB0A981719F42FEF3FEF0FC0E091AC0A73
:103AA000F0E0E559F54F20818091AC0A90E0019655
:103AB0008F7390708093AC0A30E0C9010895209113
:103AC000690A30916A0A2817390719F020E030E0B6
:103AD0000EC08091AB0A2091AC0A90E0805C9F4FB1
:103AE000821B910960E470E00E9472309C01C90160
:103AF00008950F931F93DC0159968D919C915A97CD
:103B0000892B49F481E090E013969C938E93129751
:103B100020E030E097C00FB7F8945B968C915B97EC
:103B20005196ED91FC91529750962C91509781FFB0
:103B30008DC08081822B808359968D919C915A975C
:103B4000059620E001972FEF8F3F9207D9F75B96FC
:103B50008C915B9781FF35C031E040E050E070E030
:103B600010E0832F90E0862397235196ED91FC91EE
:103B7000529750962C915097892B29F0808120954F
:103B80002823208303C08081822B808359968D91C6
:103B90009C915A97212F01972FEF8F3F9207D9F7CA
:103BA000330F4F5F5F4F48305105D9F65196ED9175
:103BB000FC915297908150968C91509780958923D3
:103BC00033C031E040E050E070E010E0832F90E03F
:103BD000862397235196ED91FC91529750962C9104
:103BE0005097892B21F08081822B808304C08081B3
:103BF00020952823208359968D919C915A97212FA7
:103C000001972FEF8F3F9207D9F7330F4F5F5F4F29
:103C100048305105D9F65196ED91FC91529780812B
:103C200050969C915097892B80830FBF59968D9108
:103C30009C915A9720E001972FEF8F3F9207D9F779
:103C400021E030E0C9011F910F91089580812095F6
:103C50002823208371CF2091690A30916A0A28179E
:103C6000390749F49FB7F8941092AB0A8091AB0AD8
:103C70008093AC0A9FBF08952091690A30916A0A27
:103C80002817390731F49091AC0A8091AB0A981744
:103C900019F42FEF3FEF0AC0E091AC0AF0E0E559CC
:103CA000F54F8081282F332727FD3095C9010895CE
:103CB0001F93CF93DF93EC01162F862F60E0FED485
:103CC0008B8D81FD03C0812F61E0ABD51C87212F37
:103CD00030E0C9018A569D4FFC0184918D87205B9D
:103CE0003D4FF9016491E62FF0E0EE0FFF1FEA5C13
:103CF000FD4F859194919F878E87DF91CF911F9182
:103D00000895FF920F931F938C01F62E862F61E08A
:103D1000D5D48F2D61E085D58F2D90E0FC01EA563A
:103D2000FD4FE491D8015096EC935097805B9D4FE6
:103D3000FC016491E62FF0E0EE0FFF1FE45EFD4F03
:103D40008591949152969C938E9351971F910F91C8
:103D5000FF900895FF920F931F938C01F62EFC01A4
:103D60001382128288EE93E0A0E0B0E08483958312
:103D7000A683B78382EF98E091838083148A138AA5
:103D8000168A158A108E178A128E118E838D2170D5
:103D9000220F8C7F822B838FC801642FB2DFC80172
:103DA0006F2D86DF1F910F91FF90089581E0809322
:103DB000F20A6093CF0A1092F00A1092F10A089565
:103DC00081E08093F20A6093CF0A1092F00A109279
:103DD000F10A08952091CE0A30E08091CD0A281B87
:103DE0003109C90108954091CD0A8091CE0A481742
:103DF00018F02FEF3FEF0AC0E42FF0E0E355F54F46
:103E00008081282F30E04F5F4093CD0AC90108958B
:103E1000E091CD0A8091CE0AE81718F0EFEFFFEF9E
:103E200006C0F0E0E355F54F8081E82FF0E0CF01C8
:103E3000089508951092F60A1092F50A88EE93E01C
:103E4000A0E0B0E08093F70A9093F80AA093F90AF3
:103E5000B093FA0A82E099E09093F40A8093F30A0F
:103E60000895CF92DF92EF92FF920F931F93CF931B
:103E7000DF937C016B018A018091F20A8823A1F013
:103E8000C0E0D0E00DC0D701ED91FC91D601AC0FA0
:103E9000BD1F0190F081E02DC7016C91199521960D
:103EA000C017D10780F303C0CB01642F04D1C80130
:103EB000DF91CF911F910F91FF90EF90DF90CF9006
:103EC0000895DF93CF930F92CDB7DEB7FC016983DE
:103ED0008091F20A8823C9F08091F10A803238F08B
:103EE00081E090E09383828320E030E014C08091F1
:103EF000F00AE82FF0E0E053F54F998190838F5F4F
:103F00008093F00A8093F10A04C0CE01019661E02B
:103F1000D2D021E030E0C9010F90CF91DF91089518
:103F20000F93062F8091CF0A60ED7AE04091F10A5D
:103F300021E06CD01092F00A1092F10A1092F20A6D
:103F40000F91089561E0ECCF413208F040E2862FF6
:103F50006DEA7AE012D01092CD0A8093CE0A0895CD
:103F600021E0F2CF21E0F0CF1092CD0A1092CE0ADC
:103F70001092F00A1092F10A4EC2382F413210F01E
:103F800040E042C08091FF0A8823E1F791E09093DE
:103F9000FF0A2093010B8FEF80936C0B1092270B7D
:103FA00041504093280B4F5F9093000B8091000B82
:103FB000330F832B8093000B8091020B813041F4EF
:103FC0001092020B8091000B8093BB0085EC01C026
:103FD00085EE8093BC008091FF0A8130E1F38091EF
:103FE000270B841710F44091270B20E030E00AC023
:103FF000FB01E20FF31FD901A95FB44F8C918083BD
:104000002F5F3F4F2417A0F3842F08950F931F9322
:10401000582F122F413210F081E04AC08091FF0AE0
:104020008823E1F782E08093FF0A0093010B8FEF72
:1040300080936C0B1092270B4093280BA7E0BBE0FA
:10404000FB0102C081918D938E2F861B8417D0F3C4
:104050001092000B8091000B550F852B8093000B65
:104060008091020B813041F41092020B8091000B81
:104070008093BB0085EC01C085EE8093BC001123CA
:1040800021F08091FF0A8230E1F380916C0B8F3F29
:1040900011F480E00DC080916C0B803211F482E04D
:1040A00007C080916C0B803311F084E001C083E085
:1040B0001F910F910895482F613210F081E008950B
:1040C0008091FF0A843011F082E0089560934A0BDA
:1040D000A9E2BBE0842F9C01F90102C081918D937C
:1040E0008E2F841B8617D0F380E008951F920F92C5
:1040F0000FB60F920BB60F9211242F933F934F934D
:104100005F936F937F938F939F93AF93BF93EF933F
:10411000FF938091B90090E0887F90708036910580
:1041200009F4F2C081369105CCF58832910509F485
:104130007BC089329105B4F48031910509F46FC0D8
:10414000813191053CF4009709F447C1089709F0C3
:104150004FC165C08831910509F466C0809709F0A8
:1041600047C182C08034910509F4A4C0813491050F
:1041700044F48033910509F482C0C89709F038C12E
:1041800089C08035910509F489C08835910509F405
:1041900096C08834910509F02BC1AEC088399105CD
:1041A00009F413C189399105ECF48837910509F4B4
:1041B000ABC0893791054CF48836910509F4A4C049
:1041C0008037910509F014C19FC08838910509F422
:1041D000FCC08039910509F49DC08038910509F033
:1041E00007C198C0803B910509F4C6C0813B910589
:1041F0004CF4803A910509F49FC0883A910509F082
:10420000F7C0BAC0803C910509F4E3C0883C910531
:1042100009F4DFC0883B910509F0EAC0C2C0809173
:10422000000B8093BB00CFC09091270B8091280B8F
:10423000981768F49091270BE92FF0E0E95FF44FAD
:1042400080818093BB009F5F9093270BBCC08091BF
:10425000010B882309F44BC085ED8093BC0080914D
:10426000BC0084FDFCCFC2C080E280936C0B85ED66
:104270008093BC008091BC0084FDFCCFB7C080E37C
:1042800080936C0B85ED8093BC008091BC0084FD15
:10429000FCCFACC088E380936C0B9BC08091270B54
:1042A0009091BB00E82FF0E0E95FF44F90838F5FBF
:1042B0008093270B9091270B8091280B82C08091CF
:1042C000270B9091BB00E82FF0E0E95FF44F90835B
:1042D0008F5F8093270B8091010B882341F085ED40
:1042E0008093BC008091BC0084FDFCCF7FC081E046
:1042F0008093020B84EA6EC085ED8093BC008091B0
:10430000BC0084FDFCCF72C083E08093FF0A109252
:104310006B0B59C080916B0B803208F056C08091B6
:104320006B0B9091BB00E82FF0E0E55BF44F9083BE
:104330008F5F80936B0B47C080916B0B803230F4A2
:10434000E0916B0BF0E0E55BF44F108285ED80931C
:10435000BC008091BC0084FDFCCF1092FF0A6091EC
:104360006B0BE091050BF091060B8BE49BE070E08A
:10437000199510926B0B2DC084E08093FF0A109268
:10438000490B10924A0BE091030BF091040B199525
:1043900080914A0B882329F481E080934A0B109284
:1043A000290B9091490BE92FF0E0E75DF44F8081F4
:1043B0008093BB009F5F9093490B9091490B809134
:1043C0004A0B981710F485EC01C085E88093BC0077
:1043D0000FC085EC8093BC0009C010926C0B85ED7A
:1043E0008093BC008091BC0084FDFCCF1092FF0A3A
:1043F000FF91EF91BF91AF919F918F917F916F91BD
:104400005F914F913F912F910F900BBE0F900FBE78
:104410000F901F9018951092FF0A81E08093010B76
:104420001092020B84E161E0FCD185E161E0F9D1F9
:10443000E9EBF0E080818E7F808380818D7F8083B7
:1044400088E48093B80085E48093BC0008951F92AF
:104450000F920FB60F9211242F933F938F939F9338
:10446000AF93BF938091710B9091720BA091730BDE
:10447000B091740B3091750B0196A11DB11D232FC6
:104480002D5F2D3720F02D570196A11DB11D2093D2
:10449000750B8093710B9093720BA093730BB09379
:1044A000740B80916D0B90916E0BA0916F0BB0917E
:1044B000700B0196A11DB11D80936D0B90936E0B37
:1044C000A0936F0BB093700BBF91AF919F918F91A1
:1044D0003F912F910F900FBE0F901F9018958FB79F
:1044E000F8942091710B3091720B4091730B5091A5
:1044F000740B8FBFB901CA0108959FB7F89420913A
:104500006D0B30916E0B40916F0B5091700B86B517
:10451000A89B06C08F3F21F02F5F3F4F4F4F5F4F4B
:104520009FBF542F432F322F2227280F311D411DAB
:10453000511D82E0220F331F441F551F8A95D1F76A
:10454000B901CA0108959B01AC017FB7F89480912D
:104550006D0B90916E0BA0916F0BB091700B66B5C7
:10456000A89B05C06F3F19F00196A11DB11D7FBF2B
:10457000BA2FA92F982F8827860F911DA11DB11D35
:1045800062E0880F991FAA1FBB1F6A95D1F7BC0173
:104590002DC0FFB7F89480916D0B90916E0BA09198
:1045A0006F0BB091700BE6B5A89B05C0EF3F19F0FB
:1045B0000196A11DB11DFFBFBA2FA92F982F8827E3
:1045C0008E0F911DA11DB11DE2E0880F991FAA1F3A
:1045D000BB1FEA95D1F7861B970B885E9340C8F204
:1045E000215030404040504068517C4F21153105EA
:1045F0004105510571F60895789484B5826084BDB3
:1046000084B5816084BD85B5826085BD85B58160D6
:1046100085BDEEE6F0E0808181608083E1E8F0E036
:104620001082808182608083808181608083E0E865
:10463000F0E0808181608083E1EBF0E08081846044
:104640008083E0EBF0E0808181608083E1E9F0E04D
:10465000808182608083808181608083E0E9F0E0F6
:10466000808181608083E1EAF0E0808182608083E4
:10467000808181608083E0EAF0E0808181608083D6
:10468000E1E2F1E0808182608083808181608083CB
:10469000E0E2F1E0808181608083EAE7F0E0808100
:1046A0008460808380818260808380818160808358
:1046B0008081806880831092C1000895CF93DF933A
:1046C000482F50E0CA018A569D4FFC013491405B4F
:1046D0005D4FFA018491882369F190E0880F991F5A
:1046E000FC01EE5FFD4FA591B491FC01E45EFD4F2E
:1046F000C591D491662351F42FB7F8948C91932FE0
:10470000909589238C93888189230BC0623061F452
:104710002FB7F8948C91932F909589238C9388814F
:10472000832B88832FBF06C09FB7F8948C91832B6F
:104730008C939FBFDF91CF910895893009F449C0D0
:104740008A30A0F4843051F1853040F4823079F120
:10475000833000F5813009F063C026C0873079F1DD
:10476000883098F5863009F05BC025C08D3009F49B
:1047700042C08E3028F48B30B1F18C30C0F52DC0A2
:10478000803109F442C0813109F445C08F3009F00D
:1047900047C037C0809180008F7703C08091800030
:1047A0008F7D80938000089584B58F7702C084B593
:1047B0008F7D84BD08958091B0008F7703C0809174
:1047C000B0008F7D8093B0000895809190008F7726
:1047D00007C0809190008F7D03C080919000877FFB
:1047E0008093900008958091A0008F7707C08091FA
:1047F000A0008F7D03C08091A000877F8093A000E0
:104800000895809120018F7703C0809120018F7DD2
:1048100080932001089580912001877F809320015B
:104820000895FF920F931F93F62E482F50E0CA0170
:1048300084529D4FFC012491CA018A569D4FFC0170
:104840001491405B5D4FFA0104910023C1F02223D3
:1048500011F0822F72DFE02FF0E0EE0FFF1FE45E19
:10486000FD4FA591B4919FB7F894FF2021F48C914E
:104870001095812302C08C91812B8C939FBF1F9137
:104880000F91FF9008950F931F93482F50E0CA0196
:1048900084529D4FFC012491CA018A569D4FFC0110
:1048A0000491405B5D4FFA011491112319F420E04B
:1048B00030E014C0222311F0822F3FDF812F90E0DF
:1048C000880F991F8A5C9D4FFC01A591B4918C9132
:1048D00020E030E0802311F021E030E0C9011F9199
:1048E0000F91089508951F920F920FB60F920BB675
:1048F0000F9211242F933F934F938F939F93EF9396
:10490000FF938091C00082FD1DC04091C6002091A0
:10491000B60B3091B70B2F5F3F4F2F7330708091E4
:10492000B80B9091B90B2817390771F0E091B60BCD
:10493000F091B70BEA58F44F40833093B70B2093B4
:10494000B60B02C08091C600FF91EF919F918F91AD
:104950004F913F912F910F900BBE0F900FBE0F9074
:104960001F90189508951F920F920FB60F920BB6D5
:104970000F9211242F933F934F938F939F93EF9315
:10498000FF938091C80082FD1DC04091CE00209110
:104990003E0C30913F0C2F5F3F4F2F733070809152
:1049A000400C9091410C2817390771F0E0913E0CB2
:1049B000F0913F0CE250F44F408330933F0C209332
:1049C0003E0C02C08091CE00FF91EF919F918F919C
:1049D0004F913F912F910F900BBE0F900FBE0F90F4
:1049E0001F90189508951F920F920FB60F920BB655
:1049F0000F9211242F933F934F938F939F93EF9395
:104A0000FF938091D00082FD1DC04091D60020917F
:104A1000C60C3091C70C2F5F3F4F2F7330708091C1
:104A2000C80C9091C90C2817390771F0E091C60C99
:104A3000F091C70CEA57F34F40833093C70C209393
:104A4000C60C02C08091D600FF91EF919F918F918B
:104A50004F913F912F910F900BBE0F900FBE0F9073
:104A60001F90189508951F920F920FB60F920BB6D4
:104A70000F9211242F933F934F938F939F93EF9314
:104A8000FF938091300182FD1DC04091360120913D
:104A90004E0D30914F0D2F5F3F4F2F73307080912F
:104AA000500D9091510D2817390771F0E0914E0D7E
:104AB000F0914F0DE25FF24F408330934F0D209302
:104AC0004E0D02C080913601FF91EF919F918F9121
:104AD0004F913F912F910F900BBE0F900FBE0F90F3
:104AE0001F901895E091A20DF091A30DE05CFF4F8F
:104AF0008191919120813181821B930B8F739070F2
:104B0000892B09F0EFDEE091C40DF091C50DE05C5A
:104B1000FF4F8191919120813181821B930B8F7383
:104B20009070892B09F01EDFE091E60DF091E70D02
:104B3000E05CFF4F8191919120813181821B930B29
:104B40008F739070892B09F04DDFE091080EF09182
:104B5000090EE05CFF4F8191919120813181821B90
:104B6000930B8F739070892B09F07CCF08951F925F
:104B70000F920FB60F920BB60F9211242F933F9303
:104B80008F939F93EF93FF932091FA0B3091FB0B40
:104B90008091FC0B9091FD0B2817390731F480911F
:104BA000C1008F7D8093C10014C0E091FC0BF09197
:104BB000FD0BE654F44F20818091FC0B9091FD0B8E
:104BC00001968F7390709093FD0B8093FC0B209354
:104BD000C600FF91EF919F918F913F912F910F9080
:104BE0000BBE0F900FBE0F901F9018951F920F9243
:104BF0000FB60F920BB60F9211242F933F938F9302
:104C00009F93EF93FF932091820C3091830C8091BE
:104C1000840C9091850C2817390731F48091C900D4
:104C20008F7D8093C90014C0E091840CF091850CB5
:104C3000EE5BF34F20818091840C9091850C01965E
:104C40008F7390709093850C8093840C2093CE008A
:104C5000FF91EF919F918F913F912F910F900BBEFC
:104C60000F900FBE0F901F9018951F920F920FB6C6
:104C70000F920BB60F9211242F933F938F939F9314
:104C8000EF93FF9320910A0D30910B0D80910C0D45
:104C900090910D0D2817390731F48091D1008F7D47
:104CA0008093D10014C0E0910C0DF0910D0DE653EE
:104CB000F34F208180910C0D90910D0D01968F7313
:104CC000907090930D0D80930C0D2093D600FF9162
:104CD000EF919F918F913F912F910F900BBE0F906D
:104CE0000FBE0F901F9018951F920F920FB60F9244
:104CF0000BB60F9211242F933F938F939F93EF93B3
:104D0000FF932091920D3091930D8091940D90918D
:104D1000950D2817390731F4809131018F7D8093EB
:104D2000310114C0E091940DF091950DEE5AF24FBF
:104D300020818091940D9091950D01968F739070C4
:104D40009093950D8093940D20933601FF91EF91F0
:104D50009F918F913F912F910F900BBE0F900FBE9F
:104D60000F901F901895AF92BF92DF92EF92FF9233
:104D70000F931F93CF93DF93EC017A018B01DD2416
:104D8000403081EE580780E0680780E0780711F036
:104D9000DD24D39491E0A92EB12CEC89FD89DD208E
:104DA00069F0C50108A002C0880F991F0A94E2F7B4
:104DB000808360E079E08DE390E005C0108260E8D8
:104DC00074E88EE190E0A80197010E94853021509F
:104DD000304040405040569547953795279580E1A3
:104DE0002030380720F0DD2011F0DD24D6CFE8890F
:104DF000F9893083EA89FB89208319A2EE89FF892A
:104E0000408121E030E0C9010C8C02C0880F991F5D
:104E10000A94E2F7482B4083EE89FF894081C9015B
:104E20000D8C02C0880F991F0A94E2F7482B40832B
:104E3000EE89FF894081C9010E8C02C0880F991F3D
:104E40000A94E2F7482B4083EE89FF8980810F8C1A
:104E500002C0220F331F0A94E2F7209528232083F3
:104E6000DF91CF911F910F91FF90EF90DF90BF9056
:104E7000AF900895DC011C96ED91FC911D97E05CCC
:104E8000FF4F2191319180819181281B390B2F7324
:104E90003070C9010895DC011C96ED91FC911D97BD
:104EA000E05CFF4F20813181E054F040DF01AE5BD8
:104EB000BF4F8D919C9111972817390719F42FEF47
:104EC0003FEF07C08D919C91E80FF91F8081282F3B
:104ED00030E0C9010895DC011C96ED91FC911D970D
:104EE000E05CFF4F20813181E054F040DF01AE5B98
:104EF000BF4F8D919C9111972817390719F42FEF07
:104F00003FEF10C08D919C911197E80FF91F208100
:104F10008D919C91119701968F73907011969C932F
:104F20008E9330E0C9010895DC0191968C919197A0
:104F3000882339F05496ED91FC915597808186FF36
:104F4000F9CF91961C920895CF93DF93EC01EE85F3
:104F5000FF85E05CFF4F20813181E054F0402F5FFE
:104F60003F4F2F733070DF01AE5BBF4F8D919C912F
:104F7000119728173907D1F3E05CFF4F80819181A9
:104F8000E054F040E80FF91F6083EE85FF85E05C98
:104F9000FF4F31832083EE89FF89208181E090E0FB
:104FA0000F8C02C0880F991F0A94E2F7282B2083E8
:104FB00081E089A3EC89FD8980818064808381E020
:104FC00090E0DF91CF91089581E008951F931092B2
:104FD000990D1092980D28EE33E040E050E02093B8
:104FE0009A0D30939B0D40939C0D50939D0D62E163
:104FF00079E07093970D6093960D86E79BE0909310
:10500000A30D8093A20D8AEB9BE09093A50D809356
:10501000A40D85EC90E09093A70D8093A60D84ECF1
:1050200090E09093A90D8093A80D80EC90E0909370
:10503000AB0D8093AA0D81EC90E09093AD0D809321
:10504000AC0D82EC90E09093AF0D8093AE0D86ECAA
:1050500090E09093B10D8093B00D14E01093B20DD9
:10506000B3E0B093B30DA7E0A093B40DF5E0F093D7
:10507000B50DE1E0E093B60D1092BB0D1092BA0DA4
:105080002093BC0D3093BD0D4093BE0D5093BF0DCA
:105090007093B90D6093B80D8EEF9BE09093C50DA2
:1050A0008093C40D82E49CE09093C70D8093C60D5D
:1050B0008DEC90E09093C90D8093C80D8CEC90E03E
:1050C0009093CB0D8093CA0D88EC90E09093CD0D1A
:1050D0008093CC0D89EC90E09093CF0D8093CE0D12
:1050E0008AEC90E09093D10D8093D00D8EEC90E0FF
:1050F0009093D30D8093D20D1093D40DB093D50D12
:10510000A093D60DF093D70DE093D80D1092DD0D3E
:105110001092DC0D2093DE0D3093DF0D4093E00DF7
:105120005093E10D7093DB0D6093DA0D86E89CE0FF
:105130009093E70D8093E60D8AEC9CE09093E90D47
:105140008093E80D85ED90E09093EB0D8093EA0D50
:1051500084ED90E09093ED0D8093EC0D80ED90E068
:105160009093EF0D8093EE0D81ED90E09093F10D13
:105170008093F00D82ED90E09093F30D8093F20D0B
:1051800086ED90E09093F50D8093F40D1093F60D5D
:10519000B093F70DA093F80DF093F90DE093FA0D8D
:1051A0001092FF0D1092FE0D2093000E3093010E11
:1051B0004093020E5093030E7093FD0D6093FC0D0F
:1051C0008EE09DE09093090E8093080E82E59DE0AD
:1051D00090930B0E80930A0E85E391E090930D0E51
:1051E00080930C0E84E391E090930F0E80930E0E4B
:1051F00080E391E09093110E8093100E81E391E093
:105200009093130E8093120E82E391E09093150E0B
:105210008093140E86E391E09093170E8093160E00
:105220001093180EB093190EA0931A0EF0931B0E44
:10523000E0931C0E1F910895CF93DF93DDD90E9458
:105240003A0FC2E7D5E20E9486062097E1F34ADCD6
:10525000FACFCF92DF92EF92FF920F931F93CF93EB
:10526000DF937C016B018A01C0E0D0E00FC0D60162
:105270006D916D01D701ED91FC910190F081E02DD0
:10528000C7011995C80FD91F01501040011511050C
:1052900071F7CE01DF91CF911F910F91FF90EF90A9
:1052A000DF90CF900895EF92FF920F931F938C01A0
:1052B000DC01ED91FC910190F081E02D6DE01995FC
:1052C0007C01D801ED91FC910190F081E02DC801A5
:1052D0006AE019959C012E0D3F1DC9011F910F9188
:1052E000FF90EF900895CF93DF93EC016115710566
:1052F00019F420E030E00FC0DB010D900020E9F749
:105300001197A61BB70BE881F9810280F381E02D8C
:10531000AD0119959C01C901DF91CF9108954F927C
:105320005F927F928F929F92AF92BF92CF92DF92C5
:10533000EF92FF920F931F93DF93CF93CDB7DEB71A
:10534000A1970FB6F894DEBF0FBECDBF2C01742E0F
:10535000CB01223008F42AE019A231E2C32ED12C6D
:10536000CC0EDD1E822E9924AA24BB24672D752F16
:10537000A5019401CAD679018A01C801B701A50126
:10538000940185D6472D461B0894C108D1084A30A0
:1053900014F4405D01C0495CF6014083E114F1045E
:1053A0000105110521F07E2C5F2DC801DFCFC20160
:1053B000B60199DFA1960FB6F894DEBF0FBECDBF40
:1053C000CF91DF911F910F91FF90EF90DF90CF90E1
:1053D000BF90AF909F908F907F905F904F90089577
:1053E000DC012115310541F4ED91FC910190F08132
:1053F000E02D642F1995089592CFCF92DF92EF920E
:10540000FF920F931F936C01E62E9A01FF2400E098
:1054100010E0B801A701E4DF8C01C60144DF080FEA
:10542000191FC8011F910F91FF90EF90DF90CF904F
:105430000895CF92DF92EF92FF920F931F93CF9335
:10544000DF93EC016A017B012115310541F4E8810C
:10545000F9810190F081E02D642F19951DC02A304B
:105460003105C9F477FF16C0E881F9810190F08118
:10547000E02D6DE219958C0144275527BA014C198E
:105480005D096E097F09CE012AE049DF9801280FE6
:10549000391F03C02AE043DF9C01C901DF91CF918E
:1054A0001F910F91FF90EF90DF90CF900895EF92B2
:1054B000FF920F931F937C01BCDF8C01C701F3DEC9
:1054C0009C01200F311FC9011F910F91FF90EF9098
:1054D0000895EF92FF920F931F937B019A0100278B
:1054E000F7FC0095102FB801A701A3DF1F910F91C2
:1054F000FF90EF900895CF92DF92EF92FF920F937B
:105500001F936C017B019A010027F7FC0095102F77
:10551000B801A7018EDF8C01C601C5DE080F191F77
:10552000C8011F910F91FF90EF90DF90CF900895E9
:10553000DACE08957F928F929F92AF92BF92CF92D0
:10554000DF92EF92FF920F931F93CF93DF934C0163
:105550007A018B01722ECB01BA01A801970178D490
:10556000882321F0C4016AED78E01FC0C0E0D0E0DC
:1055700057016801E894D7F8C601B5012FEF3FEF56
:105580004FE75FE765D4882349F4C601B5012FEFE3
:105590003FEF4FE75FE72AD2181614F0C1E0D0E0E2
:1055A000219731F0C4016EED78E09DDEEC0184C0FE
:1055B000C801B7012FEF3FEF4FE75FE466D318163E
:1055C0004CF0C801B7012FEF3FEF4FE75FEC0ED271
:1055D000882324F4C40162EE78E0E7CFC801B70164
:1055E00020E030E040E050E001D287FD03C0C0E0A1
:1055F000D0E00EC0D401ED91FC910190F081E02D3E
:10560000C4016DE21995EC0117FB109517F910957F
:1056100020E030E040E05FE3DD240AC0CA01B901C8
:1056200020E030E040E251E4E5D19B01AC01D394AD
:10563000D714A0F3C801B70175D15B016C0147D243
:105640007B018C01C401B801A7012AE030E0C8DE6B
:10565000C80FD91F772031F0C40166EE78E043DE31
:10566000C80FD91FC801B7015ED29B01AC01C601AA
:10567000B50157D11FC020E030E040E251E439D3FA
:105680007B018C011FD25B016C01CC24B7FCC09460
:10569000DC2CC401B601A5012AE030E0CADEC80F47
:1056A000D91FC601B50141D29B01AC01C801B701A8
:1056B00038D17A947720F9F6CE01DF91CF911F91FE
:1056C0000F91FF90EF90DF90CF90BF90AF909F90A1
:1056D0008F907F9008952ECF0895EF92FF920F93B1
:1056E0001F937C0127DF8C01C701DDDD080F191F27
:1056F000C8011F910F91FF90EF900895EF92FF92D4
:105700000F931F937C01EFDD8C01C701CCDD080FE7
:10571000191FC8011F910F91FF90EF900895FC0190
:1057200044835583668377830895CF93DF93EC0199
:105730000E946F22688779878A879B87E881F98131
:105740000084F185E02DCE0119959C0197FF15C0CD
:105750000E946F22288539854A855B85621B730B01
:10576000840B950B2C813D814E815F8162177307FD
:105770008407950718F32FEF3FEFC901DF91CF9111
:105780000895CF93DF93EC01CE01CFDF9C0197FD0D
:105790000EC08D32910559F0C0970A9740F0E8810C
:1057A000F9810680F781E02DCE011995EDCFC90171
:1057B000DF91CF9108959F92AF92BF92CF92DF92E7
:1057C000EF92FF920F931F93CF93DF936C01B62E4E
:1057D000D8DFEC0197FF04C0EE24FF2487014AC004
:1057E0009924EE24FF248701AB2CBB24A7FCB094A2
:1057F000CA15DB0521F1CD32D10519F49924939412
:105800001EC0CE01C0970A97D0F4C801B7012AE0A4
:1058100030E040E050E03BD47B018C01CE01AA2770
:1058200097FDA095BA2FE80EF91E0A1F1B1F80EDE9
:105830009FEFAFEFBFEFE80EF91E0A1F1B1FD60147
:10584000ED91FC910680F781E02DC6011995C60106
:105850006CDFEC01C0970A9758F2CA15DB0541F2DC
:10586000992041F010950095F094E094E11CF11C12
:10587000011D111DB701C801DF91CF911F910F913B
:10588000FF90EF90DF90CF90BF90AF909F900895E2
:1058900061E091CF2F923F924F925F926F927F92F1
:1058A0008F929F92AF92BF92CF92DF92EF92FF9230
:1058B0000F931F93DF93CF93CDB7DEB73B014C011E
:1058C00019012A016E897F89888D998D6A197B0952
:1058D0008C099D09621A730A840A950AA40193012E
:1058E000D6D3E218F30804091509A80197012FD4AB
:1058F0002A0D3B1D4C1D5D1DB901CA01CF91DF91E1
:105900001F910F91FF90EF90DF90CF90BF90AF90DD
:105910009F908F907F906F905F904F903F902F90CF
:1059200008955058BB27AA270ED075C166D130F014
:105930006BD120F031F49F3F11F41EF45BC10EF4E3
:10594000E095E7FB51C1E92F77D180F3BA176207E1
:1059500073078407950718F071F49EF58FC10EF454
:10596000E0950B2EBA2FA02D0B01B90190010C016F
:10597000CA01A0011124FF27591B99F0593F50F487
:10598000503E68F11A16F040A22F232F342F4427DF
:10599000585FF3CF469537952795A795F0405395D7
:1059A000C9F77EF41F16BA0B620B730B840BBAF0A7
:1059B0009150A1F0FF0FBB1F661F771F881FC2F712
:1059C0000EC0BA0F621F731F841F48F48795779526
:1059D0006795B795F7959E3F08F0B3CF9395880FDD
:1059E00008F09927EE0F979587950895D9D008F478
:1059F00081E008950CD00FC107D140F0FED030F007
:105A000021F45F3F19F0F0C0511139C1F3C014D136
:105A100098F39923C9F35523B1F3951B550BBB2775
:105A2000AA2762177307840738F09F5F5F4F220F22
:105A3000331F441FAA1FA9F333D00E2E3AF0E0E81B
:105A400030D091505040E695001CCAF729D0FE2F67
:105A500027D0660F771F881FBB1F261737074807F9
:105A6000AB07B0E809F0BB0B802DBF01FF279358AF
:105A70005F4F2AF09E3F510568F0B6C000C15F3FFE
:105A8000ECF3983EDCF3869577956795B795F79597
:105A90009F5FC9F7880F911D9695879597F908958F
:105AA000E1E0660F771F881FBB1F6217730784072B
:105AB000BA0720F0621B730B840BBA0BEE1F88F73A
:105AC000E095089504D06894B111D9C00895BCD070
:105AD00088F09F5790F0B92F9927B751A0F0D1F0D7
