:1000000053C100007EC100007CC100007AC1000025
:1000100078C1000076C1000074C1000072C1000008
:1000200070C100000C94AB0F0C94D80F0C94051009
:1000300068C1000066C1000064C1000062C1000028
:1000400060C100000C94140F5CC100005AC1000094
:1000500058C1000056C1000054C100000C94F012B9
:1000600050C100000C94F4150C9438174AC10000DC
:1000700048C1000046C1000044C1000042C1000068
:100080000C94E70E3EC100003CC100003AC10000E4
:100090000C9434160C94771734C1000032C1000060
:1000A00030C100002EC100000C94BA0E2AC100001D
:1000B00028C1000026C1000024C100000C948D0E50
:1000C00020C100001EC100001CC100000C94741669
:1000D0000C94B61716C100000C94B4160C94F517C6
:1000E00010C1000000C201000100110011000C004D
:1000F00000E100000A002500250021000096000014
:100100001900390039003600127A00001F0046003D
:10011000460044008070000022004D004D004A005F
:10012000004B00003600750075007200403800007A
:100130004A009C009C009900802500007200EC00A1
:10014000EC00E900C0120000E900DA01DA01D70191
:1001500060090000D701B603B603B303B004000082
:10016000B3036E076E076B07580200006E07DC0EC4
:10017000DC0ED80E2C010000DC0EC11DC11DBE1D01
:1001800000002100240027002A002D003000330049
:1001900001010000040107010A01000022002500FE
:1001A00028002B002E003100340002010000050160
:1001B00008010B01000020002300260029002C006C
:1001C0002F003200000100000301060109010505AE
:1001D0000505070508080808020202020A0A0808BD
:1001E00004040404010101010101010103030303EB
:1001F00003030303040707070C0C0C0C0C0C0C0C7A
:100200000202020206060606060606060B0B0B0B8A
:100210000B0B0B0B010210202008081020401020AF
:1002200040800201020108040201010204081020BA
:1002300040808040201008040201800402018040B8
:100240002010080402010804020101020408102021
:10025000408001020408102040800000090A0208C2
:100260000B0C0D0706030401000000000000000055
:10027000000000000000000000000000000000007E
:1002800000000000000011100F000000000000003E
:10029000000000000000000000000000000000005E
:1002A00082015D086619580811241FBECFEFD1E204
:1002B000DEBFCDBF00E00CBF16E0A0E0B2E0ECE98D
:1002C000FBE300E00BBF02C007900D92A63FB10711
:1002D000D9F71BBE1AE0A6EFB6E001C01D92AA3AFC
:1002E000B107E1F712E0C6EAD2E004C02297FE01AE
:1002F0000E94BE1DC03AD107C9F70E949C1A0C94F7
:10030000C21D7ECE86EF96E0B2D68AEF96E00E94BE
:100310002C0C8DEF96E00C942C0C4F925F926F9208
:100320007F928F929F92AF92BF92CF92DF92EF9285
:10033000FF920F931F93CF93DF939DC582E29AE0C4
:100340000E94E41C4B015C0182E29AE00E94EB18DF
:100350000A9741F082E29AE00E94EB188F5F9F4F6C
:1003600009F092C5EB2C1127E7FC1095F12E012F17
:1003700030E7E316F1040105110509F07BC08AEFAF
:1003800096E00E94460C8DEF96E00E94460CEA2C07
:10039000FF248401E701CC0FDD1FCF52D94F8881A4
:1003A00099818816990609F45EC0881699067CF42E
:1003B00082E29AE060E072E00E941A1C82E29AE017
:1003C0000E94141928813981281939090FC082E245
:1003D0009AE06BE172E00E941A1C82E29AE00E94AD
:1003E0001419888199819401281B390B2D3331050B
:1003F0005CF0B7016F5F7F4FA801445C5F4F86EFF1
:1004000096E026E930E023C0C9014F974E9758F493
:10041000B7016F5F7F4FA801445C5F4F86EF96E0A6
:1004200028EC30E014C02B503040B7016F5F7F4F95
:10043000A801445C5F4F2431310528F486EF96E033
:100440002AEF30E004C086EF96E02CE231E00E9413
:10045000750BEE0CFF1C81ED96E0E80EF91ED7013E
:100460000D931C93EBC482E29AE065E372E00E9474
:100470001A1CCAC3B2E6EB16F1040105110509F016
:1004800084C08AEF96E00E94460C8DEF96E00E94B1
:10049000460C8A2D90E09C01E401892B19F597FC0C
:1004A00056C082E29AE06CE472E00E94181C82E27C
:1004B0009AE0B4014AE050E00E94E91B82E29AE02F
:1004C0006AE672E00E941A1C82E29AE00E94141905
:1004D00085E066E970E00E94011486E060E00E9419
:1004E000921525C02130310591F597FC30C082E28C
:1004F0009AE069E772E00E94181C82E29AE0B40177
:100500004AE050E00E94E91B82E29AE06AE672E06B
:100510000E941A1C82E29AE00E94141985E060E0B1
:100520000E94921586E066E970E00E940114BE0107
:10053000882777FD8095982F0E94461385E060E01C
:100540000E94921586E060E00E94921517C082E238
:100550009AE06BE972E00E94181C82E29AE0BE0108
:100560004AE050E00E94E91B82E29AE06AE672E00B
:100570000E941A1C82E29AE00E9414196FE070E057
:1005800080E090E00E94461359C4E1E7EE16F104C2
:100590000105110509F053C08A2D90E09C01E4018A
:1005A000892BB9F4181419047CF5C630D10564F50B
:1005B00082E29AE065EC72E00E941A1C82E29AE004
:1005C0000E94141985E061E00E94921586E060E0C7
:1005D00019C021303105C1F418141904ACF4C63027
:1005E000D10594F482E29AE065ED72E00E941A1C53
:1005F00082E29AE00E94141985E060E00E94921560
:1006000086E061E00E94921500E010E008C06CE214
:1006100071E080E090E00E9446130F5F1F4F0C17BF
:100620001D07ACF385E060E00E94921586E060E073
:100630000E94921568E572E080E090E059C1F2E70F
:10064000EF16F1040105110529F482E29AE067EE44
:1006500072E01EC425E7E216F1040105110529F434
:1006600082E29AE066E073E05FC037E7E316F104E8
:100670000105110529F482E29AE06FE273E08BC074
:1006800086E7E816F1040105110561F482E29AE0BB
:1006900068E573E00E941A1C82E29AE00E94141935
:1006A00084E011C098E7E916F1040105110569F429
:1006B00082E29AE061E873E00E941A1C82E29AE00A
:1006C0000E94141987E061E06EC0A3E5EA16F10408
:1006D00001051105F9F482E29AE06AEA73E00E94EA
:1006E0001A1C82E29AE00E94141984E061E00E94E0
:1006F000921562E370E080E090E00E94461384E08F
:1007000060E00E94921562E370E080E090E00E9459
:100710004613EBCFB4E5EB16F1040105110561F4C6
:1007200082E29AE06AEC73E00E941A1C82E29AE08C
:100730000E94141984E036C0E5E5EE16F1040105C7
:100740001105F9F482E29AE069EE73E00E941A1C46
:1007500082E29AE00E94141987E061E00E949215FB
:1007600062E370E080E090E00E94461387E060E082
:100770000E94921562E370E080E090E00E944613D0
:10078000EBCFF6E5EF16F1040105110579F482E2ED
:100790009AE069E074E00E941A1C82E29AE00E94EA
:1007A000141987E060E00E94921565C329E7E216FC
:1007B000F1040105110579F482E29AE068E274E03F
:1007C0000E941A1C82E29AE00E9414198AEF96E0B5
:1007D0006CE370E087C03AE7E316F1040105110508
:1007E00059F482E29AE060E474E00E941A1C82E20A
:1007F0009AE00E94141948C080E6E816F104010549
:10080000110599F482E29AE06AE574E00E94181CEE
:10081000E401892811F4C0E9D1E082E29AE0BE0146
:100820004AE050E00E94E91B18C091E6E916F10485
:100830000105110571F582E29AE06DE774E00E940E
:10084000181CE40182E29AE0B4014AE050E00E9400
:10085000E91B892811F4C8E5DBE182E29AE06AE647
:1008600072E00E941A1C82E29AE00E9414198AEF38
:1008700096E06CE370E00E94B20CBE01882777FD21
:100880008095982F0E9446138AEF96E060E570E00D
:1008900029C0A3E7EA16F1040105110579F482E203
:1008A0009AE06FE974E00E941A1C82E29AE00E94CA
:1008B00014198DEF96E062E570E014C0B4E7EB1612
:1008C000F10401051105B9F482E29AE065EB74E0E8
:1008D0000E941A1C82E29AE00E9414198DEF96E0A1
:1008E00060E770E00E94B20C6FE070E080E090E0A2
:1008F0000E944613C0C2EBE7EE16F1040105110594
:1009000029F482E29AE06CEC74E0C2C2FCE7EF16D4
:10091000F10401051105F1F48114910441F482E21E
:100920009AE06AE54AE050E00E947D1BA0C282E2A4
:100930009AE06FED74E00E94181C8FEF9FEFA0E02B
:10094000B0E088229922AA22BB2282E29AE0B50175
:10095000A40189C293E6E916F1040105110509F025
:1009600050C0C4018114910459F482E29AE062EF0C
:1009700074E00E94181C82E29AE060E070E099C086
:100980008130910529F482E29AE06CEF74E080C234
:100990008230910529F482E29AE06BE175E078C239
:1009A0008330910529F482E29AE06FE375E070C22A
:1009B0008430910529F482E29AE06CE575E068C222
:1009C0008530910529F482E29AE068E775E060C21B
:1009D0008630910529F482E29AE068E975E058C210
:1009E000079729F482E29AE06BEA75E051C282E24D
:1009F0009AE06FED74E00E94181C82E29AE0B40164
:100A000058C0ADE7EA16F1040105110511F5C4015E
:100A10000197FFEFEF2EFFEFFF2E012D112DE820A4
:100A2000F9200A211B21029708F048C082E29AE0CF
:100A30006BEC75E00E94181C82E29AE0B801A701F5
:100A40002AE030E00E94991B86EF96E0B401FDD3C6
:100A500026C0BEE7EB16F10401051105A1F5C4019E
:100A60000197EFEFEE2EEFEFFE2E012D112DE82076
:100A7000F9200A211B21029708F582E29AE06EEE26
:100A800075E00E94181C82E29AE0B801A7012AE0F2
:100A900030E00E94991B86EF96E0B40165D48C018A
:100AA00082E29AE068EE75E00E94181C82E29AE009
:100AB000B8014AE050E00E94FB1BD9C182E29AE0F3
:100AC0006FED74E0CAC1EFE7EE16F1040105110500
:100AD00009F09FC08AEF96E0D9D68DEF96E0D6D682
:100AE000E12CF12C70EC072F112DE820F9200A21C0
:100AF0001B2166E115950795F794E7946A95D1F760
:100B00006701412C50EF552E5FE3652E712C482074
:100B100059206A207B204CE0759467945794479441
:100B20004A95D1F7E2012FEF3FE08222932257014D
:100B3000AA0CBB1C81ED96E0A80EB91ED5018D91C3
:100B40009C9148165906C9F182E29AE06BE076E082
:100B50000E94181C82E29AE0B7014AE050E00E942D
:100B6000E91B82E29AE060E176E00E94181C82E2D2
:100B70009AE0B2014AE050E00E94E91B82E29AE06A
:100B800065E276E00E94181C82E29AE0B4014AE035
:100B900050E00E94FB1B82E29AE00E941419089424
:100BA000C11CD11CEC9686EF96E0B601AE01940113
:100BB0009CD5F5015182408241C182E29AE06BE00E
:100BC00076E00E94181C82E29AE0B7014AE050E009
:100BD0000E94E91B82E29AE060E176E00E94181C24
:100BE00082E29AE0B2014AE050E00E94E91B82E210
:100BF0009AE065E276E00E94181C82E29AE0B40175
:100C00004AE050E00E94FB1B82E29AE00E94141925
:100C100015C1F0E5EF16F1040105110509F075C0E5
:100C20008AEF96E033D68DEF96E030D6E12C20EFB8
:100C3000F22E2FE3022F112DE820F9200A211B218B
:100C40009CE015950795F794E7949A95D1F767017D
:100C50008FEFA82E8FE0B82EA820B92082E29AE06C
:100C60006FE276E00E94181C82E29AE0B7014AE047
:100C700050E00E94E91B82E29AE065E276E00E9481
:100C8000181C82E29AE0B5014AE050E00E94E91B9C
:100C900082E29AE00E94141982E29AE061E476E02E
:100CA0000E94181C82E29AE0B7014AE050E00E94DC
:100CB000E91B82E29AE065E276E00E94181C82E27B
:100CC0009AE0B5014AE050E00E94FB1B82E29AE004
:100CD0000E9414192CE330E0C20ED31E86EF96E07A
:100CE00061E070E0A601950100D586EF96E062E034
:100CF00070E0A6019501F9D4F092D206E092D106F7
:100D0000F092D406E092D30699C031E5E316F104DF
:100D10000105110509F03FC08AEF96E0B7D58DEFC8
:100D200096E0B4D5EA2CFF24670182E29AE06BE0FA
:100D300076E00E94181C82E29AE0B7014AE050E097
:100D40000E94E91B82E29AE066E576E00E94181CA8
:100D500082E29AE0B4014AE050E00E94FB1B82E28A
:100D60009AE00E9414190894C11CD11C86EF96E0E9
:100D7000B601A401A3D484E398E0B4010E94581DF5
:100D800086E990E0DB01A89FB001A99F700DB89F94
:100D9000700D112445C0B2E5EB16F10401051105F3
:100DA00009F057C08AEF96E071D58DEF96E06ED5C9
:100DB000EA2CFF24670182E29AE06BE076E00E9471
:100DC000181C82E29AE0B7014AE050E00E94E91B59
:100DD00082E29AE06CE776E00E94181C82E29AE0D8
:100DE000B4014AE050E00E94FB1B82E29AE00E94BC
:100DF00014190894C11CD11C86EF96E0B601A40119
:100E000046D484E398E0B4010E94581D86E990E03E
:100E1000FB01E89FB001E99F700DF89F700D112450
:100E2000882777FD8095982F0E94461386EF96E0DD
:100E3000B60140E050E02CE231E00ED48AEF96E0BB
:100E400069E070E0A5D68DEF96E06AE070E0A0D68C
:100E500012C082E29AE066EA76E00E94181C82E202
:100E60009AE0B801A7012AE030E00E94D71B82E295
:100E70009AE00E94141982E29AE00E94BA181816A9
:100E800019060CF45BCA07C082E29AE068EB76E0D0
:100E90000E941A1CECCFDF91CF911F910F91FF9010
:100EA000EF90DF90CF90BF90AF909F908F907F900A
:100EB0006F905F904F90089586EF96E040E05BE47E
:100EC00060E070E0C6D486EF96E061E070E040E05C
:100ED00050E02CE231E0C0D386EF96E062E070E0B3
:100EE00040E050E02CE231E0B7D386EF96E061E0DD
:100EF00070E046E950E026E930E0F7D36AE070E0C0
:100F000080E090E00E94461386EF96E062E070E099
:100F100046E950E026E930E0E8D38AEF96E069E060
:100F200070E036D68AEF96E060E570E01BD58DEF75
:100F300096E06AE070E02CD68DEF96E060E770E016
:100F400011D582E29AE040E052EC61E070E00E944C
:100F5000341882E29AE00E9464198823D1F382E275
:100F60009AE044E050E060E070E00E942B1C82E2D6
:100F70009AE00E94141985E061E00E94DF1486E087
:100F800061E00E94DF1485E060E00E94921586E037
:100F900060E00E94921584E061E00E94DF1487E027
:100FA00061E00E94DF1484E060E00E94921587E017
:100FB00060E00E94921585E061E00E94DF1486E007
:100FC00061E00E94DF1485E060E00E94921586E0F7
:100FD00060E00E94921588E060E00E94DF141DC06E
:100FE00085E060E00E94921586E066E970E00E946C
:100FF00001146AE070E080E090E00E94461385E012
:1010000060E00E94921586E060E00E9492156AE01E
:1010100070E080E090E00E94461388E00E94C415D2
:10102000909301078093000780910007909101073A
:101030000197B1F285E066E970E00E94011486E054
:1010400060E00E94921560E971E080E090E00E940B
:10105000461385E060E00E94921586E060E00E9401
:1010600092156FE070E080E090E00C944613FC0174
:1010700086E990E09183808380EF90E09383828380
:1010800008958130910551F46F5F7F4F81F482E0C4
:1010900097E06BE04CE020E00C94C412892B39F40B
:1010A0006F5F7F4F21F482E097E00C945111089517
:1010B00080E090E06FEF7FEFE4CF81E090E06FEFB2
:1010C0007FEFDFCF9F92AF92BF92CF92DF92EF92EE
:1010D000FF920F931F93CF93DF93962EEA01423036
:1010E000510510F0C0E0D0E000D00F92B901882780
:1010F00077FD8095982F2FEF33E040E050E0EDB77B
:10110000FEB7218332834383548320E030E040E004
:1011100050E0FCE2EF2EF1E0FF2E012D112DAA246C
:10112000BB2465010E94E61C162F062FCE01880FF6
:10113000880FF82EF70E0F900F900F900F9082E00F
:1011400097E06FEF0E94931182E097E06FEF0E94AB
:10115000931182E097E0692D0E94931182E097E05D
:1011600064E00E94931182E097E063E00E94931193
:1011700082E097E060E20E94931182E097E0612FA5
:101180000E949311192D1C5F692D695D600F609598
:1011900082E097E00E9493116AE070E080E090E0C6
:1011A0000E94461304C082E097E00E94581182E03A
:1011B00097E00E947911892BB1F782E097E06FEFF9
:1011C0000E94931182E097E06FEF0E94931182E0FA
:1011D00097E0692D0E94931182E097E064E00E94FD
:1011E000931182E097E063E00E94931182E097E020
:1011F00061E20E94931182E097E06F2D0E949311AB
:101200001C5D1F0D109582E097E0612F0E949311E5
:101210006AE070E080E090E00E94461304C082E043
:1012200097E00E94581182E097E00E947911892B83
:10123000B1F7DF91CF911F910F91FF90EF90DF9069
:10124000CF90BF90AF909F900895AF92BF92CF92F2
:10125000DF92EF92FF920F931F93DF93CF93CDB75F
:10126000DEB7A8970FB6F894DEBF0FBECDBF162F1E
:1012700082E097E06FEF0E94931182E097E06FEFBA
:101280000E94931182E097E0612F0E94931182E007
:1012900097E064E00E94931182E097E062E00E9490
:1012A000931182E097E066E20E94931182E097E05A
:1012B00062E00E949311125D109582E097E0612F29
:1012C0000E9493116AE070E080E090E00E94461373
:1012D0008E010F5F1F4F07C082E097E0E9D7F8014A
:1012E000819391938F0182E097E00E947911892B7D
:1012F00099F700D00F927D8560E02B853C85620FC9
:10130000731F882777FD8095982F2CE231E040E00D
:1013100050E0EDB7FEB7218332834383548320E04E
:1013200030E040E050E00FEFE02E03E0F02E012D22
:10133000112DAA24BB2465010E94E61C0F900F907A
:101340000F900F90CB01A8960FB6F894DEBF0FBE9A
:10135000CDBFCF91DF911F910F91FF90EF90DF9064
:10136000CF90BF90AF900895AF92BF92CF92DF928F
:10137000EF92FF920F931F93DF93CF93CDB7DEB71A
:10138000A8970FB6F894DEBF0FBECDBF162F82E030
:1013900097E06FEFC8D782E097E06FEFC4D782E0A5
:1013A00097E0612FC0D782E097E064E0BCD782E08D
:1013B00097E062E0B8D782E097E064E2B4D782E0D9
:1013C00097E062E0B0D7145D109582E097E0612F5E
:1013D000AAD76AE070E080E090E00E9446138E0198
:1013E0000F5F1F4F07C082E097E062D7F80181933B
:1013F00091938F0182E097E07CD7892BA1F700D0F1
:101400000F927D8560E02B853C85620F731F8827D6
:1014100077FD8095982F2CE231E040E050E0EDB769
:10142000FEB7218332834383548320E030E040E0E1
:1014300050E0EFEFEE2EE3E0FE2E012D112DAA2459
:10144000BB2465010E94E61C0F900F900F900F9037
:10145000CB01A8960FB6F894DEBF0FBECDBFCF91DB
:10146000DF911F910F91FF90EF90DF90CF90BF9091
:10147000AF9008956F927F929F92AF92BF92CF925A
:10148000DF92EF92FF920F931F93962E3A0100D0B6
:101490000F92BA01882777FD8095982F2FEF33E0C0
:1014A00040E050E0EDB7FEB721833283438354839D
:1014B00020E030E040E050E0FCE2EF2EF1E0FF2ED3
:1014C000012D112DAA24BB2465010E94E61C7093F6
:1014D0001F0760931E070F900F900F900F9082E0F0
:1014E00097E06FEF20D782E097E06FEF1CD782E0A4
:1014F00097E0692D18D782E097E065E014D782E085
:1015000097E063E010D782E097E066E00CD782E0D6
:1015100097E0672D08D782E097E0662D04D7FEE0BC
:101520009F0E960C970C909482E097E0692DFBD665
:101530006AE070E080E090E00E94461303C082E021
:1015400097E0B6D682E097E0D4D6892BC1F71F91F9
:101550000F91FF90EF90DF90CF90BF90AF909F9052
:101560007F906F9008956F927F929F92AF92BF92FB
:10157000CF92DF92EF92FF920F931F93962E3A0134
:1015800000D00F92BA01882777FD8095982F2FEF12
:1015900033E040E050E0EDB7FEB721833283438370
:1015A000548320E030E040E050E0ACE2EA2EA1E0DD
:1015B000FA2E012D112DAA24BB2465010E94E61CE0
:1015C00070931F0760931E070F900F900F900F905E
:1015D00082E097E06FEFA7D682E097E06FEFA3D6A7
:1015E00082E097E0692D9FD682E097E065E09BD688
:1015F00082E097E063E097D682E097E068E093D6D8
:1016000082E097E0672D8FD682E097E0662D8BD63B
:10161000F0E19F0E960C970C909482E097E0692D74
:1016200082D66AE070E080E090E00E94461303C03A
:1016300082E097E03DD682E097E05BD6892BC1F748
:101640001F910F91FF90EF90DF90CF90BF90AF90E0
:101650009F907F906F900895CF92DF92EF92FF92CC
:101660000F931F938C017B016A01A9017CDFC801E4
:10167000B701A601FFDE1F910F91FF90EF90DF9061
:10168000CF90089540E050E020E030E0E5CFCF92E9
:10169000DF92EF92FF920F931F938C017B016A01FF
:1016A000F1DFC801B70140E050E096010BDD1F916A
:1016B0000F91FF90EF90DF90CF900895CF92DF923F
:1016C000EF92FF920F931F938C017B016A01DADF87
:1016D000C801B70141E050E09601F4DC1F910F9181
:1016E000FF90EF90DF90CF9008952F923F924F920E
:1016F0005F926F927F928F929F92AF92BF92CF92A2
:10170000DF92EF92FF920F931F93DF93CF9300D05E
:101710000F920F92CDB7DEB76B833A0100D00F92D4
:10172000442737FD4095542F1FEF212E13E0312E13
:10173000412C512CEDB7FEB7218232824382548274
:10174000CA01B90120E030E040E050E0BCE2EB2EFD
:10175000B1E0FB2E012D112DAA24BB2465010E94AE
:10176000E61C6C837D8369837A83882477FC80946C
:10177000982CEDB7FEB72182328243825482C40195
:10178000B30120E030E040E050E00E94E61C162F5C
:10179000072F78010F900F900F900F9082E097E045
:1017A0006FEFC1D582E097E06FEFBDD582E097E0A3
:1017B0006B81B9D582E097E067E0B5D582E097E02C
:1017C00063E0B1D582E097E06EE1ADD582E097E0CD
:1017D000612FA9D582E097E0602FA5D582E097E040
:1017E0006C81A1D582E097E06D819DD5FB81F85D8C
:1017F000FF0D8981F80FFE0D9A81F90FF09582E0B7
:1018000097E06F2F90D56AE070E080E090E03ED7DF
:1018100003C082E097E04CD582E097E06AD5892B3F
:10182000C1F70F900F900F900F900F90CF91DF9115
:101830001F910F91FF90EF90DF90CF90BF90AF90EE
:101840009F908F907F906F905F904F903F902F90E0
:10185000089582E097E006C4FC0180912007803360
:1018600090F480838F5F80932007815090E0FC018B
:10187000EE0FFF1FE80FF91FEF5DF84F88EB9BE0BD
:101880009283818308958FEF80830895DC018C918A
:1018900090E0FC01EE0FFF1FE80FF91FEF5DF84F1E
:1018A00080818F7B80838C916CE00E944C1D90E046
:1018B000AC01440F551F480F591F440F551F440FCB
:1018C000551F20E030E0C901840F951FFC01EE0F89
:1018D000FF1FE80FF91FEF5DF84F808186FD05C0FF
:1018E0002F5F3F4F2C30310571F70895FC012081A7
:1018F0002033B8F58181992787FD909548E850E01D
:10190000481B590B440F551F440F551F641775078B
:1019100084F08281992787FD909548E552E0481B25
:10192000590B440F551F440F551F641775070CF4CE
:10193000AB0142505040CA01AA2797FDA095BA2F8B
:10194000880F991FAA1FBB1F4FB7F89430E0F90109
:10195000EE0FFF1FE20FF31FEF5DF84F92838183BD
:101960004FBF0895AF92BF92CF92DF92EF92FF9256
:101970000F931F93CF93DF93EC019B0182E06032C2
:1019800078070CF048C077FF03C020E030E005C0C6
:10199000653B710514F024EB30E000D00F92B901E3
:1019A000882777FD8095982F2981332727FD30954B
:1019B000E8E8AE2EB12CA21AB30AAA0CBB1CAA0CE2
:1019C000BB1CCC24B7FCC094DC2CEA81FF27E7FDCC
:1019D000F09528E532E02E1B3F0B220F331F220F1C
:1019E000331F442737FD4095542FEDB7FEB72183B1
:1019F00032834383548320E030E040E050E004EB46
:101A0000E02EF12C012D112D0E94E61C9B010F9060
:101A10000F900F900F90CE01B90168DFDF91CF9149
:101A20001F910F91FF90EF90DF90CF90BF90AF90FC
:101A30000895CF92DF92EF92FF921F93CF93DF939F
:101A4000EC01162F7A0169018881803308F092C079
:101A5000862F61E0B4D7888190E0FC01EE0FFF1F74
:101A6000E80FF91FEF5DF84F1F738081807C812B99
:101A7000808380E292E08E199F0964E070E00E940A
:101A8000581D698380E699E08C199D0964E070E037
:101A90000E94581D6A83A8818A2F6CE00E944C1D09
:101AA000682F70E0AB01440F551F460F571F440FBE
:101AB000551F440F551F20E030E0C901840F951FCA
:101AC000FC01EE0FFF1FE80FF91FEF5DF84F80815B
:101AD00086FD44C02F5F3F4F2C30310571F753C056
:101AE0001092800082E08093810010928500109215
:101AF0008400B19A80916F00826080936F002EC045
:101B00006230710569F41092900082E08093910038
:101B1000109295001092940088BB809371001EC0B3
:101B20006330710569F41092A00082E08093A100F7
:101B30001092A5001092A40089BB809372000EC081
:101B4000672B61F41092200182E0809321011092B2
:101B50002501109224018ABB809373008A2F90E0A4
:101B6000FC01EE0FFF1FE80FF91FEF5DF84F8081BA
:101B7000806480838881DF91CF911F91FF90EF90E7
:101B8000DF90CF9008956130710509F0B9CFA8CFEB
:101B900040E252E020E639E04CCFEF92FF920F9303
:101BA0001F93CF93DF938B017A01EC01DC01AF54DB
:101BB000B84F8C9187FF04C0FB011182108236C0A0
:101BC000AE01440F551F4C0F5D1F440F551F440FAE
:101BD000551F2C91332727FD3095240F351F8091F9
:101BE000200790E0281739070CF58C91992787FD7D
:101BF0009095840F951FFC01EE0FFF1FE80FF91F52
:101C0000EF5DF84F808186FF11C08C91992787FD89
:101C10009095840F951FFC01EE0FFF1FE80FF91F31
:101C2000EF5DF84F80818F7360E07CD7DE01AF54A9
:101C3000B84F8C918F5F8C93AE01440F551F4C0FA2
:101C40005D1F440F551F440F551F2C91332727FD4F
:101C50003095240F351F8091200790E02817390711
:101C60000CF04CC08C918C300CF048C0F8012081F5
:101C700031818C91992787FD9095840F951FFC01E8
:101C8000EE0FFF1FE80FF91FEF5DF84F8181928182
:101C9000280F391FF701318320838C91992787FD05
:101CA0009095840F951FFC01EE0FFF1FE80FF91FA1
:101CB000EF5DF84F808186FF29C08C91992787FDC1
:101CC0009095840F951FFC01EE0FFF1FE80FF91F81
:101CD000EF5DF84F80818F7361E024D717C080E4F7
:101CE0009CE904C0F801808191810496F7019183F9
:101CF0008083CF54D84F8FEF888308C0F80180814C
:101D00009181049680549C4950F3ECCFDF91CF91A0
:101D10001F910F91FF90EF9008951F920F920FB6B1
:101D20000F920BB60F9211242F933F934F935F9313
:101D30006F937F938F939F93AF93BF93EF93FF9393
:101D400080E090E064E271E048E251E026DFFF913C
:101D5000EF91BF91AF919F918F917F916F915F9123
:101D60004F913F912F910F900BBE0F900FBE0F9090
:101D70001F9018951F920F920FB60F920BB60F92ED
:101D800011242F933F934F935F936F937F938F9380
:101D90009F93AF93BF93EF93FF9383E090E064EA48
:101DA00070E048EA50E0F9DEFF91EF91BF91AF910A
:101DB0009F918F917F916F915F914F913F912F9163
:101DC0000F900BBE0F900FBE0F901F9018951F9293
:101DD0000F920FB60F920BB60F9211242F933F93D1
:101DE0004F935F936F937F938F939F93AF93BF9323
:101DF000EF93FF9382E090E064E970E048E950E0FF
:101E0000CCDEFF91EF91BF91AF919F918F917F9128
:101E10006F915F914F913F912F910F900BBE0F905B
:101E20000FBE0F901F9018951F920F920FB60F9232
:101E30000BB60F9211242F933F934F935F936F93A1
:101E40007F938F939F93AF93BF93EF93FF9381E023
:101E500090E064E870E048E850E09FDEFF91EF9189
:101E6000BF91AF919F918F917F916F915F914F91B2
:101E70003F912F910F900BBE0F900FBE0F901F90B0
:101E800018950F931F93CF93DF93FC01738D769575
:101E90007170A685B7859585772329F08C91892364
:101EA00009F454C004C08C91892309F04FC0838980
:101EB000948920E001972FEF8F3F9207D9F7C589CA
:101EC000D689A685B785158560E031E040E050E011
:101ED00000E0CE01202F01972FEF8F3F9207D9F717
:101EE0008C91812311F0632B03C0832F809568238D
:101EF000330F4F5F5F4F4830510559F78789908DF9
:101F000020E001972FEF8F3F9207D9F7711160956D
:101F10008091F7072091F80790E001968F739070F9
:101F200030E08217930779F0E091F707F0E0E95489
:101F3000F84F60838091F70790E001968F7390705F
:101F40008093F70703C0838D8160838FDF91CF91EA
:101F50001F910F9108951F920F920FB60F920BB61B
:101F60000F9211242F933F934F935F936F937F931F
:101F70008F939F93AF93BF93EF93FF938091B50798
:101F80009091B607009709F07CDFFF91EF91BF9128
:101F9000AF919F918F917F916F915F914F913F9101
:101FA0002F910F900BBE0F900FBE0F901F901895A2
:101FB0001F920F920FB60F920BB60F9211242F9310
:101FC0003F934F935F936F937F938F939F93AF93C1
:101FD000BF93EF93FF938091B5079091B607009759
:101FE00009F04FDFFF91EF91BF91AF919F918F91DA
:101FF0007F916F915F914F913F912F910F900BBE09
:102000000F900FBE0F901F9018951F920F920FB652
:102010000F920BB60F9211242F933F934F935F9320
:102020006F937F938F939F93AF93BF93EF93FF93A0
:102030008091B5079091B607009709F022DFFF91D4
:10204000EF91BF91AF919F918F917F916F915F9130
:102050004F913F912F910F900BBE0F900FBE0F909D
:102060001F901895CF92DF92EF92FF920F931F93DC
:10207000CF93DF93EC017A018B011A8E198E188EA3
:102080001F8A1E8A1D8A1C8A1B8A20E030E0690193
:10209000CC0CDD1CC20ED31EB601660F771F660F77
:1020A000771FAB014C515F4FFA0185919591A59136
:1020B000B4918E159F05A007B107E9F4FB01E85123
:1020C000FF4F859194919C8B8B8BFB01E651FF4FC9
:1020D000859194919E8B8D8BFB01E451FF4F8591EF
:1020E0009491988F8F8BFB01E251FF4F85919491D2
:1020F0009A8F898F06C02F5F3F4F2D30310509F031
:10210000C6CF8F89988D892B09F468C09C85292FAB
:102110002A50243040F0892F8253843020F08C5094
:10212000883008F053C030916800243048F0892F7F
:102130008253843028F09E53983010F484E001C01C
:1021400081E0832B809368002C85922F9A509430E5
:1021500090F0822F8253843070F08C50883008F4D5
:1021600055C0A0E0B0E0883018F0E0E0F0E007C033
:10217000EDE6F0E004C0EBE6F0E0ABE6B0E0408175
:10218000943020F430E02650304015C0223311F452
:1021900088E01AC0233311F484E016C0243311F40C
:1021A00082E012C0253379F0822F8E53883058F4A4
:1021B00030E02E53304081E090E002C0880F991F3C
:1021C0002A95E2F701C081E0842B8C93898D9A8D4A
:1021D00020E001972FEF8F3F9207D9F78091B50745
:1021E0009091B6078C179D07A1F08B8D8E7F8B8FFA
:1021F0009FB7F8941092F7078091F7078093F8073C
:10220000D093B607C093B5079FBF03C0ADE6B0E05B
:10221000AACFDF91CF911F910F91FF90EF90DF90A8
:10222000CF900895FC012485922F9A50943060F04D
:10223000822F8253843040F08C50883088F5EDE650
:10224000F0E0ADE6B0E004C0EBE6F0E0ABE6B0E015
:102250004081943020F430E02650304015C02233C5
:1022600011F487EF1BC0233311F48BEF17C0243315
:1022700011F48DEF13C0253381F0822F8E538830F7
:1022800060F430E02E53304081E090E002C0880FCF
:10229000991F2A95E2F7809501C08EEF84238C93D5
:1022A0000895FC0189ED96E091838083CF01BACF38
:1022B0002091B5073091B6072817390731F490916E
:1022C000F8078091F707981719F42FEF3FEF0FC029
:1022D000E091F807F0E0E954F84F20818091F80789
:1022E00090E001968F7390708093F80730E0C901F9
:1022F00008952091B5073091B6072817390719F0CE
:1023000020E030E00EC08091F7072091F80790E0C0
:10231000805C9F4F821B910960E470E00E94581D11
:102320009C01C90108950F931F93DC0159968D916B
:102330009C915A97892B49F481E090E013969C93E5
:102340008E93129720E030E097C00FB7F8945B9619
:102350008C915B975196ED91FC91529750962C91F0
:10236000509781FF8DC08081822B808359968D91FB
:102370009C915A97059620E001972FEF8F3F920787
:10238000D9F75B968C915B9781FF35C031E040E0D7
:1023900050E070E010E0832F90E086239723519661
:1023A000ED91FC91529750962C915097892B29F0E2
:1023B000808120952823208303C08081822B808305
:1023C00059968D919C915A97212F01972FEF8F3F0E
:1023D0009207D9F7330F4F5F5F4F48305105D9F659
:1023E0005196ED91FC915297908150968C91509717
:1023F0008095892333C031E040E050E070E010E088
:10240000832F90E0862397235196ED91FC9152976C
:1024100050962C915097892B21F08081822B8083BC
:1024200004C0808120952823208359968D919C910A
:102430005A97212F01972FEF8F3F9207D9F7330F2C
:102440004F5F5F4F48305105D9F65196ED91FC91A1
:102450005297808150969C915097892B80830FBF13
:1024600059968D919C915A9720E001972FEF8F3FBD
:102470009207D9F721E030E0C9011F910F9108952B
:10248000808120952823208371CF2091B50730913A
:10249000B6072817390749F49FB7F8941092F70741
:1024A0008091F7078093F8079FBF08952091B507A3
:1024B0003091B6072817390731F49091F8078091C9
:1024C000F707981719F42FEF3FEF0AC0E091F807CC
:1024D000F0E0E954F84F8081282F332727FD30950D
:1024E000C90108951F93CF93DF93EC01162F862F18
:1024F00060E065D28B8D81FD03C0812F61E012D336
:102500001C87212F30E0C9018C5E9D4FFC01849116
:102510008D8722533E4FF9016491E62FF0E0EE0FD4
:10252000FF1FEC54FE4F859194919F878E87DF911A
:10253000CF911F910895FF920F931F938C01F62E58
:10254000862F61E03CD28F2D61E0ECD28F2D90E0A0
:10255000FC01EC5EFD4FE491D8015096EC9350974E
:1025600082539E4FFC016491E62FF0E0EE0FFF1FB7
:10257000E656FE4F8591949152969C938E93519777
:102580001F910F91FF900895FF920F931F938C015D
:10259000F62EFC011382128288EE93E0A0E0B0E0F8
:1025A00084839583A683B78389ED96E091838083A6
:1025B000148A138A168A158A108E178A128E118E23
:1025C000838D2170220F8C7F822B838FC801642F13
:1025D000B2DFC8016F2D86DF1F910F91FF90089524
:1025E0001F920F920FB60F9211242F933F938F9348
:1025F0009F93AF93BF938091FD079091FE07A091A9
:10260000FF07B0910008309101080196A11DB11D8E
:10261000232F2D5F2D3720F02D570196A11DB11DC1
:10262000209301088093FD079093FE07A093FF0776
:10263000B09300088091F9079091FA07A091FB07E9
:10264000B091FC070196A11DB11D8093F9079093ED
:10265000FA07A093FB07B093FC07BF91AF919F913E
:102660008F913F912F910F900FBE0F901F90189553
:102670008FB7F8942091FD073091FE074091FF0736
:10268000509100088FBFB901CA0108959B01AC01A8
:102690007FB7F8948091F9079091FA07A091FB0712
:1026A000B091FC0766B5A89B05C06F3F19F0019675
:1026B000A11DB11D7FBFBA2FA92F982F8827860F84
:1026C000911DA11DB11D62E0880F991FAA1FBB1F9C
:1026D0006A95D1F7BC012DC0FFB7F8948091F90736
:1026E0009091FA07A091FB07B091FC07E6B5A89B73
:1026F00005C0EF3F19F00196A11DB11DFFBFBA2F14
:10270000A92F982F88278E0F911DA11DB11DE2E0E2
:10271000880F991FAA1FBB1FEA95D1F7861B970B3D
:10272000885E9340C8F2215030404040504068518C
:102730007C4F211531054105510571F608957894B6
:1027400084B5826084BD84B5816084BD85B58260B6
:1027500085BD85B5816085BDEEE6F0E08081816054
:102760008083E1E8F0E01082808182608083808154
:1027700081608083E0E8F0E0808181608083E1EB2C
:10278000F0E0808184608083E0EBF0E08081816014
:102790008083E1E9F0E080818260808380818160D4
:1027A0008083E0E9F0E0808181608083E1EAF0E00D
:1027B000808182608083808181608083E0EAF0E0B4
:1027C000808181608083E1E2F1E0808182608083AA
:1027D000808181608083E0E2F1E08081816080839C
:1027E000EAE7F0E08081846080838081826080837A
:1027F0008081816080838081806880831092C100A5
:1028000008951F93CF93DF93182FEB0161E0D7D08A
:10281000209709F4CAC0CF3FD10509F4C9C0E12F00
:10282000F0E0E65AFD4F8491893009F466C08A30A1
:10283000B0F48430F1F1853040F4823059F18330C6
:1028400070F5813009F0AEC020C0873009F443C074
:10285000883008F048C0863009F0A4C034C08D30FC
:1028600009F478C08E3038F48B3009F45AC08C30BB
:1028700008F066C04CC0803109F480C0813109F491
:1028800087C08F3009F08EC06FC084B5806884BD6A
:10289000C7BD91C084B5806284BDC8BD8CC0809125
:1028A0008000806880938000D0938900C093880066
:1028B00082C080918000806280938000D0938B00E2
:1028C000C0938A0078C08091B00080688093B00087
:1028D000C093B30070C08091B00080628093B0005C
:1028E000C093B40068C0809190008068809390008D
:1028F000D0939900C09398005EC080919000806250
:1029000080939000D0939B00C0939A0054C0809114
:102910009000886080939000D0939D00C0939C00AD
:102920004AC08091A00080688093A0008091A000A0
:102930008F7B8093A000D093A900C093A8003BC0D8
:102940008091A00080628093A000D093AB00C093E0
:10295000AA0031C08091A00088608093A000D0932D
:10296000AD00C093AC0027C08091200180688093A7
:102970002001D0932901C09328011DC0809120011E
:10298000806280932001D0932B01C0932A0113C051
:1029900080912001886080932001D0932D01C09305
:1029A0002C0109C0C038D1051CF4812F60E002C0A1
:1029B000812F61E0B7D0DF91CF911F910895CF9320
:1029C000DF93482F50E0CA018C5E9D4FFC0134918B
:1029D00042535E4FFA018491882369F190E0880F99
:1029E000991FFC01E058FE4FA591B491FC01E656F9
:1029F000FE4FC591D491662351F42FB7F8948C9172
:102A0000932F909589238C93888189230BC0623002
:102A100061F42FB7F8948C91932F909589238C9320
:102A20008881832B88832FBF06C09FB7F8948C9131
:102A3000832B8C939FBFDF91CF910895893009F448
:102A400049C08A30A0F4843051F1853040F482309E
:102A500079F1833000F5813009F063C026C08730FA
:102A600079F1883098F5863009F05BC025C08D304B
:102A700009F442C08E3028F48B30B1F18C30C0F5AF
:102A80002DC0803109F442C0813109F445C08F3036
:102A900009F047C037C0809180008F7703C08091D4
:102AA00080008F7D80938000089584B58F7702C069
:102AB00084B58F7D84BD08958091B0008F7703C069
:102AC0008091B0008F7D8093B00008958091900038
:102AD0008F7707C0809190008F7D03C08091900018
:102AE000877F8093900008958091A0008F7707C022
:102AF0008091A0008F7D03C08091A000877F80938C
:102B0000A0000895809120018F7703C0809120015B
:102B10008F7D80932001089580912001877F80938D
:102B200020010895FF920F931F93F62E482F50E037
:102B3000CA01865A9D4FFC012491CA018C5E9D4FAB
:102B4000FC01149142535E4FFA0104910023C1F03D
:102B5000222311F0822F72DFE02FF0E0EE0FFF1F33
:102B6000E656FE4FA591B4919FB7F894FF2021F44B
:102B70008C911095812302C08C91812B8C939FBFE7
:102B80001F910F91FF9008950F931F93482F50E0CE
:102B9000CA01865A9D4FFC012491CA018C5E9D4F4B
:102BA000FC01049142535E4FFA011491112319F470
:102BB00020E030E014C0222311F0822F3FDF812F6C
:102BC00090E0880F991F8C549E4FFC01A591B49101
:102BD0008C9120E030E0802311F021E030E0C90149
:102BE0001F910F91089508951F920F920FB60F92A3
:102BF0000BB60F9211242F933F934F938F939F9374
:102C0000EF93FF938091C00082FD1DC04091C600EC
:102C100020914208309143082F5F3F4F2F7330704F
:102C200080914408909145082817390771F0E09188
:102C30004208F0914308EE5FF74F4083309343081A
:102C40002093420802C08091C600FF91EF919F91AE
:102C50008F914F913F912F910F900BBE0F900FBE10
:102C60000F901F90189508951F920F920FB60F9214
:102C70000BB60F9211242F933F934F938F939F93F3
:102C8000EF93FF938091C80082FD1DC04091CE005C
:102C90002091CA083091CB082F5F3F4F2F733070BF
:102CA0008091CC089091CD082817390771F0E091F8
:102CB000CA08F091CB08E657F74F40833093CB0812
:102CC0002093CA0802C08091CE00FF91EF919F919E
:102CD0008F914F913F912F910F900BBE0F900FBE90
:102CE0000F901F90189508951F920F920FB60F9294
:102CF0000BB60F9211242F933F934F938F939F9373
:102D0000EF93FF938091D00082FD1DC04091D600CB
:102D100020915209309153092F5F3F4F2F7330702C
:102D200080915409909155092817390771F0E09165
:102D30005209F0915309EE5EF64F408330935309E8
:102D40002093520902C08091D600FF91EF919F918C
:102D50008F914F913F912F910F900BBE0F900FBE0F
:102D60000F901F90189508951F920F920FB60F9213
:102D70000BB60F9211242F933F934F938F939F93F2
:102D8000EF93FF938091300182FD1DC04091360189
:102D90002091DA093091DB092F5F3F4F2F7330709C
:102DA0008091DC099091DD092817390771F0E091D5
:102DB000DA09F091DB09E656F64F40833093DB09E0
:102DC0002093DA0902C080913601FF91EF919F9123
:102DD0008F914F913F912F910F900BBE0F900FBE8F
:102DE0000F901F901895E0912E0AF0912F0AE05C49
:102DF000FF4F8191919120813181821B930B8F73C1
:102E00009070892B09F0EFDEE091500AF091510AA1
:102E1000E05CFF4F8191919120813181821B930B66
:102E20008F739070892B09F01EDFE091720AF09188
:102E3000730AE05CFF4F8191919120813181821B67
:102E4000930B8F739070892B09F04DDFE091940AFA
:102E5000F091950AE05CFF4F819191912081318141
:102E6000821B930B8F739070892B09F07CCF089590
:102E70001F920F920FB60F920BB60F9211242F9341
:102E80003F938F939F93EF93FF9320918608309108
:102E9000870880918808909189082817390731F4AC
:102EA0008091C1008F7D8093C10014C0E09188089B
:102EB000F0918908EA5BF74F208180918808909112
:102EC000890801968F739070909389088093880881
:102ED0002093C600FF91EF919F918F913F912F9189
:102EE0000F900BBE0F900FBE0F901F9018951F9262
:102EF0000F920FB60F920BB60F9211242F933F93A0
:102F00008F939F93EF93FF9320910E0930910F09B8
:102F100080911009909111092817390731F4809197
:102F2000C9008F7D8093C90014C0E0911009F09111
:102F30001109E253F74F20818091100990911109F6
:102F400001968F73907090931109809310092093CC
:102F5000CE00FF91EF919F918F913F912F910F9014
:102F60000BBE0F900FBE0F901F9018951F920F92DF
:102F70000FB60F920BB60F9211242F933F938F939E
:102F80009F93EF93FF932091960930919709809139
:102F90009809909199092817390731F48091D10047
:102FA0008F7D8093D10014C0E0919809F091990928
:102FB000EA5AF64F208180919809909199090196DB
:102FC0008F73907090939909809398092093D600FD
:102FD000FF91EF919F918F913F912F910F900BBE99
:102FE0000F900FBE0F901F9018951F920F920FB663
:102FF0000F920BB60F9211242F933F938F939F93B1
:10300000EF93FF9320911E0A30911F0A8091200AAE
:103010009091210A2817390731F4809131018F7D71
:103020008093310114C0E091200AF091210AE2520C
:10303000F64F20818091200A9091210A01968F738A
:1030400090709093210A8093200A20933601FF917B
:10305000EF919F918F913F912F910F900BBE0F9009
:103060000FBE0F901F901895AF92BF92DF92EF9214
:10307000FF920F931F93CF93DF93EC017A018B01A3
:10308000DD24403081EE580780E0680780E0780753
:1030900011F0DD24D39491E0A92EB12CEC89FD89A7
:1030A000DD2069F0C50108A002C0880F991F0A94AD
:1030B000E2F7808360E079E08DE390E005C0108264
:1030C00060E874E88EE190E0A801970104D52150F2
:1030D000304040405040569547953795279580E1C0
:1030E0002030380720F0DD2011F0DD24D7CFE8892B
:1030F000F9893083EA89FB89208319A2EE89FF8947
:10310000408121E030E0C9010C8C02C0880F991F7A
:103110000A94E2F7482B4083EE89FF894081C90178
:103120000D8C02C0880F991F0A94E2F7482B408348
:10313000EE89FF894081C9010E8C02C0880F991F5A
:103140000A94E2F7482B4083EE89FF8980810F8C37
:1031500002C0220F331F0A94E2F720952823208310
:10316000DF91CF911F910F91FF90EF90DF90BF9073
:10317000AF900895DC011C96ED91FC911D97E05CE9
:10318000FF4F2191319180819181281B390B2F7341
:103190003070C9010895DC011C96ED91FC911D97DA
:1031A000E05CFF4F20813181E054F040DF01AE5BF5
:1031B000BF4F8D919C9111972817390719F42FEF64
:1031C0003FEF07C08D919C91E80FF91F8081282F58
:1031D00030E0C9010895DC011C96ED91FC911D972A
:1031E000E05CFF4F20813181E054F040DF01AE5BB5
:1031F000BF4F8D919C9111972817390719F42FEF24
:103200003FEF10C08D919C911197E80FF91F20811D
:103210008D919C91119701968F73907011969C934C
:103220008E9330E0C9010895DC0191968C919197BD
:10323000882339F05496ED91FC915597808186FF53
:10324000F9CF91961C920895CF93DF93EC01EE8510
:10325000FF85E05CFF4F20813181E054F0402F5F1B
:103260003F4F2F733070DF01AE5BBF4F8D919C914C
:10327000119728173907D1F3E05CFF4F80819181C6
:10328000E054F040E80FF91F6083EE85FF85E05CB5
:10329000FF4F31832083EE89FF89208181E090E018
:1032A0000F8C02C0880F991F0A94E2F7282B208305
:1032B00081E089A3EC89FD8980818064808381E03D
:1032C00090E0DF91CF91089581E008951F931092CF
:1032D000250A1092240A28EE33E040E050E02093C3
:1032E000260A3093270A4093280A5093290A69EE48
:1032F00076E07093230A6093220A82E098E090932C
:103300002F0A80932E0A86E498E09093310A8093E6
:10331000300A85EC90E09093330A8093320A84EC73
:1033200090E09093350A8093340A80EC90E090937B
:10333000370A8093360A81EC90E09093390A8093A3
:10334000380A82EC90E090933B0A80933A0A86EC2C
:1033500090E090933D0A80933C0A14E010933E0A5B
:10336000B3E0B0933F0AA7E0A093400AF5E0F093E2
:10337000410AE1E0E093420A1092470A1092460A9D
:103380002093480A3093490A40934A0A50934B0AC3
:103390007093450A6093440A8AE898E09093510A32
:1033A0008093500A8EEC98E09093530A8093520ACF
:1033B0008DEC90E09093550A8093540A8CEC90E049
:1033C0009093570A8093560A88EC90E09093590A9C
:1033D0008093580A89EC90E090935B0A80935A0A94
:1033E0008AEC90E090935D0A80935C0A8EEC90E00A
:1033F00090935F0A80935E0A1093600AB093610A0B
:10340000A093620AF093630AE093640A1092690A37
:103410001092680A20936A0A30936B0A40936C0AF0
:1034200050936D0A7093670A6093660A82E199E08F
:103430009093730A8093720A86E599E09093750AD7
:103440008093740A85ED90E09093770A8093760AD2
:1034500084ED90E09093790A8093780A80ED90E073
:1034600090937B0A80937A0A81ED90E090937D0A95
:1034700080937C0A82ED90E090937F0A80937E0A8D
:1034800086ED90E09093810A8093800A1093820ADF
:10349000B093830AA093840AF093850AE093860A86
:1034A00010928B0A10928A0A20938C0A30938D0A0C
:1034B00040938E0A50938F0A7093890A6093880A0A
:1034C0008AE999E09093950A8093940A8EED99E0A9
:1034D0009093970A8093960A85E391E09093990AD6
:1034E0008093980A84E391E090939B0A80939A0AD0
:1034F00080E391E090939D0A80939C0A81E391E0A0
:1035000090939F0A80939E0A82E391E09093A10A90
:103510008093A00A86E391E09093A30A8093A20A85
:103520001093A40AB093A50AA093A60AF093A70A41
:10353000E093A80A1F910895CF93DF9300D90E94CA
:103540005C07C3EFD6E10E948D012097E1F34BDCCD
:10355000FACFCF92DF92EF92FF920F931F93CF9308
:10356000DF937C016B018A01C0E0D0E00FC0D6017F
:103570006D916D01D701ED91FC910190F081E02DED
:10358000C7011995C80FD91F015010400115110529
:1035900071F7CE01DF91CF911F910F91FF90EF90C6
:1035A000DF90CF900895EF92FF920F931F938C01BD
:1035B000DC01ED91FC910190F081E02D6DE0199519
:1035C0007C01D801ED91FC910190F081E02DC801C2
:1035D0006AE019959C012E0D3F1DC9011F910F91A5
:1035E000FF90EF900895CF93DF93EC016115710583
:1035F00019F420E030E00FC0DB010D900020E9F766
:103600001197A61BB70BE881F9810280F381E02DA9
:10361000AD0119959C01C901DF91CF9108954F9299
:103620005F927F928F929F92AF92BF92CF92DF92E2
:10363000EF92FF920F931F93DF93CF93CDB7DEB737
:10364000A1970FB6F894DEBF0FBECDBF2C01742E2C
:10365000CB01223008F42AE019A231E2C32ED12C8A
:10366000CC0EDD1E822E9924AA24BB24672D752F33
:10367000A501940130D279018A01C801B701A501E1
:103680009401EBD1472D461B0894C108D1084A305C
:1036900014F4405D01C0495CF6014083E114F1047B
:1036A0000105110521F07E2C5F2DC801DFCFC2017D
:1036B000B60199DFA1960FB6F894DEBF0FBECDBF5D
:1036C000CF91DF911F910F91FF90EF90DF90CF90FE
:1036D000BF90AF909F908F907F905F904F90089594
:1036E000DC012115310541F4ED91FC910190F0814F
:1036F000E02D642F1995089592CFCF92DF92EF922B
:10370000FF920F931F936C01E62E9A01FF2400E0B5
:1037100010E0B801A701E4DF8C01C60144DF080F07
:10372000191FC8011F910F91FF90EF90DF90CF906C
:103730000895CF92DF92EF92FF920F931F93CF9352
:10374000DF93EC016A017B012115310541F4E88129
:10375000F9810190F081E02D642F19951DC02A3068
:103760003105C9F477FF16C0E881F9810190F08135
:10377000E02D6DE219958C0144275527BA014C19AB
:103780005D096E097F09CE012AE049DF9801280F03
:10379000391F03C02AE043DF9C01C901DF91CF91AB
:1037A0001F910F91FF90EF90DF90CF900895EF92CF
:1037B000FF920F931F937C01BCDF8C01C701F3DEE6
:1037C0009C01200F311FC9011F910F91FF90EF90B5
:1037D0000895EF92FF920F931F937B019A010027A8
:1037E000F7FC0095102FB801A701A3DF1F910F91DF
:1037F000FF90EF900895CF92DF92EF92FF920F9398
:103800001F936C017B019A010027F7FC0095102F94
:10381000B801A7018EDF8C01C601C5DE080F191F94
:10382000C8011F910F91FF90EF90DF90CF90089506
:10383000DACE0895EF92FF920F931F937C01D3DEAF
:103840008C01C701B0DE080F191FC8011F910F912D
:10385000FF90EF900895FC0144835583668377833E
:103860000895CF93DF93EC010E943813688779871E
:103870008A879B87E881F9810084F185E02DCE015C
:1038800019959C0197FF15C00E943813288539852A
:103890004A855B85621B730B840B950B2C813D81E4
:1038A0004E815F81621773078407950718F32FEF26
:1038B0003FEFC901DF91CF910895CF93DF93EC01E2
:1038C000CE01CFDF9C0197FD0EC08D32910559F0DE
:1038D000C0970A9740F0E881F9810680F781E02DD2
:1038E000CE011995EDCFC901DF91CF9108959F9237
:1038F000AF92BF92CF92DF92EF92FF920F931F93FE
:10390000CF93DF936C01B62ED8DFEC0197FF04C094
:10391000EE24FF2487014AC09924EE24FF24870166
:10392000AB2CBB24A7FCB094CA15DB0521F1CD322A
:10393000D10519F4992493941EC0CE01C0970A971B
:10394000D0F4C801B7012AE030E040E050E085D073
:103950007B018C01CE01AA2797FDA095BA2FE80E16
:10396000F91E0A1F1B1F80ED9FEFAFEFBFEFE80EA0
:10397000F91E0A1F1B1FD601ED91FC910680F781ED
:10398000E02DC6011995C6016CDFEC01C0970A97BE
:1039900058F2CA15DB0541F2992041F010950095C7
:1039A000F094E094E11CF11C011D111DB701C80148
:1039B000DF91CF911F910F91FF90EF90DF90CF900B
:1039C000BF90AF909F90089561E091CF2F923F926A
:1039D0004F925F926F927F928F929F92AF92BF921F
:1039E000CF92DF92EF92FF920F931F93DF93CF93CB
:1039F000CDB7DEB73B014C0119012A016E897F89E1
:103A0000888D998D6A197B098C099D09621A730A40
:103A1000840A950AA401930120D0E218F30804094E
:103A20001509A801970179D02A0D3B1D4C1D5D1D7C
:103A3000B901CA01CF91DF911F910F91FF90EF90D3
:103A4000DF90CF90BF90AF909F908F907F906F90BE
:103A50005F904F903F902F900895629FD001739F89
:103A6000F001829FE00DF11D649FE00DF11D929F1A
:103A7000F00D839FF00D749FF00D659FF00D992759
:103A8000729FB00DE11DF91F639FB00DE11DF91F7D
:103A9000BD01CF0111240895991B79E004C0991F3D
:103AA000961708F0961B881F7A95C9F78095089598
:103AB00097FB092E07260AD077FD04D049D006D0FF
:103AC00000201AF4709561957F4F0895F6F7909550
:103AD00081959F4F0895A1E21A2EAA1BBB1BFD01E1
:103AE0000DC0AA1FBB1FEE1FFF1FA217B307E407DD
:103AF000F50720F0A21BB30BE40BF50B661F771F35
:103B0000881F991F1A9469F7609570958095909514
:103B10009B01AC01BD01CF01089597FB092E05263D
:103B20000ED057FD04D0D7DF0AD0001C38F45095D2
:103B30004095309521953F4F4F4F5F4F0895F6F7D1
:103B400090958095709561957F4F8F4F9F4F089509
:103B5000AA1BBB1B51E107C0AA1FBB1FA617B707B3
:103B600010F0A61BB70B881F991F5A95A9F78095CF
:103B70009095BC01CD010895EE0FFF1F0590F491C3
:103B8000E02D199412E0C6EAD2E003C0FE01F6DF90
:0C3B90002296C83AD107D1F7F894FFCF75
:103B9C0054696C74696E6720746F20736D616C6C02
:103BAC00657220646567726565210054696C74697F
:103BBC006E6720746F206C61726765722064656734
:103BCC00726565210054696C74696E6720746F208E
:103BDC0073616D6520646567726565005A20617854
:103BEC00697320636C6F636B7769736520726F7494
:103BFC0061746520666F723A2000206D696C6C6987
:103C0C007365636F6E647321005A20617869732049
:103C1C00616E7469636C6F636B7769736520726F27
:103C2C007461746520666F723A200057726F6E670C
:103C3C0020706172616D65746572206F66205A2008
:103C4C006178697320726F746174696F6E20746926
:103C5C006D653A20004D6F766520486F6C64657217
:103C6C0020557021004D6F766520486F6C6465722D
:103C7C0020446F776E2100446156696E636920465B
:103C8C0069726D77617265203C76657273696F6ECF
:103C9C0020332E383E005475726E206F6666204EAF
:103CAC006F2E312052656C617920746F20706C75A9
:103CBC006720696E204E6F2E3120555342210054DF
:103CCC0075726E206F6666204E6F2E322052656CB8
:103CDC00617920746F20706C756720696E204E6F4F
:103CEC002E322055534221005475726E206F6E2077
:103CFC004E6F2E312052656C617920746F20706C80
:103D0C007567206F7574204E6F2E312055534221EC
:103D1C00005475726E206F6E204E6F2E32205265DD
:103D2C006C617920746F20706C7567206F757420CE
:103D3C004E6F2E3220555342210053746172742001
:103D4C00717569636B206F6E2D6F6666206F6620D0
:103D5C004E6F2E3120555342210053746F702071D9
:103D6C007569636B206F6E2D6F6666206F66204ED3
:103D7C006F2E31205553422100537461727420719F
:103D8C007569636B206F6E2D6F6666206F66204EB3
:103D9C006F2E3220555342210053746F7020717571
:103DAC0069636B206F6E2D6F6666206F66204E6F99
:103DBC002E32205553422100507265737320746863
:103DCC006520706F77657220627574746F6E210058
:103DDC0052656C656173652074686520706F7765DA
:103DEC007220627574746F6E210053686F72742048
:103DFC0070726573732074686520706F77657220BC
:103E0C00627574746F6E20666F723A20004C6F6E20
:103E1C00672050726573732074686520706F7765C6
:103E2C007220627574746F6E20666F723A20005047
:103E3C006C756720696E20746865206561727068A6
:103E4C006F6E652100506C7567206F7574207468F7
:103E5C00652065617270686F6E65210052656164E2
:103E6C00207374617475733A2072656164790055BE
:103E7C006E6B6E6F776E20617267756D656E743ADE
:103E8C002000464652442049443A2000582D5920DF
:103E9C00617869732074696C74696E6720706C61E9
:103EAC0074652065786973747321005A2061786990
:103EBC00732074696C74696E6720706C6174652012
:103ECC00646F65736E277420657869737421004381
:103EDC00616D65726120686F6C646572206C6966D7
:103EEC00746572206578697374732100506F7765FF
:103EFC00722070757368657220646F65736E2774B9
:103F0C00206578697374210045617270686F6E6505
:103F1C0020706C756767657220646F65736E2774AB
:103F2C00206578697374210055534220637574744D
:103F3C00657220657869737473210052656C6179C0
:103F4C0020636F6E74726F6C6C657220646F657336
:103F5C006E2774206578697374210054686520732A
:103F6C0070656564206F6620736572766F206D6F67
:103F7C00746F72204E6F2E002069733A20005468C3
:103F8C006520616E676C65206F6620736572766F55
:103F9C00206D6F746F72204E6F2E0041726D200079
:103FAC002074696C74696E6720746F206465677225
:103FBC0065653A20002C2073706565643A200041D9
:103FCC00726D203020746F206465677265653A20CD
:103FDC000020232041726D203120746F20646567AE
:103FEC007265653A200020636C6F636B776973654B
:103FFC0020636F6E74696E6F75732D74696C746960
:10400C006E672C2073706565643A200020616E74B5
:10401C0069636C6F636B7769736520636F6E74692A
:10402C006E6F75732D74696C74696E672C20737068
:10403C006565643A2000556E6B6E6F776E20636F0A
:10404C006D6D616E643A2000436F6D6D616E64201E
:10405C006973206E6F742066696E6973686564217C
:10406C00005A005A00000000009311A91A79115847
:10407C001156124512000000002419A91ABA18EBA7
:06408C0018CB1814190006
:00000001FF
