:100000000C94B3000C94DB000C94DB000C944109BD
:100010000C946B090C9495090C94DB000C94DB0098
:100020000C94DB000C94DB000C94DB000C9419089E
:100030000C94DB000C94DB000C94DB000C94DB00D4
:100040000C94580C0C94DB000C94D60D0C94240EDC
:100050000C94DB000C94DB000C94DB000C94DB00B4
:100060000C94DB000C94DB0000C2010001001100C5
:1000700011000C0000E100000A002500250021000D
:10008000009600001900390039003600127A00008D
:100090001F004600460044008070000022004D0012
:1000A0004D004A00004B00003600750075007200DC
:1000B000403800004A009C009C0099008025000008
:1000C0007200EC00EC00E900C0120000E900DA0167
:1000D000DA01D70160090000D701B603B603B30304
:1000E000B0040000B3036E076E076B0758020000F0
:1000F0006E07DC0EDC0ED80E2C010000DC0EC11DDC
:10010000C11DBE1D00000000240027002A000000C1
:100110000000250028002B0000000000230026001E
:10012000290004040404040404040202020202027A
:1001300003030303030301020408102040800102AB
:10014000040810200102040810200000000700022B
:100150000100000304060000000000000000DD00B4
:10016000E704920FE00411241FBECFEFD8E0DEBFFA
:10017000CDBF14E0A0E0B1E0E8E4F6E202C00590F3
:100180000D92A039B107D9F715E0A0E9B4E001C09C
:100190001D92A33DB107E1F711E0C4E6D1E004C030
:1001A0002297FE010E941313CE35D107C9F70E9492
:1001B000E80F0C9417130C94000080E994E00E945F
:1001C000BE0484E994E00E94D50687E994E00E9489
:1001D000D5060895AF92BF92CF92DF92EF92FF9231
:1001E0000F931F93CF93DF9331C381EB95E00E9470
:1001F00035125B016C0181EB95E00E94170F0A97A5
:1002000041F081EB95E00E94170F8F5F9F4F09F03F
:1002100026C3ED2C1127E7FC1095F12E012F80E766
:10022000E816F10401051105E9F5CC2DD0E08501B2
:10023000FE01EE0FFF1FE459FB4F0190F081E02D0E
:10024000AE16BF0651F17E010894E11CF11C5CE37F
:10025000C52ED12CCA0CDB1CAE16BF062CF481EBCC
:1002600095E060E071E004C081EB95E06BE071E047
:100270000E946B1181EB95E00E94400F80E994E0B1
:10028000B701A60126E930E00E940E06CC0FDD1F63
:10029000C459DB4F19830883D9C281EB95E066E12D
:1002A00071E0E1C292E6E916F1040105110509F0D9
:1002B00072C08C2D90E09C01E501892B01F5B7FC03
:1002C00052C081EB95E060E271E00E94681181EB21
:1002D00095E0B5014AE050E00E94361181EB95E0CF
:1002E0006EE371E00E946B1181EB95E00E94400F7C
:1002F00082E061E00E94810D83E060E022C0213055
:10030000310589F5B7FC2FC081EB95E06DE471E014
:100310000E94681181EB95E0B5014AE050E00E942F
:10032000361181EB95E06EE371E00E946B1181EB79
:1003300095E00E94400F82E060E00E94810D83E022
:1003400061E00E94810DBE01882777FD8095982F7E
:100350000E94AE0C82E060E00E94810D83E060E0CC
:100360000E94810D79C181EB95E06FE671E00E94FA
:10037000681181EB95E0BE014AE050E00E94361121
:1003800081EB95E06EE371E00E946B1181EB95E0EB
:100390000E94400F61C1A1E7EA16F10401051105B1
:1003A00009F053C08C2D90E09C01E501892BB9F434
:1003B0001A141B047CF5C630D10564F581EB95E079
:1003C00069E971E00E946B1181EB95E00E94400F9A
:1003D00085E061E00E94810D86E060E019C0213077
:1003E0003105C1F41A141B04ACF4C630D10594F4E1
:1003F00081EB95E069EA71E00E946B1181EB95E079
:100400000E94400F85E060E00E94810D86E061E07F
:100410000E94810D00E010E008C06CE271E080E015
:1004200090E00E94AE0C0F5F1F4F0C171D07ACF33E
:1004300085E060E00E94810D86E060E00E94810D11
:1004400068E572E080E090E00BC1B2E7EB16F104E2
:100450000105110529F481EB95E06BEB71E003C216
:1004600025E7E216F1040105110561F481EB95E041
:100470006AED71E00E946B1181EB95E00E94400FE4
:1004800084E011C087E7E816F1040105110569F45D
:1004900081EB95E063E072E00E946B1181EB95E0E7
:1004A0000E94400F87E060E024C096E7E916F1045F
:1004B0000105110561F481EB95E06CE272E00E94A8
:1004C0006B1181EB95E00E94400F84E011C0A8E71A
:1004D000EA16F1040105110579F481EB95E065E573
:1004E00072E00E946B1181EB95E00E94400F87E063
:1004F00061E00E94810DAAC1B9E7EB16F104010584
:10050000110579F481EB95E06EE772E00E946B11C2
:1005100081EB95E00E94400F84E994E06CE370E089
:1005200099C02AE7E216F1040105110559F481EB9F
:1005300095E066E972E00E946B1181EB95E00E9404
:10054000400F5AC080E6E816F1040105110541F597
:1005500081EB95E060EB72E00E946811E501AB2849
:1005600011F4C0E9D1E081EB95E0BE014AE050E032
:100570000E94361181EB95E06EE371E00E946B11F1
:1005800081EB95E00E94400F84E994E06CE370E019
:100590000E942B07BE01882777FD8095982F2AC0DF
:1005A00091E6E916F1040105110559F581EB95E095
:1005B00063ED72E00E946811750181EB95E0B50171
:1005C0004AE050E00E94361181EB95E06EE371E065
:1005D0000E946B1181EB95E00E94400F84E994E04A
:1005E0006CE370E00E942B070027F7FC0095102FAA
:1005F000C801B7010E94AE0C84E994E060E570E0A8
:1006000029C0A3E7EA16F1040105110579F481EB8D
:1006100095E065EF72E00E946B1181EB95E00E941E
:10062000400F87E994E062E570E014C0B4E7EB1690
:10063000F10401051105B9F481EB95E06BE073E07D
:100640000E946B1181EB95E00E94400F87E994E0D6
:1006500060E770E00E942B076FE070E080E090E0C0
:100660000E94AE0CF3C02BE7E216F1040105110560
:1006700029F481EB95E062E273E0F5C08CE7E816BF
:10068000F1040105110511F5A114B10461F481EB28
:1006900095E06AE54AE050E00E94D01081EB95E0D9
:1006A0000E942110CFC081EB95E065E373E00E94CA
:1006B00068118FEF9FEFA0E0B0E0A822B922CA2214
:1006C000DB2281EB95E0B601A501B8C093E6E916FF
:1006D000F1040105110509F043C08501AB2859F467
:1006E00081EB95E068E473E00E94681181EB95E08E
:1006F00060E070E08FC00130110529F481EB95E0D6
:1007000062E573E0B0C00230110529F481EB95E099
:1007100061E773E0A8C00330110529F481EB95E08F
:1007200065E973E0A0C00430110529F481EB95E080
:1007300062EB73E098C00530110529F481EB95E078
:100740006EEC73E090C00630110529F481EB95E062
:100750006EEE73E088C081EB95E065E373E055C011
:10076000ADE7EA16F1040105110519F5C501019778
:100770003FEFE32E3FEFF32E012D112DEA20FB205A
:100780000C211D21029708F04AC081EB95E061E041
:1007900074E00E94681181EB95E0B801A7012AE09E
:1007A00030E00E94E21080E994E0B5010E94EE047E
:1007B00027C0BEE7EB16F10401051105A9F5C50137
:1007C00001972FEFE22E2FEFF22E012D112DEA20AF
:1007D000FB200C211D21029710F581EB95E064E2CE
:1007E00074E00E94681181EB95E0B801A7012AE04E
:1007F00030E00E94E21080E994E0B5010E947E059D
:100800008C0181EB95E06EE174E00E94681181EB50
:1008100095E0B8014AE050E00E94491113C081EB15
:1008200095E065E373E004C081EB95E061E474E07A
:100830000E94681181EB95E0B801A7012AE030E041
:100840000E94221181EB95E00E94400F81EB95E020
:100850000E94E60E181619060CF4C7CC07C081EBEF
:1008600095E063E574E00E946B11ECCFDF91CF91CE
:100870001F910F91FF90EF90DF90CF90BF90AF90BE
:10088000089580E994E040E05BE460E070E00E945D
:10089000D00680E994E061E070E046E950E026E9A6
:1008A00030E00E940E066AE070E080E090E00E9476
:1008B000AE0C80E994E062E070E046E950E026E9A1
:1008C00030E00E940E0684E994E069E070E00E9446
:1008D000120884E994E060E570E00E942B0787E944
:1008E00094E06AE070E00E94120887E994E060E713
:1008F00070E00E942B0781EB95E040E855E260E054
:1009000070E00E945F0E81EB95E00E94900F8823BB
:10091000D1F381EB95E00E94400F85E061E00E94F9
:10092000420D86E061E00E94420D85E060E00E9499
:10093000810D86E060E00E94810D84E061E00E940C
:10094000420D87E061E00E94420D84E060E00E9479
:10095000810D87E060E00E94810D82E061E00E94ED
:10096000420D83E061E00E94420D82E060E00E945F
:10097000810D83E060E00E94810D0895FC0186E90D
:1009800090E09183808380EF90E093838283089549
:100990008130910559F46F5F7F4F89F48AE994E0C3
:1009A0006BE04CE020E00E942A0C0895892B39F47A
:1009B0006F5F7F4F21F48AE994E00E94B10A0895A5
:1009C00080E090E06FEF7FEF0E94C804089581E01F
:1009D00090E06FEF7FEF0E94C8040895AF92BF923E
:1009E000CF92DF92EF92FF920F931F93DF93CF93FB
:1009F000CDB7DEB7A8970FB6F894DEBF0FBECDBF58
:100A0000162F8AE994E06FEF0E94F50A8AE994E0D4
:100A10006FEF0E94F50A8AE994E0612F0E94F50ABF
:100A20008AE994E064E00E94F50A8AE994E062E0D1
:100A30000E94F50A8AE994E066E20E94F50A8AE9D2
:100A400094E062E00E94F50A125D10958AE994E054
:100A5000612F0E94F50A6AE070E080E090E00E9459
:100A6000AE0C8E010F5F1F4F08C08AE994E00E9410
:100A7000BA0AF801819391938F018AE994E00E9468
:100A8000DB0A892B91F700D000D07D8560E02B85B3
:100A90003C85620F731F882777FD8095982F2CE285
:100AA00031E040E050E0EDB7FEB72183328343836D
:100AB000548320E030E040E050E0BFEFEB2EB3E0A5
:100AC000FB2E012D112DAA24BB2465010E94391291
:100AD0000F900F900F900F90CB01A8960FB6F8943F
:100AE000DEBF0FBECDBFCF91DF911F910F91FF9061
:100AF000EF90DF90CF90BF90AF900895AF92BF92EC
:100B0000CF92DF92EF92FF920F931F93DF93CF93D9
:100B1000CDB7DEB7A8970FB6F894DEBF0FBECDBF36
:100B2000162F8AE994E06FEF0E94F50A8AE994E0B3
:100B30006FEF0E94F50A8AE994E0612F0E94F50A9E
:100B40008AE994E064E00E94F50A8AE994E062E0B0
:100B50000E94F50A8AE994E064E20E94F50A8AE9B3
:100B600094E062E00E94F50A145D10958AE994E031
:100B7000612F0E94F50A6AE070E080E090E00E9438
:100B8000AE0C8E010F5F1F4F08C08AE994E00E94EF
:100B9000BA0AF801819391938F018AE994E00E9447
:100BA000DB0A892B91F700D000D07D8560E02B8592
:100BB0003C85620F731F882777FD8095982F2CE264
:100BC00031E040E050E0EDB7FEB72183328343834C
:100BD000548320E030E040E050E01FEFE12E13E0CE
:100BE000F12E012D112DAA24BB2465010E9439127A
:100BF0000F900F900F900F90CB01A8960FB6F8941E
:100C0000DEBF0FBECDBFCF91DF911F910F91FF903F
:100C1000EF90DF90CF90BF90AF9008952F923F92CA
:100C20004F925F926F927F928F929F92AF92BF92FC
:100C3000CF92DF92EF92FF920F931F93DF93CF93A8
:100C400000D000D00F92CDB7DEB76B833A0100D051
:100C500000D0442737FD4095542FFFEF2F2EF3E0AF
:100C60003F2E412C512CEDB7FEB7218232824382B8
:100C70005482CA01B90120E030E040E050E0ECE2EB
:100C8000EE2EE1E0FE2E012D112DAA24BB246501DC
:100C90000E9439126C837D8369837A83882477FC70
:100CA0008094982CEDB7FEB7218232824382548221
:100CB000C401B30120E030E040E050E00E9439126E
:100CC000162F072F78010F900F900F900F908AE941
:100CD00094E06FEF0E94F50A8AE994E06FEF0E94BA
:100CE000F50A8AE994E06B810E94F50A8AE994E0AA
:100CF00067E00E94F50A8AE994E063E00E94F50A41
:100D00008AE994E06EE10E94F50A8AE994E0612F95
:100D10000E94F50A8AE994E0602F0E94F50A8AE9A8
:100D200094E06C810E94F50A8AE994E06D810E944A
:100D3000F50AFB81F85DFF0D8981F80FFE0D9A81A0
:100D4000F90FF0958AE994E06F2F0E94F50A6AE0A6
:100D500070E080E090E00E94AE0C04C08AE994E06C
:100D60000E94BA0A8AE994E00E94DB0A892BB1F753
:100D70000F900F900F900F900F90CF91DF911F91D8
:100D80000F91FF90EF90DF90CF90BF90AF909F902A
:100D90008F907F906F905F904F903F902F9008952D
:100DA0008AE994E00E94BF090895FC018091B6048D
:100DB0008C3090F480838F5F8093B604815090E0F4
:100DC000FC01EE0FFF1FE80FF91FE954FB4F88EB02
:100DD0009BE09283818308958FEF80830895FC01C7
:100DE00020812C30B8F58181992787FD909548E8BE
:100DF00050E0481B590B440F551F440F551F6417F3
:100E0000750784F08281992787FD909548E552E027
:100E1000481B590B440F551F440F551F6417750786
:100E20000CF4AB0142505040CA01AA2797FDA0958F
:100E3000BA2F880F991FAA1FBB1F4FB7F89430E035
:100E4000F901EE0FFF1FE20FF31FE954FB4F9283EE
:100E500081834FBF0895AF92BF92CF92DF92EF92FE
:100E6000FF920F931F93CF93DF93EC019B0182E0DE
:100E7000603278070CF048C077FF03C020E030E014
:100E800005C0653B710514F024EB30E000D000D0C4
:100E9000B901882777FD8095982F2981332727FD71
:100EA0003095E8E8AE2EB12CA21AB30AAA0CBB1CEE
:100EB000AA0CBB1CCC24B7FCC094DC2CEA81FF2715
:100EC000E7FDF09528E532E02E1B3F0B220F331F84
:100ED000220F331F442737FD4095542FEDB7FEB73F
:100EE000218332834383548320E030E040E050E0AC
:100EF00004EBE02EF12C012D112D0E9439129B01E3
:100F00000F900F900F900F90CE01B9010E94EF0645
:100F1000DF91CF911F910F91FF90EF90DF90CF90D5
:100F2000BF90AF900895CF92DF92EF92FF921F9300
:100F3000CF93DF93EC01162F7A01690188818C3001
:100F400008F064C0862F61E00E94420D888190E025
:100F5000FC01EE0FFF1FE80FF91FE954FB4F1F7351
:100F60008081807C812B808380E292E08E199F09B2
:100F700064E070E00E94AD12698380E699E08C190C
:100F80009D0964E070E00E94AD126A83A8818A2FF7
:100F90006CE00E94A112682F70E0AB01440F551F56
:100FA000460F571F440F551F440F551F20E030E0D8
:100FB000C901840F951FFC01EE0FFF1FE80FF91FF9
:100FC000E954FB4F808186FD15C02F5F3F4F2C30C9
:100FD000310571F724C01092800082E08093810077
:100FE0001092850010928400B19A80916F00826007
:100FF00080936F008A2F90E0FC01EE0FFF1FE80F37
:10100000F91FE954FB4F8081806480838881DF91E0
:10101000CF911F91FF90EF90DF90CF900895672BB5
:10102000D1F2E8CF40E252E020E639E00E94930797
:1010300008951F920F920FB60F9211242F933F9392
:101040004F935F936F937F938F939F93AF93BF93D0
:10105000EF93FF938091DB0487FF05C0109285001A
:10106000109284002BC02091DB04332727FD30959C
:101070008091B60490E02817390704F58091DB04CD
:10108000992787FD9095FC01EE0FFF1FE80FF91FD0
:10109000E954FB4F808186FF11C08091DB049927C2
:1010A00087FD9095FC01EE0FFF1FE80FF91FE95433
:1010B000FB4F80818F7360E00E94810D8091DB0483
:1010C0008F5F8093DB042091DB04332727FD30956D
:1010D0008091B60490E0281739070CF04EC080913B
:1010E000DB048C300CF049C02091840030918500E5
:1010F0008091DB04992787FD9095FC01EE0FFF1F7F
:10110000E80FF91FE954FB4F81819281280F391FA5
:1011100030938900209388008091DB04992787FD14
:101120009095FC01EE0FFF1FE80FF91FE954FB4FEC
:10113000808186FF2BC08091DB04992787FD9095E5
:10114000FC01EE0FFF1FE80FF91FE954FB4F8081F0
:101150008F7361E00E94810D19C080E49CE905C095
:1011600080918400909185000496909389008093EB
:1011700088008FEF8093DB0409C0809184009091F8
:101180008500049680549C4940F3EACFFF91EF918B
:10119000BF91AF919F918F917F916F915F914F918F
:1011A0003F912F910F900FBE0F901F9018950F93A6
:1011B0001F93CF93DF93FC01738D76957170A68595
:1011C000B7859585772329F08C91892309F454C03C
:1011D00004C08C91892309F04FC08389948920E051
:1011E00001972FEF8F3F9207D9F7C589D689A6853A
:1011F000B785158560E031E040E050E000E0CE01C9
:10120000202F01972FEF8F3F9207D9F78C918123E1
:1012100011F0632B03C0832F80956823330F4F5F3A
:101220005F4F4830510559F78789908D20E001972D
:101230002FEF8F3F9207D9F77111609580911E05AE
:1012400020911F0590E001968F73907030E0821717
:10125000930779F0E0911E05F0E0E252FB4F6083C6
:1012600080911E0590E001968F73907080931E050B
:1012700003C0838D8160838FDF91CF911F910F9188
:1012800008951F920F920FB60F9211242F933F9340
:101290004F935F936F937F938F939F93AF93BF937E
:1012A000EF93FF938091DC049091DD04009711F09F
:1012B0000E94D708FF91EF91BF91AF919F918F91BD
:1012C0007F916F915F914F913F912F910F900FBE42
:1012D0000F901F9018951F920F920FB60F92112426
:1012E0002F933F934F935F936F937F938F939F932E
:1012F000AF93BF93EF93FF938091DC049091DD0453
:10130000009711F00E94D708FF91EF91BF91AF9124
:101310009F918F917F916F915F914F913F912F910D
:101320000F900FBE0F901F9018951F920F920FB63F
:101330000F9211242F933F934F935F936F937F935B
:101340008F939F93AF93BF93EF93FF938091DC04B0
:101350009091DD04009711F00E94D708FF91EF9162
:10136000BF91AF919F918F917F916F915F914F91BD
:101370003F912F910F900FBE0F901F901895CF9215
:10138000DF92EF92FF920F931F93CF93DF93EC01C5
:101390007A018B011A8E198E188E1F8A1E8A1D8A59
:1013A0001C8A1B8A20E030E06901CC0CDD1CC20ED7
:1013B000D31EB601660F771F660F771FAB01485922
:1013C0005F4FFA0185919591A591B4918E159F0576
:1013D000A007B107E9F4FB01E459FF4F859194910F
:1013E0009C8B8B8BFB01E259FF4F859194919E8BD7
:1013F0008D8BFB01E059FF4F85919491988F8F8BD6
:10140000FB01EE58FF4F859194919A8F898F06C00A
:101410002F5F3F4F2D30310509F0C6CF8F89988D52
:10142000892B09F449C04C85463108F03DC09091A4
:101430006800483010F484E005C04E3010F082E0BF
:1014400001C081E0892B80936800483028F4EDE6E4
:10145000F0E0ADE6B0E00BC04E3028F0ECE6F0E096
:10146000ACE6B0E004C0EBE6F0E0ABE6B0E0508103
:10147000483040F481E090E002C0880F991F4A95FF
:10148000E2F710C0242F30E04E3018F428503040DE
:1014900002C02E50304081E090E002C0880F991FBA
:1014A0002A95E2F7852B8C93898D9A8D20E0019700
:1014B0002FEF8F3F9207D9F78091DC049091DD04E4
:1014C0008C179D0781F08B8D8E7F8B8F9FB7F89443
:1014D00010921E0580911E0580931F05D093DD0498
:1014E000C093DC049FBFDF91CF911F910F91FF90BC
:1014F000EF90DF90CF900895FC014485463180F550
:10150000483028F4EDE6F0E0ADE6B0E00BC04E3038
:1015100028F4EBE6F0E0ABE6B0E004C0ECE6F0E087
:10152000ACE6B0E05081483040F481E090E002C089
:10153000880F991F4A95E2F710C0242F30E04E30F3
:1015400018F42850304002C02E50304081E090E026
:1015500002C0880F991F2A95E2F7809585238C9306
:101560000895FC0184E794E091838083CF010E9479
:101570007C0A08952091DC043091DD042817390796
:1015800031F490911F0580911E05981719F42FEFE3
:101590003FEF0FC0E0911F05F0E0E252FB4F2081CA
:1015A00080911F0590E001968F73907080931F05C6
:1015B00030E0C90108952091DC043091DD04281742
:1015C000390719F020E030E00EC080911E0520910F
:1015D0001F0590E0805C9F4F821B910960E470E0E2
:1015E0000E94AD129C01C90108950F931F93DC0165
:1015F00059968D919C915A97892B49F481E090E0FE
:1016000013969C938E93129720E030E097C00FB70B
:10161000F8945B968C915B975196ED91FC91529763
:1016200050962C91509781FF8DC08081822B8083B2
:1016300059968D919C915A97059620E001972FEF2E
:101640008F3F9207D9F75B968C915B9781FF35C0EE
:1016500031E040E050E070E010E0832F90E086231E
:1016600097235196ED91FC91529750962C9150975B
:10167000892B29F0808120952823208303C0808135
:10168000822B808359968D919C915A97212F019797
:101690002FEF8F3F9207D9F7330F4F5F5F4F4830DF
:1016A0005105D9F65196ED91FC9152979081509643
:1016B0008C9150978095892333C031E040E050E011
:1016C00070E010E0832F90E0862397235196ED91F0
:1016D000FC91529750962C915097892B21F0808144
:1016E000822B808304C080812095282320835996F3
:1016F0008D919C915A97212F01972FEF8F3F920741
:10170000D9F7330F4F5F5F4F48305105D9F65196E7
:10171000ED91FC915297808150969C915097892B26
:1017200080830FBF59968D919C915A9720E0019725
:101730002FEF8F3F9207D9F721E030E0C9011F91C9
:101740000F910895808120952823208371CF2091C7
:10175000DC043091DD042817390749F49FB7F89469
:1017600010921E0580911E0580931F059FBF08954E
:101770002091DC043091DD042817390731F4909171
:101780001F0580911E05981719F42FEF3FEF0AC02F
:10179000E0911F05F0E0E252FB4F8081282F3327B4
:1017A00027FD3095C90108951F93CF93DF93EC0176
:1017B000162F862F60E00E94420D8B8D81FD04C0A4
:1017C000812F61E00E94810D1C87212F30E0C9012B
:1017D0008A5C9E4FFC0184918D872E5D3E4FF901FE
:1017E0006491E62FF0E0EE0FFF1FE85EFE4F85915B
:1017F00094919F878E87DF91CF911F910895FF92DB
:101800000F931F938C01F62E862F61E00E94420DEC
:101810008F2D61E00E94810D8F2D90E0FC01EA5C2C
:10182000FE4FE491D8015096EC9350978E5D9E4FF9
:10183000FC016491E62FF0E0EE0FFF1FE25FFE4F28
:101840008591949152969C938E9351971F910F91ED
:10185000FF900895FF920F931F938C01F62EFC01C9
:101860001382128288EE93E0A0E0B0E08483958337
:10187000A683B78384E794E091838083148A138AD4
:10188000168A158A108E178A128E118E838D2170FA
:10189000220F8C7F822B838FC801642F0E94FF0B45
:1018A000C8016F2D0E94D40B1F910F91FF900895D6
:1018B0001F920F920FB60F9211242F933F938F9385
:1018C0009F93AF93BF938091240590912505A0919C
:1018D0002605B0912705309128050196A11DB11D5F
:1018E000232F2D5F2D3720F02D570196A11DB11DFF
:1018F000209328058093240590932505A093260521
:10190000B09327058091200590912105A091220593
:10191000B09123050196A11DB11D809320059093E0
:101920002105A0932205B0932305BF91AF919F910C
:101930008F913F912F910F900FBE0F901F90189590
:101940008FB7F89420912405309125054091260504
:10195000509127058FBFB901CA0108959B01AC01C1
:101960007FB7F8948091200590912105A0912205E0
:10197000B091230566B5A89B05C06F3F19F001968D
:10198000A11DB11D7FBFBA2FA92F982F8827860FC1
:10199000911DA11DB11D62E0880F991FAA1FBB1FD9
:1019A0006A95D1F7BC012DC0FFB7F894809120054E
:1019B00090912105A0912205B0912305E6B5A89B41
:1019C00005C0EF3F19F00196A11DB11DFFBFBA2F51
:1019D000A92F982F88278E0F911DA11DB11DE2E020
:1019E000880F991FAA1FBB1FEA95D1F7861B970B7B
:1019F000885E9340C8F221503040404050406851CA
:101A00007C4F211531054105510571F608957894F3
:101A100084B5826084BD84B5816084BD85B58260F3
:101A200085BD85B5816085BDEEE6F0E08081816091
:101A30008083E1E8F0E01082808182608083808191
:101A400081608083E0E8F0E0808181608083E1EB69
:101A5000F0E0808184608083E0EBF0E08081816051
:101A60008083EAE7F0E08081846080838081826007
:101A700080838081816080838081806880831092F0
:101A8000C1000895CF93DF93482F50E0CA018A5CCC
:101A90009E4FFC0134914E5D5E4FFA018491882384
:101AA00069F190E0880F991FFC01EC5FFE4FA59152
:101AB000B491FC01E25FFE4FC591D491662351F4CD
:101AC0002FB7F8948C91932F909589238C938881CC
:101AD00089230BC0623061F42FB7F8948C91932F57
:101AE000909589238C938881832B88832FBF06C090
:101AF0009FB7F8948C91832B8C939FBFDF91CF91EC
:101B00000895482F50E0CA01865B9E4FFC01249146
:101B1000CA018A5C9E4FFC0194914E5D5E4FFA01B2
:101B20003491332309F440C0222351F1233071F062
:101B3000243028F42130A1F0223011F514C02630D1
:101B4000B1F02730C1F02430D9F404C08091800076
:101B50008F7703C0809180008F7D8093800010C0BC
:101B600084B58F7702C084B58F7D84BD09C0809114
:101B7000B0008F7703C08091B0008F7D8093B0005C
:101B8000E32FF0E0EE0FFF1FE25FFE4FA591B4914F
:101B90002FB7F894662321F48C919095892302C085
:101BA0008C91892B8C932FBF089508951F920F92CB
:101BB0000FB60F9211242F933F934F938F939F93C0
:101BC000EF93FF938091C00082FD1DC04091C6003D
:101BD0002091690530916A052F5F3F4F2F73307058
:101BE00080916B0590916C052817390771F0E09191
:101BF0006905F0916A05E75DFA4F408330936A0505
:101C00002093690502C08091C600FF91EF919F91DA
:101C10008F914F913F912F910F900FBE0F901F907A
:101C20001895E091BD05F091BE05E05CFF4F8191F4
:101C3000919120813181821B930B8F739070892B3E
:101C400011F00E94D50D08951F920F920FB60F92BA
:101C500011242F933F938F939F93EF93FF932091A2
:101C6000AD053091AE058091AF059091B005281774
:101C7000390731F48091C1008F7D8093C10014C079
:101C8000E091AF05F091B005E359FA4F20818091C2
:101C9000AF059091B00501968F7390709093B00549
:101CA0008093AF052093C600FF91EF919F918F9194
:101CB0003F912F910F900FBE0F901F901895AF92EC
:101CC000BF92DF92EF92FF920F931F93CF93DF9318
:101CD000EC017A018B01DD24403081EE580780E071
:101CE000680780E0780711F0DD24D39491E0A92EF5
:101CF000B12CEC89FD89DD2069F0C50108A002C086
:101D0000880F991F0A94E2F7808360E079E08DE301
:101D100090E005C0108260E874E88EE190E0A801D0
:101D200097010E94C01221503040404050405695CB
:101D300047953795279580E12030380720F0DD2042
:101D400011F0DD24D6CFE889F9893083EA89FB894F
:101D5000208319A2EE89FF89408121E030E0C9018A
:101D60000C8C02C0880F991F0A94E2F7482B40831D
:101D7000EE89FF894081C9010D8C02C0880F991F2F
:101D80000A94E2F7482B4083EE89FF894081C9011C
:101D90000E8C02C0880F991F0A94E2F7482B4083EB
:101DA000EE89FF8980810F8C02C0220F331F0A94B5
:101DB000E2F7209528232083DF91CF911F910F9187
:101DC000FF90EF90DF90BF90AF900895DC011C96DC
:101DD000ED91FC911D97E05CFF4F21913191808145
:101DE0009181281B390B2F733070C9010895DC01D4
:101DF0001C96ED91FC911D97E05CFF4F2081318195
:101E0000E054F040DF01AE5BBF4F8D919C91119784
:101E10002817390719F42FEF3FEF07C08D919C91D8
:101E2000E80FF91F8081282F30E0C9010895DC01F7
:101E30001C96ED91FC911D97E05CFF4F2081318154
:101E4000E054F040DF01AE5BBF4F8D919C91119744
:101E50002817390719F42FEF3FEF10C08D919C918F
:101E60001197E80FF91F20818D919C911197019690
:101E70008F73907011969C938E9330E0C9010895F2
:101E8000DC0191968C919197882339F05496ED91CD
:101E9000FC915597808186FFF9CF91961C92089509
:101EA000CF93DF93EC01EE85FF85E05CFF4F20814F
:101EB0003181E054F0402F5F3F4F2F733070DF01CE
:101EC000AE5BBF4F8D919C91119728173907D1F3C5
:101ED000E05CFF4F80819181E054F040E80FF91FF2
:101EE0006083EE85FF85E05CFF4F31832083EE89C0
:101EF000FF89208181E090E00F8C02C0880F991F3C
:101F00000A94E2F7282B208381E089A3EC89FD89DC
:101F100080818064808381E090E0DF91CF9108959B
:101F200081E008951092B4051092B30588EE93E015
:101F3000A0E0B0E08093B5059093B605A093B705F7
:101F4000B093B80584E894E09093B2058093B1050E
:101F500089E295E09093BE058093BD058DE695E0FE
:101F60009093C0058093BF0585EC90E09093C205E7
:101F70008093C10584EC90E09093C4058093C305E1
:101F800080EC90E09093C6058093C50581EC90E0CD
:101F90009093C8058093C70582EC90E09093CA05A2
:101FA0008093C90586EC90E09093CC058093CB0597
:101FB00084E08093CD0583E08093CE0587E0809315
:101FC000CF0585E08093D00581E08093D105089509
:101FD000CF93DF930E94070D0E944104C1E1DEE030
:101FE0000E94EA002097E1F30E94110EF9CFCF92F0
:101FF000DF92EF92FF920F931F93CF93DF937C01B9
:102000006B018A01C0E0D0E00FC0D6016D916D0177
:10201000D701ED91FC910190F081E02DC701099568
:10202000C80FD91F015010400115110571F7CE01DD
:10203000DF91CF911F910F91FF90EF90DF90CF90A4
:102040000895EF92FF920F931F938C01DC01ED91A5
:10205000FC910190F081E02D6DE009957C01D801A3
:10206000ED91FC910190F081E02DC8016AE00995A5
:102070009C012E0D3F1DC9011F910F91FF90EF9004
:102080000895CF93DF93EC016115710519F420E0F9
:1020900030E00FC0DB010D900020E9F71197A61B7F
:1020A000B70BE881F9810280F381E02DAD0109953C
:1020B0009C01C901DF91CF9108954F925F927F9269
:1020C0008F929F92AF92BF92CF92DF92EF92FF9248
:1020D0000F931F93DF93CF93CDB7DEB7A1970FB6C2
:1020E000F894DEBF0FBECDBF2C01742ECB01223081
:1020F00008F42AE019A231E2C32ED12CCC0EDD1E49
:10210000822E9924AA24BB24672D752FA501940142
:102110000E94C01279018A01C801B701A50194018A
:102120000E948212472D461B0894C108D1084A30EC
:1021300014F4405D01C0495CF6014083E114F104F0
:102140000105110521F07E2C5F2DC801DDCFC201F4
:10215000B6010E944110A1960FB6F894DEBF0FBEE3
:10216000CDBFCF91DF911F910F91FF90EF90DF9046
:10217000CF90BF90AF909F908F907F905F904F9047
:102180000895DC012115310541F4ED91FC91019098
:10219000F081E02D642F099508950E945D10089547
:1021A000EF92FF920F931F939A01E62EFF2400E017
:1021B00010E0B801A7010E94C1101F910F91FF907C
:1021C000EF900895CF92DF92EF92FF920F931F93BB
:1021D000CF93DF93EC016A017B012115310541F4B6
:1021E000E881F9810190F081E02D642F09951FC0ED
:1021F0002A303105D1F477FF17C0E881F9810190C9
:10220000F081E02D6DE209958C0144275527BA0134
:102210004C195D096E097F09CE012AE00E945D100C
:102220009801280F391F04C02AE00E945D109C010C
:10223000C901DF91CF911F910F91FF90EF90DF9037
:10224000CF900895EF92FF920F931F937C010E940D
:10225000E2108C01C7010E9421109C01200F311F48
:10226000C9011F910F91FF90EF900895EF92FF9297
:102270000F931F937B019A010027F7FC0095102F05
:10228000B801A7010E94E2101F910F91FF90EF90FB
:102290000895CF92DF92EF92FF920F931F936C01FC
:1022A0007B019A010027F7FC0095102FB801A701C8
:1022B0000E94E2108C01C6010E942110080F191F14
:1022C000C8011F910F91FF90EF90DF90CF9008957C
:1022D0000E9441100895EF92FF920F931F937C018B
:1022E0000E9441108C01C7010E942110080F191F84
:1022F000C8011F910F91FF90EF900895CF93DF9346
:10230000EC010E94A00C688779878A879B87E88107
:10231000F9810084F185E02DCE0109959C0197FF9C
:1023200015C00E94A00C288539854A855B85621BF3
:10233000730B840B950B2C813D814E815F8162175D
:1023400073078407950718F32FEF3FEFC901DF915B
:10235000CF910895CF93DF93EC01CE010E947E11BF
:102360009C0197FD0EC08D32910559F0C0970A97D8
:1023700040F0E881F9810680F781E02DCE010995D2
:10238000ECCFC901DF91CF9108959F92AF92BF9298
:10239000CF92DF92EF92FF920F931F93CF93DF9331
:1023A0006C01B62E0E94AA11EC0197FF04C0EE2426
:1023B000FF2487014CC09924EE24FF248701AB2C15
:1023C000BB24A7FCB094CA15DB0529F1CD32D10599
:1023D00019F4992493941FC0CE01C0970A97D8F49A
:1023E000C801B7012AE030E040E050E00E948212CC
:1023F0007B018C01CE01AA2797FDA095BA2FE80E8C
:10240000F91E0A1F1B1F80ED9FEFAFEFBFEFE80E15
:10241000F91E0A1F1B1FD601ED91FC910680F78162
:10242000E02DC6010995C6010E947E11EC01C097FE
:102430000A9748F2CA15DB0531F2992041F0109550
:102440000095F094E094E11CF11C011D111DB701F1
:10245000C801DF91CF911F910F91FF90EF90DF9016
:10246000CF90BF90AF909F90089561E00E94C511FA
:1024700008952F923F924F925F926F927F928F9228
:102480009F92AF92BF92CF92DF92EF92FF920F9303
:102490001F93DF93CF93CDB7DEB73B014C011901FA
:1024A0002A016D897E898F89988D6A197B098C092B
:1024B0009D09621A730A840A950AA40193010E9475
:1024C0008212E218F30804091509A80197010E9475
:1024D000E2122A0D3B1D4C1D5D1DB901CA01CF91B1
:1024E000DF911F910F91FF90EF90DF90CF90BF9001
:1024F000AF909F908F907F906F905F904F903F90A4
:102500002F900895629FD001739FF001829FE00D8C
:10251000F11D649FE00DF11D929FF00D839FF00D62
:10252000749FF00D659FF00D9927729FB00DE11D0E
:10253000F91F639FB00DE11DF91FBD01CF011124EB
:102540000895991B79E004C0991F961708F0961B0F
:10255000881F7A95C9F78095089597FB092E07265D
:102560000AD077FD04D049D006D000201AF4709527
:1025700061957F4F0895F6F7909581959F4F089547
:10258000A1E21A2EAA1BBB1BFD010DC0AA1FBB1F77
:10259000EE1FFF1FA217B307E407F50720F0A21BE9
:1025A000B30BE40BF50B661F771F881F991F1A9456
:1025B00069F760957095809590959B01AC01BD0180
:1025C000CF01089597FB092E05260ED057FD04D0A4
:1025D000D7DF0AD0001C38F45095409530952195EE
:1025E0003F4F4F4F5F4F0895F6F790958095709548
:1025F00061957F4F8F4F9F4F0895AA1BBB1B51E1E1
:1026000007C0AA1FBB1FA617B70710F0A61BB70B62
:10261000881F991F5A95A9F780959095BC01CD0107
:102620000895EE0FFF1F0590F491E02D099411E03D
:10263000C4E6D1E004C0FE010E9413132296C63600
:08264000D107C9F7F894FFCFA0
:1026480054696C74696E672031210054696C74692F
:102658006E672032210054696C74696E67203000FF
:102668005A206178697320636C6F636B776973654F
:1026780020726F7461746520666F723A2000206D55
:10268800696C6C697365636F6E647321005A2061AD
:1026980078697320616E7469636C6F636B776973B3
:1026A8006520726F7461746520666F723A200057F6
:1026B800726F6E6720706172616D65746572206FEC
:1026C80066205A206178697320726F746174696F2B
:1026D8006E2074696D653A20004D6F766520486FED
:1026E8006C64657220557021004D6F766520486FC7
:1026F8006C64657220446F776E2100446156696E80
:102708006369204669726D77617265203C766572EF
:1027180073696F6E20332E323E005475726E206FCF
:102728006666204E6F2E312052656C617920746F79
:1027380020706C756720696E204E6F2E31205553BE
:102748004221005475726E206F6666204E6F2E32DD
:102758002052656C617920746F20706C75672069F0
:102768006E204E6F2E322055534221005475726EE2
:10277800206F6E204E6F2E312052656C6179207467
:102788006F20706C7567206F7574204E6F2E312026
:1027980055534221005475726E206F6E204E6F2E75
:1027A800322052656C617920746F20706C756720D7
:1027B8006F7574204E6F2E3220555342210050728F
:1027C8006573732074686520706F77657220627511
:1027D80074746F6E210052656C656173652074684E
:1027E8006520706F77657220627574746F6E210052
:1027F80053686F72742070726573732074686520F3
:10280800706F77657220627574746F6E20666F7270
:102818003A20004C6F6E672050726573732074689D
:102828006520706F77657220627574746F6E2066AC
:102838006F723A2000506C756720696E2074686565
:102848002065617270686F6E652100506C75672035
:102858006F7574207468652065617270686F6E6545
:10286800210052656164207374617475733A207233
:102878006561647900556E6B6E6F776E2061726763
:10288800756D656E743A2000464652442049443AB4
:102898002000582D5920617869732074696C746917
:1028A8006E6720706C617465206578697374732134
:1028B800005A20617869732074696C74696E6720A6
:1028C800706C61746520646F65736E277420657819
:1028D800697374210043616D65726120686F6C646F
:1028E8006572206C696674657220657869737473A3
:1028F8002100506F77657220707573686572206467
:102908006F65736E2774206578697374210045615B
:102918007270686F6E6520706C7567676572206489
:102928006F65736E27742065786973742100555339
:1029380042206375747465722065786973747321B5
:1029480000546865207370656564206F6620736540
:1029580072766F206D6F746F72204E6F2E00206933
:10296800733A200054686520616E676C65206F6655
:1029780020736572766F206D6F746F72204E6F2EA4
:1029880000556E6B6E6F776E20636F6D6D616E6450
:102998003A2000436F6D6D616E64206973206E6F1D
:1029A800742066696E697368656421005A005A006C
:1029B80000000000F50AF70FDB0ABA0AB80BA70BEC
:1029C80000000000500FF70FE60E170FF70E400F2C
:00000001FF
