:100000000C94B3000C94DB000C94DB000C94BA0944
:100010000C94E4090C940E0A0C94DB000C94DB00A5
:100020000C94DB000C94DB000C94DB000C94920825
:100030000C94DB000C94DB000C94DB000C94DB00D4
:100040000C94D10C0C94DB000C944F0E0C949D0E70
:100050000C94DB000C94DB000C94DB000C94DB00B4
:100060000C94DB000C94DB0000C2010001001100C5
:1000700011000C0000E100000A002500250021000D
:10008000009600001900390039003600127A00008D
:100090001F004600460044008070000022004D0012
:1000A0004D004A00004B00003600750075007200DC
:1000B000403800004A009C009C0099008025000008
:1000C0007200EC00EC00E900C0120000E900DA0167
:1000D000DA01D70160090000D701B603B603B30304
:1000E000B0040000B3036E076E076B0758020000F0
:1000F0006E07DC0EDC0ED80E2C010000DC0EC11DDC
:10010000C11DBE1D00000000240027002A000000C1
:100110000000250028002B0000000000230026001E
:10012000290004040404040404040202020202027A
:1001300003030303030301020408102040800102AB
:10014000040810200102040810200000000700022B
:100150000100000304060000000000000000DD00B4
:1001600060050B10590511241FBECFEFD8E0DEBF8C
:10017000CDBF14E0A0E0B1E0EAE3F7E202C00590F1
:100180000D92AC3BB107D9F715E0ACEBB4E001C080
:100190001D92AF3FB107E1F711E0C4E6D1E004C022
:1001A0002297FE010E948C13CE35D107C9F70E9419
:1001B00061100C9490130C9400008CEB94E00E945E
:1001C000370580EC94E00E944E0783EC94E00E9497
:1001D0004E0708958F929F92AF92BF92CF92DF9277
:1001E000EF92FF920F931F93CF93DF93A6C38DEDF2
:1001F00095E00E94AE125B016C018DED95E00E94CE
:10020000900F0A9741F08DED95E00E94900F8F5F5F
:100210009F4F09F09BC3ED2C1127E7FC1095F12EA1
:10022000012F80E7E816F1040105110509F0B1C0BE
:100230008C2C99247501E401CC0FDD1FC856DB4FCF
:1002400088819981A816B90609F49EC0A816B90636
:100250000CF042C08DED95E060E071E00E94E41189
:100260008DED95E00E94B90F288139812A193B094B
:100270002D3331053CF084010F5F1F4FA5014F5B0B
:100280005F4F42C0C9014F974E97A0F484010F5FA2
:100290001F4FA5014F5B5F4F8CEB94E0B80124EB3F
:1002A00030E00E948706A701445C5F4F8CEB94E02E
:1002B000B8015CC02B50304084010F5F1F4FE50137
:1002C000EC962431310520F4A5014F5B5F4F3AC015
:1002D000A501425C5F4F3FC08DED95E06AE171E0A2
:1002E0000E94E4118DED95E00E94B90F88819981FB
:1002F0009501281B390B2D33310564F084010F5F04
:100300001F4FA501495C5F4F8CEB94E0B80128ECCE
:1003100030E0C7CFC9014F974E9738F484010F5F83
:100320001F4FA501495C5F4FB7CF2B503040840170
:100330000F5F1F4FE501EC962431310548F4A5010C
:10034000495C5F4F8CEB94E0B80120EA30E008C0D4
:10035000A501465C5F4F8CEB94E0B80126E930E0E4
:100360000E9487068CEB94E0B801AE0122E330E0F6
:100370000E948706880C991CA8E9B4E08A0E9B1E8F
:10038000F401F182E082D9C28DED95E065E371E080
:10039000E1C2F2E6EF16F1040105110509F072C0A1
:1003A0008C2D90E09C01E501892B01F5B7FC52C032
:1003B0008DED95E06CE471E00E94E1118DED95E02A
:1003C000B5014AE050E00E94AF118DED95E06AE67C
:1003D00071E00E94E4118DED95E00E94B90F82E07A
:1003E00061E00E94FA0D83E060E022C02130310517
:1003F00089F5B7FC2FC08DED95E069E771E00E94AB
:10040000E1118DED95E0B5014AE050E00E94AF1199
:100410008DED95E06AE671E00E94E4118DED95E0C6
:100420000E94B90F82E060E00E94FA0D83E061E073
:100430000E94FA0DBE01882777FD8095982F0E94B3
:10044000270D82E060E00E94FA0D83E060E00E94E8
:10045000FA0D79C18DED95E06BE971E00E94E11133
:100460008DED95E0BE014AE050E00E94AF118DEDA8
:1004700095E06AE671E00E94E4118DED95E00E943E
:10048000B90F61C121E7E216F1040105110509F078
:1004900053C08C2D90E09C01E501892BB9F41A140E
:1004A0001B047CF5C630D10564F58DED95E065EC57
:1004B00071E00E94E4118DED95E00E94B90F85E096
:1004C00061E00E94FA0D86E060E019C0213031053C
:1004D000C1F41A141B04ACF4C630D10594F48DEDAC
:1004E00095E065ED71E00E94E4118DED95E00E94CC
:1004F000B90F85E060E00E94FA0D86E061E00E949D
:10050000FA0D00E010E008C06CE271E080E090E0DD
:100510000E94270D0F5F1F4F0C171D07ACF385E0DE
:1005200060E00E94FA0D86E060E00E94FA0D68E546
:1005300072E080E090E00BC182E7E816F10401056B
:10054000110529F48DED95E067EE71E003C295E7A2
:10055000E916F1040105110561F48DED95E066E001
:1005600072E00E94E4118DED95E00E94B90F84E0E5
:1005700011C0A7E7EA16F1040105110569F48DED34
:1005800095E06FE272E00E94E4118DED95E00E942B
:10059000B90F87E060E024C0B6E7EB16F10401056F
:1005A000110561F48DED95E068E572E00E94E411BB
:1005B0008DED95E00E94B90F84E011C0E8E7EE16DA
:1005C000F1040105110579F48DED95E061E872E023
:1005D0000E94E4118DED95E00E94B90F87E061E083
:1005E0000E94FA0DAAC1F9E7EF16F1040105110501
:1005F00079F48DED95E06AEA72E00E94E4118DEDE8
:1006000095E00E94B90F80EC94E06CE370E099C033
:100610002AE7E216F1040105110559F48DED95E084
:1006200062EC72E00E94E4118DED95E00E94B90F3A
:100630005AC080E6E816F1040105110541F58DED7B
:1006400095E06CED72E00E94E111E501AB2811F438
:10065000C0E9D1E08DED95E0BE014AE050E00E9496
:10066000AF118DED95E06AE671E00E94E4118DED29
:1006700095E00E94B90F80EC94E06CE370E00E947A
:10068000A407BE01882777FD8095982F2AC091E6A0
:10069000E916F1040105110559F58DED95E06FEFAF
:1006A00072E00E94E11175018DED95E0B5014AE01F
:1006B00050E00E94AF118DED95E06AE671E00E9476
:1006C000E4118DED95E00E94B90F80EC94E06CE3AD
:1006D00070E00E94A4070027F7FC0095102FC801C6
:1006E000B7010E94270D80EC94E060E570E029C01E
:1006F000A3E7EA16F1040105110579F48DED95E003
:1007000061E273E00E94E4118DED95E00E94B90F63
:1007100083EC94E062E570E014C0B4E7EB16F104FA
:1007200001051105B9F48DED95E067E373E00E94D2
:10073000E4118DED95E00E94B90F83EC94E060E741
:1007400070E00E94A4076FE070E080E090E00E94FB
:10075000270DF3C0EBE7EE16F1040105110529F4AE
:100760008DED95E06EE473E0F5C0FCE7EF16F10463
:100770000105110511F5A114B10461F48DED95E0A9
:100780006AE54AE050E00E9449118DED95E00E9433
:100790009A10CFC08DED95E061E673E00E94E11103
:1007A0008FEF9FEFA0E0B0E0A822B922CA22DB229F
:1007B0008DED95E0B601A501B8C093E6E916F10408
:1007C0000105110509F043C08501AB2859F48DEDF1
:1007D00095E064E773E00E94E1118DED95E060E043
:1007E00070E08FC00130110529F48DED95E06EE7C2
:1007F00073E0B0C00230110529F48DED95E06DE98C
:1008000073E0A8C00330110529F48DED95E061EC8B
:1008100073E0A0C00430110529F48DED95E06EED74
:1008200073E098C00530110529F48DED95E06AEF6D
:1008300073E090C00630110529F48DED95E06AE172
:1008400074E088C08DED95E061E673E055C0ADE7DA
:10085000EA16F1040105110519F5C50101973FEFED
:10086000E32E3FEFF32E012D112DEA20FB200C216A
:100870001D21029708F04AC08DED95E06DE274E00D
:100880000E94E1118DED95E0B801A7012AE030E06A
:100890000E945B118CEB94E0B5010E94670527C0B4
:1008A000BEE7EB16F10401051105A9F5C501019795
:1008B0002FEFE22E2FEFF22E012D112DEA20FB203B
:1008C0000C211D21029710F58DED95E060E574E097
:1008D0000E94E1118DED95E0B801A7012AE030E01A
:1008E0000E945B118CEB94E0B5010E94F7058C012E
:1008F0008DED95E06AE474E00E94E1118DED95E0E4
:10090000B8014AE050E00E94C21113C08DED95E09D
:1009100061E673E004C08DED95E06DE674E00E9441
:10092000E1118DED95E0B801A7012AE030E00E94C9
:100930009B118DED95E00E94B90F8DED95E00E9421
:100940005F0F181619060CF452CC07C08DED95E018
:100950006FE774E00E94E411ECCFDF91CF911F911B
:100960000F91FF90EF90DF90CF90BF90AF909F904E
:100970008F9008958CEB94E040E05BE460E070E0E1
:100980000E9449078CEB94E061E070E046E950E09A
:1009900026E930E00E9487066AE070E080E090E09F
:1009A0000E94270D8CEB94E062E070E046E950E095
:1009B00026E930E00E94870680EC94E069E070E070
:1009C0000E948B0880EC94E060E570E00E94A40730
:1009D00083EC94E06AE070E00E948B0883EC94E082
:1009E00060E770E00E94A4078DED95E040E855E2D5
:1009F00060E070E00E94D80E8DED95E00E94091035
:100A00008823D1F38DED95E00E94B90F85E061E078
:100A10000E94BB0D86E061E00E94BB0D85E060E0B6
:100A20000E94FA0D86E060E00E94FA0D84E061E029
:100A30000E94BB0D87E061E00E94BB0D84E060E096
:100A40000E94FA0D87E060E00E94FA0D82E061E00A
:100A50000E94BB0D83E061E00E94BB0D82E060E07C
:100A60000E94FA0D83E060E00E94FA0D0895FC01F7
:100A700086E990E09183808380EF90E09383828386
:100A800008958130910559F46F5F7F4F89F486ECAA
:100A900094E06BE04CE020E00E94A30C0895892BC9
:100AA00039F46F5F7F4F21F486EC94E00E942A0BAB
:100AB000089580E090E06FEF7FEF0E944105089578
:100AC00081E090E06FEF7FEF0E9441050895AF92C3
:100AD000BF92CF92DF92EF92FF920F931F93DF931B
:100AE000CF93CDB7DEB7A8970FB6F894DEBF0FBE91
:100AF000CDBF162F86EC94E06FEF0E946E0B86EC54
:100B000094E06FEF0E946E0B86EC94E0612F0E94E0
:100B10006E0B86EC94E064E00E946E0B86EC94E031
:100B200062E00E946E0B86EC94E066E20E946E0B1F
:100B300086EC94E062E00E946E0B125D109586ECEC
:100B400094E0612F0E946E0B6AE070E080E090E01C
:100B50000E94270D8E010F5F1F4F08C086EC94E0A6
:100B60000E94330BF801819391938F0186EC94E0FE
:100B70000E94540B892B91F700D000D07D8560E056
:100B80002B853C85620F731F882777FD8095982FF2
:100B90002CE231E040E050E0EDB7FEB72183328334
:100BA0004383548320E030E040E050E0BFEFEB2E81
:100BB000B3E0FB2E012D112DAA24BB2465010E9458
:100BC000B2120F900F900F900F90CB01A8960FB616
:100BD000F894DEBF0FBECDBFCF91DF911F910F9173
:100BE000FF90EF90DF90CF90BF90AF900895AF92BD
:100BF000BF92CF92DF92EF92FF920F931F93DF93FA
:100C0000CF93CDB7DEB7A8970FB6F894DEBF0FBE6F
:100C1000CDBF162F86EC94E06FEF0E946E0B86EC32
:100C200094E06FEF0E946E0B86EC94E0612F0E94BF
:100C30006E0B86EC94E064E00E946E0B86EC94E010
:100C400062E00E946E0B86EC94E064E20E946E0B00
:100C500086EC94E062E00E946E0B145D109586ECC9
:100C600094E0612F0E946E0B6AE070E080E090E0FB
:100C70000E94270D8E010F5F1F4F08C086EC94E085
:100C80000E94330BF801819391938F0186EC94E0DD
:100C90000E94540B892B91F700D000D07D8560E035
:100CA0002B853C85620F731F882777FD8095982FD1
:100CB0002CE231E040E050E0EDB7FEB72183328313
:100CC0004383548320E030E040E050E01FEFE12E0A
:100CD00013E0F12E012D112DAA24BB2465010E94E1
:100CE000B2120F900F900F900F90CB01A8960FB6F5
:100CF000F894DEBF0FBECDBFCF91DF911F910F9152
:100D0000FF90EF90DF90CF90BF90AF9008952F921B
:100D10003F924F925F926F927F928F929F92AF928B
:100D2000BF92CF92DF92EF92FF920F931F93DF93C8
:100D3000CF9300D000D00F92CDB7DEB76B833A01CE
:100D400000D000D0442737FD4095542FFFEF2F2EC1
:100D5000F3E03F2E412C512CEDB7FEB721823282B9
:100D600043825482CA01B90120E030E040E050E003
:100D7000ECE2EE2EE1E0FE2E012D112DAA24BB2483
:100D800065010E94B2126C837D8369837A83882413
:100D900077FC8094982CEDB7FEB721823282438293
:100DA0005482C401B30120E030E040E050E00E94F2
:100DB000B212162F072F78010F900F900F900F90FF
:100DC00086EC94E06FEF0E946E0B86EC94E06FEF80
:100DD0000E946E0B86EC94E06B810E946E0B86EC99
:100DE00094E067E00E946E0B86EC94E063E00E9462
:100DF0006E0B86EC94E06EE10E946E0B86EC94E044
:100E0000612F0E946E0B86EC94E0602F0E946E0BA7
:100E100086EC94E06C810E946E0B86EC94E06D8110
:100E20000E946E0BFB81F85DFF0D8981F80FFE0DAE
:100E30009A81F90FF09586EC94E06F2F0E946E0B6B
:100E40006AE070E080E090E00E94270D04C086EC2C
:100E500094E00E94330B86EC94E00E94540B892BA3
:100E6000B1F70F900F900F900F900F90CF91DF91EF
:100E70001F910F91FF90EF90DF90CF90BF90AF90B8
:100E80009F908F907F906F905F904F903F902F90AA
:100E9000089586EC94E00E94380A0895FC01809140
:100EA000E2048C3090F480838F5F8093E204815061
:100EB00090E0FC01EE0FFF1FE80FF91FED51FB4F13
:100EC00088EB9BE09283818308958FEF8083089560
:100ED000FC0120812C30B8F58181992787FD909500
:100EE00048E850E0481B590B440F551F440F551F4D
:100EF0006417750784F08281992787FD909548E5EE
:100F000052E0481B590B440F551F440F551F6417DF
:100F100075070CF4AB0142505040CA01AA2797FD57
:100F2000A095BA2F880F991FAA1FBB1F4FB7F8941F
:100F300030E0F901EE0FFF1FE20FF31FED51FB4F01
:100F4000928381834FBF0895AF92BF92CF92DF9279
:100F5000EF92FF920F931F93CF93DF93EC019B01CE
:100F600082E0603278070CF048C077FF03C020E0D1
:100F700030E005C0653B710514F024EB30E000D093
:100F800000D0B901882777FD8095982F29813327D4
:100F900027FD3095E8E8AE2EB12CA21AB30AAA0CB0
:100FA000BB1CAA0CBB1CCC24B7FCC094DC2CEA8173
:100FB000FF27E7FDF09528E532E02E1B3F0B220FBF
:100FC000331F220F331F442737FD4095542FEDB7B1
:100FD000FEB7218332834383548320E030E040E036
:100FE00050E004EBE02EF12C012D112D0E94B212E5
:100FF0009B010F900F900F900F90CE01B9010E94AE
:101000006807DF91CF911F910F91FF90EF90DF90D4
:10101000CF90BF90AF900895CF92DF92EF92FF9262
:101020001F93CF93DF93EC01162F7A01690188811A
:101030008C3008F064C0862F61E00E94BB0D88816F
:1010400090E0FC01EE0FFF1FE80FF91FED51FB4F81
:101050001F738081807C812B808380E292E08E19D7
:101060009F0964E070E00E942613698380E699E09E
:101070008C199D0964E070E00E9426136A83A881A0
:101080008A2F6CE00E941A13682F70E0AB01440FA6
:10109000551F460F571F440F551F440F551F20E083
:1010A00030E0C901840F951FFC01EE0FFF1FE80F10
:1010B000F91FED51FB4F808186FD15C02F5F3F4F1B
:1010C0002C30310571F724C01092800082E08093AB
:1010D00081001092850010928400B19A80916F0077
:1010E000826080936F008A2F90E0FC01EE0FFF1F5B
:1010F000E80FF91FED51FB4F808180648083888168
:10110000DF91CF911F91FF90EF90DF90CF900895E6
:10111000672BD1F2E8CF40E252E020E639E00E94AE
:101120000C0808951F920F920FB60F9211242F935F
:101130003F934F935F936F937F938F939F93AF935F
:10114000BF93EF93FF938091070587FF05C010922F
:101150008500109284002BC020910705332727FDBE
:1011600030958091E20490E02817390704F58091CA
:101170000705992787FD9095FC01EE0FFF1FE80FEB
:10118000F91FED51FB4F808186FF11C0809107054B
:10119000992787FD9095FC01EE0FFF1FE80FF91FBF
:1011A000ED51FB4F80818F7360E00E94FA0D8091BA
:1011B00007058F5F8093070520910705332727FDDB
:1011C00030958091E20490E0281739070CF04EC06A
:1011D000809107058C300CF049C02091840030913B
:1011E000850080910705992787FD9095FC01EE0FFA
:1011F000FF1FE80FF91FED51FB4F81819281280FEE
:10120000391F309389002093880080910705992722
:1012100087FD9095FC01EE0FFF1FE80FF91FED51C0
:10122000FB4F808186FF2BC080910705992787FDA2
:101230009095FC01EE0FFF1FE80FF91FED51FB4FDA
:1012400080818F7361E00E94FA0D19C080E49CE9EF
:1012500005C0809184009091850004969093890048
:10126000809388008FEF8093070509C080918400E8
:1012700090918500049680549C4940F3EACFFF91F9
:10128000EF91BF91AF919F918F917F916F915F91FE
:101290004F913F912F910F900FBE0F901F90189577
:1012A0000F931F93CF93DF93FC01738D769571702D
:1012B000A685B7859585772329F08C91892309F434
:1012C00054C004C08C91892309F04FC0838994894C
:1012D00020E001972FEF8F3F9207D9F7C589D68974
:1012E000A685B785158560E031E040E050E000E07C
:1012F000CE01202F01972FEF8F3F9207D9F78C91C6
:10130000812311F0632B03C0832F80956823330F53
:101310004F5F5F4F4830510559F78789908D20E026
:1013200001972FEF8F3F9207D9F771116095809148
:101330004A0520914B0590E001968F73907030E044
:101340008217930779F0E0914A05F0E0E65FFA4FE3
:10135000608380914A0590E001968F73907080932E
:101360004A0503C0838D8160838FDF91CF911F91E8
:101370000F9108951F920F920FB60F9211242F9381
:101380003F934F935F936F937F938F939F93AF930D
:10139000BF93EF93FF938091080590910905009703
:1013A00011F00E945009FF91EF91BF91AF919F9171
:1013B0008F917F916F915F914F913F912F910F90FE
:1013C0000FBE0F901F9018951F920F920FB60F929D
:1013D00011242F933F934F935F936F937F938F933A
:1013E0009F93AF93BF93EF93FF93809108059091E4
:1013F0000905009711F00E945009FF91EF91BF91EC
:10140000AF919F918F917F916F915F914F913F919C
:101410002F910F900FBE0F901F9018951F920F9253
:101420000FB60F9211242F933F934F935F936F93B7
:101430007F938F939F93AF93BF93EF93FF9380918D
:10144000080590910905009711F00E945009FF913D
:10145000EF91BF91AF919F918F917F916F915F912C
:101460004F913F912F910F900FBE0F901F901895A5
:10147000CF92DF92EF92FF920F931F93CF93DF9360
:10148000EC017A018B011A8E198E188E1F8A1E8A22
:101490001D8A1C8A1B8A20E030E06901CC0CDD1C0F
:1014A000C20ED31EB601660F771F660F771FAB0102
:1014B00048595F4FFA0185919591A591B4918E1588
:1014C0009F05A007B107E9F4FB01E459FF4F85919F
:1014D00094919C8B8B8BFB01E259FF4F85919491EA
:1014E0009E8B8D8BFB01E059FF4F85919491988FD6
:1014F0008F8BFB01EE58FF4F859194919A8F898FC6
:1015000006C02F5F3F4F2D30310509F0C6CF8F89C0
:10151000988D892B09F449C04C85463108F03DC0AF
:1015200090916800483010F484E005C04E3010F00F
:1015300082E001C081E0892B80936800483028F464
:10154000EDE6F0E0ADE6B0E00BC04E3028F0ECE6A2
:10155000F0E0ACE6B0E004C0EBE6F0E0ABE6B0E013
:101560005081483040F481E090E002C0880F991F1C
:101570004A95E2F710C0242F30E04E3018F428507E
:10158000304002C02E50304081E090E002C0880F11
:10159000991F2A95E2F7852B8C93898D9A8D20E0EF
:1015A00001972FEF8F3F9207D9F78091080590910F
:1015B00009058C179D0781F08B8D8E7F8B8F9FB7D0
:1015C000F89410924A0580914A0580934B05D09378
:1015D0000905C09308059FBFDF91CF911F910F911F
:1015E000FF90EF90DF90CF900895FC014485463145
:1015F00080F5483028F4EDE6F0E0ADE6B0E00BC051
:101600004E3028F4EBE6F0E0ABE6B0E004C0ECE6E8
:10161000F0E0ACE6B0E05081483040F481E090E08A
:1016200002C0880F991F4A95E2F710C0242F30E0BE
:101630004E3018F42850304002C02E50304081E027
:1016400090E002C0880F991F2A95E2F780958523C4
:101650008C930895FC0180EA94E091838083CF010C
:101660000E94F50A08952091080530910905281770
:10167000390731F490914B0580914A05981719F478
:101680002FEF3FEF0FC0E0914B05F0E0E65FFA4F20
:10169000208180914B0590E001968F73907080932C
:1016A0004B0530E0C90108952091080530910905E6
:1016B0002817390719F020E030E00EC080914A0564
:1016C00020914B0590E0805C9F4F821B910960E464
:1016D00070E00E9426139C01C90108950F931F9387
:1016E000DC0159968D919C915A97892B49F481E0A0
:1016F00090E013969C938E93129720E030E097C071
:101700000FB7F8945B968C915B975196ED91FC9195
:10171000529750962C91509781FF8DC08081822BDB
:10172000808359968D919C915A97059620E0019758
:101730002FEF8F3F9207D9F75B968C915B9781FFD4
:1017400035C031E040E050E070E010E0832F90E0E1
:10175000862397235196ED91FC91529750962C91A8
:101760005097892B29F0808120952823208303C05E
:101770008081822B808359968D919C915A97212F3D
:1017800001972FEF8F3F9207D9F7330F4F5F5F4FCE
:1017900048305105D9F65196ED91FC9152979081C0
:1017A00050968C9150978095892333C031E040E06A
:1017B00050E070E010E0832F90E08623972351964D
:1017C000ED91FC91529750962C915097892B21F0D6
:1017D0008081822B808304C08081209528232083F0
:1017E00059968D919C915A97212F01972FEF8F3FFA
:1017F0009207D9F7330F4F5F5F4F48305105D9F645
:101800005196ED91FC915297808150969C91509702
:10181000892B80830FBF59968D919C915A9720E018
:1018200001972FEF8F3F9207D9F721E030E0C901F0
:101830001F910F910895808120952823208371CFD7
:1018400020910805309109052817390749F49FB7F9
:10185000F89410924A0580914A0580934B059FBFEA
:10186000089520910805309109052817390731F4AA
:1018700090914B0580914A05981719F42FEF3FEF8F
:101880000AC0E0914B05F0E0E65FFA4F8081282F17
:10189000332727FD3095C90108951F93CF93DF9318
:1018A000EC01162F862F60E00E94BB0D8B8D81FD11
:1018B00004C0812F61E00E94FA0D1C87212F30E0C7
:1018C000C9018A5C9E4FFC0184918D872E5D3E4F3D
:1018D000F9016491E62FF0E0EE0FFF1FE85EFE4F86
:1018E000859194919F878E87DF91CF911F91089565
:1018F000FF920F931F938C01F62E862F61E00E94BA
:10190000BB0D8F2D61E00E94FA0D8F2D90E0FC0140
:10191000EA5CFE4FE491D8015096EC9350978E5DAF
:101920009E4FFC016491E62FF0E0EE0FFF1FE25F97
:10193000FE4F8591949152969C938E9351971F914F
:101940000F91FF900895FF920F931F938C01F62E35
:10195000FC011382128288EE93E0A0E0B0E0848361
:101960009583A683B78380EA94E091838083148A69
:10197000138A168A158A108E178A128E118E838DFD
:101980002170220F8C7F822B838FC801642F0E94CD
:10199000780CC8016F2D0E944D0C1F910F91FF9084
:1019A00008951F920F920FB60F9211242F933F9319
:1019B0008F939F93AF93BF93809150059091510562
:1019C000A0915205B0915305309154050196A11D87
:1019D000B11D232F2D5F2D3720F02D570196A11D0E
:1019E000B11D209354058093500590935105A09309
:1019F0005205B093530580914C0590914D05A091EF
:101A00004E05B0914F050196A11DB11D80934C0567
:101A100090934D05A0934E05B0934F05BF91AF91A4
:101A20009F918F913F912F910F900FBE0F901F901C
:101A300018958FB7F8942091500530915105409139
:101A40005205509153058FBFB901CA0108959B01FA
:101A5000AC017FB7F89480914C0590914D05A09111
:101A60004E05B0914F0566B5A89B05C06F3F19F0B4
:101A70000196A11DB11D7FBFBA2FA92F982F8827CE
:101A8000860F911DA11DB11D62E0880F991FAA1F2D
:101A9000BB1F6A95D1F7BC012DC0FFB7F8948091A8
:101AA0004C0590914D05A0914E05B0914F05E6B5BE
:101AB000A89B05C0EF3F19F00196A11DB11DFFBF06
:101AC000BA2FA92F982F88278E0F911DA11DB11D08
:101AD000E2E0880F991FAA1FBB1FEA95D1F7861B6A
:101AE000970B885E9340C8F22150304040405040F0
:101AF00068517C4F211531054105510571F6089556
:101B0000789484B5826084BD84B5816084BD85B5D8
:101B1000826085BD85B5816085BDEEE6F0E080819F
:101B200081608083E1E8F0E01082808182608083C0
:101B3000808181608083E0E8F0E080818160808343
:101B4000E1EBF0E0808184608083E0EBF0E0808175
:101B500081608083EAE7F0E0808184608083808117
:101B600082608083808181608083808180688083BF
:101B70001092C1000895CF93DF93482F50E0CA011F
:101B80008A5C9E4FFC0134914E5D5E4FFA01849158
:101B9000882369F190E0880F991FFC01EC5FFE4FEC
:101BA000A591B491FC01E25FFE4FC591D4916623EB
:101BB00051F42FB7F8948C91932F909589238C939F
:101BC000888189230BC0623061F42FB7F8948C911F
:101BD000932F909589238C938881832B88832FBFA3
:101BE00006C09FB7F8948C91832B8C939FBFDF9195
:101BF000CF910895482F50E0CA01865B9E4FFC01AB
:101C00002491CA018A5C9E4FFC0194914E5D5E4F07
:101C1000FA013491332309F440C0222351F12330D7
:101C200071F0243028F42130A1F0223011F514C0D5
:101C30002630B1F02730C1F02430D9F404C08091AF
:101C400080008F7703C0809180008F7D809380001B
:101C500010C084B58F7702C084B58F7D84BD09C064
:101C60008091B0008F7703C08091B0008F7D80930A
:101C7000B000E32FF0E0EE0FFF1FE25FFE4FA591F3
:101C8000B4912FB7F894662321F48C919095892311
:101C900002C08C91892B8C932FBF089508951F92B9
:101CA0000F920FB60F9211242F933F934F938F9360
:101CB0009F93EF93FF938091C00082FD1DC04091E0
:101CC000C60020919505309196052F5F3F4F2F73E9
:101CD000307080919705909198052817390771F019
:101CE000E0919505F0919605EB5AFA4F40833093B9
:101CF00096052093950502C08091C600FF91EF9153
:101D00009F918F914F913F912F910F900FBE0F9008
:101D10001F901895E091E905F091EA05E05CFF4F0E
:101D20008191919120813181821B930B8F739070EF
:101D3000892B11F00E944E0E08951F920F920FB63C
:101D40000F9211242F933F938F939F93EF93FF93C1
:101D50002091D9053091DA058091DB059091DC0561
:101D60002817390731F48091C1008F7D8093C1001D
:101D700014C0E091DB05F091DC05E756FA4F2081B5
:101D80008091DB059091DC0501968F7390709093A4
:101D9000DC058093DB052093C600FF91EF919F91B6
:101DA0008F913F912F910F900FBE0F901F9018951C
:101DB000AF92BF92DF92EF92FF920F931F93CF9358
:101DC000DF93EC017A018B01DD24403081EE58076E
:101DD00080E0680780E0780711F0DD24D39491E07B
:101DE000A92EB12CEC89FD89DD2069F0C50108A080
:101DF00002C0880F991F0A94E2F7808360E079E0BF
:101E00008DE390E005C0108260E874E88EE190E018
:101E1000A80197010E9439132150304040405040A2
:101E2000569547953795279580E12030380720F063
:101E3000DD2011F0DD24D6CFE889F9893083EA89E5
:101E4000FB89208319A2EE89FF89408121E030E0DF
:101E5000C9010C8C02C0880F991F0A94E2F7482B25
:101E60004083EE89FF894081C9010D8C02C0880F33
:101E7000991F0A94E2F7482B4083EE89FF8940813D
:101E8000C9010E8C02C0880F991F0A94E2F7482BF3
:101E90004083EE89FF8980810F8C02C0220F331F9F
:101EA0000A94E2F7209528232083DF91CF911F9198
:101EB0000F91FF90EF90DF90BF90AF900895DC01FD
:101EC0001C96ED91FC911D97E05CFF4F21913191A3
:101ED00080819181281B390B2F733070C9010895BF
:101EE000DC011C96ED91FC911D97E05CFF4F208179
:101EF0003181E054F040DF01AE5BBF4F8D919C918A
:101F000011972817390719F42FEF3FEF07C08D916C
:101F10009C91E80FF91F8081282F30E0C9010895B6
:101F2000DC011C96ED91FC911D97E05CFF4F208138
:101F30003181E054F040DF01AE5BBF4F8D919C9149
:101F400011972817390719F42FEF3FEF10C08D9123
:101F50009C911197E80FF91F20818D919C91119709
:101F600001968F73907011969C938E9330E0C90107
:101F70000895DC0191968C919197882339F05496BD
:101F8000ED91FC915597808186FFF9CF91961C9237
:101F90000895CF93DF93EC01EE85FF85E05CFF4F62
:101FA00020813181E054F0402F5F3F4F2F7330701C
:101FB000DF01AE5BBF4F8D919C91119728173907B8
:101FC000D1F3E05CFF4F80819181E054F040E80F55
:101FD000F91F6083EE85FF85E05CFF4F318320832E
:101FE000EE89FF89208181E090E00F8C02C0880F8C
:101FF000991F0A94E2F7282B208381E089A3EC89BA
:10200000FD8980818064808381E090E0DF91CF91C1
:10201000089581E008951092E0051092DF0588EEA2
:1020200093E0A0E0B0E08093E1059093E205A093F7
:10203000E305B093E40580EB94E09093DE05809394
:10204000DD0585E595E09093EA058093E90589E94A
:1020500095E09093EC058093EB0585EC90E09093F0
:10206000EE058093ED0584EC90E09093F00580936D
:10207000EF0580EC90E09093F2058093F10581EC00
:1020800090E09093F4058093F30582EC90E09093B8
:10209000F6058093F50586EC90E09093F805809323
:1020A000F70584E08093F90583E08093FA0587E0E3
:1020B0008093FB0585E08093FC0581E08093FD051E
:1020C0000895CF93DF930E94800D0E94BA04CAE85E
:1020D000DEE00E94EA002097E1F30E948A0EF9CF29
:1020E000CF92DF92EF92FF920F931F93CF93DF93E4
:1020F0007C016B018A01C0E0D0E00FC0D6016D9178
:102100006D01D701ED91FC910190F081E02DC701A7
:102110000995C80FD91F015010400115110571F71D
:10212000CE01DF91CF911F910F91FF90EF90DF9043
:10213000CF900895EF92FF920F931F938C01DC01D3
:10214000ED91FC910190F081E02D6DE009957C010D
:10215000D801ED91FC910190F081E02DC8016AE079
:1021600009959C012E0D3F1DC9011F910F91FF90F4
:10217000EF900895CF93DF93EC016115710519F489
:1021800020E030E00FC0DB010D900020E9F711974F
:10219000A61BB70BE881F9810280F381E02DAD0128
:1021A00009959C01C901DF91CF9108954F925F92EB
:1021B0007F928F929F92AF92BF92CF92DF92EF92D7
:1021C000FF920F931F93DF93CF93CDB7DEB7A19705
:1021D0000FB6F894DEBF0FBECDBF2C01742ECB011D
:1021E000223008F42AE019A231E2C32ED12CCC0E01
:1021F000DD1E822E9924AA24BB24672D752FA501EC
:1022000094010E94391379018A01C801B701A5011F
:1022100094010E94FB12472D461B0894C108D10867
:102220004A3014F4405D01C0495CF6014083E1147A
:10223000F1040105110521F07E2C5F2DC801DDCFD1
:10224000C201B6010E94BA10A1960FB6F894DEBF83
:102250000FBECDBFCF91DF911F910F91FF90EF90F7
:10226000DF90CF90BF90AF909F908F907F905F90C6
:102270004F900895DC012115310541F4ED91FC9159
:102280000190F081E02D642F099508950E94D610E9
:102290000895EF92FF920F931F939A01E62EFF2469
:1022A00000E010E0B801A7010E943A111F910F91C0
:1022B000FF90EF900895CF92DF92EF92FF920F93ED
:1022C0001F93CF93DF93EC016A017B012115310548
:1022D00041F4E881F9810190F081E02D642F0995A6
:1022E0001FC02A303105D1F477FF17C0E881F9818A
:1022F0000190F081E02D6DE209958C01442755276E
:10230000BA014C195D096E097F09CE012AE00E94CD
:10231000D6109801280F391F04C02AE00E94D61059
:102320009C01C901DF91CF911F910F91FF90EF9018
:10233000DF90CF900895EF92FF920F931F937C014F
:102340000E945B118C01C7010E949A109C01200F12
:10235000311FC9011F910F91FF90EF900895EF92E7
:10236000FF920F931F937B019A010027F7FC0095C2
:10237000102FB801A7010E945B111F910F91FF90D0
:10238000EF900895CF92DF92EF92FF920F931F93F9
:102390006C017B019A010027F7FC0095102FB80112
:1023A000A7010E945B118C01C6010E949A10080FC0
:1023B000191FC8011F910F91FF90EF90DF90CF90F0
:1023C00008950E94BA100895EF92FF920F931F9301
:1023D0007C010E94BA108C01C7010E949A10080F5C
:1023E000191FC8011F910F91FF90EF900895CF938F
:1023F000DF93EC010E94190D688779878A879B8794
:10240000E881F9810084F185E02DCE0109959C01D8
:1024100097FF15C00E94190D288539854A855B856F
:10242000621B730B840B950B2C813D814E815F8168
:10243000621773078407950718F32FEF3FEFC90161
:10244000DF91CF910895CF93DF93EC01CE010E94ED
:10245000F7119C0197FD0EC08D32910559F0C09780
:102460000A9740F0E881F9810680F781E02DCE01DE
:102470000995ECCFC901DF91CF9108959F92AF925A
:10248000BF92CF92DF92EF92FF920F931F93CF9361
:10249000DF936C01B62E0E942312EC0197FF04C05B
:1024A000EE24FF2487014CC09924EE24FF248701E9
:1024B000AB2CBB24A7FCB094CA15DB0529F1CD32A7
:1024C000D10519F4992493941FC0CE01C0970A979F
:1024D000D8F4C801B7012AE030E040E050E00E94A3
:1024E000FB127B018C01CE01AA2797FDA095BA2F84
:1024F000E80EF91E0A1F1B1F80ED9FEFAFEFBFEF25
:10250000E80EF91E0A1F1B1FD601ED91FC910680F3
:10251000F781E02DC6010995C6010E94F711EC0173
:10252000C0970A9748F2CA15DB0531F2992041F0AD
:1025300010950095F094E094E11CF11C011D111D13
:10254000B701C801DF91CF911F910F91FF90EF90DC
:10255000DF90CF90BF90AF909F90089561E00E9470
:102560003E1208952F923F924F925F926F927F9208
:102570008F929F92AF92BF92CF92DF92EF92FF9293
:102580000F931F93DF93CF93CDB7DEB73B014C0181
:1025900019012A016D897E898F89988D6A197B09B5
:1025A0008C099D09621A730A840A950AA401930191
:1025B0000E94FB12E218F30804091509A80197010B
:1025C0000E945B132A0D3B1D4C1D5D1DB901CA0104
:1025D000CF91DF911F910F91FF90EF90DF90CF90FF
:1025E000BF90AF909F908F907F906F905F904F9033
:1025F0003F902F900895629FD001739FF001829FBA
:10260000E00DF11D649FE00DF11D929FF00D839F81
:10261000F00D749FF00D659FF00D9927729FB00D1E
:10262000E11DF91F639FB00DE11DF91FBD01CF0131
:1026300011240895991B79E004C0991F961708F09A
:10264000961B881F7A95C9F78095089597FB092EE8
:1026500007260AD077FD04D049D006D000201AF40E
:10266000709561957F4F0895F6F7909581959F4FEE
:102670000895A1E21A2EAA1BBB1BFD010DC0AA1FC3
:10268000BB1FEE1FFF1FA217B307E407F50720F0DB
:10269000A21BB30BE40BF50B661F771F881F991F56
:1026A0001A9469F760957095809590959B01AC019F
:1026B000BD01CF01089597FB092E05260ED057FDC9
:1026C00004D0D7DF0AD0001C38F4509540953095DF
:1026D00021953F4F4F4F5F4F0895F6F790958095A6
:1026E000709561957F4F8F4F9F4F0895AA1BBB1B1D
:1026F00051E107C0AA1FBB1FA617B70710F0A61B02
:10270000B70B881F991F5A95A9F780959095BC0122
:10271000CD010895EE0FFF1F0590F491E02D09946F
:1027200011E0C4E6D1E004C0FE010E948C132296A1
:0A273000C636D107C9F7F894FFCFB1
:10273A0054696C74696E6720746F206C6172676586
:10274A007220646567726565210054696C74696EEC
:10275A006720746F20736D616C6C657220646567A5
:10276A00726565210054696C74696E6720746F2004
:10277A0073616D6520646567726565005A206178CA
:10278A00697320636C6F636B7769736520726F740A
:10279A0061746520666F723A2000206D696C6C69FD
:1027AA007365636F6E647321005A206178697320C0
:1027BA00616E7469636C6F636B7769736520726F9E
:1027CA007461746520666F723A200057726F6E6783
:1027DA0020706172616D65746572206F66205A207F
:1027EA006178697320726F746174696F6E2074699D
:1027FA006D653A20004D6F766520486F6C6465728E
:10280A0020557021004D6F766520486F6C646572A3
:10281A0020446F776E2100446156696E63692046D1
:10282A0069726D77617265203C76657273696F6E45
:10283A0020332E333E005475726E206F6666204E2A
:10284A006F2E312052656C617920746F20706C751F
:10285A006720696E204E6F2E312055534221005455
:10286A0075726E206F6666204E6F2E322052656C2E
:10287A00617920746F20706C756720696E204E6FC5
:10288A002E322055534221005475726E206F6E20ED
:10289A004E6F2E312052656C617920746F20706CF6
:1028AA007567206F7574204E6F2E31205553422163
:1028BA00005475726E206F6E204E6F2E3220526554
:1028CA006C617920746F20706C7567206F75742045
:1028DA004E6F2E3220555342210050726573732079
:1028EA0074686520706F77657220627574746F6E94
:1028FA00210052656C656173652074686520706F8C
:10290A0077657220627574746F6E210053686F72F6
:10291A00742070726573732074686520706F7765B0
:10292A007220627574746F6E20666F723A20004C62
:10293A006F6E672050726573732074686520706FBC
:10294A0077657220627574746F6E20666F723A20B2
:10295A0000506C756720696E207468652065617225
:10296A0070686F6E652100506C7567206F757420F2
:10297A007468652065617270686F6E6521005265C2
:10298A006164207374617475733A20726561647945
:10299A0000556E6B6E6F776E20617267756D656E2E
:1029AA00743A2000464652442049443A2000582DA1
:1029BA005920617869732074696C74696E67207034
:1029CA006C6174652065786973747321005A20619B
:1029DA007869732074696C74696E6720706C6174AD
:1029EA006520646F65736E27742065786973742136
:1029FA000043616D65726120686F6C646572206C5A
:102A0A006966746572206578697374732100506F02
:102A1A007765722070757368657220646F65736E6E
:102A2A002774206578697374210045617270686F34
:102A3A006E6520706C756767657220646F65736E6A
:102A4A002774206578697374210055534220637591
:102A5A0074746572206578697374732100546865AB
:102A6A00207370656564206F6620736572766F20C7
:102A7A006D6F746F72204E6F2E002069733A2000BA
:102A8A0054686520616E676C65206F662073657295
:102A9A00766F206D6F746F72204E6F2E00556E6BBD
:102AAA006E6F776E20636F6D6D616E643A200043BE
:102ABA006F6D6D616E64206973206E6F7420666934
:102ACA006E697368656421005A005A0000000000AC
:102ADA006E0B7010540B330B310C200C00000000ED
:0C2AEA00C90F70105F0F900F700FB90F34
:00000001FF
