:100000000C94B3000C94DB000C94DB000C94410BBB
:100010000C946B0B0C94950B0C94DB000C94DB0094
:100020000C94DB000C94DB000C94DB000C94190A9C
:100030000C94DB000C94DB000C94DB000C94DB00D4
:100040000C94580E0C94DB000C9489100C94D7106F
:100050000C94DB000C94DB000C94DB000C94DB00B4
:100060000C94DB000C94DB0000C2010001001100C5
:1000700011000C0000E100000A002500250021000D
:10008000009600001900390039003600127A00008D
:100090001F004600460044008070000022004D0012
:1000A0004D004A00004B00003600750075007200DC
:1000B000403800004A009C009C0099008025000008
:1000C0007200EC00EC00E900C0120000E900DA0167
:1000D000DA01D70160090000D701B603B603B30304
:1000E000B0040000B3036E076E076B0758020000F0
:1000F0006E07DC0EDC0ED80E2C010000DC0EC11DDC
:10010000C11DBE1D00000000240027002A000000C1
:100110000000250028002B0000000000230026001E
:10012000290004040404040404040202020202027A
:1001300003030303030301020408102040800102AB
:10014000040810200102040810200000000700022B
:100150000100000304060000000000000000DD00B4
:10016000B7064512B00611241FBECFEFD8E0DEBFA0
:10017000CDBF15E0A0E0B1E0E6ECFBE202C00590E7
:100180000D92A432B107D9F716E0A4E2B5E001C0A0
:100190001D92A936B107E1F711E0C4E6D1E004C031
:1001A0002297FE010E94D215CE35D107C9F70E94D1
:1001B0009B120C94D6150C94000084E295E00E94EA
:1001C0008E0688E295E00E94A5088BE295E00E94E9
:1001D000A50808954F925F926F927F928F929F929F
:1001E000AF92BF92CF92DF92EF92FF920F931F9345
:1001F000CF93DF93A9C487E496E00E94F4144B01E7
:100200005C0187E496E00E94CA110A9741F087E4F6
:1002100096E00E94CA118F5F9F4F09F09EC4EB2C9D
:100220001127E7FC1095F12E012F80E7E816F10465
:100230000105110509F07BC088E295E00E94BF0826
:100240008BE295E00E94BF08EA2CFF248401E701BD
:10025000CC0FDD1FC050DB4F88819981881699062D
:1002600009F45EC0881699067CF487E496E060E0A5
:1002700071E00E942A1487E496E00E94F31128811D
:100280003981281939090FC087E496E06BE171E0E4
:100290000E942A1487E496E00E94F31188819981D4
:1002A0009401281B390B2D3331055CF0B7016F5FCA
:1002B0007F4FA801445C5F4F84E295E026E930E07F
:1002C00023C0C9014F974E9758F4B7016F5F7F4F16
:1002D000A801445C5F4F84E295E028EC30E014C054
:1002E0002B503040B7016F5F7F4FA801445C5F4FD8
:1002F0002431310528F484E295E02AEF30E004C08F
:1003000084E295E02CE231E00E94DE07EE0CFF1C57
:10031000A0E0B5E0EA0EFB1EF70111830083F5C3F0
:1003200087E496E065E371E00E942A146AC3F2E66E
:10033000EF16F1040105110509F084C088E295E08B
:100340000E94BF088BE295E00E94BF088A2D90E0D2
:100350009C01E401892B19F597FC56C087E496E0CF
:100360006CE471E00E94271487E496E0B4014AE04F
:1003700050E00E94F51387E496E06AE671E00E947F
:100380002A1487E496E00E94F31185E066E970E0A4
:100390000E94420F86E060E00E94E10F25C02130FC
:1003A000310591F597FC30C087E496E069E771E08C
:1003B0000E94271487E496E0B4014AE050E00E94CE
:1003C000F51387E496E06AE671E00E942A1487E458
:1003D00096E00E94F31185E060E00E94E10F86E064
:1003E00066E970E00E94420FBE01882777FD809584
:1003F000982F0E94AE0E85E060E00E94E10F86E03B
:1004000060E00E94E10F17C087E496E06BE971E0BD
:100410000E94271487E496E0BE014AE050E00E9463
:10042000F51387E496E06AE671E00E942A1487E4F7
:1004300096E00E94F3116FE070E080E090E00E948F
:10044000AE0E63C321E7E216F1040105110509F0C0
:1004500053C08A2D90E09C01E401892BB9F4181453
:1004600019047CF5C630D10564F587E496E065ECA7
:1004700071E00E942A1487E496E00E94F31185E05F
:1004800061E00E94E10F86E060E019C02130310593
:10049000C1F418141904ACF4C630D10594F487E4FF
:1004A00096E065ED71E00E942A1487E496E00E94D0
:1004B000F31185E060E00E94E10F86E061E00E94B8
:1004C000E10F00E010E008C06CE271E080E090E035
:1004D0000E94AE0E0F5F1F4F0C171D07ACF385E097
:1004E00060E00E94E10F86E060E00E94E10F68E5B5
:1004F00072E080E090E0F9C082E7E816F1040105BF
:10050000110529F487E496E067EE71E02AC395E7C8
:10051000E916F1040105110561F487E496E066E04F
:1005200072E00E942A1487E496E00E94F31184E0AE
:1005300011C0A7E7EA16F1040105110569F487E483
:1005400096E06FE272E00E942A1487E496E00E942F
:10055000F31187E060E024C0B6E7EB16F104010573
:10056000110561F487E496E068E572E00E942A14C0
:1005700087E496E00E94F31184E011C0E8E7EE16EC
:10058000F1040105110579F487E496E061E872E071
:100590000E942A1487E496E00E94F31187E061E04C
:1005A0000E94E10FD1C2F9E7EF16F1040105110530
:1005B00079F487E496E06AEA72E00E942A1487E4FC
:1005C00096E00E94F31188E295E06CE370E087C04A
:1005D0002AE7E216F1040105110559F487E496E0D3
:1005E00062EC72E00E942A1487E496E00E94F31104
:1005F00048C080E6E816F1040105110599F487E486
:1006000096E06CED72E00E942714E401892811F451
:10061000C0E9D1E087E496E0BE014AE050E00E94E4
:10062000F51318C091E6E916F1040105110571F5FD
:1006300087E496E06FEF72E00E942714E40187E4FC
:1006400096E0B4014AE050E00E94F513892811F4C5
:10065000C8E5DBE187E496E06AE671E00E942A14CF
:1006600087E496E00E94F31188E295E06CE370E085
:100670000E942B09BE01882777FD8095982F0E9444
:10068000AE0E88E295E060E570E029C0A3E7EA16C7
:10069000F1040105110579F487E496E061E273E065
:1006A0000E942A1487E496E00E94F3118BE295E001
:1006B00062E570E014C0B4E7EB16F1040105110522
:1006C000B9F487E496E067E373E00E942A1487E4B4
:1006D00096E00E94F3118BE295E060E770E00E94E3
:1006E0002B096FE070E080E090E00E94AE0E2CC21B
:1006F000EBE7EE16F1040105110529F487E496E015
:100700006EE473E02EC2FCE7EF16F104010511055B
:10071000F1F48114910441F487E496E06AE54AE03B
:1007200050E00E9483130CC287E496E061E673E018
:100730000E9427148FEF9FEFA0E0B0E0882299225B
:10074000AA22BB2287E496E0B501A401F5C193E695
:10075000E916F1040105110509F04BC0840189284F
:1007600059F487E496E064E773E00E94271487E475
:1007700096E060E070E097C00130110529F487E44D
:1007800096E06EE773E0EDC10230110529F487E4CD
:1007900096E06DE973E0E5C10330110529F487E4C3
:1007A00096E061EC73E0DDC10430110529F487E4C3
:1007B00096E06EED73E0D5C10530110529F487E4AC
:1007C00096E06AEF73E0CDC10630110529F487E4A5
:1007D00096E06AE174E0C5C10730110529F487E4A9
:1007E00096E06DE274E0BDC187E496E061E673E0F7
:1007F00055C0ADE7EA16F1040105110519F5C4016C
:100800000197FFEFEF2EFFEFFF2E012D112DE820B6
:10081000F9200A211B21029708F04AC087E496E0DC
:100820006DE474E00E94271487E496E0B801A70104
:100830002AE030E00E94A11384E295E0B4010E9416
:10084000BE0627C0BEE7EB16F10401051105A9F5A8
:10085000C4010197EFEFEE2EEFEFFE2E012D112DCB
:10086000E820F9200A211B21029710F587E496E081
:1008700060E774E00E94271487E496E0B801A701BE
:100880002AE030E00E94A11384E295E0B4010E94C6
:100890004E078C0187E496E06AE674E00E94271414
:1008A00087E496E0B8014AE050E00E94081448C18D
:1008B00087E496E061E673E039C1EFE7EE16F104F4
:1008C0000105110509F0A2C088E295E00E94BF0869
:1008D0008BE295E00E94BF08E12CF12C70EF072F0E
:1008E000112DE820F9200A211B2164E115950795B7
:1008F000F794E7946A95D1F76701412C50EF552E94
:100900005FE0652E712C482059206A207B204CE046
:1009100075946794579447944A95D1F7E2018FEF05
:100920009FE0882299225701AA0CBB1CA0E0B5E0E9
:10093000AA0EBB1EF5018081918148165906D1F19E
:1009400087E496E06DE874E00E94271487E496E05F
:10095000B7014AE050E00E94F51387E496E062E9AF
:1009600074E00E94271487E496E0B2014AE050E068
:100970000E94F51387E496E067EA74E00E9427146A
:1009800087E496E0B4014AE050E00E94081487E44E
:1009900096E00E94F3110894C11CD11CEC9684E2ED
:1009A00095E0B601AE0194010E94DE07D5014D929B
:1009B0005C92ABC087E496E06DE874E00E94271477
:1009C00087E496E0B7014AE050E00E94F51387E41F
:1009D00096E062E974E00E94271487E496E0B20191
:1009E0004AE050E00E94F51387E496E067EA74E07D
:1009F0000E94271487E496E0B4014AE050E00E9488
:100A0000081487E496E00E94F3117FC0B0E5EB166E
:100A1000F1040105110509F085C088E295E00E9406
:100A2000BF088BE295E00E94BF08E12C20EFF22E78
:100A30002FE0022F112DE820F9200A211B219CE034
:100A400015950795F794E7949A95D1F767018FEF7D
:100A5000A82E8FE0B82EA820B92087E496E061EB9D
:100A600074E00E94271487E496E0B7014AE050E062
:100A70000E94F51387E496E067EA74E00E94271469
:100A800087E496E0B5014AE050E00E94081487E44C
:100A900096E00E94F31187E496E063EC74E00E9414
:100AA000271487E496E0B7014AE050E00E94F5136E
:100AB00087E496E067EA74E00E94271487E496E0F2
:100AC000B5014AE050E00E94081487E496E00E94D5
:100AD000F311ECE3F0E0CE0EDF1E84E295E061E07E
:100AE00070E0A60195010E94DE0784E295E062E0D5
:100AF00070E0A60195010E94DE07F0920105E092E8
:100B00000005F0920305E092020588E295E069E0B5
:100B100070E00E94120A8BE295E06AE070E00E94A9
:100B2000120A12C087E496E065ED74E00E94271473
:100B300087E496E0B801A7012AE030E00E94E113C3
:100B400087E496E00E94F31187E496E00E949911F1
:100B5000181619060CF44FCB07C087E496E067EE31
:100B600074E00E942A14ECCFDF91CF911F910F9176
:100B7000FF90EF90DF90CF90BF90AF909F908F90BD
:100B80007F906F905F904F90089584E295E040E0F1
:100B90005BE460E070E00E94A00884E295E061E020
:100BA00070E046E950E026E930E00E94DE076AE0A6
:100BB00070E080E090E00E94AE0E84E295E062E09A
:100BC00070E046E950E026E930E00E94DE0788E266
:100BD00095E069E070E00E94120A88E295E060E525
:100BE00070E00E942B098BE295E06AE070E00E94C1
:100BF000120A8BE295E060E770E00E942B0987E41F
:100C000096E040E855E260E070E00E94121187E44F
:100C100096E00E9443128823D1F387E496E00E9475
:100C2000F31185E061E00E94A20F86E061E00E947E
:100C3000A20F85E060E00E94E10F86E060E00E9484
:100C4000E10F84E061E00E94A20F87E061E00E9472
:100C5000A20F84E060E00E94E10F87E060E00E9464
:100C6000E10F85E061E00E94A20F86E061E00E9452
:100C7000A20F85E060E00E94E10F86E060E00E9444
:100C8000E10F88E060E00E94A20F1DC085E060E0F7
:100C90000E94E10F86E066E970E00E94420F6AE080
:100CA00070E080E090E00E94AE0E85E060E00E947F
:100CB000E10F86E060E00E94E10F6AE070E080E012
:100CC00090E00E94AE0E88E00E94351090932F05B0
:100CD00080932E0580912E0590912F050197B1F2FA
:100CE00085E066E970E00E94420F86E060E00E94C5
:100CF000E10F60E971E080E090E00E94AE0E85E0D7
:100D000060E00E94E10F86E060E00E94E10F6FE08A
:100D100070E080E090E00E94AE0E0895FC0186E94C
:100D200090E09183808380EF90E0938382830895A5
:100D30008130910559F46F5F7F4F89F480E395E02E
:100D40006BE04CE020E00E942A0E0895892B39F4D4
:100D50006F5F7F4F21F480E395E00E94B10C08950E
:100D600080E090E06FEF7FEF0E949806089581E0A9
:100D700090E06FEF7FEF0E9498060895AF92BF92C8
:100D8000CF92DF92EF92FF920F931F93DF93CF9357
:100D9000CDB7DEB7A8970FB6F894DEBF0FBECDBFB4
:100DA000162F80E395E06FEF0E94F50C80E395E04D
:100DB0006FEF0E94F50C80E395E0612F0E94F50C27
:100DC00080E395E064E00E94F50C80E395E062E04A
:100DD0000E94F50C80E395E066E20E94F50C80E34A
:100DE00095E062E00E94F50C125D109580E395E0BD
:100DF000612F0E94F50C6AE070E080E090E00E94B4
:100E0000AE0E8E010F5F1F4F08C080E395E00E9479
:100E1000BA0CF801819391938F0180E395E00E94D1
:100E2000DB0C892B91F700D000D07D8560E02B850D
:100E30003C85620F731F882777FD8095982F2CE2E1
:100E400031E040E050E0EDB7FEB7218332834383C9
:100E5000548320E030E040E050E0BFEFEB2EB3E001
:100E6000FB2E012D112DAA24BB2465010E94F8142C
:100E70000F900F900F900F90CB01A8960FB6F8949B
:100E8000DEBF0FBECDBFCF91DF911F910F91FF90BD
:100E9000EF90DF90CF90BF90AF900895AF92BF9248
:100EA000CF92DF92EF92FF920F931F93DF93CF9336
:100EB000CDB7DEB7A8970FB6F894DEBF0FBECDBF93
:100EC000162F80E395E06FEF0E94F50C80E395E02C
:100ED0006FEF0E94F50C80E395E0612F0E94F50C06
:100EE00080E395E064E00E94F50C80E395E062E029
:100EF0000E94F50C80E395E064E20E94F50C80E32B
:100F000095E062E00E94F50C145D109580E395E099
:100F1000612F0E94F50C6AE070E080E090E00E9492
:100F2000AE0E8E010F5F1F4F08C080E395E00E9458
:100F3000BA0CF801819391938F0180E395E00E94B0
:100F4000DB0C892B91F700D000D07D8560E02B85EC
:100F50003C85620F731F882777FD8095982F2CE2C0
:100F600031E040E050E0EDB7FEB7218332834383A8
:100F7000548320E030E040E050E01FEFE12E13E02A
:100F8000F12E012D112DAA24BB2465010E94F81415
:100F90000F900F900F900F90CB01A8960FB6F8947A
:100FA000DEBF0FBECDBFCF91DF911F910F91FF909C
:100FB000EF90DF90CF90BF90AF9008952F923F9227
:100FC0004F925F926F927F928F929F92AF92BF9259
:100FD000CF92DF92EF92FF920F931F93DF93CF9305
:100FE00000D000D00F92CDB7DEB76B833A0100D0AE
:100FF00000D0442737FD4095542FFFEF2F2EF3E00C
:101000003F2E412C512CEDB7FEB721823282438214
:101010005482CA01B90120E030E040E050E0ECE247
:10102000EE2EE1E0FE2E012D112DAA24BB24650138
:101030000E94F8146C837D8369837A83882477FC0B
:101040008094982CEDB7FEB721823282438254827D
:10105000C401B30120E030E040E050E00E94F81409
:10106000162F072F78010F900F900F900F9080E3AD
:1010700095E06FEF0E94F50C80E395E06FEF0E9422
:10108000F50C80E395E06B810E94F50C80E395E020
:1010900067E00E94F50C80E395E063E00E94F50CA8
:1010A00080E395E06EE10E94F50C80E395E0612F0E
:1010B0000E94F50C80E395E0602F0E94F50C80E320
:1010C00095E06C810E94F50C80E395E06D810E94B3
:1010D000F50CFB81F85DFF0D8981F80FFE0D9A81FB
:1010E000F90FF09580E395E06F2F0E94F50C6AE010
:1010F00070E080E090E00E94AE0E04C080E395E0D6
:101100000E94BA0C80E395E00E94DB0C892BB1F7BA
:101110000F900F900F900F900F90CF91DF911F9134
:101120000F91FF90EF90DF90CF90BF90AF909F9086
:101130008F907F906F905F904F903F902F90089589
:1011400080E395E00E94BF0B0895FC0180914C055F
:101150008C3090F480838F5F80934C05815090E0B9
:10116000FC01EE0FFF1FE80FF91FE35BFA4F88EB5E
:101170009BE09283818308958FEF80830895DC0143
:101180008C9190E0FC01EE0FFF1FE80FF91FE35B6D
:10119000FA4F80818F7B80838C916CE00E94601578
:1011A00090E0AC01440F551F480F591F440F551FC5
:1011B000440F551F20E030E0C901840F951FFC014A
:1011C000EE0FFF1FE80FF91FE35BFA4F808186FDEA
:1011D00005C02F5F3F4F2C30310571F70895FC019A
:1011E00020812C30B8F58181992787FD909548E8BA
:1011F00050E0481B590B440F551F440F551F6417EF
:10120000750784F08281992787FD909548E552E023
:10121000481B590B440F551F440F551F6417750782
:101220000CF4AB0142505040CA01AA2797FDA0958B
:10123000BA2F880F991FAA1FBB1F4FB7F89430E031
:10124000F901EE0FFF1FE20FF31FE35BFA4F9283EA
:1012500081834FBF0895AF92BF92CF92DF92EF92FA
:10126000FF920F931F93CF93DF93EC019B0182E0DA
:10127000603278070CF048C077FF03C020E030E010
:1012800005C0653B710514F024EB30E000D000D0C0
:10129000B901882777FD8095982F2981332727FD6D
:1012A0003095E8E8AE2EB12CA21AB30AAA0CBB1CEA
:1012B000AA0CBB1CCC24B7FCC094DC2CEA81FF2711
:1012C000E7FDF09528E532E02E1B3F0B220F331F80
:1012D000220F331F442737FD4095542FEDB7FEB73B
:1012E000218332834383548320E030E040E050E0A8
:1012F00004EBE02EF12C012D112D0E94F8149B011E
:101300000F900F900F900F90CE01B9010E94EF083F
:10131000DF91CF911F910F91FF90EF90DF90CF90D1
:10132000BF90AF900895CF92DF92EF92FF921F93FC
:10133000CF93DF93EC01162F7A01690188818C30FD
:1013400008F064C0862F61E00E94A20F888190E0BF
:10135000FC01EE0FFF1FE80FF91FE35BFA4F1F734D
:101360008081807C812B808380E292E08E199F09AE
:1013700064E070E00E946C15698380E699E08C1946
:101380009D0964E070E00E946C156A83A8818A2F31
:101390006CE00E946015682F70E0AB01440F551F90
:1013A000460F571F440F551F440F551F20E030E0D4
:1013B000C901840F951FFC01EE0FFF1FE80FF91FF5
:1013C000E35BFA4F808186FD15C02F5F3F4F2C30C5
:1013D000310571F724C01092800082E08093810073
:1013E0001092850010928400B19A80916F00826003
:1013F00080936F008A2F90E0FC01EE0FFF1FE80F33
:10140000F91FE35BFA4F8081806480838881DF91DC
:10141000CF911F91FF90EF90DF90CF900895672BB1
:10142000D1F2E8CF40E252E020E639E00E94930991
:1014300008951F920F920FB60F9211242F933F938E
:101440004F935F936F937F938F939F93AF93BF93CC
:10145000EF93FF938091710587FF05C0109285007F
:10146000109284002BC020917105332727FD309501
:1014700080914C0590E02817390704F5809171059B
:10148000992787FD9095FC01EE0FFF1FE80FF91FCC
:10149000E35BFA4F808186FF11C080917105992727
:1014A00087FD9095FC01EE0FFF1FE80FF91FE35B2E
:1014B000FA4F80818F7360E00E94E10F8091710587
:1014C0008F5F8093710520917105332727FD30953B
:1014D00080914C0590E0281739070CF04EC08091A0
:1014E00071058C300CF049C020918400309185004A
:1014F00080917105992787FD9095FC01EE0FFF1FE4
:10150000E80FF91FE35BFA4F81819281280F391FA1
:10151000309389002093880080917105992787FD79
:101520009095FC01EE0FFF1FE80FF91FE35BFA4FE8
:10153000808186FF2BC080917105992787FD90954A
:10154000FC01EE0FFF1FE80FF91FE35BFA4F8081EC
:101550008F7361E00E94E10F19C080E49CE905C02F
:1015600080918400909185000496909389008093E7
:1015700088008FEF8093710509C08091840090915D
:101580008500049680549C4940F3EACFFF91EF9187
:10159000BF91AF919F918F917F916F915F914F918B
:1015A0003F912F910F900FBE0F901F9018950F93A2
:1015B0001F93CF93DF93FC01738D76957170A68591
:1015C000B7859585772329F08C91892309F454C038
:1015D00004C08C91892309F04FC08389948920E04D
:1015E00001972FEF8F3F9207D9F7C589D689A68536
:1015F000B785158560E031E040E050E000E0CE01C5
:10160000202F01972FEF8F3F9207D9F78C918123DD
:1016100011F0632B03C0832F80956823330F4F5F36
:101620005F4F4830510559F78789908D20E0019729
:101630002FEF8F3F9207D9F7711160958091B40514
:101640002091B50590E001968F73907030E082177D
:10165000930779F0E091B405F0E0EC58FA4F60831D
:101660008091B40590E001968F7390708093B405DB
:1016700003C0838D8160838FDF91CF911F910F9184
:1016800008951F920F920FB60F9211242F933F933C
:101690004F935F936F937F938F939F93AF93BF937A
:1016A000EF93FF938091720590917305009711F06D
:1016B0000E94D70AFF91EF91BF91AF919F918F91B7
:1016C0007F916F915F914F913F912F910F900FBE3E
:1016D0000F901F9018951F920F920FB60F92112422
:1016E0002F933F934F935F936F937F938F939F932A
:1016F000AF93BF93EF93FF93809172059091730521
:10170000009711F00E94D70AFF91EF91BF91AF911E
:101710009F918F917F916F915F914F913F912F9109
:101720000F900FBE0F901F9018951F920F920FB63B
:101730000F9211242F933F934F935F936F937F9357
:101740008F939F93AF93BF93EF93FF938091720515
:1017500090917305009711F00E94D70AFF91EF91C5
:10176000BF91AF919F918F917F916F915F914F91B9
:101770003F912F910F900FBE0F901F901895CF9211
:10178000DF92EF92FF920F931F93CF93DF93EC01C1
:101790007A018B011A8E198E188E1F8A1E8A1D8A55
:1017A0001C8A1B8A20E030E06901CC0CDD1CC20ED3
:1017B000D31EB601660F771F660F771FAB0148591E
:1017C0005F4FFA0185919591A591B4918E159F0572
:1017D000A007B107E9F4FB01E459FF4F859194910B
:1017E0009C8B8B8BFB01E259FF4F859194919E8BD3
:1017F0008D8BFB01E059FF4F85919491988F8F8BD2
:10180000FB01EE58FF4F859194919A8F898F06C006
:101810002F5F3F4F2D30310509F0C6CF8F89988D4E
:10182000892B09F449C04C85463108F03DC09091A0
:101830006800483010F484E005C04E3010F082E0BB
:1018400001C081E0892B80936800483028F4EDE6E0
:10185000F0E0ADE6B0E00BC04E3028F0ECE6F0E092
:10186000ACE6B0E004C0EBE6F0E0ABE6B0E05081FF
:10187000483040F481E090E002C0880F991F4A95FB
:10188000E2F710C0242F30E04E3018F428503040DA
:1018900002C02E50304081E090E002C0880F991FB6
:1018A0002A95E2F7852B8C93898D9A8D20E00197FC
:1018B0002FEF8F3F9207D9F78091720590917305B2
:1018C0008C179D0781F08B8D8E7F8B8F9FB7F8943F
:1018D0001092B4058091B4058093B505D09373053B
:1018E000C09372059FBFDF91CF911F910F91FF9021
:1018F000EF90DF90CF900895FC014485463180F54C
:10190000483028F4EDE6F0E0ADE6B0E00BC04E3034
:1019100028F4EBE6F0E0ABE6B0E004C0ECE6F0E083
:10192000ACE6B0E05081483040F481E090E002C085
:10193000880F991F4A95E2F710C0242F30E04E30EF
:1019400018F42850304002C02E50304081E090E022
:1019500002C0880F991F2A95E2F7809585238C9302
:101960000895FC0188E095E091838083CF010E9477
:101970007C0C089520917205309173052817390762
:1019800031F49091B5058091B405981719F42FEFB3
:101990003FEF0FC0E091B505F0E0EC58FA4F208121
:1019A0008091B50590E001968F7390708093B50596
:1019B00030E0C90108952091720530917305281710
:1019C000390719F020E030E00EC08091B405209175
:1019D000B50590E0805C9F4F821B910960E470E048
:1019E0000E946C159C01C90108950F931F93DC019F
:1019F00059968D919C915A97892B49F481E090E0FA
:101A000013969C938E93129720E030E097C00FB707
:101A1000F8945B968C915B975196ED91FC9152975F
:101A200050962C91509781FF8DC08081822B8083AE
:101A300059968D919C915A97059620E001972FEF2A
:101A40008F3F9207D9F75B968C915B9781FF35C0EA
:101A500031E040E050E070E010E0832F90E086231A
:101A600097235196ED91FC91529750962C91509757
:101A7000892B29F0808120952823208303C0808131
:101A8000822B808359968D919C915A97212F019793
:101A90002FEF8F3F9207D9F7330F4F5F5F4F4830DB
:101AA0005105D9F65196ED91FC915297908150963F
:101AB0008C9150978095892333C031E040E050E00D
:101AC00070E010E0832F90E0862397235196ED91EC
:101AD000FC91529750962C915097892B21F0808140
:101AE000822B808304C080812095282320835996EF
:101AF0008D919C915A97212F01972FEF8F3F92073D
:101B0000D9F7330F4F5F5F4F48305105D9F65196E3
:101B1000ED91FC915297808150969C915097892B22
:101B200080830FBF59968D919C915A9720E0019721
:101B30002FEF8F3F9207D9F721E030E0C9011F91C5
:101B40000F910895808120952823208371CF2091C3
:101B50007205309173052817390749F49FB7F89437
:101B60001092B4058091B4058093B5059FBF089588
:101B700020917205309173052817390731F490913F
:101B8000B5058091B405981719F42FEF3FEF0AC0FF
:101B9000E091B505F0E0EC58FA4F8081282F33270B
:101BA00027FD3095C90108951F93CF93DF93EC0172
:101BB000162F862F60E00E94A20F8B8D81FD04C03E
:101BC000812F61E00E94E10F1C87212F30E0C901C5
:101BD0008A5C9E4FFC0184918D872E5D3E4FF901FA
:101BE0006491E62FF0E0EE0FFF1FE85EFE4F859157
:101BF00094919F878E87DF91CF911F910895FF92D7
:101C00000F931F938C01F62E862F61E00E94A20F86
:101C10008F2D61E00E94E10F8F2D90E0FC01EA5CC6
:101C2000FE4FE491D8015096EC9350978E5D9E4FF5
:101C3000FC016491E62FF0E0EE0FFF1FE25FFE4F24
:101C40008591949152969C938E9351971F910F91E9
:101C5000FF900895FF920F931F938C01F62EFC01C5
:101C60001382128288EE93E0A0E0B0E08483958333
:101C7000A683B78388E095E091838083148A138AD2
:101C8000168A158A108E178A128E118E838D2170F6
:101C9000220F8C7F822B838FC801642F0E94FF0D3F
:101CA000C8016F2D0E94D40D1F910F91FF900895D0
:101CB0001F920F920FB60F9211242F933F938F9381
:101CC0009F93AF93BF938091BA059091BB05A0916C
:101CD000BC05B091BD053091BE050196A11DB11D99
:101CE000232F2D5F2D3720F02D570196A11DB11DFB
:101CF0002093BE058093BA059093BB05A093BC05C5
:101D0000B093BD058091B6059091B705A091B80537
:101D1000B091B9050196A11DB11D8093B6059093B0
:101D2000B705A093B805B093B905BF91AF919F9146
:101D30008F913F912F910F900FBE0F901F9018958C
:101D40008FB7F8942091BA053091BB054091BC053E
:101D50005091BD058FBFB901CA0108959B01AC0127
:101D60007FB7F8948091B6059091B705A091B8051A
:101D7000B091B90566B5A89B05C06F3F19F00196F3
:101D8000A11DB11D7FBFBA2FA92F982F8827860FBD
:101D9000911DA11DB11D62E0880F991FAA1FBB1FD5
:101DA0006A95D1F7BC012DC0FFB7F8948091B605B4
:101DB0009091B705A091B805B091B905E6B5A89B7B
:101DC00005C0EF3F19F00196A11DB11DFFBFBA2F4D
:101DD000A92F982F88278E0F911DA11DB11DE2E01C
:101DE000880F991FAA1FBB1FEA95D1F7861B970B77
:101DF000885E9340C8F221503040404050406851C6
:101E00007C4F211531054105510571F608957894EF
:101E100084B5826084BD84B5816084BD85B58260EF
:101E200085BD85B5816085BDEEE6F0E0808181608D
:101E30008083E1E8F0E0108280818260808380818D
:101E400081608083E0E8F0E0808181608083E1EB65
:101E5000F0E0808184608083E0EBF0E0808181604D
:101E60008083EAE7F0E08081846080838081826003
:101E700080838081816080838081806880831092EC
:101E8000C10008951F93CF93DF93182FEB0161E0FA
:101E90000E94A20F209709F44AC0CF3FD10509F450
:101EA00049C0E12FF0E0E65BFE4F84918330C1F042
:101EB000843028F4813051F08230B1F50CC0863086
:101EC00019F1873049F1843079F514C084B5806800
:101ED00084BDC7BD33C084B5806284BDC8BD2EC07B
:101EE00080918000806880938000D0938900C093A7
:101EF000880024C080918000806280938000D0930D
:101F00008B00C0938A001AC08091B00080688093D3
:101F1000B000C093B30012C08091B0008062809383
:101F2000B000C093B4000AC0C038D1051CF4812FA2
:101F300060E002C0812F61E00E94E10FDF91CF914C
:101F40001F910895CF93DF93482F50E0CA018A5C18
:101F50009E4FFC0134914E5D5E4FFA0184918823BF
:101F600069F190E0880F991FFC01EC5FFE4FA5918D
:101F7000B491FC01E25FFE4FC591D491662351F408
:101F80002FB7F8948C91932F909589238C93888107
:101F900089230BC0623061F42FB7F8948C91932F92
:101FA000909589238C938881832B88832FBF06C0CB
:101FB0009FB7F8948C91832B8C939FBFDF91CF9127
:101FC0000895482F50E0CA01865B9E4FFC01249182
:101FD000CA018A5C9E4FFC0194914E5D5E4FFA01EE
:101FE0003491332309F440C0222351F1233071F09E
:101FF000243028F42130A1F0223011F514C026300D
:10200000B1F02730C1F02430D9F404C080918000B1
:102010008F7703C0809180008F7D8093800010C0F7
:1020200084B58F7702C084B58F7D84BD09C080914F
:10203000B0008F7703C08091B0008F7D8093B00097
:10204000E32FF0E0EE0FFF1FE25FFE4FA591B4918A
:102050002FB7F894662321F48C919095892302C0C0
:102060008C91892B8C932FBF0895682F70E0CB0142
:10207000865B9E4FFC012491CB018A5C9E4FFC0144
:1020800044916E5D7E4FFB019491992319F420E0F9
:1020900030E03CC0222351F1233071F0243028F489
:1020A0002130A1F0223011F514C02630B1F02730D4
:1020B000C1F02430D9F404C0809180008F7703C030
:1020C000809180008F7D8093800010C084B58F77D1
:1020D00002C084B58F7D84BD09C08091B0008F7728
:1020E00003C08091B0008F7D8093B000892F90E075
:1020F000880F991F885E9E4FFC01A591B4918C9129
:1021000020E030E0842311F021E030E0C90108959F
:1021100008951F920F920FB60F9211242F933F93A1
:102120004F938F939F93EF93FF938091C00082FD15
:102130001DC04091C6002091FF05309100062F5F21
:102140003F4F2F733070809101069091020628173F
:10215000390771F0E091FF05F0910006E154FA4F64
:102160004083309300062093FF0502C08091C60093
:10217000FF91EF919F918F914F913F912F910F90F0
:102180000FBE0F901F901895E0915306F0915406E2
:10219000E05CFF4F8191919120813181821B930BF3
:1021A0008F739070892B11F00E94881008951F92F0
:1021B0000F920FB60F9211242F933F938F939F93FB
:1021C000EF93FF932091430630914406809145069A
:1021D000909146062817390731F48091C1008F7D10
:1021E0008093C10014C0E0914506F0914606ED5F72
:1021F000F94F2081809145069091460601968F7394
:10220000907090934606809345062093C600FF91F8
:10221000EF919F918F913F912F910F900FBE0F9053
:102220001F901895AF92BF92DF92EF92FF920F939B
:102230001F93CF93DF93EC017A018B01DD244030B3
:1022400081EE580780E0680780E0780711F0DD2410
:10225000D39491E0A92EB12CEC89FD89DD2069F0A1
:10226000C50108A002C0880F991F0A94E2F7808375
:1022700060E079E08DE390E005C0108260E874E8EA
:102280008EE190E0A80197010E947F152150304017
:1022900040405040569547953795279580E120302E
:1022A000380720F0DD2011F0DD24D6CFE889F98948
:1022B0003083EA89FB89208319A2EE89FF89408156
:1022C00021E030E0C9010C8C02C0880F991F0A94EC
:1022D000E2F7482B4083EE89FF894081C9010D8CCC
:1022E00002C0880F991F0A94E2F7482B4083EE89B9
:1022F000FF894081C9010E8C02C0880F991F0A9482
:10230000E2F7482B4083EE89FF8980810F8C02C061
:10231000220F331F0A94E2F7209528232083DF91B0
:10232000CF911F910F91FF90EF90DF90BF90AF90F2
:102330000895DC011C96ED91FC911D97E05CFF4F28
:102340002191319180819181281B390B2F7330703D
:10235000C9010895DC011C96ED91FC911D97E05C8C
:10236000FF4F20813181E054F040DF01AE5BBF4F71
:102370008D919C9111972817390719F42FEF3FEF92
:1023800007C08D919C91E80FF91F8081282F30E0C4
:10239000C9010895DC011C96ED91FC911D97E05C4C
:1023A000FF4F20813181E054F040DF01AE5BBF4F31
:1023B0008D919C9111972817390719F42FEF3FEF52
:1023C00010C08D919C911197E80FF91F20818D917C
:1023D0009C91119701968F73907011969C938E9398
:1023E00030E0C9010895DC0191968C919197882382
:1023F00039F05496ED91FC915597808186FFF9CF85
:1024000091961C920895CF93DF93EC01EE85FF85A2
:10241000E05CFF4F20813181E054F0402F5F3F4F5F
:102420002F733070DF01AE5BBF4F8D919C91119780
:1024300028173907D1F3E05CFF4F80819181E05488
:10244000F040E80FF91F6083EE85FF85E05CFF4FE9
:1024500031832083EE89FF89208181E090E00F8C19
:1024600002C0880F991F0A94E2F7282B208381E08D
:1024700089A3EC89FD8980818064808381E090E07C
:10248000DF91CF91089581E0089510924A0610924D
:10249000490688EE93E0A0E0B0E080934B0690936D
:1024A0004C06A0934D06B0934E0688E195E09093BC
:1024B0004806809347068FEB95E0909354068093EF
:1024C000530683E096E0909356068093550685EC7C
:1024D00090E0909358068093570684EC90E0909398
:1024E0005A068093590680EC90E090935C068093A6
:1024F0005B0681EC90E090935E0680935D0682EC33
:1025000090E09093600680935F0686EC90E0909355
:1025100062068093610684E08093630683E0809383
:10252000640687E08093650685E08093660681E017
:10253000809367060895CF93DF930E94070F0E9450
:10254000C505C4ECD0E10E94EA002097E1F30E94A7
:10255000C410F9CFCF92DF92EF92FF920F931F93A7
:10256000CF93DF937C016B018A01C0E0D0E00FC004
:10257000D6016D916D01D701ED91FC910190F08133
:10258000E02DC7010995C80FD91F01501040011552
:10259000110571F7CE01DF91CF911F910F91FF903F
:1025A000EF90DF90CF900895EF92FF920F931F93DB
:1025B0008C01DC01ED91FC910190F081E02D6DE04A
:1025C00009957C01D801ED91FC910190F081E02DFD
:1025D000C8016AE009959C012E0D3F1DC9011F919C
:1025E0000F91FF90EF900895CF93DF93EC01611569
:1025F000710519F420E030E00FC0DB010D900020E0
:10260000E9F71197A61BB70BE881F9810280F381E6
:10261000E02DAD0109959C01C901DF91CF9108958D
:102620004F925F927F928F929F92AF92BF92CF9282
:10263000DF92EF92FF920F931F93DF93CF93CDB76B
:10264000DEB7A1970FB6F894DEBF0FBECDBF2C0149
:10265000742ECB01223008F42AE019A231E2C32EF5
:10266000D12CCC0EDD1E822E9924AA24BB24672DEA
:10267000752FA50194010E947F1579018A01C80177
:10268000B701A50194010E944115472D461B0894EE
:10269000C108D1084A3014F4405D01C0495CF6011C
:1026A0004083E114F1040105110521F07E2C5F2D1A
:1026B000C801DDCFC201B6010E94F412A1960FB687
:1026C000F894DEBF0FBECDBFCF91DF911F910F9168
:1026D000FF90EF90DF90CF90BF90AF909F908F9042
:1026E0007F905F904F900895DC012115310541F4F2
:1026F000ED91FC910190F081E02D642F09950895F2
:102700000E9410130895CF92DF92EF92FF920F93E1
:102710001F936C01E62E9A01FF2400E010E0B8013F
:10272000A7010E9474138C01C6010E94D412080FE5
:10273000191FC8011F910F91FF90EF90DF90CF906C
:102740000895CF92DF92EF92FF920F931F93CF9352
:10275000DF93EC016A017B012115310541F4E88129
:10276000F9810190F081E02D642F09951FC02A3076
:102770003105D1F477FF17C0E881F9810190F0812C
:10278000E02D6DE209958C0144275527BA014C19BB
:102790005D096E097F09CE012AE00E94101398019D
:1027A000280F391F04C02AE00E9410139C01C901A0
:1027B000DF91CF911F910F91FF90EF90DF90CF901D
:1027C0000895EF92FF920F931F937C010E94A11333
:1027D0008C01C7010E94D4129C01200F311FC90136
:1027E0001F910F91FF90EF900895EF92FF920F933A
:1027F0001F937B019A010027F7FC0095102FB80169
:10280000A7010E94A1131F910F91FF90EF900895CF
:10281000CF92DF92EF92FF920F931F936C017B0197
:102820009A010027F7FC0095102FB801A7010E941C
:10283000A1138C01C6010E94D412080F191FC801F0
:102840001F910F91FF90EF90DF90CF9008950E941D
:10285000F4120895EF92FF920F931F937C010E9450
:10286000F4128C01C7010E94D412080F191FC8016D
:102870001F910F91FF90EF900895CF93DF93EC019C
:102880000E94A00E688779878A879B87E881F981F3
:102890000084F185E02DCE0109959C0197FF15C0BC
:1028A0000E94A00E288539854A855B85621B730BC3
:1028B000840B950B2C813D814E815F8162177307DC
:1028C0008407950718F32FEF3FEFC901DF91CF91F0
:1028D0000895CF93DF93EC01CE010E943D149C013B
:1028E00097FD0EC08D32910559F0C0970A9740F0C0
:1028F000E881F9810680F781E02DCE010995ECCFC2
:10290000C901DF91CF9108959F92AF92BF92CF926C
:10291000DF92EF92FF920F931F93CF93DF936C019F
:10292000B62E0E946914EC0197FF04C0EE24FF2428
:1029300087014CC09924EE24FF248701AB2CBB24D3
:10294000A7FCB094CA15DB0529F1CD32D10519F4E5
:10295000992493941FC0CE01C0970A97D8F4C80158
:10296000B7012AE030E040E050E00E9441157B01D1
:102970008C01CE01AA2797FDA095BA2FE80EF91E6B
:102980000A1F1B1F80ED9FEFAFEFBFEFE80EF91E90
:102990000A1F1B1FD601ED91FC910680F781E02DE7
:1029A000C6010995C6010E943D14EC01C0970A9723
:1029B00048F2CA15DB0531F2992041F010950095D7
:1029C000F094E094E11CF11C011D111DB701C80138
:1029D000DF91CF911F910F91FF90EF90DF90CF90FB
:1029E000BF90AF909F90089561E00E948414089575
:1029F0002F923F924F925F926F927F928F929F920F
:102A0000AF92BF92CF92DF92EF92FF920F931F93FC
:102A1000DF93CF93CDB7DEB73B014C0119012A01FB
:102A20006D897E898F89988D6A197B098C099D092A
:102A3000621A730A840A950AA40193010E9441153F
:102A4000E218F30804091509A80197010E94A115CD
:102A50002A0D3B1D4C1D5D1DB901CA01CF91DF91AF
:102A60001F910F91FF90EF90DF90CF90BF90AF90AC
:102A70009F908F907F906F905F904F903F902F909E
:102A80000895629FD001739FF001829FE00DF11DB8
:102A9000649FE00DF11D929FF00D839FF00D749FD8
:102AA000F00D659FF00D9927729FB00DE11DF91F84
:102AB000639FB00DE11DF91FBD01CF0111240895E1
:102AC000991B79E004C0991F961708F0961B881F80
:102AD0007A95C9F78095089597FB092E07260AD0A5
:102AE00077FD04D049D006D000201AF47095619586
:102AF0007F4F0895F6F7909581959F4F0895A1E235
:102B00001A2EAA1BBB1BFD010DC0AA1FBB1FEE1F67
:102B1000FF1FA217B307E407F50720F0A21BB30BB2
:102B2000E40BF50B661F771F881F991F1A9469F72E
:102B300060957095809590959B01AC01BD01CF018A
:102B4000089597FB092E05260ED057FD04D0D7DF38
:102B50000AD0001C38F450954095309521953F4F90
:102B60004F4F5F4F0895F6F790958095709561955A
:102B70007F4F8F4F9F4F0895AA1BBB1B51E107C08A
:102B8000AA1FBB1FA617B70710F0A61BB70B881FFD
:102B9000991F5A95A9F780959095BC01CD0108958C
:102BA000EE0FFF1F0590F491E02D099411E0C4E6AB
:102BB000D1E004C0FE010E94D2152296C636D1078C
:062BC000C9F7F894FFCFF5
:102BC60054696C74696E6720746F20736D616C6CE8
:102BD600657220646567726565210054696C746965
:102BE6006E6720746F206C6172676572206465671A
:102BF600726565210054696C74696E6720746F2074
:102C060073616D6520646567726565005A20617839
:102C1600697320636C6F636B7769736520726F7479
:102C260061746520666F723A2000206D696C6C696C
:102C36007365636F6E647321005A2061786973202F
:102C4600616E7469636C6F636B7769736520726F0D
:102C56007461746520666F723A200057726F6E67F2
:102C660020706172616D65746572206F66205A20EE
:102C76006178697320726F746174696F6E2074690C
:102C86006D653A20004D6F766520486F6C646572FD
:102C960020557021004D6F766520486F6C64657213
:102CA60020446F776E2100446156696E6369204641
:102CB60069726D77617265203C76657273696F6EB5
:102CC60020332E363E005475726E206F6666204E97
:102CD6006F2E312052656C617920746F20706C758F
:102CE6006720696E204E6F2E3120555342210054C5
:102CF60075726E206F6666204E6F2E322052656C9E
:102D0600617920746F20706C756720696E204E6F34
:102D16002E322055534221005475726E206F6E205C
:102D26004E6F2E312052656C617920746F20706C65
:102D36007567206F7574204E6F2E312055534221D2
:102D4600005475726E206F6E204E6F2E32205265C3
:102D56006C617920746F20706C7567206F757420B4
:102D66004E6F2E32205553422100507265737320E8
:102D760074686520706F77657220627574746F6E03
:102D8600210052656C656173652074686520706FFB
:102D960077657220627574746F6E210053686F7266
:102DA600742070726573732074686520706F776520
:102DB6007220627574746F6E20666F723A20004CD2
:102DC6006F6E672050726573732074686520706F2C
:102DD60077657220627574746F6E20666F723A2022
:102DE60000506C756720696E207468652065617295
:102DF60070686F6E652100506C7567206F75742062
:102E06007468652065617270686F6E652100526531
:102E16006164207374617475733A207265616479B4
:102E260000556E6B6E6F776E20617267756D656E9D
:102E3600743A2000464652442049443A2000582D10
:102E46005920617869732074696C74696E672070A3
:102E56006C6174652065786973747321005A20610A
:102E66007869732074696C74696E6720706C61741C
:102E76006520646F65736E277420657869737421A5
:102E86000043616D65726120686F6C646572206CC9
:102E96006966746572206578697374732100506F72
:102EA6007765722070757368657220646F65736EDE
:102EB6002774206578697374210045617270686FA4
:102EC6006E6520706C756767657220646F65736EDA
:102ED6002774206578697374210055534220637501
:102EE6007474657220657869737473210052656C19
:102EF600617920636F6E74726F6C6C657220646F9B
:102F060065736E277420657869737421005468654B
:102F1600207370656564206F6620736572766F2016
:102F26006D6F746F72204E6F2E002069733A200009
:102F360054686520616E676C65206F6620736572E4
:102F4600766F206D6F746F72204E6F2E0041726D1A
:102F560020002074696C74696E6720746F20646544
:102F6600677265653A20002C2073706565643A20A7
:102F76000041726D203020746F206465677265654C
:102F86003A200041726D203120746F2064656772AB
:102F960065653A2000556E6B6E6F776E20636F6DB8
:102FA6006D616E643A2000436F6D6D616E642069D9
:102FB60073206E6F742066696E697368656421009C
:102FC6005A005A0000000000F50CAA12DB0CBA0CDD
:102FD600B80DA70D000000000312AA129911CA111C
:042FE600AA11F31128
:00000001FF
